{
	"RWAPSSF.sol": {
		"RPS": {
			"abi": [
				{
					"anonymous": false,
					"inputs": [
						{
							"indexed": false,
							"internalType": "address",
							"name": "sender",
							"type": "address"
						},
						{
							"indexed": false,
							"internalType": "bytes32",
							"name": "dataHash",
							"type": "bytes32"
						}
					],
					"name": "CommitHash",
					"type": "event"
				},
				{
					"anonymous": false,
					"inputs": [
						{
							"indexed": false,
							"internalType": "address",
							"name": "sender",
							"type": "address"
						},
						{
							"indexed": false,
							"internalType": "bytes32",
							"name": "answer",
							"type": "bytes32"
						},
						{
							"indexed": false,
							"internalType": "bytes32",
							"name": "salt",
							"type": "bytes32"
						}
					],
					"name": "RevealAnswer",
					"type": "event"
				},
				{
					"inputs": [],
					"name": "MAX_PLAYERS",
					"outputs": [
						{
							"internalType": "uint256",
							"name": "",
							"type": "uint256"
						}
					],
					"stateMutability": "view",
					"type": "function"
				},
				{
					"inputs": [],
					"name": "TIMEOUT",
					"outputs": [
						{
							"internalType": "uint256",
							"name": "",
							"type": "uint256"
						}
					],
					"stateMutability": "view",
					"type": "function"
				},
				{
					"inputs": [],
					"name": "addPlayer",
					"outputs": [],
					"stateMutability": "payable",
					"type": "function"
				},
				{
					"inputs": [],
					"name": "checkTimeout",
					"outputs": [],
					"stateMutability": "nonpayable",
					"type": "function"
				},
				{
					"inputs": [
						{
							"internalType": "bytes32",
							"name": "choiceHash",
							"type": "bytes32"
						}
					],
					"name": "commitChoice",
					"outputs": [],
					"stateMutability": "nonpayable",
					"type": "function"
				},
				{
					"inputs": [
						{
							"internalType": "enum RPS.Choice",
							"name": "choice",
							"type": "uint8"
						},
						{
							"internalType": "uint256",
							"name": "salt",
							"type": "uint256"
						}
					],
					"name": "getChoiceHash",
					"outputs": [
						{
							"internalType": "bytes32",
							"name": "",
							"type": "bytes32"
						}
					],
					"stateMutability": "view",
					"type": "function"
				},
				{
					"inputs": [],
					"name": "latestActionTimestamp",
					"outputs": [
						{
							"internalType": "uint256",
							"name": "",
							"type": "uint256"
						}
					],
					"stateMutability": "view",
					"type": "function"
				},
				{
					"inputs": [],
					"name": "numCommit",
					"outputs": [
						{
							"internalType": "uint256",
							"name": "",
							"type": "uint256"
						}
					],
					"stateMutability": "view",
					"type": "function"
				},
				{
					"inputs": [],
					"name": "numPlayer",
					"outputs": [
						{
							"internalType": "uint256",
							"name": "",
							"type": "uint256"
						}
					],
					"stateMutability": "view",
					"type": "function"
				},
				{
					"inputs": [],
					"name": "numRevealed",
					"outputs": [
						{
							"internalType": "uint256",
							"name": "",
							"type": "uint256"
						}
					],
					"stateMutability": "view",
					"type": "function"
				},
				{
					"inputs": [
						{
							"internalType": "uint256",
							"name": "",
							"type": "uint256"
						}
					],
					"name": "player",
					"outputs": [
						{
							"internalType": "enum RPS.Choice",
							"name": "choice",
							"type": "uint8"
						},
						{
							"internalType": "address",
							"name": "addr",
							"type": "address"
						},
						{
							"internalType": "uint256",
							"name": "fund",
							"type": "uint256"
						}
					],
					"stateMutability": "view",
					"type": "function"
				},
				{
					"inputs": [
						{
							"internalType": "address",
							"name": "",
							"type": "address"
						}
					],
					"name": "playerIdx",
					"outputs": [
						{
							"internalType": "uint256",
							"name": "",
							"type": "uint256"
						}
					],
					"stateMutability": "view",
					"type": "function"
				},
				{
					"inputs": [
						{
							"internalType": "enum RPS.Choice",
							"name": "choice",
							"type": "uint8"
						},
						{
							"internalType": "uint256",
							"name": "salt",
							"type": "uint256"
						}
					],
					"name": "revealChoice",
					"outputs": [],
					"stateMutability": "nonpayable",
					"type": "function"
				},
				{
					"inputs": [],
					"name": "reward",
					"outputs": [
						{
							"internalType": "uint256",
							"name": "",
							"type": "uint256"
						}
					],
					"stateMutability": "view",
					"type": "function"
				}
			],
			"devdoc": {
				"kind": "dev",
				"methods": {},
				"version": 1
			},
			"evm": {
				"assembly": "    /* \"RWAPSSF.sol\":104:7021  contract RPS is CommitReveal {... */\n  mstore(0x40, 0x80)\n    /* \"CommitReveal.sol\":118:121  100 */\n  0x64\n    /* \"CommitReveal.sol\":97:121  uint8 internal max = 100 */\n  0x00\n  dup1\n  0x0100\n  exp\n  dup2\n  sload\n  dup2\n  0xff\n  mul\n  not\n  and\n  swap1\n  dup4\n  0xff\n  and\n  mul\n  or\n  swap1\n  sstore\n  pop\n    /* \"RWAPSSF.sol\":536:537  0 */\n  0x00\n    /* \"RWAPSSF.sol\":509:537  uint256 public numPlayer = 0 */\n  0x04\n  sstore\n    /* \"RWAPSSF.sol\":568:569  0 */\n  0x00\n    /* \"RWAPSSF.sol\":544:569  uint256 public reward = 0 */\n  0x05\n  sstore\n    /* \"RWAPSSF.sol\":603:604  0 */\n  0x00\n    /* \"RWAPSSF.sol\":576:604  uint256 public numCommit = 0 */\n  0x06\n  sstore\n    /* \"RWAPSSF.sol\":640:641  0 */\n  0x00\n    /* \"RWAPSSF.sol\":611:641  uint256 public numRevealed = 0 */\n  0x07\n  sstore\n    /* \"RWAPSSF.sol\":687:688  0 */\n  0x00\n    /* \"RWAPSSF.sol\":648:688  uint256 public latestActionTimestamp = 0 */\n  0x08\n  sstore\n    /* \"RWAPSSF.sol\":104:7021  contract RPS is CommitReveal {... */\n  callvalue\n  dup1\n  iszero\n  tag_1\n  jumpi\n  0x00\n  dup1\n  revert\ntag_1:\n  pop\n  dataSize(sub_0)\n  dup1\n  dataOffset(sub_0)\n  0x00\n  codecopy\n  0x00\n  return\nstop\n\nsub_0: assembly {\n        /* \"RWAPSSF.sol\":104:7021  contract RPS is CommitReveal {... */\n      mstore(0x40, 0x80)\n      jumpi(tag_1, lt(calldatasize, 0x04))\n      shr(0xe0, calldataload(0x00))\n      dup1\n      0x90d5d0c3\n      gt\n      tag_16\n      jumpi\n      dup1\n      0xae73ea65\n      gt\n      tag_17\n      jumpi\n      dup1\n      0xae73ea65\n      eq\n      tag_12\n      jumpi\n      dup1\n      0xb40cac8c\n      eq\n      tag_13\n      jumpi\n      dup1\n      0xe05b10c0\n      eq\n      tag_14\n      jumpi\n      dup1\n      0xf56f48f2\n      eq\n      tag_15\n      jumpi\n      jump(tag_1)\n    tag_17:\n      dup1\n      0x90d5d0c3\n      eq\n      tag_9\n      jumpi\n      dup1\n      0x929dfff2\n      eq\n      tag_10\n      jumpi\n      dup1\n      0x9e0551c6\n      eq\n      tag_11\n      jumpi\n      jump(tag_1)\n    tag_16:\n      dup1\n      0x27b5db8a\n      gt\n      tag_18\n      jumpi\n      dup1\n      0x27b5db8a\n      eq\n      tag_5\n      jumpi\n      dup1\n      0x4411b3eb\n      eq\n      tag_6\n      jumpi\n      dup1\n      0x50899a1e\n      eq\n      tag_7\n      jumpi\n      dup1\n      0x76d4192c\n      eq\n      tag_8\n      jumpi\n      jump(tag_1)\n    tag_18:\n      dup1\n      0x09bbd6a0\n      eq\n      tag_2\n      jumpi\n      dup1\n      0x0c0b568d\n      eq\n      tag_3\n      jumpi\n      dup1\n      0x228cb733\n      eq\n      tag_4\n      jumpi\n    tag_1:\n      0x00\n      dup1\n      revert\n        /* \"RWAPSSF.sol\":4712:6641  function checkTimeout() public {... */\n    tag_2:\n      callvalue\n      dup1\n      iszero\n      tag_19\n      jumpi\n      0x00\n      dup1\n      revert\n    tag_19:\n      pop\n      tag_20\n      tag_21\n      jump\t// in\n    tag_20:\n      stop\n        /* \"RWAPSSF.sol\":1934:2579  function revealChoice(Choice choice, uint256 salt) public {... */\n    tag_3:\n      callvalue\n      dup1\n      iszero\n      tag_22\n      jumpi\n      0x00\n      dup1\n      revert\n    tag_22:\n      pop\n      tag_23\n      0x04\n      dup1\n      calldatasize\n      sub\n      dup2\n      add\n      swap1\n      tag_24\n      swap2\n      swap1\n      tag_25\n      jump\t// in\n    tag_24:\n      tag_26\n      jump\t// in\n    tag_23:\n      stop\n        /* \"RWAPSSF.sol\":544:569  uint256 public reward = 0 */\n    tag_4:\n      callvalue\n      dup1\n      iszero\n      tag_27\n      jumpi\n      0x00\n      dup1\n      revert\n    tag_27:\n      pop\n      tag_28\n      tag_29\n      jump\t// in\n    tag_28:\n      mload(0x40)\n      tag_30\n      swap2\n      swap1\n      tag_31\n      jump\t// in\n    tag_30:\n      mload(0x40)\n      dup1\n      swap2\n      sub\n      swap1\n      return\n        /* \"RWAPSSF.sol\":697:1143  function addPlayer() public payable {... */\n    tag_5:\n      tag_32\n      tag_33\n      jump\t// in\n    tag_32:\n      stop\n        /* \"RWAPSSF.sol\":360:399  uint256 public constant MAX_PLAYERS = 3 */\n    tag_6:\n      callvalue\n      dup1\n      iszero\n      tag_34\n      jumpi\n      0x00\n      dup1\n      revert\n    tag_34:\n      pop\n      tag_35\n      tag_36\n      jump\t// in\n    tag_35:\n      mload(0x40)\n      tag_37\n      swap2\n      swap1\n      tag_31\n      jump\t// in\n    tag_37:\n      mload(0x40)\n      dup1\n      swap2\n      sub\n      swap1\n      return\n        /* \"RWAPSSF.sol\":648:688  uint256 public latestActionTimestamp = 0 */\n    tag_7:\n      callvalue\n      dup1\n      iszero\n      tag_38\n      jumpi\n      0x00\n      dup1\n      revert\n    tag_38:\n      pop\n      tag_39\n      tag_40\n      jump\t// in\n    tag_39:\n      mload(0x40)\n      tag_41\n      swap2\n      swap1\n      tag_31\n      jump\t// in\n    tag_41:\n      mload(0x40)\n      dup1\n      swap2\n      sub\n      swap1\n      return\n        /* \"RWAPSSF.sol\":611:641  uint256 public numRevealed = 0 */\n    tag_8:\n      callvalue\n      dup1\n      iszero\n      tag_42\n      jumpi\n      0x00\n      dup1\n      revert\n    tag_42:\n      pop\n      tag_43\n      tag_44\n      jump\t// in\n    tag_43:\n      mload(0x40)\n      tag_45\n      swap2\n      swap1\n      tag_31\n      jump\t// in\n    tag_45:\n      mload(0x40)\n      dup1\n      swap2\n      sub\n      swap1\n      return\n        /* \"RWAPSSF.sol\":509:537  uint256 public numPlayer = 0 */\n    tag_9:\n      callvalue\n      dup1\n      iszero\n      tag_46\n      jumpi\n      0x00\n      dup1\n      revert\n    tag_46:\n      pop\n      tag_47\n      tag_48\n      jump\t// in\n    tag_47:\n      mload(0x40)\n      tag_49\n      swap2\n      swap1\n      tag_31\n      jump\t// in\n    tag_49:\n      mload(0x40)\n      dup1\n      swap2\n      sub\n      swap1\n      return\n        /* \"RWAPSSF.sol\":576:604  uint256 public numCommit = 0 */\n    tag_10:\n      callvalue\n      dup1\n      iszero\n      tag_50\n      jumpi\n      0x00\n      dup1\n      revert\n    tag_50:\n      pop\n      tag_51\n      tag_52\n      jump\t// in\n    tag_51:\n      mload(0x40)\n      tag_53\n      swap2\n      swap1\n      tag_31\n      jump\t// in\n    tag_53:\n      mload(0x40)\n      dup1\n      swap2\n      sub\n      swap1\n      return\n        /* \"RWAPSSF.sol\":408:448  mapping(uint256 => Player) public player */\n    tag_11:\n      callvalue\n      dup1\n      iszero\n      tag_54\n      jumpi\n      0x00\n      dup1\n      revert\n    tag_54:\n      pop\n      tag_55\n      0x04\n      dup1\n      calldatasize\n      sub\n      dup2\n      add\n      swap1\n      tag_56\n      swap2\n      swap1\n      tag_57\n      jump\t// in\n    tag_56:\n      tag_58\n      jump\t// in\n    tag_55:\n      mload(0x40)\n      tag_59\n      swap4\n      swap3\n      swap2\n      swap1\n      tag_60\n      jump\t// in\n    tag_59:\n      mload(0x40)\n      dup1\n      swap2\n      sub\n      swap1\n      return\n        /* \"RWAPSSF.sol\":455:499  mapping(address => uint256) public playerIdx */\n    tag_12:\n      callvalue\n      dup1\n      iszero\n      tag_61\n      jumpi\n      0x00\n      dup1\n      revert\n    tag_61:\n      pop\n      tag_62\n      0x04\n      dup1\n      calldatasize\n      sub\n      dup2\n      add\n      swap1\n      tag_63\n      swap2\n      swap1\n      tag_64\n      jump\t// in\n    tag_63:\n      tag_65\n      jump\t// in\n    tag_62:\n      mload(0x40)\n      tag_66\n      swap2\n      swap1\n      tag_31\n      jump\t// in\n    tag_66:\n      mload(0x40)\n      dup1\n      swap2\n      sub\n      swap1\n      return\n        /* \"RWAPSSF.sol\":1151:1403  function getChoiceHash(Choice choice, uint256 salt)... */\n    tag_13:\n      callvalue\n      dup1\n      iszero\n      tag_67\n      jumpi\n      0x00\n      dup1\n      revert\n    tag_67:\n      pop\n      tag_68\n      0x04\n      dup1\n      calldatasize\n      sub\n      dup2\n      add\n      swap1\n      tag_69\n      swap2\n      swap1\n      tag_25\n      jump\t// in\n    tag_69:\n      tag_70\n      jump\t// in\n    tag_68:\n      mload(0x40)\n      tag_71\n      swap2\n      swap1\n      tag_72\n      jump\t// in\n    tag_71:\n      mload(0x40)\n      dup1\n      swap2\n      sub\n      swap1\n      return\n        /* \"RWAPSSF.sol\":1411:1926  function commitChoice(bytes32 choiceHash) public {... */\n    tag_14:\n      callvalue\n      dup1\n      iszero\n      tag_73\n      jumpi\n      0x00\n      dup1\n      revert\n    tag_73:\n      pop\n      tag_74\n      0x04\n      dup1\n      calldatasize\n      sub\n      dup2\n      add\n      swap1\n      tag_75\n      swap2\n      swap1\n      tag_76\n      jump\t// in\n    tag_75:\n      tag_77\n      jump\t// in\n    tag_74:\n      stop\n        /* \"RWAPSSF.sol\":311:351  uint256 public constant TIMEOUT = 1 days */\n    tag_15:\n      callvalue\n      dup1\n      iszero\n      tag_78\n      jumpi\n      0x00\n      dup1\n      revert\n    tag_78:\n      pop\n      tag_79\n      tag_80\n      jump\t// in\n    tag_79:\n      mload(0x40)\n      tag_81\n      swap2\n      swap1\n      tag_31\n      jump\t// in\n    tag_81:\n      mload(0x40)\n      dup1\n      swap2\n      sub\n      swap1\n      return\n        /* \"RWAPSSF.sol\":4712:6641  function checkTimeout() public {... */\n    tag_21:\n        /* \"RWAPSSF.sol\":345:351  1 days */\n      0x015180\n        /* \"RWAPSSF.sol\":4780:4801  latestActionTimestamp */\n      sload(0x08)\n        /* \"RWAPSSF.sol\":4780:4811  latestActionTimestamp + TIMEOUT */\n      tag_83\n      swap2\n      swap1\n      tag_84\n      jump\t// in\n    tag_83:\n        /* \"RWAPSSF.sol\":4762:4777  block.timestamp */\n      timestamp\n        /* \"RWAPSSF.sol\":4762:4811  block.timestamp > latestActionTimestamp + TIMEOUT */\n      gt\n        /* \"RWAPSSF.sol\":4754:4844  require(block.timestamp > latestActionTimestamp + TIMEOUT, \"Timeout has not occurred yet\") */\n      tag_85\n      jumpi\n      mload(0x40)\n      0x08c379a000000000000000000000000000000000000000000000000000000000\n      dup2\n      mstore\n      0x04\n      add\n      tag_86\n      swap1\n      tag_87\n      jump\t// in\n    tag_86:\n      mload(0x40)\n      dup1\n      swap2\n      sub\n      swap1\n      revert\n    tag_85:\n        /* \"RWAPSSF.sol\":4877:4883  player */\n      0x02\n        /* \"RWAPSSF.sol\":4877:4886  player[0] */\n      0x00\n        /* \"RWAPSSF.sol\":4884:4885  0 */\n      dup1\n        /* \"RWAPSSF.sol\":4877:4886  player[0] */\n      dup2\n      mstore\n      0x20\n      add\n      swap1\n      dup2\n      mstore\n      0x20\n      add\n      0x00\n      keccak256\n        /* \"RWAPSSF.sol\":4877:4891  player[0].addr */\n      0x00\n      add\n      0x01\n      swap1\n      sload\n      swap1\n      0x0100\n      exp\n      swap1\n      div\n      0xffffffffffffffffffffffffffffffffffffffff\n      and\n        /* \"RWAPSSF.sol\":4863:4891  msg.sender == player[0].addr */\n      0xffffffffffffffffffffffffffffffffffffffff\n      and\n        /* \"RWAPSSF.sol\":4863:4873  msg.sender */\n      caller\n        /* \"RWAPSSF.sol\":4863:4891  msg.sender == player[0].addr */\n      0xffffffffffffffffffffffffffffffffffffffff\n      and\n      eq\n        /* \"RWAPSSF.sol\":4863:4923  msg.sender == player[0].addr || msg.sender == player[1].addr */\n      dup1\n      tag_88\n      jumpi\n      pop\n        /* \"RWAPSSF.sol\":4909:4915  player */\n      0x02\n        /* \"RWAPSSF.sol\":4909:4918  player[1] */\n      0x00\n        /* \"RWAPSSF.sol\":4916:4917  1 */\n      0x01\n        /* \"RWAPSSF.sol\":4909:4918  player[1] */\n      dup2\n      mstore\n      0x20\n      add\n      swap1\n      dup2\n      mstore\n      0x20\n      add\n      0x00\n      keccak256\n        /* \"RWAPSSF.sol\":4909:4923  player[1].addr */\n      0x00\n      add\n      0x01\n      swap1\n      sload\n      swap1\n      0x0100\n      exp\n      swap1\n      div\n      0xffffffffffffffffffffffffffffffffffffffff\n      and\n        /* \"RWAPSSF.sol\":4895:4923  msg.sender == player[1].addr */\n      0xffffffffffffffffffffffffffffffffffffffff\n      and\n        /* \"RWAPSSF.sol\":4895:4905  msg.sender */\n      caller\n        /* \"RWAPSSF.sol\":4895:4923  msg.sender == player[1].addr */\n      0xffffffffffffffffffffffffffffffffffffffff\n      and\n      eq\n        /* \"RWAPSSF.sol\":4863:4923  msg.sender == player[0].addr || msg.sender == player[1].addr */\n    tag_88:\n        /* \"RWAPSSF.sol\":4863:4955  msg.sender == player[0].addr || msg.sender == player[1].addr || msg.sender == player[2].addr */\n      dup1\n      tag_89\n      jumpi\n      pop\n        /* \"RWAPSSF.sol\":4941:4947  player */\n      0x02\n        /* \"RWAPSSF.sol\":4941:4950  player[2] */\n      0x00\n        /* \"RWAPSSF.sol\":4948:4949  2 */\n      0x02\n        /* \"RWAPSSF.sol\":4941:4950  player[2] */\n      dup2\n      mstore\n      0x20\n      add\n      swap1\n      dup2\n      mstore\n      0x20\n      add\n      0x00\n      keccak256\n        /* \"RWAPSSF.sol\":4941:4955  player[2].addr */\n      0x00\n      add\n      0x01\n      swap1\n      sload\n      swap1\n      0x0100\n      exp\n      swap1\n      div\n      0xffffffffffffffffffffffffffffffffffffffff\n      and\n        /* \"RWAPSSF.sol\":4927:4955  msg.sender == player[2].addr */\n      0xffffffffffffffffffffffffffffffffffffffff\n      and\n        /* \"RWAPSSF.sol\":4927:4937  msg.sender */\n      caller\n        /* \"RWAPSSF.sol\":4927:4955  msg.sender == player[2].addr */\n      0xffffffffffffffffffffffffffffffffffffffff\n      and\n      eq\n        /* \"RWAPSSF.sol\":4863:4955  msg.sender == player[0].addr || msg.sender == player[1].addr || msg.sender == player[2].addr */\n    tag_89:\n        /* \"RWAPSSF.sol\":4855:4974  require(msg.sender == player[0].addr || msg.sender == player[1].addr || msg.sender == player[2].addr, \"Invalid sender\") */\n      tag_90\n      jumpi\n      mload(0x40)\n      0x08c379a000000000000000000000000000000000000000000000000000000000\n      dup2\n      mstore\n      0x04\n      add\n      tag_91\n      swap1\n      tag_92\n      jump\t// in\n    tag_91:\n      mload(0x40)\n      dup1\n      swap2\n      sub\n      swap1\n      revert\n    tag_90:\n        /* \"RWAPSSF.sol\":5005:5006  0 */\n      0x00\n        /* \"RWAPSSF.sol\":4993:5002  numPlayer */\n      sload(0x04)\n        /* \"RWAPSSF.sol\":4993:5006  numPlayer > 0 */\n      gt\n        /* \"RWAPSSF.sol\":4985:5032  require(numPlayer > 0, \"No players registered\") */\n      tag_93\n      jumpi\n      mload(0x40)\n      0x08c379a000000000000000000000000000000000000000000000000000000000\n      dup2\n      mstore\n      0x04\n      add\n      tag_94\n      swap1\n      tag_95\n      jump\t// in\n    tag_94:\n      mload(0x40)\n      dup1\n      swap2\n      sub\n      swap1\n      revert\n    tag_93:\n        /* \"RWAPSSF.sol\":5047:5071  address payable account0 */\n      0x00\n        /* \"RWAPSSF.sol\":5082:5088  player */\n      0x02\n        /* \"RWAPSSF.sol\":5082:5091  player[0] */\n      0x00\n        /* \"RWAPSSF.sol\":5089:5090  0 */\n      dup1\n        /* \"RWAPSSF.sol\":5082:5091  player[0] */\n      dup2\n      mstore\n      0x20\n      add\n      swap1\n      dup2\n      mstore\n      0x20\n      add\n      0x00\n      keccak256\n        /* \"RWAPSSF.sol\":5082:5096  player[0].addr */\n      0x00\n      add\n      0x01\n      swap1\n      sload\n      swap1\n      0x0100\n      exp\n      swap1\n      div\n      0xffffffffffffffffffffffffffffffffffffffff\n      and\n        /* \"RWAPSSF.sol\":5047:5097  address payable account0 = payable(player[0].addr) */\n      swap1\n      pop\n        /* \"RWAPSSF.sol\":398:399  3 */\n      0x03\n        /* \"RWAPSSF.sol\":5185:5194  numPlayer */\n      sload(0x04)\n        /* \"RWAPSSF.sol\":5185:5208  numPlayer < MAX_PLAYERS */\n      lt\n        /* \"RWAPSSF.sol\":5181:5320  if (numPlayer < MAX_PLAYERS) {... */\n      iszero\n      tag_96\n      jumpi\n        /* \"RWAPSSF.sol\":5225:5233  account0 */\n      dup1\n        /* \"RWAPSSF.sol\":5225:5242  account0.transfer */\n      0xffffffffffffffffffffffffffffffffffffffff\n      and\n        /* \"RWAPSSF.sol\":5225:5250  account0.transfer(reward) */\n      0x08fc\n        /* \"RWAPSSF.sol\":5243:5249  reward */\n      sload(0x05)\n        /* \"RWAPSSF.sol\":5225:5250  account0.transfer(reward) */\n      swap1\n      dup2\n      iszero\n      mul\n      swap1\n      mload(0x40)\n      0x00\n      mload(0x40)\n      dup1\n      dup4\n      sub\n      dup2\n      dup6\n      dup9\n      dup9\n      call\n      swap4\n      pop\n      pop\n      pop\n      pop\n      iszero\n      dup1\n      iszero\n      tag_98\n      jumpi\n      returndatasize\n      0x00\n      dup1\n      returndatacopy\n      revert(0x00, returndatasize)\n    tag_98:\n      pop\n        /* \"RWAPSSF.sol\":5279:5287  _reset() */\n      tag_99\n        /* \"RWAPSSF.sol\":5279:5285  _reset */\n      tag_100\n        /* \"RWAPSSF.sol\":5279:5287  _reset() */\n      jump\t// in\n    tag_99:\n        /* \"RWAPSSF.sol\":5302:5309  return; */\n      pop\n      jump(tag_82)\n        /* \"RWAPSSF.sol\":5181:5320  if (numPlayer < MAX_PLAYERS) {... */\n    tag_96:\n        /* \"RWAPSSF.sol\":5332:5356  address payable account1 */\n      0x00\n        /* \"RWAPSSF.sol\":5367:5373  player */\n      0x02\n        /* \"RWAPSSF.sol\":5367:5376  player[1] */\n      0x00\n        /* \"RWAPSSF.sol\":5374:5375  1 */\n      0x01\n        /* \"RWAPSSF.sol\":5367:5376  player[1] */\n      dup2\n      mstore\n      0x20\n      add\n      swap1\n      dup2\n      mstore\n      0x20\n      add\n      0x00\n      keccak256\n        /* \"RWAPSSF.sol\":5367:5381  player[1].addr */\n      0x00\n      add\n      0x01\n      swap1\n      sload\n      swap1\n      0x0100\n      exp\n      swap1\n      div\n      0xffffffffffffffffffffffffffffffffffffffff\n      and\n        /* \"RWAPSSF.sol\":5332:5382  address payable account1 = payable(player[1].addr) */\n      swap1\n      pop\n        /* \"RWAPSSF.sol\":5530:5531  2 */\n      0x02\n        /* \"RWAPSSF.sol\":5518:5527  numCommit */\n      sload(0x06)\n        /* \"RWAPSSF.sol\":5518:5531  numCommit < 2 */\n      lt\n        /* \"RWAPSSF.sol\":5518:5551  numCommit < 2 || numRevealed == 0 */\n      dup1\n      tag_101\n      jumpi\n      pop\n        /* \"RWAPSSF.sol\":5550:5551  0 */\n      0x00\n        /* \"RWAPSSF.sol\":5535:5546  numRevealed */\n      sload(0x07)\n        /* \"RWAPSSF.sol\":5535:5551  numRevealed == 0 */\n      eq\n        /* \"RWAPSSF.sol\":5518:5551  numCommit < 2 || numRevealed == 0 */\n    tag_101:\n        /* \"RWAPSSF.sol\":5514:5719  if (numCommit < 2 || numRevealed == 0) {... */\n      iszero\n      tag_102\n      jumpi\n        /* \"RWAPSSF.sol\":5568:5576  account0 */\n      dup2\n        /* \"RWAPSSF.sol\":5568:5585  account0.transfer */\n      0xffffffffffffffffffffffffffffffffffffffff\n      and\n        /* \"RWAPSSF.sol\":5568:5601  account0.transfer(player[0].fund) */\n      0x08fc\n        /* \"RWAPSSF.sol\":5586:5592  player */\n      0x02\n        /* \"RWAPSSF.sol\":5586:5595  player[0] */\n      0x00\n        /* \"RWAPSSF.sol\":5593:5594  0 */\n      dup1\n        /* \"RWAPSSF.sol\":5586:5595  player[0] */\n      dup2\n      mstore\n      0x20\n      add\n      swap1\n      dup2\n      mstore\n      0x20\n      add\n      0x00\n      keccak256\n        /* \"RWAPSSF.sol\":5586:5600  player[0].fund */\n      0x01\n      add\n      sload\n        /* \"RWAPSSF.sol\":5568:5601  account0.transfer(player[0].fund) */\n      swap1\n      dup2\n      iszero\n      mul\n      swap1\n      mload(0x40)\n      0x00\n      mload(0x40)\n      dup1\n      dup4\n      sub\n      dup2\n      dup6\n      dup9\n      dup9\n      call\n      swap4\n      pop\n      pop\n      pop\n      pop\n      iszero\n      dup1\n      iszero\n      tag_104\n      jumpi\n      returndatasize\n      0x00\n      dup1\n      returndatacopy\n      revert(0x00, returndatasize)\n    tag_104:\n      pop\n        /* \"RWAPSSF.sol\":5616:5624  account1 */\n      dup1\n        /* \"RWAPSSF.sol\":5616:5633  account1.transfer */\n      0xffffffffffffffffffffffffffffffffffffffff\n      and\n        /* \"RWAPSSF.sol\":5616:5649  account1.transfer(player[1].fund) */\n      0x08fc\n        /* \"RWAPSSF.sol\":5634:5640  player */\n      0x02\n        /* \"RWAPSSF.sol\":5634:5643  player[1] */\n      0x00\n        /* \"RWAPSSF.sol\":5641:5642  1 */\n      0x01\n        /* \"RWAPSSF.sol\":5634:5643  player[1] */\n      dup2\n      mstore\n      0x20\n      add\n      swap1\n      dup2\n      mstore\n      0x20\n      add\n      0x00\n      keccak256\n        /* \"RWAPSSF.sol\":5634:5648  player[1].fund */\n      0x01\n      add\n      sload\n        /* \"RWAPSSF.sol\":5616:5649  account1.transfer(player[1].fund) */\n      swap1\n      dup2\n      iszero\n      mul\n      swap1\n      mload(0x40)\n      0x00\n      mload(0x40)\n      dup1\n      dup4\n      sub\n      dup2\n      dup6\n      dup9\n      dup9\n      call\n      swap4\n      pop\n      pop\n      pop\n      pop\n      iszero\n      dup1\n      iszero\n      tag_106\n      jumpi\n      returndatasize\n      0x00\n      dup1\n      returndatacopy\n      revert(0x00, returndatasize)\n    tag_106:\n      pop\n        /* \"RWAPSSF.sol\":5678:5686  _reset() */\n      tag_107\n        /* \"RWAPSSF.sol\":5678:5684  _reset */\n      tag_100\n        /* \"RWAPSSF.sol\":5678:5686  _reset() */\n      jump\t// in\n    tag_107:\n        /* \"RWAPSSF.sol\":5701:5708  return; */\n      pop\n      pop\n      jump(tag_82)\n        /* \"RWAPSSF.sol\":5514:5719  if (numCommit < 2 || numRevealed == 0) {... */\n    tag_102:\n        /* \"RWAPSSF.sol\":5731:5755  address payable account2 */\n      0x00\n        /* \"RWAPSSF.sol\":5766:5772  player */\n      0x02\n        /* \"RWAPSSF.sol\":5766:5775  player[2] */\n      0x00\n        /* \"RWAPSSF.sol\":5773:5774  2 */\n      0x02\n        /* \"RWAPSSF.sol\":5766:5775  player[2] */\n      dup2\n      mstore\n      0x20\n      add\n      swap1\n      dup2\n      mstore\n      0x20\n      add\n      0x00\n      keccak256\n        /* \"RWAPSSF.sol\":5766:5780  player[2].addr */\n      0x00\n      add\n      0x01\n      swap1\n      sload\n      swap1\n      0x0100\n      exp\n      swap1\n      div\n      0xffffffffffffffffffffffffffffffffffffffff\n      and\n        /* \"RWAPSSF.sol\":5731:5781  address payable account2 = payable(player[2].addr) */\n      swap1\n      pop\n        /* \"RWAPSSF.sol\":5929:5930  3 */\n      0x03\n        /* \"RWAPSSF.sol\":5917:5926  numCommit */\n      sload(0x06)\n        /* \"RWAPSSF.sol\":5917:5930  numCommit < 3 */\n      lt\n        /* \"RWAPSSF.sol\":5917:5950  numCommit < 3 || numRevealed == 0 */\n      dup1\n      tag_108\n      jumpi\n      pop\n        /* \"RWAPSSF.sol\":5949:5950  0 */\n      0x00\n        /* \"RWAPSSF.sol\":5934:5945  numRevealed */\n      sload(0x07)\n        /* \"RWAPSSF.sol\":5934:5950  numRevealed == 0 */\n      eq\n        /* \"RWAPSSF.sol\":5917:5950  numCommit < 3 || numRevealed == 0 */\n    tag_108:\n        /* \"RWAPSSF.sol\":5913:6166  if (numCommit < 3 || numRevealed == 0) {... */\n      iszero\n      tag_109\n      jumpi\n        /* \"RWAPSSF.sol\":5967:5975  account0 */\n      dup3\n        /* \"RWAPSSF.sol\":5967:5984  account0.transfer */\n      0xffffffffffffffffffffffffffffffffffffffff\n      and\n        /* \"RWAPSSF.sol\":5967:6000  account0.transfer(player[0].fund) */\n      0x08fc\n        /* \"RWAPSSF.sol\":5985:5991  player */\n      0x02\n        /* \"RWAPSSF.sol\":5985:5994  player[0] */\n      0x00\n        /* \"RWAPSSF.sol\":5992:5993  0 */\n      dup1\n        /* \"RWAPSSF.sol\":5985:5994  player[0] */\n      dup2\n      mstore\n      0x20\n      add\n      swap1\n      dup2\n      mstore\n      0x20\n      add\n      0x00\n      keccak256\n        /* \"RWAPSSF.sol\":5985:5999  player[0].fund */\n      0x01\n      add\n      sload\n        /* \"RWAPSSF.sol\":5967:6000  account0.transfer(player[0].fund) */\n      swap1\n      dup2\n      iszero\n      mul\n      swap1\n      mload(0x40)\n      0x00\n      mload(0x40)\n      dup1\n      dup4\n      sub\n      dup2\n      dup6\n      dup9\n      dup9\n      call\n      swap4\n      pop\n      pop\n      pop\n      pop\n      iszero\n      dup1\n      iszero\n      tag_111\n      jumpi\n      returndatasize\n      0x00\n      dup1\n      returndatacopy\n      revert(0x00, returndatasize)\n    tag_111:\n      pop\n        /* \"RWAPSSF.sol\":6015:6023  account1 */\n      dup2\n        /* \"RWAPSSF.sol\":6015:6032  account1.transfer */\n      0xffffffffffffffffffffffffffffffffffffffff\n      and\n        /* \"RWAPSSF.sol\":6015:6048  account1.transfer(player[1].fund) */\n      0x08fc\n        /* \"RWAPSSF.sol\":6033:6039  player */\n      0x02\n        /* \"RWAPSSF.sol\":6033:6042  player[1] */\n      0x00\n        /* \"RWAPSSF.sol\":6040:6041  1 */\n      0x01\n        /* \"RWAPSSF.sol\":6033:6042  player[1] */\n      dup2\n      mstore\n      0x20\n      add\n      swap1\n      dup2\n      mstore\n      0x20\n      add\n      0x00\n      keccak256\n        /* \"RWAPSSF.sol\":6033:6047  player[1].fund */\n      0x01\n      add\n      sload\n        /* \"RWAPSSF.sol\":6015:6048  account1.transfer(player[1].fund) */\n      swap1\n      dup2\n      iszero\n      mul\n      swap1\n      mload(0x40)\n      0x00\n      mload(0x40)\n      dup1\n      dup4\n      sub\n      dup2\n      dup6\n      dup9\n      dup9\n      call\n      swap4\n      pop\n      pop\n      pop\n      pop\n      iszero\n      dup1\n      iszero\n      tag_113\n      jumpi\n      returndatasize\n      0x00\n      dup1\n      returndatacopy\n      revert(0x00, returndatasize)\n    tag_113:\n      pop\n        /* \"RWAPSSF.sol\":6063:6071  account2 */\n      dup1\n        /* \"RWAPSSF.sol\":6063:6080  account2.transfer */\n      0xffffffffffffffffffffffffffffffffffffffff\n      and\n        /* \"RWAPSSF.sol\":6063:6096  account2.transfer(player[2].fund) */\n      0x08fc\n        /* \"RWAPSSF.sol\":6081:6087  player */\n      0x02\n        /* \"RWAPSSF.sol\":6081:6090  player[2] */\n      0x00\n        /* \"RWAPSSF.sol\":6088:6089  2 */\n      0x02\n        /* \"RWAPSSF.sol\":6081:6090  player[2] */\n      dup2\n      mstore\n      0x20\n      add\n      swap1\n      dup2\n      mstore\n      0x20\n      add\n      0x00\n      keccak256\n        /* \"RWAPSSF.sol\":6081:6095  player[2].fund */\n      0x01\n      add\n      sload\n        /* \"RWAPSSF.sol\":6063:6096  account2.transfer(player[2].fund) */\n      swap1\n      dup2\n      iszero\n      mul\n      swap1\n      mload(0x40)\n      0x00\n      mload(0x40)\n      dup1\n      dup4\n      sub\n      dup2\n      dup6\n      dup9\n      dup9\n      call\n      swap4\n      pop\n      pop\n      pop\n      pop\n      iszero\n      dup1\n      iszero\n      tag_115\n      jumpi\n      returndatasize\n      0x00\n      dup1\n      returndatacopy\n      revert(0x00, returndatasize)\n    tag_115:\n      pop\n        /* \"RWAPSSF.sol\":6125:6133  _reset() */\n      tag_116\n        /* \"RWAPSSF.sol\":6125:6131  _reset */\n      tag_100\n        /* \"RWAPSSF.sol\":6125:6133  _reset() */\n      jump\t// in\n    tag_116:\n        /* \"RWAPSSF.sol\":6148:6155  return; */\n      pop\n      pop\n      pop\n      jump(tag_82)\n        /* \"RWAPSSF.sol\":5913:6166  if (numCommit < 3 || numRevealed == 0) {... */\n    tag_109:\n        /* \"RWAPSSF.sol\":6261:6262  3 */\n      0x03\n        /* \"RWAPSSF.sol\":6247:6258  numRevealed */\n      sload(0x07)\n        /* \"RWAPSSF.sol\":6247:6262  numRevealed < 3 */\n      lt\n        /* \"RWAPSSF.sol\":6243:6634  if (numRevealed < 3) {... */\n      iszero\n      tag_117\n      jumpi\n        /* \"RWAPSSF.sol\":6284:6293  uint256 i */\n      0x00\n        /* \"RWAPSSF.sol\":6279:6623  for (uint256 i = 0; i < 3; i++) {... */\n    tag_118:\n        /* \"RWAPSSF.sol\":6303:6304  3 */\n      0x03\n        /* \"RWAPSSF.sol\":6299:6300  i */\n      dup2\n        /* \"RWAPSSF.sol\":6299:6304  i < 3 */\n      lt\n        /* \"RWAPSSF.sol\":6279:6623  for (uint256 i = 0; i < 3; i++) {... */\n      iszero\n      tag_119\n      jumpi\n        /* \"RWAPSSF.sol\":6334:6341  commits */\n      0x01\n        /* \"RWAPSSF.sol\":6334:6357  commits[player[i].addr] */\n      0x00\n        /* \"RWAPSSF.sol\":6342:6348  player */\n      0x02\n        /* \"RWAPSSF.sol\":6342:6351  player[i] */\n      0x00\n        /* \"RWAPSSF.sol\":6349:6350  i */\n      dup5\n        /* \"RWAPSSF.sol\":6342:6351  player[i] */\n      dup2\n      mstore\n      0x20\n      add\n      swap1\n      dup2\n      mstore\n      0x20\n      add\n      0x00\n      keccak256\n        /* \"RWAPSSF.sol\":6342:6356  player[i].addr */\n      0x00\n      add\n      0x01\n      swap1\n      sload\n      swap1\n      0x0100\n      exp\n      swap1\n      div\n      0xffffffffffffffffffffffffffffffffffffffff\n      and\n        /* \"RWAPSSF.sol\":6334:6357  commits[player[i].addr] */\n      0xffffffffffffffffffffffffffffffffffffffff\n      and\n      0xffffffffffffffffffffffffffffffffffffffff\n      and\n      dup2\n      mstore\n      0x20\n      add\n      swap1\n      dup2\n      mstore\n      0x20\n      add\n      0x00\n      keccak256\n        /* \"RWAPSSF.sol\":6334:6366  commits[player[i].addr].revealed */\n      0x01\n      add\n      0x00\n      swap1\n      sload\n      swap1\n      0x0100\n      exp\n      swap1\n      div\n      0xff\n      and\n        /* \"RWAPSSF.sol\":6330:6608  if (commits[player[i].addr].revealed) {... */\n      iszero\n      tag_121\n      jumpi\n        /* \"RWAPSSF.sol\":6391:6414  address payable account */\n      0x00\n        /* \"RWAPSSF.sol\":6425:6431  player */\n      0x02\n        /* \"RWAPSSF.sol\":6425:6434  player[i] */\n      0x00\n        /* \"RWAPSSF.sol\":6432:6433  i */\n      dup4\n        /* \"RWAPSSF.sol\":6425:6434  player[i] */\n      dup2\n      mstore\n      0x20\n      add\n      swap1\n      dup2\n      mstore\n      0x20\n      add\n      0x00\n      keccak256\n        /* \"RWAPSSF.sol\":6425:6439  player[i].addr */\n      0x00\n      add\n      0x01\n      swap1\n      sload\n      swap1\n      0x0100\n      exp\n      swap1\n      div\n      0xffffffffffffffffffffffffffffffffffffffff\n      and\n        /* \"RWAPSSF.sol\":6391:6440  address payable account = payable(player[i].addr) */\n      swap1\n      pop\n        /* \"RWAPSSF.sol\":6463:6470  account */\n      dup1\n        /* \"RWAPSSF.sol\":6463:6479  account.transfer */\n      0xffffffffffffffffffffffffffffffffffffffff\n      and\n        /* \"RWAPSSF.sol\":6463:6495  account.transfer(player[i].fund) */\n      0x08fc\n        /* \"RWAPSSF.sol\":6480:6486  player */\n      0x02\n        /* \"RWAPSSF.sol\":6480:6489  player[i] */\n      0x00\n        /* \"RWAPSSF.sol\":6487:6488  i */\n      dup6\n        /* \"RWAPSSF.sol\":6480:6489  player[i] */\n      dup2\n      mstore\n      0x20\n      add\n      swap1\n      dup2\n      mstore\n      0x20\n      add\n      0x00\n      keccak256\n        /* \"RWAPSSF.sol\":6480:6494  player[i].fund */\n      0x01\n      add\n      sload\n        /* \"RWAPSSF.sol\":6463:6495  account.transfer(player[i].fund) */\n      swap1\n      dup2\n      iszero\n      mul\n      swap1\n      mload(0x40)\n      0x00\n      mload(0x40)\n      dup1\n      dup4\n      sub\n      dup2\n      dup6\n      dup9\n      dup9\n      call\n      swap4\n      pop\n      pop\n      pop\n      pop\n      iszero\n      dup1\n      iszero\n      tag_123\n      jumpi\n      returndatasize\n      0x00\n      dup1\n      returndatacopy\n      revert(0x00, returndatasize)\n    tag_123:\n      pop\n        /* \"RWAPSSF.sol\":6368:6515  {... */\n      pop\n        /* \"RWAPSSF.sol\":6330:6608  if (commits[player[i].addr].revealed) {... */\n      jump(tag_124)\n    tag_121:\n        /* \"RWAPSSF.sol\":6552:6562  msg.sender */\n      caller\n        /* \"RWAPSSF.sol\":6544:6572  payable(msg.sender).transfer */\n      0xffffffffffffffffffffffffffffffffffffffff\n      and\n        /* \"RWAPSSF.sol\":6544:6588  payable(msg.sender).transfer(player[i].fund) */\n      0x08fc\n        /* \"RWAPSSF.sol\":6573:6579  player */\n      0x02\n        /* \"RWAPSSF.sol\":6573:6582  player[i] */\n      0x00\n        /* \"RWAPSSF.sol\":6580:6581  i */\n      dup5\n        /* \"RWAPSSF.sol\":6573:6582  player[i] */\n      dup2\n      mstore\n      0x20\n      add\n      swap1\n      dup2\n      mstore\n      0x20\n      add\n      0x00\n      keccak256\n        /* \"RWAPSSF.sol\":6573:6587  player[i].fund */\n      0x01\n      add\n      sload\n        /* \"RWAPSSF.sol\":6544:6588  payable(msg.sender).transfer(player[i].fund) */\n      swap1\n      dup2\n      iszero\n      mul\n      swap1\n      mload(0x40)\n      0x00\n      mload(0x40)\n      dup1\n      dup4\n      sub\n      dup2\n      dup6\n      dup9\n      dup9\n      call\n      swap4\n      pop\n      pop\n      pop\n      pop\n      iszero\n      dup1\n      iszero\n      tag_126\n      jumpi\n      returndatasize\n      0x00\n      dup1\n      returndatacopy\n      revert(0x00, returndatasize)\n    tag_126:\n      pop\n        /* \"RWAPSSF.sol\":6330:6608  if (commits[player[i].addr].revealed) {... */\n    tag_124:\n        /* \"RWAPSSF.sol\":6306:6309  i++ */\n      dup1\n      dup1\n      0x01\n      add\n      swap2\n      pop\n      pop\n        /* \"RWAPSSF.sol\":6279:6623  for (uint256 i = 0; i < 3; i++) {... */\n      jump(tag_118)\n    tag_119:\n      pop\n        /* \"RWAPSSF.sol\":6243:6634  if (numRevealed < 3) {... */\n    tag_117:\n        /* \"RWAPSSF.sol\":4743:6641  {... */\n      pop\n      pop\n      pop\n        /* \"RWAPSSF.sol\":4712:6641  function checkTimeout() public {... */\n    tag_82:\n      jump\t// out\n        /* \"RWAPSSF.sol\":1934:2579  function revealChoice(Choice choice, uint256 salt) public {... */\n    tag_26:\n        /* \"RWAPSSF.sol\":2030:2031  6 */\n      0x06\n        /* \"RWAPSSF.sol\":2019:2025  choice */\n      dup3\n        /* \"RWAPSSF.sol\":2011:2026  uint256(choice) */\n      0x06\n      dup2\n      gt\n      iszero\n      tag_128\n      jumpi\n      tag_129\n      tag_130\n      jump\t// in\n    tag_129:\n    tag_128:\n        /* \"RWAPSSF.sol\":2011:2031  uint256(choice) <= 6 */\n      gt\n      iszero\n        /* \"RWAPSSF.sol\":2003:2050  require(uint256(choice) <= 6, \"Invalid choice\") */\n      tag_131\n      jumpi\n      mload(0x40)\n      0x08c379a000000000000000000000000000000000000000000000000000000000\n      dup2\n      mstore\n      0x04\n      add\n      tag_132\n      swap1\n      tag_133\n      jump\t// in\n    tag_132:\n      mload(0x40)\n      dup1\n      swap2\n      sub\n      swap1\n      revert\n    tag_131:\n        /* \"RWAPSSF.sol\":398:399  3 */\n      0x03\n        /* \"RWAPSSF.sol\":2069:2078  numPlayer */\n      sload(0x04)\n        /* \"RWAPSSF.sol\":2069:2093  numPlayer == MAX_PLAYERS */\n      eq\n        /* \"RWAPSSF.sol\":2061:2116  require(numPlayer == MAX_PLAYERS, \"Not enough players\") */\n      tag_134\n      jumpi\n      mload(0x40)\n      0x08c379a000000000000000000000000000000000000000000000000000000000\n      dup2\n      mstore\n      0x04\n      add\n      tag_135\n      swap1\n      tag_136\n      jump\t// in\n    tag_135:\n      mload(0x40)\n      dup1\n      swap2\n      sub\n      swap1\n      revert\n    tag_134:\n        /* \"RWAPSSF.sol\":398:399  3 */\n      0x03\n        /* \"RWAPSSF.sol\":2135:2144  numCommit */\n      sload(0x06)\n        /* \"RWAPSSF.sol\":2135:2159  numCommit == MAX_PLAYERS */\n      eq\n        /* \"RWAPSSF.sol\":2127:2194  require(numCommit == MAX_PLAYERS, \"Not all players have committed\") */\n      tag_137\n      jumpi\n      mload(0x40)\n      0x08c379a000000000000000000000000000000000000000000000000000000000\n      dup2\n      mstore\n      0x04\n      add\n      tag_138\n      swap1\n      tag_139\n      jump\t// in\n    tag_138:\n      mload(0x40)\n      dup1\n      swap2\n      sub\n      swap1\n      revert\n    tag_137:\n        /* \"RWAPSSF.sol\":2227:2233  player */\n      0x02\n        /* \"RWAPSSF.sol\":2227:2256  player[playerIdx[msg.sender]] */\n      0x00\n        /* \"RWAPSSF.sol\":2234:2243  playerIdx */\n      0x03\n        /* \"RWAPSSF.sol\":2234:2255  playerIdx[msg.sender] */\n      0x00\n        /* \"RWAPSSF.sol\":2244:2254  msg.sender */\n      caller\n        /* \"RWAPSSF.sol\":2234:2255  playerIdx[msg.sender] */\n      0xffffffffffffffffffffffffffffffffffffffff\n      and\n      0xffffffffffffffffffffffffffffffffffffffff\n      and\n      dup2\n      mstore\n      0x20\n      add\n      swap1\n      dup2\n      mstore\n      0x20\n      add\n      0x00\n      keccak256\n      sload\n        /* \"RWAPSSF.sol\":2227:2256  player[playerIdx[msg.sender]] */\n      dup2\n      mstore\n      0x20\n      add\n      swap1\n      dup2\n      mstore\n      0x20\n      add\n      0x00\n      keccak256\n        /* \"RWAPSSF.sol\":2227:2261  player[playerIdx[msg.sender]].addr */\n      0x00\n      add\n      0x01\n      swap1\n      sload\n      swap1\n      0x0100\n      exp\n      swap1\n      div\n      0xffffffffffffffffffffffffffffffffffffffff\n      and\n        /* \"RWAPSSF.sol\":2213:2261  msg.sender == player[playerIdx[msg.sender]].addr */\n      0xffffffffffffffffffffffffffffffffffffffff\n      and\n        /* \"RWAPSSF.sol\":2213:2223  msg.sender */\n      caller\n        /* \"RWAPSSF.sol\":2213:2261  msg.sender == player[playerIdx[msg.sender]].addr */\n      0xffffffffffffffffffffffffffffffffffffffff\n      and\n      eq\n        /* \"RWAPSSF.sol\":2205:2280  require(msg.sender == player[playerIdx[msg.sender]].addr, \"Invalid sender\") */\n      tag_140\n      jumpi\n      mload(0x40)\n      0x08c379a000000000000000000000000000000000000000000000000000000000\n      dup2\n      mstore\n      0x04\n      add\n      tag_141\n      swap1\n      tag_92\n      jump\t// in\n    tag_141:\n      mload(0x40)\n      dup1\n      swap2\n      sub\n      swap1\n      revert\n    tag_140:\n        /* \"RWAPSSF.sol\":2293:2346  revealAnswer(bytes32(uint256(choice)), bytes32(salt)) */\n      tag_142\n        /* \"RWAPSSF.sol\":2322:2328  choice */\n      dup3\n        /* \"RWAPSSF.sol\":2314:2329  uint256(choice) */\n      0x06\n      dup2\n      gt\n      iszero\n      tag_143\n      jumpi\n      tag_144\n      tag_130\n      jump\t// in\n    tag_144:\n    tag_143:\n        /* \"RWAPSSF.sol\":2306:2330  bytes32(uint256(choice)) */\n      0x00\n      shl\n        /* \"RWAPSSF.sol\":2340:2344  salt */\n      dup3\n        /* \"RWAPSSF.sol\":2332:2345  bytes32(salt) */\n      0x00\n      shl\n        /* \"RWAPSSF.sol\":2293:2305  revealAnswer */\n      tag_145\n        /* \"RWAPSSF.sol\":2293:2346  revealAnswer(bytes32(uint256(choice)), bytes32(salt)) */\n      jump\t// in\n    tag_142:\n        /* \"RWAPSSF.sol\":2396:2402  choice */\n      dup2\n        /* \"RWAPSSF.sol\":2357:2363  player */\n      0x02\n        /* \"RWAPSSF.sol\":2357:2386  player[playerIdx[msg.sender]] */\n      0x00\n        /* \"RWAPSSF.sol\":2364:2373  playerIdx */\n      0x03\n        /* \"RWAPSSF.sol\":2364:2385  playerIdx[msg.sender] */\n      0x00\n        /* \"RWAPSSF.sol\":2374:2384  msg.sender */\n      caller\n        /* \"RWAPSSF.sol\":2364:2385  playerIdx[msg.sender] */\n      0xffffffffffffffffffffffffffffffffffffffff\n      and\n      0xffffffffffffffffffffffffffffffffffffffff\n      and\n      dup2\n      mstore\n      0x20\n      add\n      swap1\n      dup2\n      mstore\n      0x20\n      add\n      0x00\n      keccak256\n      sload\n        /* \"RWAPSSF.sol\":2357:2386  player[playerIdx[msg.sender]] */\n      dup2\n      mstore\n      0x20\n      add\n      swap1\n      dup2\n      mstore\n      0x20\n      add\n      0x00\n      keccak256\n        /* \"RWAPSSF.sol\":2357:2393  player[playerIdx[msg.sender]].choice */\n      0x00\n      add\n      0x00\n        /* \"RWAPSSF.sol\":2357:2402  player[playerIdx[msg.sender]].choice = choice */\n      0x0100\n      exp\n      dup2\n      sload\n      dup2\n      0xff\n      mul\n      not\n      and\n      swap1\n      dup4\n      0x06\n      dup2\n      gt\n      iszero\n      tag_146\n      jumpi\n      tag_147\n      tag_130\n      jump\t// in\n    tag_147:\n    tag_146:\n      mul\n      or\n      swap1\n      sstore\n      pop\n        /* \"RWAPSSF.sol\":2415:2426  numRevealed */\n      0x07\n      0x00\n        /* \"RWAPSSF.sol\":2415:2428  numRevealed++ */\n      dup2\n      sload\n      dup1\n      swap3\n      swap2\n      swap1\n      tag_148\n      swap1\n      tag_149\n      jump\t// in\n    tag_148:\n      swap2\n      swap1\n      pop\n      sstore\n      pop\n        /* \"RWAPSSF.sol\":398:399  3 */\n      0x03\n        /* \"RWAPSSF.sol\":2445:2456  numRevealed */\n      sload(0x07)\n        /* \"RWAPSSF.sol\":2445:2471  numRevealed == MAX_PLAYERS */\n      sub\n        /* \"RWAPSSF.sol\":2441:2520  if (numRevealed == MAX_PLAYERS) {... */\n      tag_150\n      jumpi\n        /* \"RWAPSSF.sol\":2488:2508  _checkWinnerAndPay() */\n      tag_151\n        /* \"RWAPSSF.sol\":2488:2506  _checkWinnerAndPay */\n      tag_152\n        /* \"RWAPSSF.sol\":2488:2508  _checkWinnerAndPay() */\n      jump\t// in\n    tag_151:\n        /* \"RWAPSSF.sol\":2441:2520  if (numRevealed == MAX_PLAYERS) {... */\n    tag_150:\n        /* \"RWAPSSF.sol\":2556:2571  block.timestamp */\n      timestamp\n        /* \"RWAPSSF.sol\":2532:2553  latestActionTimestamp */\n      0x08\n        /* \"RWAPSSF.sol\":2532:2571  latestActionTimestamp = block.timestamp */\n      dup2\n      swap1\n      sstore\n      pop\n        /* \"RWAPSSF.sol\":1934:2579  function revealChoice(Choice choice, uint256 salt) public {... */\n      pop\n      pop\n      jump\t// out\n        /* \"RWAPSSF.sol\":544:569  uint256 public reward = 0 */\n    tag_29:\n      sload(0x05)\n      dup2\n      jump\t// out\n        /* \"RWAPSSF.sol\":697:1143  function addPlayer() public payable {... */\n    tag_33:\n        /* \"RWAPSSF.sol\":398:399  3 */\n      0x03\n        /* \"RWAPSSF.sol\":752:761  numPlayer */\n      sload(0x04)\n        /* \"RWAPSSF.sol\":752:775  numPlayer < MAX_PLAYERS */\n      lt\n        /* \"RWAPSSF.sol\":744:813  require(numPlayer < MAX_PLAYERS, \"Maximum number of players reached\") */\n      tag_154\n      jumpi\n      mload(0x40)\n      0x08c379a000000000000000000000000000000000000000000000000000000000\n      dup2\n      mstore\n      0x04\n      add\n      tag_155\n      swap1\n      tag_156\n      jump\t// in\n    tag_155:\n      mload(0x40)\n      dup1\n      swap2\n      sub\n      swap1\n      revert\n    tag_154:\n        /* \"RWAPSSF.sol\":845:852  1 ether */\n      0x0de0b6b3a7640000\n        /* \"RWAPSSF.sol\":832:841  msg.value */\n      callvalue\n        /* \"RWAPSSF.sol\":832:852  msg.value == 1 ether */\n      eq\n        /* \"RWAPSSF.sol\":824:894  require(msg.value == 1 ether, \"Insufficient or excessive amount sent\") */\n      tag_157\n      jumpi\n      mload(0x40)\n      0x08c379a000000000000000000000000000000000000000000000000000000000\n      dup2\n      mstore\n      0x04\n      add\n      tag_158\n      swap1\n      tag_159\n      jump\t// in\n    tag_158:\n      mload(0x40)\n      dup1\n      swap2\n      sub\n      swap1\n      revert\n    tag_157:\n        /* \"RWAPSSF.sol\":917:926  msg.value */\n      callvalue\n        /* \"RWAPSSF.sol\":907:913  reward */\n      0x05\n      0x00\n        /* \"RWAPSSF.sol\":907:926  reward += msg.value */\n      dup3\n      dup3\n      sload\n      tag_160\n      swap2\n      swap1\n      tag_84\n      jump\t// in\n    tag_160:\n      swap3\n      pop\n      pop\n      dup2\n      swap1\n      sstore\n      pop\n        /* \"RWAPSSF.sol\":962:971  msg.value */\n      callvalue\n        /* \"RWAPSSF.sol\":937:943  player */\n      0x02\n        /* \"RWAPSSF.sol\":937:954  player[numPlayer] */\n      0x00\n        /* \"RWAPSSF.sol\":944:953  numPlayer */\n      sload(0x04)\n        /* \"RWAPSSF.sol\":937:954  player[numPlayer] */\n      dup2\n      mstore\n      0x20\n      add\n      swap1\n      dup2\n      mstore\n      0x20\n      add\n      0x00\n      keccak256\n        /* \"RWAPSSF.sol\":937:959  player[numPlayer].fund */\n      0x01\n      add\n        /* \"RWAPSSF.sol\":937:971  player[numPlayer].fund = msg.value */\n      dup2\n      swap1\n      sstore\n      pop\n        /* \"RWAPSSF.sol\":1007:1017  msg.sender */\n      caller\n        /* \"RWAPSSF.sol\":982:988  player */\n      0x02\n        /* \"RWAPSSF.sol\":982:999  player[numPlayer] */\n      0x00\n        /* \"RWAPSSF.sol\":989:998  numPlayer */\n      sload(0x04)\n        /* \"RWAPSSF.sol\":982:999  player[numPlayer] */\n      dup2\n      mstore\n      0x20\n      add\n      swap1\n      dup2\n      mstore\n      0x20\n      add\n      0x00\n      keccak256\n        /* \"RWAPSSF.sol\":982:1004  player[numPlayer].addr */\n      0x00\n      add\n      0x01\n        /* \"RWAPSSF.sol\":982:1017  player[numPlayer].addr = msg.sender */\n      0x0100\n      exp\n      dup2\n      sload\n      dup2\n      0xffffffffffffffffffffffffffffffffffffffff\n      mul\n      not\n      and\n      swap1\n      dup4\n      0xffffffffffffffffffffffffffffffffffffffff\n      and\n      mul\n      or\n      swap1\n      sstore\n      pop\n        /* \"RWAPSSF.sol\":1052:1061  numPlayer */\n      sload(0x04)\n        /* \"RWAPSSF.sol\":1028:1037  playerIdx */\n      0x03\n        /* \"RWAPSSF.sol\":1028:1049  playerIdx[msg.sender] */\n      0x00\n        /* \"RWAPSSF.sol\":1038:1048  msg.sender */\n      caller\n        /* \"RWAPSSF.sol\":1028:1049  playerIdx[msg.sender] */\n      0xffffffffffffffffffffffffffffffffffffffff\n      and\n      0xffffffffffffffffffffffffffffffffffffffff\n      and\n      dup2\n      mstore\n      0x20\n      add\n      swap1\n      dup2\n      mstore\n      0x20\n      add\n      0x00\n      keccak256\n        /* \"RWAPSSF.sol\":1028:1061  playerIdx[msg.sender] = numPlayer */\n      dup2\n      swap1\n      sstore\n      pop\n        /* \"RWAPSSF.sol\":1072:1081  numPlayer */\n      0x04\n      0x00\n        /* \"RWAPSSF.sol\":1072:1083  numPlayer++ */\n      dup2\n      sload\n      dup1\n      swap3\n      swap2\n      swap1\n      tag_161\n      swap1\n      tag_149\n      jump\t// in\n    tag_161:\n      swap2\n      swap1\n      pop\n      sstore\n      pop\n        /* \"RWAPSSF.sol\":1120:1135  block.timestamp */\n      timestamp\n        /* \"RWAPSSF.sol\":1096:1117  latestActionTimestamp */\n      0x08\n        /* \"RWAPSSF.sol\":1096:1135  latestActionTimestamp = block.timestamp */\n      dup2\n      swap1\n      sstore\n      pop\n        /* \"RWAPSSF.sol\":697:1143  function addPlayer() public payable {... */\n      jump\t// out\n        /* \"RWAPSSF.sol\":360:399  uint256 public constant MAX_PLAYERS = 3 */\n    tag_36:\n        /* \"RWAPSSF.sol\":398:399  3 */\n      0x03\n        /* \"RWAPSSF.sol\":360:399  uint256 public constant MAX_PLAYERS = 3 */\n      dup2\n      jump\t// out\n        /* \"RWAPSSF.sol\":648:688  uint256 public latestActionTimestamp = 0 */\n    tag_40:\n      sload(0x08)\n      dup2\n      jump\t// out\n        /* \"RWAPSSF.sol\":611:641  uint256 public numRevealed = 0 */\n    tag_44:\n      sload(0x07)\n      dup2\n      jump\t// out\n        /* \"RWAPSSF.sol\":509:537  uint256 public numPlayer = 0 */\n    tag_48:\n      sload(0x04)\n      dup2\n      jump\t// out\n        /* \"RWAPSSF.sol\":576:604  uint256 public numCommit = 0 */\n    tag_52:\n      sload(0x06)\n      dup2\n      jump\t// out\n        /* \"RWAPSSF.sol\":408:448  mapping(uint256 => Player) public player */\n    tag_58:\n      mstore(0x20, 0x02)\n      dup1\n      0x00\n      mstore\n      keccak256(0x00, 0x40)\n      0x00\n      swap2\n      pop\n      swap1\n      pop\n      dup1\n      0x00\n      add\n      0x00\n      swap1\n      sload\n      swap1\n      0x0100\n      exp\n      swap1\n      div\n      0xff\n      and\n      swap1\n      dup1\n      0x00\n      add\n      0x01\n      swap1\n      sload\n      swap1\n      0x0100\n      exp\n      swap1\n      div\n      0xffffffffffffffffffffffffffffffffffffffff\n      and\n      swap1\n      dup1\n      0x01\n      add\n      sload\n      swap1\n      pop\n      dup4\n      jump\t// out\n        /* \"RWAPSSF.sol\":455:499  mapping(address => uint256) public playerIdx */\n    tag_65:\n      mstore(0x20, 0x03)\n      dup1\n      0x00\n      mstore\n      keccak256(0x00, 0x40)\n      0x00\n      swap2\n      pop\n      swap1\n      pop\n      sload\n      dup2\n      jump\t// out\n        /* \"RWAPSSF.sol\":1151:1403  function getChoiceHash(Choice choice, uint256 salt)... */\n    tag_70:\n        /* \"RWAPSSF.sol\":1251:1258  bytes32 */\n      0x00\n        /* \"RWAPSSF.sol\":1303:1304  6 */\n      0x06\n        /* \"RWAPSSF.sol\":1292:1298  choice */\n      dup4\n        /* \"RWAPSSF.sol\":1284:1299  uint256(choice) */\n      0x06\n      dup2\n      gt\n      iszero\n      tag_163\n      jumpi\n      tag_164\n      tag_130\n      jump\t// in\n    tag_164:\n    tag_163:\n        /* \"RWAPSSF.sol\":1284:1304  uint256(choice) <= 6 */\n      gt\n      iszero\n        /* \"RWAPSSF.sol\":1276:1323  require(uint256(choice) <= 6, \"Invalid choice\") */\n      tag_165\n      jumpi\n      mload(0x40)\n      0x08c379a000000000000000000000000000000000000000000000000000000000\n      dup2\n      mstore\n      0x04\n      add\n      tag_166\n      swap1\n      tag_133\n      jump\t// in\n    tag_166:\n      mload(0x40)\n      dup1\n      swap2\n      sub\n      swap1\n      revert\n    tag_165:\n        /* \"RWAPSSF.sol\":1341:1395  getSaltedHash(bytes32(uint256(choice)), bytes32(salt)) */\n      tag_167\n        /* \"RWAPSSF.sol\":1371:1377  choice */\n      dup4\n        /* \"RWAPSSF.sol\":1363:1378  uint256(choice) */\n      0x06\n      dup2\n      gt\n      iszero\n      tag_168\n      jumpi\n      tag_169\n      tag_130\n      jump\t// in\n    tag_169:\n    tag_168:\n        /* \"RWAPSSF.sol\":1355:1379  bytes32(uint256(choice)) */\n      0x00\n      shl\n        /* \"RWAPSSF.sol\":1389:1393  salt */\n      dup4\n        /* \"RWAPSSF.sol\":1381:1394  bytes32(salt) */\n      0x00\n      shl\n        /* \"RWAPSSF.sol\":1341:1354  getSaltedHash */\n      tag_170\n        /* \"RWAPSSF.sol\":1341:1395  getSaltedHash(bytes32(uint256(choice)), bytes32(salt)) */\n      jump\t// in\n    tag_167:\n        /* \"RWAPSSF.sol\":1334:1395  return getSaltedHash(bytes32(uint256(choice)), bytes32(salt)) */\n      swap1\n      pop\n        /* \"RWAPSSF.sol\":1151:1403  function getChoiceHash(Choice choice, uint256 salt)... */\n      swap3\n      swap2\n      pop\n      pop\n      jump\t// out\n        /* \"RWAPSSF.sol\":1411:1926  function commitChoice(bytes32 choiceHash) public {... */\n    tag_77:\n        /* \"RWAPSSF.sol\":1493:1494  0 */\n      0x00\n        /* \"RWAPSSF.sol\":1479:1494  choiceHash != 0 */\n      dup1\n      shl\n        /* \"RWAPSSF.sol\":1479:1489  choiceHash */\n      dup2\n        /* \"RWAPSSF.sol\":1479:1494  choiceHash != 0 */\n      sub\n        /* \"RWAPSSF.sol\":1471:1518  require(choiceHash != 0, \"Invalid choice hash\") */\n      tag_172\n      jumpi\n      mload(0x40)\n      0x08c379a000000000000000000000000000000000000000000000000000000000\n      dup2\n      mstore\n      0x04\n      add\n      tag_173\n      swap1\n      tag_174\n      jump\t// in\n    tag_173:\n      mload(0x40)\n      dup1\n      swap2\n      sub\n      swap1\n      revert\n    tag_172:\n        /* \"RWAPSSF.sol\":398:399  3 */\n      0x03\n        /* \"RWAPSSF.sol\":1537:1546  numPlayer */\n      sload(0x04)\n        /* \"RWAPSSF.sol\":1537:1561  numPlayer == MAX_PLAYERS */\n      eq\n        /* \"RWAPSSF.sol\":1529:1584  require(numPlayer == MAX_PLAYERS, \"Not enough players\") */\n      tag_175\n      jumpi\n      mload(0x40)\n      0x08c379a000000000000000000000000000000000000000000000000000000000\n      dup2\n      mstore\n      0x04\n      add\n      tag_176\n      swap1\n      tag_136\n      jump\t// in\n    tag_176:\n      mload(0x40)\n      dup1\n      swap2\n      sub\n      swap1\n      revert\n    tag_175:\n        /* \"RWAPSSF.sol\":1617:1623  player */\n      0x02\n        /* \"RWAPSSF.sol\":1617:1646  player[playerIdx[msg.sender]] */\n      0x00\n        /* \"RWAPSSF.sol\":1624:1633  playerIdx */\n      0x03\n        /* \"RWAPSSF.sol\":1624:1645  playerIdx[msg.sender] */\n      0x00\n        /* \"RWAPSSF.sol\":1634:1644  msg.sender */\n      caller\n        /* \"RWAPSSF.sol\":1624:1645  playerIdx[msg.sender] */\n      0xffffffffffffffffffffffffffffffffffffffff\n      and\n      0xffffffffffffffffffffffffffffffffffffffff\n      and\n      dup2\n      mstore\n      0x20\n      add\n      swap1\n      dup2\n      mstore\n      0x20\n      add\n      0x00\n      keccak256\n      sload\n        /* \"RWAPSSF.sol\":1617:1646  player[playerIdx[msg.sender]] */\n      dup2\n      mstore\n      0x20\n      add\n      swap1\n      dup2\n      mstore\n      0x20\n      add\n      0x00\n      keccak256\n        /* \"RWAPSSF.sol\":1617:1651  player[playerIdx[msg.sender]].addr */\n      0x00\n      add\n      0x01\n      swap1\n      sload\n      swap1\n      0x0100\n      exp\n      swap1\n      div\n      0xffffffffffffffffffffffffffffffffffffffff\n      and\n        /* \"RWAPSSF.sol\":1603:1651  msg.sender == player[playerIdx[msg.sender]].addr */\n      0xffffffffffffffffffffffffffffffffffffffff\n      and\n        /* \"RWAPSSF.sol\":1603:1613  msg.sender */\n      caller\n        /* \"RWAPSSF.sol\":1603:1651  msg.sender == player[playerIdx[msg.sender]].addr */\n      0xffffffffffffffffffffffffffffffffffffffff\n      and\n      eq\n        /* \"RWAPSSF.sol\":1595:1670  require(msg.sender == player[playerIdx[msg.sender]].addr, \"Invalid sender\") */\n      tag_177\n      jumpi\n      mload(0x40)\n      0x08c379a000000000000000000000000000000000000000000000000000000000\n      dup2\n      mstore\n      0x04\n      add\n      tag_178\n      swap1\n      tag_92\n      jump\t// in\n    tag_178:\n      mload(0x40)\n      dup1\n      swap2\n      sub\n      swap1\n      revert\n    tag_177:\n        /* \"RWAPSSF.sol\":1719:1720  0 */\n      0x00\n        /* \"RWAPSSF.sol\":1689:1720  commits[msg.sender].commit == 0 */\n      dup1\n      shl\n        /* \"RWAPSSF.sol\":1689:1696  commits */\n      0x01\n        /* \"RWAPSSF.sol\":1689:1708  commits[msg.sender] */\n      0x00\n        /* \"RWAPSSF.sol\":1697:1707  msg.sender */\n      caller\n        /* \"RWAPSSF.sol\":1689:1708  commits[msg.sender] */\n      0xffffffffffffffffffffffffffffffffffffffff\n      and\n      0xffffffffffffffffffffffffffffffffffffffff\n      and\n      dup2\n      mstore\n      0x20\n      add\n      swap1\n      dup2\n      mstore\n      0x20\n      add\n      0x00\n      keccak256\n        /* \"RWAPSSF.sol\":1689:1715  commits[msg.sender].commit */\n      0x00\n      add\n      sload\n        /* \"RWAPSSF.sol\":1689:1720  commits[msg.sender].commit == 0 */\n      eq\n        /* \"RWAPSSF.sol\":1681:1742  require(commits[msg.sender].commit == 0, \"Already committed\") */\n      tag_179\n      jumpi\n      mload(0x40)\n      0x08c379a000000000000000000000000000000000000000000000000000000000\n      dup2\n      mstore\n      0x04\n      add\n      tag_180\n      swap1\n      tag_181\n      jump\t// in\n    tag_180:\n      mload(0x40)\n      dup1\n      swap2\n      sub\n      swap1\n      revert\n    tag_179:\n        /* \"RWAPSSF.sol\":1762:1769  commits */\n      0x01\n        /* \"RWAPSSF.sol\":1762:1781  commits[msg.sender] */\n      0x00\n        /* \"RWAPSSF.sol\":1770:1780  msg.sender */\n      caller\n        /* \"RWAPSSF.sol\":1762:1781  commits[msg.sender] */\n      0xffffffffffffffffffffffffffffffffffffffff\n      and\n      0xffffffffffffffffffffffffffffffffffffffff\n      and\n      dup2\n      mstore\n      0x20\n      add\n      swap1\n      dup2\n      mstore\n      0x20\n      add\n      0x00\n      keccak256\n        /* \"RWAPSSF.sol\":1762:1790  commits[msg.sender].revealed */\n      0x01\n      add\n      0x00\n      swap1\n      sload\n      swap1\n      0x0100\n      exp\n      swap1\n      div\n      0xff\n      and\n        /* \"RWAPSSF.sol\":1761:1790  !commits[msg.sender].revealed */\n      iszero\n        /* \"RWAPSSF.sol\":1753:1811  require(!commits[msg.sender].revealed, \"Already revealed\") */\n      tag_182\n      jumpi\n      mload(0x40)\n      0x08c379a000000000000000000000000000000000000000000000000000000000\n      dup2\n      mstore\n      0x04\n      add\n      tag_183\n      swap1\n      tag_184\n      jump\t// in\n    tag_183:\n      mload(0x40)\n      dup1\n      swap2\n      sub\n      swap1\n      revert\n    tag_182:\n        /* \"RWAPSSF.sol\":1824:1842  commit(choiceHash) */\n      tag_185\n        /* \"RWAPSSF.sol\":1831:1841  choiceHash */\n      dup2\n        /* \"RWAPSSF.sol\":1824:1830  commit */\n      tag_186\n        /* \"RWAPSSF.sol\":1824:1842  commit(choiceHash) */\n      jump\t// in\n    tag_185:\n        /* \"RWAPSSF.sol\":1855:1864  numCommit */\n      0x06\n      0x00\n        /* \"RWAPSSF.sol\":1855:1866  numCommit++ */\n      dup2\n      sload\n      dup1\n      swap3\n      swap2\n      swap1\n      tag_187\n      swap1\n      tag_149\n      jump\t// in\n    tag_187:\n      swap2\n      swap1\n      pop\n      sstore\n      pop\n        /* \"RWAPSSF.sol\":1903:1918  block.timestamp */\n      timestamp\n        /* \"RWAPSSF.sol\":1879:1900  latestActionTimestamp */\n      0x08\n        /* \"RWAPSSF.sol\":1879:1918  latestActionTimestamp = block.timestamp */\n      dup2\n      swap1\n      sstore\n      pop\n        /* \"RWAPSSF.sol\":1411:1926  function commitChoice(bytes32 choiceHash) public {... */\n      pop\n      jump\t// out\n        /* \"RWAPSSF.sol\":311:351  uint256 public constant TIMEOUT = 1 days */\n    tag_80:\n        /* \"RWAPSSF.sol\":345:351  1 days */\n      0x015180\n        /* \"RWAPSSF.sol\":311:351  uint256 public constant TIMEOUT = 1 days */\n      dup2\n      jump\t// out\n        /* \"RWAPSSF.sol\":6649:7018  function _reset() private {... */\n    tag_100:\n        /* \"RWAPSSF.sol\":6698:6699  0 */\n      0x00\n        /* \"RWAPSSF.sol\":6686:6695  numPlayer */\n      0x04\n        /* \"RWAPSSF.sol\":6686:6699  numPlayer = 0 */\n      dup2\n      swap1\n      sstore\n      pop\n        /* \"RWAPSSF.sol\":6719:6720  0 */\n      0x00\n        /* \"RWAPSSF.sol\":6710:6716  reward */\n      0x05\n        /* \"RWAPSSF.sol\":6710:6720  reward = 0 */\n      dup2\n      swap1\n      sstore\n      pop\n        /* \"RWAPSSF.sol\":6743:6744  0 */\n      0x00\n        /* \"RWAPSSF.sol\":6731:6740  numCommit */\n      0x06\n        /* \"RWAPSSF.sol\":6731:6744  numCommit = 0 */\n      dup2\n      swap1\n      sstore\n      pop\n        /* \"RWAPSSF.sol\":6769:6770  0 */\n      0x00\n        /* \"RWAPSSF.sol\":6755:6766  numRevealed */\n      0x07\n        /* \"RWAPSSF.sol\":6755:6770  numRevealed = 0 */\n      dup2\n      swap1\n      sstore\n      pop\n        /* \"RWAPSSF.sol\":6805:6806  0 */\n      0x00\n        /* \"RWAPSSF.sol\":6781:6802  latestActionTimestamp */\n      0x08\n        /* \"RWAPSSF.sol\":6781:6806  latestActionTimestamp = 0 */\n      dup2\n      swap1\n      sstore\n      pop\n        /* \"RWAPSSF.sol\":6824:6831  commits */\n      0x01\n        /* \"RWAPSSF.sol\":6824:6847  commits[player[0].addr] */\n      0x00\n        /* \"RWAPSSF.sol\":6832:6838  player */\n      0x02\n        /* \"RWAPSSF.sol\":6832:6841  player[0] */\n      0x00\n        /* \"RWAPSSF.sol\":6839:6840  0 */\n      dup1\n        /* \"RWAPSSF.sol\":6832:6841  player[0] */\n      dup2\n      mstore\n      0x20\n      add\n      swap1\n      dup2\n      mstore\n      0x20\n      add\n      0x00\n      keccak256\n        /* \"RWAPSSF.sol\":6832:6846  player[0].addr */\n      0x00\n      add\n      0x01\n      swap1\n      sload\n      swap1\n      0x0100\n      exp\n      swap1\n      div\n      0xffffffffffffffffffffffffffffffffffffffff\n      and\n        /* \"RWAPSSF.sol\":6824:6847  commits[player[0].addr] */\n      0xffffffffffffffffffffffffffffffffffffffff\n      and\n      0xffffffffffffffffffffffffffffffffffffffff\n      and\n      dup2\n      mstore\n      0x20\n      add\n      swap1\n      dup2\n      mstore\n      0x20\n      add\n      0x00\n      keccak256\n      0x00\n        /* \"RWAPSSF.sol\":6817:6847  delete commits[player[0].addr] */\n      dup1\n      dup3\n      add\n      0x00\n      swap1\n      sstore\n      0x01\n      dup3\n      add\n      exp(0x0100, 0x00)\n      dup2\n      sload\n      swap1\n      0xff\n      mul\n      not\n      and\n      swap1\n      sstore\n      pop\n      pop\n        /* \"RWAPSSF.sol\":6865:6872  commits */\n      0x01\n        /* \"RWAPSSF.sol\":6865:6888  commits[player[1].addr] */\n      0x00\n        /* \"RWAPSSF.sol\":6873:6879  player */\n      0x02\n        /* \"RWAPSSF.sol\":6873:6882  player[1] */\n      0x00\n        /* \"RWAPSSF.sol\":6880:6881  1 */\n      0x01\n        /* \"RWAPSSF.sol\":6873:6882  player[1] */\n      dup2\n      mstore\n      0x20\n      add\n      swap1\n      dup2\n      mstore\n      0x20\n      add\n      0x00\n      keccak256\n        /* \"RWAPSSF.sol\":6873:6887  player[1].addr */\n      0x00\n      add\n      0x01\n      swap1\n      sload\n      swap1\n      0x0100\n      exp\n      swap1\n      div\n      0xffffffffffffffffffffffffffffffffffffffff\n      and\n        /* \"RWAPSSF.sol\":6865:6888  commits[player[1].addr] */\n      0xffffffffffffffffffffffffffffffffffffffff\n      and\n      0xffffffffffffffffffffffffffffffffffffffff\n      and\n      dup2\n      mstore\n      0x20\n      add\n      swap1\n      dup2\n      mstore\n      0x20\n      add\n      0x00\n      keccak256\n      0x00\n        /* \"RWAPSSF.sol\":6858:6888  delete commits[player[1].addr] */\n      dup1\n      dup3\n      add\n      0x00\n      swap1\n      sstore\n      0x01\n      dup3\n      add\n      exp(0x0100, 0x00)\n      dup2\n      sload\n      swap1\n      0xff\n      mul\n      not\n      and\n      swap1\n      sstore\n      pop\n      pop\n        /* \"RWAPSSF.sol\":6906:6913  commits */\n      0x01\n        /* \"RWAPSSF.sol\":6906:6929  commits[player[2].addr] */\n      0x00\n        /* \"RWAPSSF.sol\":6914:6920  player */\n      0x02\n        /* \"RWAPSSF.sol\":6914:6923  player[2] */\n      0x00\n        /* \"RWAPSSF.sol\":6921:6922  2 */\n      0x02\n        /* \"RWAPSSF.sol\":6914:6923  player[2] */\n      dup2\n      mstore\n      0x20\n      add\n      swap1\n      dup2\n      mstore\n      0x20\n      add\n      0x00\n      keccak256\n        /* \"RWAPSSF.sol\":6914:6928  player[2].addr */\n      0x00\n      add\n      0x01\n      swap1\n      sload\n      swap1\n      0x0100\n      exp\n      swap1\n      div\n      0xffffffffffffffffffffffffffffffffffffffff\n      and\n        /* \"RWAPSSF.sol\":6906:6929  commits[player[2].addr] */\n      0xffffffffffffffffffffffffffffffffffffffff\n      and\n      0xffffffffffffffffffffffffffffffffffffffff\n      and\n      dup2\n      mstore\n      0x20\n      add\n      swap1\n      dup2\n      mstore\n      0x20\n      add\n      0x00\n      keccak256\n      0x00\n        /* \"RWAPSSF.sol\":6899:6929  delete commits[player[2].addr] */\n      dup1\n      dup3\n      add\n      0x00\n      swap1\n      sstore\n      0x01\n      dup3\n      add\n      exp(0x0100, 0x00)\n      dup2\n      sload\n      swap1\n      0xff\n      mul\n      not\n      and\n      swap1\n      sstore\n      pop\n      pop\n        /* \"RWAPSSF.sol\":6947:6953  player */\n      0x02\n        /* \"RWAPSSF.sol\":6947:6956  player[0] */\n      0x00\n        /* \"RWAPSSF.sol\":6954:6955  0 */\n      dup1\n        /* \"RWAPSSF.sol\":6947:6956  player[0] */\n      dup2\n      mstore\n      0x20\n      add\n      swap1\n      dup2\n      mstore\n      0x20\n      add\n      0x00\n      keccak256\n      0x00\n        /* \"RWAPSSF.sol\":6940:6956  delete player[0] */\n      dup1\n      dup3\n      add\n      exp(0x0100, 0x00)\n      dup2\n      sload\n      swap1\n      0xff\n      mul\n      not\n      and\n      swap1\n      sstore\n      0x00\n      dup3\n      add\n      exp(0x0100, 0x01)\n      dup2\n      sload\n      swap1\n      0xffffffffffffffffffffffffffffffffffffffff\n      mul\n      not\n      and\n      swap1\n      sstore\n      0x01\n      dup3\n      add\n      0x00\n      swap1\n      sstore\n      pop\n      pop\n        /* \"RWAPSSF.sol\":6974:6980  player */\n      0x02\n        /* \"RWAPSSF.sol\":6974:6983  player[1] */\n      0x00\n        /* \"RWAPSSF.sol\":6981:6982  1 */\n      0x01\n        /* \"RWAPSSF.sol\":6974:6983  player[1] */\n      dup2\n      mstore\n      0x20\n      add\n      swap1\n      dup2\n      mstore\n      0x20\n      add\n      0x00\n      keccak256\n      0x00\n        /* \"RWAPSSF.sol\":6967:6983  delete player[1] */\n      dup1\n      dup3\n      add\n      exp(0x0100, 0x00)\n      dup2\n      sload\n      swap1\n      0xff\n      mul\n      not\n      and\n      swap1\n      sstore\n      0x00\n      dup3\n      add\n      exp(0x0100, 0x01)\n      dup2\n      sload\n      swap1\n      0xffffffffffffffffffffffffffffffffffffffff\n      mul\n      not\n      and\n      swap1\n      sstore\n      0x01\n      dup3\n      add\n      0x00\n      swap1\n      sstore\n      pop\n      pop\n        /* \"RWAPSSF.sol\":7001:7007  player */\n      0x02\n        /* \"RWAPSSF.sol\":7001:7010  player[2] */\n      0x00\n        /* \"RWAPSSF.sol\":7008:7009  2 */\n      0x02\n        /* \"RWAPSSF.sol\":7001:7010  player[2] */\n      dup2\n      mstore\n      0x20\n      add\n      swap1\n      dup2\n      mstore\n      0x20\n      add\n      0x00\n      keccak256\n      0x00\n        /* \"RWAPSSF.sol\":6994:7010  delete player[2] */\n      dup1\n      dup3\n      add\n      exp(0x0100, 0x00)\n      dup2\n      sload\n      swap1\n      0xff\n      mul\n      not\n      and\n      swap1\n      sstore\n      0x00\n      dup3\n      add\n      exp(0x0100, 0x01)\n      dup2\n      sload\n      swap1\n      0xffffffffffffffffffffffffffffffffffffffff\n      mul\n      not\n      and\n      swap1\n      sstore\n      0x01\n      dup3\n      add\n      0x00\n      swap1\n      sstore\n      pop\n      pop\n        /* \"RWAPSSF.sol\":6649:7018  function _reset() private {... */\n      jump\t// out\n        /* \"CommitReveal.sol\":488:994  function revealAnswer(bytes32 answer, bytes32 salt) internal {... */\n    tag_145:\n        /* \"CommitReveal.sol\":660:665  false */\n      0x00\n        /* \"CommitReveal.sol\":630:665  commits[msg.sender].revealed==false */\n      iszero\n      iszero\n        /* \"CommitReveal.sol\":630:637  commits */\n      0x01\n        /* \"CommitReveal.sol\":630:649  commits[msg.sender] */\n      0x00\n        /* \"CommitReveal.sol\":638:648  msg.sender */\n      caller\n        /* \"CommitReveal.sol\":630:649  commits[msg.sender] */\n      0xffffffffffffffffffffffffffffffffffffffff\n      and\n      0xffffffffffffffffffffffffffffffffffffffff\n      and\n      dup2\n      mstore\n      0x20\n      add\n      swap1\n      dup2\n      mstore\n      0x20\n      add\n      0x00\n      keccak256\n        /* \"CommitReveal.sol\":630:658  commits[msg.sender].revealed */\n      0x01\n      add\n      0x00\n      swap1\n      sload\n      swap1\n      0x0100\n      exp\n      swap1\n      div\n      0xff\n      and\n        /* \"CommitReveal.sol\":630:665  commits[msg.sender].revealed==false */\n      iszero\n      iszero\n      eq\n        /* \"CommitReveal.sol\":622:713  require(commits[msg.sender].revealed==false,\"CommitReveal::revealAnswer: Already revealed\") */\n      tag_190\n      jumpi\n      mload(0x40)\n      0x08c379a000000000000000000000000000000000000000000000000000000000\n      dup2\n      mstore\n      0x04\n      add\n      tag_191\n      swap1\n      tag_192\n      jump\t// in\n    tag_191:\n      mload(0x40)\n      dup1\n      swap2\n      sub\n      swap1\n      revert\n    tag_190:\n        /* \"CommitReveal.sol\":748:752  true */\n      0x01\n        /* \"CommitReveal.sol\":719:726  commits */\n      dup1\n        /* \"CommitReveal.sol\":719:738  commits[msg.sender] */\n      0x00\n        /* \"CommitReveal.sol\":727:737  msg.sender */\n      caller\n        /* \"CommitReveal.sol\":719:738  commits[msg.sender] */\n      0xffffffffffffffffffffffffffffffffffffffff\n      and\n      0xffffffffffffffffffffffffffffffffffffffff\n      and\n      dup2\n      mstore\n      0x20\n      add\n      swap1\n      dup2\n      mstore\n      0x20\n      add\n      0x00\n      keccak256\n        /* \"CommitReveal.sol\":719:747  commits[msg.sender].revealed */\n      0x01\n      add\n      0x00\n        /* \"CommitReveal.sol\":719:752  commits[msg.sender].revealed=true */\n      0x0100\n      exp\n      dup2\n      sload\n      dup2\n      0xff\n      mul\n      not\n      and\n      swap1\n      dup4\n      iszero\n      iszero\n      mul\n      or\n      swap1\n      sstore\n      pop\n        /* \"CommitReveal.sol\":849:856  commits */\n      0x01\n        /* \"CommitReveal.sol\":849:868  commits[msg.sender] */\n      0x00\n        /* \"CommitReveal.sol\":857:867  msg.sender */\n      caller\n        /* \"CommitReveal.sol\":849:868  commits[msg.sender] */\n      0xffffffffffffffffffffffffffffffffffffffff\n      and\n      0xffffffffffffffffffffffffffffffffffffffff\n      and\n      dup2\n      mstore\n      0x20\n      add\n      swap1\n      dup2\n      mstore\n      0x20\n      add\n      0x00\n      keccak256\n        /* \"CommitReveal.sol\":849:875  commits[msg.sender].commit */\n      0x00\n      add\n      sload\n        /* \"CommitReveal.sol\":821:847  getSaltedHash(answer,salt) */\n      tag_193\n        /* \"CommitReveal.sol\":835:841  answer */\n      dup4\n        /* \"CommitReveal.sol\":842:846  salt */\n      dup4\n        /* \"CommitReveal.sol\":821:834  getSaltedHash */\n      tag_170\n        /* \"CommitReveal.sol\":821:847  getSaltedHash(answer,salt) */\n      jump\t// in\n    tag_193:\n        /* \"CommitReveal.sol\":821:875  getSaltedHash(answer,salt)==commits[msg.sender].commit */\n      eq\n        /* \"CommitReveal.sol\":813:942  require(getSaltedHash(answer,salt)==commits[msg.sender].commit,\"CommitReveal::revealAnswer: Revealed hash does not match commit\") */\n      tag_194\n      jumpi\n      mload(0x40)\n      0x08c379a000000000000000000000000000000000000000000000000000000000\n      dup2\n      mstore\n      0x04\n      add\n      tag_195\n      swap1\n      tag_196\n      jump\t// in\n    tag_195:\n      mload(0x40)\n      dup1\n      swap2\n      sub\n      swap1\n      revert\n    tag_194:\n        /* \"CommitReveal.sol\":953:989  RevealAnswer(msg.sender,answer,salt) */\n      0x8bed02c4d61e56ed1d90657e7a0ba48f15cca20fcc2899d7235221b2cb0423a6\n        /* \"CommitReveal.sol\":966:976  msg.sender */\n      caller\n        /* \"CommitReveal.sol\":977:983  answer */\n      dup4\n        /* \"CommitReveal.sol\":984:988  salt */\n      dup4\n        /* \"CommitReveal.sol\":953:989  RevealAnswer(msg.sender,answer,salt) */\n      mload(0x40)\n      tag_197\n      swap4\n      swap3\n      swap2\n      swap1\n      tag_198\n      jump\t// in\n    tag_197:\n      mload(0x40)\n      dup1\n      swap2\n      sub\n      swap1\n      log1\n        /* \"CommitReveal.sol\":488:994  function revealAnswer(bytes32 answer, bytes32 salt) internal {... */\n      pop\n      pop\n      jump\t// out\n        /* \"RWAPSSF.sol\":2587:4225  function _checkWinnerAndPay() private {... */\n    tag_152:\n        /* \"RWAPSSF.sol\":2636:2652  uint256 p0Choice */\n      0x00\n        /* \"RWAPSSF.sol\":2663:2669  player */\n      0x02\n        /* \"RWAPSSF.sol\":2663:2672  player[0] */\n      0x00\n        /* \"RWAPSSF.sol\":2670:2671  0 */\n      dup1\n        /* \"RWAPSSF.sol\":2663:2672  player[0] */\n      dup2\n      mstore\n      0x20\n      add\n      swap1\n      dup2\n      mstore\n      0x20\n      add\n      0x00\n      keccak256\n        /* \"RWAPSSF.sol\":2663:2679  player[0].choice */\n      0x00\n      add\n      0x00\n      swap1\n      sload\n      swap1\n      0x0100\n      exp\n      swap1\n      div\n      0xff\n      and\n        /* \"RWAPSSF.sol\":2655:2680  uint256(player[0].choice) */\n      0x06\n      dup2\n      gt\n      iszero\n      tag_200\n      jumpi\n      tag_201\n      tag_130\n      jump\t// in\n    tag_201:\n    tag_200:\n        /* \"RWAPSSF.sol\":2636:2680  uint256 p0Choice = uint256(player[0].choice) */\n      swap1\n      pop\n        /* \"RWAPSSF.sol\":2691:2707  uint256 p1Choice */\n      0x00\n        /* \"RWAPSSF.sol\":2718:2724  player */\n      0x02\n        /* \"RWAPSSF.sol\":2718:2727  player[1] */\n      0x00\n        /* \"RWAPSSF.sol\":2725:2726  1 */\n      0x01\n        /* \"RWAPSSF.sol\":2718:2727  player[1] */\n      dup2\n      mstore\n      0x20\n      add\n      swap1\n      dup2\n      mstore\n      0x20\n      add\n      0x00\n      keccak256\n        /* \"RWAPSSF.sol\":2718:2734  player[1].choice */\n      0x00\n      add\n      0x00\n      swap1\n      sload\n      swap1\n      0x0100\n      exp\n      swap1\n      div\n      0xff\n      and\n        /* \"RWAPSSF.sol\":2710:2735  uint256(player[1].choice) */\n      0x06\n      dup2\n      gt\n      iszero\n      tag_202\n      jumpi\n      tag_203\n      tag_130\n      jump\t// in\n    tag_203:\n    tag_202:\n        /* \"RWAPSSF.sol\":2691:2735  uint256 p1Choice = uint256(player[1].choice) */\n      swap1\n      pop\n        /* \"RWAPSSF.sol\":2746:2762  uint256 p2Choice */\n      0x00\n        /* \"RWAPSSF.sol\":2773:2779  player */\n      0x02\n        /* \"RWAPSSF.sol\":2773:2782  player[2] */\n      0x00\n        /* \"RWAPSSF.sol\":2780:2781  2 */\n      0x02\n        /* \"RWAPSSF.sol\":2773:2782  player[2] */\n      dup2\n      mstore\n      0x20\n      add\n      swap1\n      dup2\n      mstore\n      0x20\n      add\n      0x00\n      keccak256\n        /* \"RWAPSSF.sol\":2773:2789  player[2].choice */\n      0x00\n      add\n      0x00\n      swap1\n      sload\n      swap1\n      0x0100\n      exp\n      swap1\n      div\n      0xff\n      and\n        /* \"RWAPSSF.sol\":2765:2790  uint256(player[2].choice) */\n      0x06\n      dup2\n      gt\n      iszero\n      tag_204\n      jumpi\n      tag_205\n      tag_130\n      jump\t// in\n    tag_205:\n    tag_204:\n        /* \"RWAPSSF.sol\":2746:2790  uint256 p2Choice = uint256(player[2].choice) */\n      swap1\n      pop\n        /* \"RWAPSSF.sol\":2801:2824  uint256[] memory points */\n      0x00\n        /* \"RWAPSSF.sol\":2841:2842  3 */\n      0x03\n        /* \"RWAPSSF.sol\":2827:2843  new uint256[](3) */\n      0xffffffffffffffff\n      dup2\n      gt\n      iszero\n      tag_206\n      jumpi\n      tag_207\n      tag_208\n      jump\t// in\n    tag_207:\n    tag_206:\n      mload(0x40)\n      swap1\n      dup1\n      dup3\n      mstore\n      dup1\n      0x20\n      mul\n      0x20\n      add\n      dup3\n      add\n      0x40\n      mstore\n      dup1\n      iszero\n      tag_209\n      jumpi\n      dup2\n      0x20\n      add\n      0x20\n      dup3\n      mul\n      dup1\n      calldatasize\n      dup4\n      calldatacopy\n      dup1\n      dup3\n      add\n      swap2\n      pop\n      pop\n      swap1\n      pop\n    tag_209:\n      pop\n        /* \"RWAPSSF.sol\":2801:2843  uint256[] memory points = new uint256[](3) */\n      swap1\n      pop\n        /* \"RWAPSSF.sol\":2945:2974  _checkWin(p0Choice, p1Choice) */\n      tag_210\n        /* \"RWAPSSF.sol\":2955:2963  p0Choice */\n      dup5\n        /* \"RWAPSSF.sol\":2965:2973  p1Choice */\n      dup5\n        /* \"RWAPSSF.sol\":2945:2954  _checkWin */\n      tag_211\n        /* \"RWAPSSF.sol\":2945:2974  _checkWin(p0Choice, p1Choice) */\n      jump\t// in\n    tag_210:\n        /* \"RWAPSSF.sol\":2933:2939  points */\n      dup2\n        /* \"RWAPSSF.sol\":2940:2941  0 */\n      0x00\n        /* \"RWAPSSF.sol\":2933:2942  points[0] */\n      dup2\n      mload\n      dup2\n      lt\n      tag_212\n      jumpi\n      tag_213\n      tag_214\n      jump\t// in\n    tag_213:\n    tag_212:\n      0x20\n      mul\n      0x20\n      add\n      add\n        /* \"RWAPSSF.sol\":2933:2974  points[0] = _checkWin(p0Choice, p1Choice) */\n      dup2\n      dup2\n      mstore\n      pop\n      pop\n        /* \"RWAPSSF.sol\":2997:3026  _checkWin(p0Choice, p2Choice) */\n      tag_215\n        /* \"RWAPSSF.sol\":3007:3015  p0Choice */\n      dup5\n        /* \"RWAPSSF.sol\":3017:3025  p2Choice */\n      dup4\n        /* \"RWAPSSF.sol\":2997:3006  _checkWin */\n      tag_211\n        /* \"RWAPSSF.sol\":2997:3026  _checkWin(p0Choice, p2Choice) */\n      jump\t// in\n    tag_215:\n        /* \"RWAPSSF.sol\":2985:2991  points */\n      dup2\n        /* \"RWAPSSF.sol\":2992:2993  0 */\n      0x00\n        /* \"RWAPSSF.sol\":2985:2994  points[0] */\n      dup2\n      mload\n      dup2\n      lt\n      tag_216\n      jumpi\n      tag_217\n      tag_214\n      jump\t// in\n    tag_217:\n    tag_216:\n      0x20\n      mul\n      0x20\n      add\n      add\n        /* \"RWAPSSF.sol\":2985:3026  points[0] = _checkWin(p0Choice, p2Choice) */\n      dup2\n      dup2\n      mstore\n      pop\n      pop\n        /* \"RWAPSSF.sol\":3051:3080  _checkWin(p1Choice, p0Choice) */\n      tag_218\n        /* \"RWAPSSF.sol\":3061:3069  p1Choice */\n      dup4\n        /* \"RWAPSSF.sol\":3071:3079  p0Choice */\n      dup6\n        /* \"RWAPSSF.sol\":3051:3060  _checkWin */\n      tag_211\n        /* \"RWAPSSF.sol\":3051:3080  _checkWin(p1Choice, p0Choice) */\n      jump\t// in\n    tag_218:\n        /* \"RWAPSSF.sol\":3039:3045  points */\n      dup2\n        /* \"RWAPSSF.sol\":3046:3047  1 */\n      0x01\n        /* \"RWAPSSF.sol\":3039:3048  points[1] */\n      dup2\n      mload\n      dup2\n      lt\n      tag_219\n      jumpi\n      tag_220\n      tag_214\n      jump\t// in\n    tag_220:\n    tag_219:\n      0x20\n      mul\n      0x20\n      add\n      add\n        /* \"RWAPSSF.sol\":3039:3080  points[1] = _checkWin(p1Choice, p0Choice) */\n      dup2\n      dup2\n      mstore\n      pop\n      pop\n        /* \"RWAPSSF.sol\":3103:3132  _checkWin(p1Choice, p2Choice) */\n      tag_221\n        /* \"RWAPSSF.sol\":3113:3121  p1Choice */\n      dup4\n        /* \"RWAPSSF.sol\":3123:3131  p2Choice */\n      dup4\n        /* \"RWAPSSF.sol\":3103:3112  _checkWin */\n      tag_211\n        /* \"RWAPSSF.sol\":3103:3132  _checkWin(p1Choice, p2Choice) */\n      jump\t// in\n    tag_221:\n        /* \"RWAPSSF.sol\":3091:3097  points */\n      dup2\n        /* \"RWAPSSF.sol\":3098:3099  1 */\n      0x01\n        /* \"RWAPSSF.sol\":3091:3100  points[1] */\n      dup2\n      mload\n      dup2\n      lt\n      tag_222\n      jumpi\n      tag_223\n      tag_214\n      jump\t// in\n    tag_223:\n    tag_222:\n      0x20\n      mul\n      0x20\n      add\n      add\n        /* \"RWAPSSF.sol\":3091:3132  points[1] = _checkWin(p1Choice, p2Choice) */\n      dup2\n      dup2\n      mstore\n      pop\n      pop\n        /* \"RWAPSSF.sol\":3157:3186  _checkWin(p2Choice, p0Choice) */\n      tag_224\n        /* \"RWAPSSF.sol\":3167:3175  p2Choice */\n      dup3\n        /* \"RWAPSSF.sol\":3177:3185  p0Choice */\n      dup6\n        /* \"RWAPSSF.sol\":3157:3166  _checkWin */\n      tag_211\n        /* \"RWAPSSF.sol\":3157:3186  _checkWin(p2Choice, p0Choice) */\n      jump\t// in\n    tag_224:\n        /* \"RWAPSSF.sol\":3145:3151  points */\n      dup2\n        /* \"RWAPSSF.sol\":3152:3153  2 */\n      0x02\n        /* \"RWAPSSF.sol\":3145:3154  points[2] */\n      dup2\n      mload\n      dup2\n      lt\n      tag_225\n      jumpi\n      tag_226\n      tag_214\n      jump\t// in\n    tag_226:\n    tag_225:\n      0x20\n      mul\n      0x20\n      add\n      add\n        /* \"RWAPSSF.sol\":3145:3186  points[2] = _checkWin(p2Choice, p0Choice) */\n      dup2\n      dup2\n      mstore\n      pop\n      pop\n        /* \"RWAPSSF.sol\":3209:3238  _checkWin(p2Choice, p1Choice) */\n      tag_227\n        /* \"RWAPSSF.sol\":3219:3227  p2Choice */\n      dup3\n        /* \"RWAPSSF.sol\":3229:3237  p1Choice */\n      dup5\n        /* \"RWAPSSF.sol\":3209:3218  _checkWin */\n      tag_211\n        /* \"RWAPSSF.sol\":3209:3238  _checkWin(p2Choice, p1Choice) */\n      jump\t// in\n    tag_227:\n        /* \"RWAPSSF.sol\":3197:3203  points */\n      dup2\n        /* \"RWAPSSF.sol\":3204:3205  2 */\n      0x02\n        /* \"RWAPSSF.sol\":3197:3206  points[2] */\n      dup2\n      mload\n      dup2\n      lt\n      tag_228\n      jumpi\n      tag_229\n      tag_214\n      jump\t// in\n    tag_229:\n    tag_228:\n      0x20\n      mul\n      0x20\n      add\n      add\n        /* \"RWAPSSF.sol\":3197:3238  points[2] = _checkWin(p2Choice, p1Choice) */\n      dup2\n      dup2\n      mstore\n      pop\n      pop\n        /* \"RWAPSSF.sol\":3251:3272  uint256 maxPointCount */\n      0x00\n        /* \"RWAPSSF.sol\":3287:3303  uint256 maxPoint */\n      dup1\n        /* \"RWAPSSF.sol\":3318:3332  uint256 winner */\n      0x00\n        /* \"RWAPSSF.sol\":3352:3361  uint256 i */\n      dup1\n        /* \"RWAPSSF.sol\":3347:3609  for (uint256 i = 0; i < 3; i++) {... */\n    tag_230:\n        /* \"RWAPSSF.sol\":3371:3372  3 */\n      0x03\n        /* \"RWAPSSF.sol\":3367:3368  i */\n      dup2\n        /* \"RWAPSSF.sol\":3367:3372  i < 3 */\n      lt\n        /* \"RWAPSSF.sol\":3347:3609  for (uint256 i = 0; i < 3; i++) {... */\n      iszero\n      tag_231\n      jumpi\n        /* \"RWAPSSF.sol\":3410:3418  maxPoint */\n      dup3\n        /* \"RWAPSSF.sol\":3398:3404  points */\n      dup6\n        /* \"RWAPSSF.sol\":3405:3406  i */\n      dup3\n        /* \"RWAPSSF.sol\":3398:3407  points[i] */\n      dup2\n      mload\n      dup2\n      lt\n      tag_233\n      jumpi\n      tag_234\n      tag_214\n      jump\t// in\n    tag_234:\n    tag_233:\n      0x20\n      mul\n      0x20\n      add\n      add\n      mload\n        /* \"RWAPSSF.sol\":3398:3418  points[i] > maxPoint */\n      gt\n        /* \"RWAPSSF.sol\":3394:3504  if (points[i] > maxPoint) {... */\n      iszero\n      tag_235\n      jumpi\n        /* \"RWAPSSF.sol\":3450:3456  points */\n      dup5\n        /* \"RWAPSSF.sol\":3457:3458  i */\n      dup2\n        /* \"RWAPSSF.sol\":3450:3459  points[i] */\n      dup2\n      mload\n      dup2\n      lt\n      tag_236\n      jumpi\n      tag_237\n      tag_214\n      jump\t// in\n    tag_237:\n    tag_236:\n      0x20\n      mul\n      0x20\n      add\n      add\n      mload\n        /* \"RWAPSSF.sol\":3439:3459  maxPoint = points[i] */\n      swap3\n      pop\n        /* \"RWAPSSF.sol\":3487:3488  i */\n      dup1\n        /* \"RWAPSSF.sol\":3478:3488  winner = i */\n      swap2\n      pop\n        /* \"RWAPSSF.sol\":3394:3504  if (points[i] > maxPoint) {... */\n    tag_235:\n        /* \"RWAPSSF.sol\":3535:3543  maxPoint */\n      dup3\n        /* \"RWAPSSF.sol\":3522:3528  points */\n      dup6\n        /* \"RWAPSSF.sol\":3529:3530  i */\n      dup3\n        /* \"RWAPSSF.sol\":3522:3531  points[i] */\n      dup2\n      mload\n      dup2\n      lt\n      tag_238\n      jumpi\n      tag_239\n      tag_214\n      jump\t// in\n    tag_239:\n    tag_238:\n      0x20\n      mul\n      0x20\n      add\n      add\n      mload\n        /* \"RWAPSSF.sol\":3522:3543  points[i] == maxPoint */\n      sub\n        /* \"RWAPSSF.sol\":3518:3598  if (points[i] == maxPoint) {... */\n      tag_240\n      jumpi\n        /* \"RWAPSSF.sol\":3581:3582  1 */\n      0x01\n        /* \"RWAPSSF.sol\":3564:3582  maxPointCount += 1 */\n      dup5\n      tag_241\n      swap2\n      swap1\n      tag_84\n      jump\t// in\n    tag_241:\n      swap4\n      pop\n        /* \"RWAPSSF.sol\":3518:3598  if (points[i] == maxPoint) {... */\n    tag_240:\n        /* \"RWAPSSF.sol\":3374:3377  i++ */\n      dup1\n      dup1\n      0x01\n      add\n      swap2\n      pop\n      pop\n        /* \"RWAPSSF.sol\":3347:3609  for (uint256 i = 0; i < 3; i++) {... */\n      jump(tag_230)\n    tag_231:\n      pop\n        /* \"RWAPSSF.sol\":3794:3795  1 */\n      0x01\n        /* \"RWAPSSF.sol\":3777:3790  maxPointCount */\n      dup4\n        /* \"RWAPSSF.sol\":3777:3795  maxPointCount == 1 */\n      sub\n        /* \"RWAPSSF.sol\":3773:4197  if (maxPointCount == 1) {... */\n      tag_242\n      jumpi\n        /* \"RWAPSSF.sol\":3812:3835  address payable account */\n      0x00\n        /* \"RWAPSSF.sol\":3846:3852  player */\n      0x02\n        /* \"RWAPSSF.sol\":3846:3860  player[winner] */\n      0x00\n        /* \"RWAPSSF.sol\":3853:3859  winner */\n      dup4\n        /* \"RWAPSSF.sol\":3846:3860  player[winner] */\n      dup2\n      mstore\n      0x20\n      add\n      swap1\n      dup2\n      mstore\n      0x20\n      add\n      0x00\n      keccak256\n        /* \"RWAPSSF.sol\":3846:3865  player[winner].addr */\n      0x00\n      add\n      0x01\n      swap1\n      sload\n      swap1\n      0x0100\n      exp\n      swap1\n      div\n      0xffffffffffffffffffffffffffffffffffffffff\n      and\n        /* \"RWAPSSF.sol\":3812:3866  address payable account = payable(player[winner].addr) */\n      swap1\n      pop\n        /* \"RWAPSSF.sol\":3881:3888  account */\n      dup1\n        /* \"RWAPSSF.sol\":3881:3897  account.transfer */\n      0xffffffffffffffffffffffffffffffffffffffff\n      and\n        /* \"RWAPSSF.sol\":3881:3905  account.transfer(reward) */\n      0x08fc\n        /* \"RWAPSSF.sol\":3898:3904  reward */\n      sload(0x05)\n        /* \"RWAPSSF.sol\":3881:3905  account.transfer(reward) */\n      swap1\n      dup2\n      iszero\n      mul\n      swap1\n      mload(0x40)\n      0x00\n      mload(0x40)\n      dup1\n      dup4\n      sub\n      dup2\n      dup6\n      dup9\n      dup9\n      call\n      swap4\n      pop\n      pop\n      pop\n      pop\n      iszero\n      dup1\n      iszero\n      tag_244\n      jumpi\n      returndatasize\n      0x00\n      dup1\n      returndatacopy\n      revert(0x00, returndatasize)\n    tag_244:\n      pop\n        /* \"RWAPSSF.sol\":3797:3917  {... */\n      pop\n        /* \"RWAPSSF.sol\":3773:4197  if (maxPointCount == 1) {... */\n      jump(tag_245)\n    tag_242:\n        /* \"RWAPSSF.sol\":3943:3952  uint256 i */\n      0x00\n        /* \"RWAPSSF.sol\":3938:4186  for (uint256 i = 0; i < 3; i++) {... */\n    tag_246:\n        /* \"RWAPSSF.sol\":3962:3963  3 */\n      0x03\n        /* \"RWAPSSF.sol\":3958:3959  i */\n      dup2\n        /* \"RWAPSSF.sol\":3958:3963  i < 3 */\n      lt\n        /* \"RWAPSSF.sol\":3938:4186  for (uint256 i = 0; i < 3; i++) {... */\n      iszero\n      tag_247\n      jumpi\n        /* \"RWAPSSF.sol\":4006:4014  maxPoint */\n      dup3\n        /* \"RWAPSSF.sol\":3993:3999  points */\n      dup6\n        /* \"RWAPSSF.sol\":4000:4001  i */\n      dup3\n        /* \"RWAPSSF.sol\":3993:4002  points[i] */\n      dup2\n      mload\n      dup2\n      lt\n      tag_249\n      jumpi\n      tag_250\n      tag_214\n      jump\t// in\n    tag_250:\n    tag_249:\n      0x20\n      mul\n      0x20\n      add\n      add\n      mload\n        /* \"RWAPSSF.sol\":3993:4014  points[i] == maxPoint */\n      sub\n        /* \"RWAPSSF.sol\":3989:4171  if (points[i] == maxPoint) {... */\n      tag_251\n      jumpi\n        /* \"RWAPSSF.sol\":4039:4062  address payable account */\n      0x00\n        /* \"RWAPSSF.sol\":4073:4079  player */\n      0x02\n        /* \"RWAPSSF.sol\":4073:4082  player[i] */\n      0x00\n        /* \"RWAPSSF.sol\":4080:4081  i */\n      dup4\n        /* \"RWAPSSF.sol\":4073:4082  player[i] */\n      dup2\n      mstore\n      0x20\n      add\n      swap1\n      dup2\n      mstore\n      0x20\n      add\n      0x00\n      keccak256\n        /* \"RWAPSSF.sol\":4073:4087  player[i].addr */\n      0x00\n      add\n      0x01\n      swap1\n      sload\n      swap1\n      0x0100\n      exp\n      swap1\n      div\n      0xffffffffffffffffffffffffffffffffffffffff\n      and\n        /* \"RWAPSSF.sol\":4039:4088  address payable account = payable(player[i].addr) */\n      swap1\n      pop\n        /* \"RWAPSSF.sol\":4111:4118  account */\n      dup1\n        /* \"RWAPSSF.sol\":4111:4127  account.transfer */\n      0xffffffffffffffffffffffffffffffffffffffff\n      and\n        /* \"RWAPSSF.sol\":4111:4151  account.transfer(reward / maxPointCount) */\n      0x08fc\n        /* \"RWAPSSF.sol\":4137:4150  maxPointCount */\n      dup7\n        /* \"RWAPSSF.sol\":4128:4134  reward */\n      sload(0x05)\n        /* \"RWAPSSF.sol\":4128:4150  reward / maxPointCount */\n      tag_252\n      swap2\n      swap1\n      tag_253\n      jump\t// in\n    tag_252:\n        /* \"RWAPSSF.sol\":4111:4151  account.transfer(reward / maxPointCount) */\n      swap1\n      dup2\n      iszero\n      mul\n      swap1\n      mload(0x40)\n      0x00\n      mload(0x40)\n      dup1\n      dup4\n      sub\n      dup2\n      dup6\n      dup9\n      dup9\n      call\n      swap4\n      pop\n      pop\n      pop\n      pop\n      iszero\n      dup1\n      iszero\n      tag_255\n      jumpi\n      returndatasize\n      0x00\n      dup1\n      returndatacopy\n      revert(0x00, returndatasize)\n    tag_255:\n      pop\n        /* \"RWAPSSF.sol\":4016:4171  {... */\n      pop\n        /* \"RWAPSSF.sol\":3989:4171  if (points[i] == maxPoint) {... */\n    tag_251:\n        /* \"RWAPSSF.sol\":3965:3968  i++ */\n      dup1\n      dup1\n      0x01\n      add\n      swap2\n      pop\n      pop\n        /* \"RWAPSSF.sol\":3938:4186  for (uint256 i = 0; i < 3; i++) {... */\n      jump(tag_246)\n    tag_247:\n      pop\n        /* \"RWAPSSF.sol\":3773:4197  if (maxPointCount == 1) {... */\n    tag_245:\n        /* \"RWAPSSF.sol\":4209:4217  _reset() */\n      tag_256\n        /* \"RWAPSSF.sol\":4209:4215  _reset */\n      tag_100\n        /* \"RWAPSSF.sol\":4209:4217  _reset() */\n      jump\t// in\n    tag_256:\n        /* \"RWAPSSF.sol\":2625:4225  {... */\n      pop\n      pop\n      pop\n      pop\n      pop\n      pop\n      pop\n        /* \"RWAPSSF.sol\":2587:4225  function _checkWinnerAndPay() private {... */\n      jump\t// out\n        /* \"CommitReveal.sol\":1066:1218  function getSaltedHash(bytes32 data,bytes32 salt) internal view returns(bytes32){... */\n    tag_170:\n        /* \"CommitReveal.sol\":1138:1145  bytes32 */\n      0x00\n        /* \"CommitReveal.sol\":1194:1198  this */\n      address\n        /* \"CommitReveal.sol\":1201:1205  data */\n      dup4\n        /* \"CommitReveal.sol\":1207:1211  salt */\n      dup4\n        /* \"CommitReveal.sol\":1169:1212  abi.encodePacked(address(this), data, salt) */\n      add(0x20, mload(0x40))\n      tag_258\n      swap4\n      swap3\n      swap2\n      swap1\n      tag_259\n      jump\t// in\n    tag_258:\n      mload(0x40)\n      0x20\n      dup2\n      dup4\n      sub\n      sub\n      dup2\n      mstore\n      swap1\n      0x40\n      mstore\n        /* \"CommitReveal.sol\":1159:1213  keccak256(abi.encodePacked(address(this), data, salt)) */\n      dup1\n      mload\n      swap1\n      0x20\n      add\n      keccak256\n        /* \"CommitReveal.sol\":1152:1213  return keccak256(abi.encodePacked(address(this), data, salt)) */\n      swap1\n      pop\n        /* \"CommitReveal.sol\":1066:1218  function getSaltedHash(bytes32 data,bytes32 salt) internal view returns(bytes32){... */\n      swap3\n      swap2\n      pop\n      pop\n      jump\t// out\n        /* \"CommitReveal.sol\":237:430  function commit(bytes32 dataHash) internal {... */\n    tag_186:\n        /* \"CommitReveal.sol\":315:323  dataHash */\n      dup1\n        /* \"CommitReveal.sol\":286:293  commits */\n      0x01\n        /* \"CommitReveal.sol\":286:305  commits[msg.sender] */\n      0x00\n        /* \"CommitReveal.sol\":294:304  msg.sender */\n      caller\n        /* \"CommitReveal.sol\":286:305  commits[msg.sender] */\n      0xffffffffffffffffffffffffffffffffffffffff\n      and\n      0xffffffffffffffffffffffffffffffffffffffff\n      and\n      dup2\n      mstore\n      0x20\n      add\n      swap1\n      dup2\n      mstore\n      0x20\n      add\n      0x00\n      keccak256\n        /* \"CommitReveal.sol\":286:312  commits[msg.sender].commit */\n      0x00\n      add\n        /* \"CommitReveal.sol\":286:323  commits[msg.sender].commit = dataHash */\n      dup2\n      swap1\n      sstore\n      pop\n        /* \"CommitReveal.sol\":360:365  false */\n      0x00\n        /* \"CommitReveal.sol\":329:336  commits */\n      0x01\n        /* \"CommitReveal.sol\":329:348  commits[msg.sender] */\n      0x00\n        /* \"CommitReveal.sol\":337:347  msg.sender */\n      caller\n        /* \"CommitReveal.sol\":329:348  commits[msg.sender] */\n      0xffffffffffffffffffffffffffffffffffffffff\n      and\n      0xffffffffffffffffffffffffffffffffffffffff\n      and\n      dup2\n      mstore\n      0x20\n      add\n      swap1\n      dup2\n      mstore\n      0x20\n      add\n      0x00\n      keccak256\n        /* \"CommitReveal.sol\":329:357  commits[msg.sender].revealed */\n      0x01\n      add\n      0x00\n        /* \"CommitReveal.sol\":329:365  commits[msg.sender].revealed = false */\n      0x0100\n      exp\n      dup2\n      sload\n      dup2\n      0xff\n      mul\n      not\n      and\n      swap1\n      dup4\n      iszero\n      iszero\n      mul\n      or\n      swap1\n      sstore\n      pop\n        /* \"CommitReveal.sol\":376:425  CommitHash(msg.sender,commits[msg.sender].commit) */\n      0xc38ed506edc9404e14f0bb335345918b4d4798a17868c1948c4d3e3f8add6440\n        /* \"CommitReveal.sol\":387:397  msg.sender */\n      caller\n        /* \"CommitReveal.sol\":398:405  commits */\n      0x01\n        /* \"CommitReveal.sol\":398:417  commits[msg.sender] */\n      0x00\n        /* \"CommitReveal.sol\":406:416  msg.sender */\n      caller\n        /* \"CommitReveal.sol\":398:417  commits[msg.sender] */\n      0xffffffffffffffffffffffffffffffffffffffff\n      and\n      0xffffffffffffffffffffffffffffffffffffffff\n      and\n      dup2\n      mstore\n      0x20\n      add\n      swap1\n      dup2\n      mstore\n      0x20\n      add\n      0x00\n      keccak256\n        /* \"CommitReveal.sol\":398:424  commits[msg.sender].commit */\n      0x00\n      add\n      sload\n        /* \"CommitReveal.sol\":376:425  CommitHash(msg.sender,commits[msg.sender].commit) */\n      mload(0x40)\n      tag_261\n      swap3\n      swap2\n      swap1\n      tag_262\n      jump\t// in\n    tag_261:\n      mload(0x40)\n      dup1\n      swap2\n      sub\n      swap1\n      log1\n        /* \"CommitReveal.sol\":237:430  function commit(bytes32 dataHash) internal {... */\n      pop\n      jump\t// out\n        /* \"RWAPSSF.sol\":4270:4700  function _checkWin(uint256 p0Choice, uint256 p1Choice) private pure returns(uint256) {... */\n    tag_211:\n        /* \"RWAPSSF.sol\":4346:4353  uint256 */\n      0x00\n        /* \"RWAPSSF.sol\":4392:4400  p0Choice */\n      dup3\n        /* \"RWAPSSF.sol\":4387:4388  7 */\n      0x07\n        /* \"RWAPSSF.sol\":4382:4383  1 */\n      0x01\n        /* \"RWAPSSF.sol\":4371:4379  p1Choice */\n      dup5\n        /* \"RWAPSSF.sol\":4371:4383  p1Choice + 1 */\n      tag_264\n      swap2\n      swap1\n      tag_84\n      jump\t// in\n    tag_264:\n        /* \"RWAPSSF.sol\":4370:4388  (p1Choice + 1) % 7 */\n      tag_265\n      swap2\n      swap1\n      tag_266\n      jump\t// in\n    tag_265:\n        /* \"RWAPSSF.sol\":4370:4400  (p1Choice + 1) % 7 == p0Choice */\n      eq\n        /* \"RWAPSSF.sol\":4370:4434  (p1Choice + 1) % 7 == p0Choice || (p1Choice + 2) % 7 == p0Choice */\n      dup1\n      tag_267\n      jumpi\n      pop\n        /* \"RWAPSSF.sol\":4426:4434  p0Choice */\n      dup3\n        /* \"RWAPSSF.sol\":4421:4422  7 */\n      0x07\n        /* \"RWAPSSF.sol\":4416:4417  2 */\n      0x02\n        /* \"RWAPSSF.sol\":4405:4413  p1Choice */\n      dup5\n        /* \"RWAPSSF.sol\":4405:4417  p1Choice + 2 */\n      tag_268\n      swap2\n      swap1\n      tag_84\n      jump\t// in\n    tag_268:\n        /* \"RWAPSSF.sol\":4404:4422  (p1Choice + 2) % 7 */\n      tag_269\n      swap2\n      swap1\n      tag_266\n      jump\t// in\n    tag_269:\n        /* \"RWAPSSF.sol\":4404:4434  (p1Choice + 2) % 7 == p0Choice */\n      eq\n        /* \"RWAPSSF.sol\":4370:4434  (p1Choice + 1) % 7 == p0Choice || (p1Choice + 2) % 7 == p0Choice */\n    tag_267:\n        /* \"RWAPSSF.sol\":4370:4468  (p1Choice + 1) % 7 == p0Choice || (p1Choice + 2) % 7 == p0Choice || (p1Choice + 3) % 7 == p0Choice */\n      dup1\n      tag_270\n      jumpi\n      pop\n        /* \"RWAPSSF.sol\":4460:4468  p0Choice */\n      dup3\n        /* \"RWAPSSF.sol\":4455:4456  7 */\n      0x07\n        /* \"RWAPSSF.sol\":4450:4451  3 */\n      0x03\n        /* \"RWAPSSF.sol\":4439:4447  p1Choice */\n      dup5\n        /* \"RWAPSSF.sol\":4439:4451  p1Choice + 3 */\n      tag_271\n      swap2\n      swap1\n      tag_84\n      jump\t// in\n    tag_271:\n        /* \"RWAPSSF.sol\":4438:4456  (p1Choice + 3) % 7 */\n      tag_272\n      swap2\n      swap1\n      tag_266\n      jump\t// in\n    tag_272:\n        /* \"RWAPSSF.sol\":4438:4468  (p1Choice + 3) % 7 == p0Choice */\n      eq\n        /* \"RWAPSSF.sol\":4370:4468  (p1Choice + 1) % 7 == p0Choice || (p1Choice + 2) % 7 == p0Choice || (p1Choice + 3) % 7 == p0Choice */\n    tag_270:\n        /* \"RWAPSSF.sol\":4366:4691  if ((p1Choice + 1) % 7 == p0Choice || (p1Choice + 2) % 7 == p0Choice || (p1Choice + 3) % 7 == p0Choice) {... */\n      iszero\n      tag_273\n      jumpi\n        /* \"RWAPSSF.sol\":4492:4493  3 */\n      0x03\n        /* \"RWAPSSF.sol\":4485:4493  return 3 */\n      swap1\n      pop\n      jump(tag_263)\n        /* \"RWAPSSF.sol\":4366:4691  if ((p1Choice + 1) % 7 == p0Choice || (p1Choice + 2) % 7 == p0Choice || (p1Choice + 3) % 7 == p0Choice) {... */\n    tag_273:\n        /* \"RWAPSSF.sol\":4537:4545  p1Choice */\n      dup2\n        /* \"RWAPSSF.sol\":4532:4533  7 */\n      0x07\n        /* \"RWAPSSF.sol\":4527:4528  1 */\n      0x01\n        /* \"RWAPSSF.sol\":4516:4524  p0Choice */\n      dup6\n        /* \"RWAPSSF.sol\":4516:4528  p0Choice + 1 */\n      tag_275\n      swap2\n      swap1\n      tag_84\n      jump\t// in\n    tag_275:\n        /* \"RWAPSSF.sol\":4515:4533  (p0Choice + 1) % 7 */\n      tag_276\n      swap2\n      swap1\n      tag_266\n      jump\t// in\n    tag_276:\n        /* \"RWAPSSF.sol\":4515:4545  (p0Choice + 1) % 7 == p1Choice */\n      eq\n        /* \"RWAPSSF.sol\":4515:4579  (p0Choice + 1) % 7 == p1Choice || (p0Choice + 2) % 7 == p1Choice */\n      dup1\n      tag_277\n      jumpi\n      pop\n        /* \"RWAPSSF.sol\":4571:4579  p1Choice */\n      dup2\n        /* \"RWAPSSF.sol\":4566:4567  7 */\n      0x07\n        /* \"RWAPSSF.sol\":4561:4562  2 */\n      0x02\n        /* \"RWAPSSF.sol\":4550:4558  p0Choice */\n      dup6\n        /* \"RWAPSSF.sol\":4550:4562  p0Choice + 2 */\n      tag_278\n      swap2\n      swap1\n      tag_84\n      jump\t// in\n    tag_278:\n        /* \"RWAPSSF.sol\":4549:4567  (p0Choice + 2) % 7 */\n      tag_279\n      swap2\n      swap1\n      tag_266\n      jump\t// in\n    tag_279:\n        /* \"RWAPSSF.sol\":4549:4579  (p0Choice + 2) % 7 == p1Choice */\n      eq\n        /* \"RWAPSSF.sol\":4515:4579  (p0Choice + 1) % 7 == p1Choice || (p0Choice + 2) % 7 == p1Choice */\n    tag_277:\n        /* \"RWAPSSF.sol\":4515:4613  (p0Choice + 1) % 7 == p1Choice || (p0Choice + 2) % 7 == p1Choice || (p0Choice + 3) % 7 == p1Choice */\n      dup1\n      tag_280\n      jumpi\n      pop\n        /* \"RWAPSSF.sol\":4605:4613  p1Choice */\n      dup2\n        /* \"RWAPSSF.sol\":4600:4601  7 */\n      0x07\n        /* \"RWAPSSF.sol\":4595:4596  3 */\n      0x03\n        /* \"RWAPSSF.sol\":4584:4592  p0Choice */\n      dup6\n        /* \"RWAPSSF.sol\":4584:4596  p0Choice + 3 */\n      tag_281\n      swap2\n      swap1\n      tag_84\n      jump\t// in\n    tag_281:\n        /* \"RWAPSSF.sol\":4583:4601  (p0Choice + 3) % 7 */\n      tag_282\n      swap2\n      swap1\n      tag_266\n      jump\t// in\n    tag_282:\n        /* \"RWAPSSF.sol\":4583:4613  (p0Choice + 3) % 7 == p1Choice */\n      eq\n        /* \"RWAPSSF.sol\":4515:4613  (p0Choice + 1) % 7 == p1Choice || (p0Choice + 2) % 7 == p1Choice || (p0Choice + 3) % 7 == p1Choice */\n    tag_280:\n        /* \"RWAPSSF.sol\":4511:4691  if ((p0Choice + 1) % 7 == p1Choice || (p0Choice + 2) % 7 == p1Choice || (p0Choice + 3) % 7 == p1Choice) {... */\n      iszero\n      tag_283\n      jumpi\n        /* \"RWAPSSF.sol\":4637:4638  0 */\n      0x00\n        /* \"RWAPSSF.sol\":4630:4638  return 0 */\n      swap1\n      pop\n      jump(tag_263)\n        /* \"RWAPSSF.sol\":4511:4691  if ((p0Choice + 1) % 7 == p1Choice || (p0Choice + 2) % 7 == p1Choice || (p0Choice + 3) % 7 == p1Choice) {... */\n    tag_283:\n        /* \"RWAPSSF.sol\":4678:4679  1 */\n      0x01\n        /* \"RWAPSSF.sol\":4671:4679  return 1 */\n      swap1\n      pop\n        /* \"RWAPSSF.sol\":4270:4700  function _checkWin(uint256 p0Choice, uint256 p1Choice) private pure returns(uint256) {... */\n    tag_263:\n      swap3\n      swap2\n      pop\n      pop\n      jump\t// out\n        /* \"#utility.yul\":88:205   */\n    tag_286:\n        /* \"#utility.yul\":197:198   */\n      0x00\n        /* \"#utility.yul\":194:195   */\n      dup1\n        /* \"#utility.yul\":187:199   */\n      revert\n        /* \"#utility.yul\":334:443   */\n    tag_288:\n        /* \"#utility.yul\":417:418   */\n      0x07\n        /* \"#utility.yul\":410:415   */\n      dup2\n        /* \"#utility.yul\":407:419   */\n      lt\n        /* \"#utility.yul\":397:437   */\n      tag_347\n      jumpi\n        /* \"#utility.yul\":433:434   */\n      0x00\n        /* \"#utility.yul\":430:431   */\n      dup1\n        /* \"#utility.yul\":423:435   */\n      revert\n        /* \"#utility.yul\":397:437   */\n    tag_347:\n        /* \"#utility.yul\":334:443   */\n      pop\n      jump\t// out\n        /* \"#utility.yul\":449:608   */\n    tag_289:\n        /* \"#utility.yul\":505:510   */\n      0x00\n        /* \"#utility.yul\":543:549   */\n      dup2\n        /* \"#utility.yul\":530:550   */\n      calldataload\n        /* \"#utility.yul\":521:550   */\n      swap1\n      pop\n        /* \"#utility.yul\":559:602   */\n      tag_349\n        /* \"#utility.yul\":596:601   */\n      dup2\n        /* \"#utility.yul\":559:602   */\n      tag_288\n      jump\t// in\n    tag_349:\n        /* \"#utility.yul\":449:608   */\n      swap3\n      swap2\n      pop\n      pop\n      jump\t// out\n        /* \"#utility.yul\":614:691   */\n    tag_290:\n        /* \"#utility.yul\":651:658   */\n      0x00\n        /* \"#utility.yul\":680:685   */\n      dup2\n        /* \"#utility.yul\":669:685   */\n      swap1\n      pop\n        /* \"#utility.yul\":614:691   */\n      swap2\n      swap1\n      pop\n      jump\t// out\n        /* \"#utility.yul\":697:819   */\n    tag_291:\n        /* \"#utility.yul\":770:794   */\n      tag_352\n        /* \"#utility.yul\":788:793   */\n      dup2\n        /* \"#utility.yul\":770:794   */\n      tag_290\n      jump\t// in\n    tag_352:\n        /* \"#utility.yul\":763:768   */\n      dup2\n        /* \"#utility.yul\":760:795   */\n      eq\n        /* \"#utility.yul\":750:813   */\n      tag_353\n      jumpi\n        /* \"#utility.yul\":809:810   */\n      0x00\n        /* \"#utility.yul\":806:807   */\n      dup1\n        /* \"#utility.yul\":799:811   */\n      revert\n        /* \"#utility.yul\":750:813   */\n    tag_353:\n        /* \"#utility.yul\":697:819   */\n      pop\n      jump\t// out\n        /* \"#utility.yul\":825:964   */\n    tag_292:\n        /* \"#utility.yul\":871:876   */\n      0x00\n        /* \"#utility.yul\":909:915   */\n      dup2\n        /* \"#utility.yul\":896:916   */\n      calldataload\n        /* \"#utility.yul\":887:916   */\n      swap1\n      pop\n        /* \"#utility.yul\":925:958   */\n      tag_355\n        /* \"#utility.yul\":952:957   */\n      dup2\n        /* \"#utility.yul\":925:958   */\n      tag_291\n      jump\t// in\n    tag_355:\n        /* \"#utility.yul\":825:964   */\n      swap3\n      swap2\n      pop\n      pop\n      jump\t// out\n        /* \"#utility.yul\":970:1464   */\n    tag_25:\n        /* \"#utility.yul\":1048:1054   */\n      0x00\n        /* \"#utility.yul\":1056:1062   */\n      dup1\n        /* \"#utility.yul\":1105:1107   */\n      0x40\n        /* \"#utility.yul\":1093:1102   */\n      dup4\n        /* \"#utility.yul\":1084:1091   */\n      dup6\n        /* \"#utility.yul\":1080:1103   */\n      sub\n        /* \"#utility.yul\":1076:1108   */\n      slt\n        /* \"#utility.yul\":1073:1192   */\n      iszero\n      tag_357\n      jumpi\n        /* \"#utility.yul\":1111:1190   */\n      tag_358\n      tag_286\n      jump\t// in\n    tag_358:\n        /* \"#utility.yul\":1073:1192   */\n    tag_357:\n        /* \"#utility.yul\":1231:1232   */\n      0x00\n        /* \"#utility.yul\":1256:1319   */\n      tag_359\n        /* \"#utility.yul\":1311:1318   */\n      dup6\n        /* \"#utility.yul\":1302:1308   */\n      dup3\n        /* \"#utility.yul\":1291:1300   */\n      dup7\n        /* \"#utility.yul\":1287:1309   */\n      add\n        /* \"#utility.yul\":1256:1319   */\n      tag_289\n      jump\t// in\n    tag_359:\n        /* \"#utility.yul\":1246:1319   */\n      swap3\n      pop\n        /* \"#utility.yul\":1202:1329   */\n      pop\n        /* \"#utility.yul\":1368:1370   */\n      0x20\n        /* \"#utility.yul\":1394:1447   */\n      tag_360\n        /* \"#utility.yul\":1439:1446   */\n      dup6\n        /* \"#utility.yul\":1430:1436   */\n      dup3\n        /* \"#utility.yul\":1419:1428   */\n      dup7\n        /* \"#utility.yul\":1415:1437   */\n      add\n        /* \"#utility.yul\":1394:1447   */\n      tag_292\n      jump\t// in\n    tag_360:\n        /* \"#utility.yul\":1384:1447   */\n      swap2\n      pop\n        /* \"#utility.yul\":1339:1457   */\n      pop\n        /* \"#utility.yul\":970:1464   */\n      swap3\n      pop\n      swap3\n      swap1\n      pop\n      jump\t// out\n        /* \"#utility.yul\":1470:1588   */\n    tag_293:\n        /* \"#utility.yul\":1557:1581   */\n      tag_362\n        /* \"#utility.yul\":1575:1580   */\n      dup2\n        /* \"#utility.yul\":1557:1581   */\n      tag_290\n      jump\t// in\n    tag_362:\n        /* \"#utility.yul\":1552:1555   */\n      dup3\n        /* \"#utility.yul\":1545:1582   */\n      mstore\n        /* \"#utility.yul\":1470:1588   */\n      pop\n      pop\n      jump\t// out\n        /* \"#utility.yul\":1594:1816   */\n    tag_31:\n        /* \"#utility.yul\":1687:1691   */\n      0x00\n        /* \"#utility.yul\":1725:1727   */\n      0x20\n        /* \"#utility.yul\":1714:1723   */\n      dup3\n        /* \"#utility.yul\":1710:1728   */\n      add\n        /* \"#utility.yul\":1702:1728   */\n      swap1\n      pop\n        /* \"#utility.yul\":1738:1809   */\n      tag_364\n        /* \"#utility.yul\":1806:1807   */\n      0x00\n        /* \"#utility.yul\":1795:1804   */\n      dup4\n        /* \"#utility.yul\":1791:1808   */\n      add\n        /* \"#utility.yul\":1782:1788   */\n      dup5\n        /* \"#utility.yul\":1738:1809   */\n      tag_293\n      jump\t// in\n    tag_364:\n        /* \"#utility.yul\":1594:1816   */\n      swap3\n      swap2\n      pop\n      pop\n      jump\t// out\n        /* \"#utility.yul\":1822:2151   */\n    tag_57:\n        /* \"#utility.yul\":1881:1887   */\n      0x00\n        /* \"#utility.yul\":1930:1932   */\n      0x20\n        /* \"#utility.yul\":1918:1927   */\n      dup3\n        /* \"#utility.yul\":1909:1916   */\n      dup5\n        /* \"#utility.yul\":1905:1928   */\n      sub\n        /* \"#utility.yul\":1901:1933   */\n      slt\n        /* \"#utility.yul\":1898:2017   */\n      iszero\n      tag_366\n      jumpi\n        /* \"#utility.yul\":1936:2015   */\n      tag_367\n      tag_286\n      jump\t// in\n    tag_367:\n        /* \"#utility.yul\":1898:2017   */\n    tag_366:\n        /* \"#utility.yul\":2056:2057   */\n      0x00\n        /* \"#utility.yul\":2081:2134   */\n      tag_368\n        /* \"#utility.yul\":2126:2133   */\n      dup5\n        /* \"#utility.yul\":2117:2123   */\n      dup3\n        /* \"#utility.yul\":2106:2115   */\n      dup6\n        /* \"#utility.yul\":2102:2124   */\n      add\n        /* \"#utility.yul\":2081:2134   */\n      tag_292\n      jump\t// in\n    tag_368:\n        /* \"#utility.yul\":2071:2134   */\n      swap2\n      pop\n        /* \"#utility.yul\":2027:2144   */\n      pop\n        /* \"#utility.yul\":1822:2151   */\n      swap3\n      swap2\n      pop\n      pop\n      jump\t// out\n        /* \"#utility.yul\":2157:2337   */\n    tag_130:\n        /* \"#utility.yul\":2205:2282   */\n      0x4e487b7100000000000000000000000000000000000000000000000000000000\n        /* \"#utility.yul\":2202:2203   */\n      0x00\n        /* \"#utility.yul\":2195:2283   */\n      mstore\n        /* \"#utility.yul\":2302:2306   */\n      0x21\n        /* \"#utility.yul\":2299:2300   */\n      0x04\n        /* \"#utility.yul\":2292:2307   */\n      mstore\n        /* \"#utility.yul\":2326:2330   */\n      0x24\n        /* \"#utility.yul\":2323:2324   */\n      0x00\n        /* \"#utility.yul\":2316:2331   */\n      revert\n        /* \"#utility.yul\":2343:2458   */\n    tag_294:\n        /* \"#utility.yul\":2426:2427   */\n      0x07\n        /* \"#utility.yul\":2419:2424   */\n      dup2\n        /* \"#utility.yul\":2416:2428   */\n      lt\n        /* \"#utility.yul\":2406:2452   */\n      tag_371\n      jumpi\n        /* \"#utility.yul\":2432:2450   */\n      tag_372\n      tag_130\n      jump\t// in\n    tag_372:\n        /* \"#utility.yul\":2406:2452   */\n    tag_371:\n        /* \"#utility.yul\":2343:2458   */\n      pop\n      jump\t// out\n        /* \"#utility.yul\":2464:2595   */\n    tag_295:\n        /* \"#utility.yul\":2511:2518   */\n      0x00\n        /* \"#utility.yul\":2540:2545   */\n      dup2\n        /* \"#utility.yul\":2529:2545   */\n      swap1\n      pop\n        /* \"#utility.yul\":2546:2589   */\n      tag_374\n        /* \"#utility.yul\":2583:2588   */\n      dup3\n        /* \"#utility.yul\":2546:2589   */\n      tag_294\n      jump\t// in\n    tag_374:\n        /* \"#utility.yul\":2464:2595   */\n      swap2\n      swap1\n      pop\n      jump\t// out\n        /* \"#utility.yul\":2601:2732   */\n    tag_296:\n        /* \"#utility.yul\":2659:2668   */\n      0x00\n        /* \"#utility.yul\":2692:2726   */\n      tag_376\n        /* \"#utility.yul\":2720:2725   */\n      dup3\n        /* \"#utility.yul\":2692:2726   */\n      tag_295\n      jump\t// in\n    tag_376:\n        /* \"#utility.yul\":2679:2726   */\n      swap1\n      pop\n        /* \"#utility.yul\":2601:2732   */\n      swap2\n      swap1\n      pop\n      jump\t// out\n        /* \"#utility.yul\":2738:2885   */\n    tag_297:\n        /* \"#utility.yul\":2833:2878   */\n      tag_378\n        /* \"#utility.yul\":2872:2877   */\n      dup2\n        /* \"#utility.yul\":2833:2878   */\n      tag_296\n      jump\t// in\n    tag_378:\n        /* \"#utility.yul\":2828:2831   */\n      dup3\n        /* \"#utility.yul\":2821:2879   */\n      mstore\n        /* \"#utility.yul\":2738:2885   */\n      pop\n      pop\n      jump\t// out\n        /* \"#utility.yul\":2891:3017   */\n    tag_298:\n        /* \"#utility.yul\":2928:2935   */\n      0x00\n        /* \"#utility.yul\":2968:3010   */\n      0xffffffffffffffffffffffffffffffffffffffff\n        /* \"#utility.yul\":2961:2966   */\n      dup3\n        /* \"#utility.yul\":2957:3011   */\n      and\n        /* \"#utility.yul\":2946:3011   */\n      swap1\n      pop\n        /* \"#utility.yul\":2891:3017   */\n      swap2\n      swap1\n      pop\n      jump\t// out\n        /* \"#utility.yul\":3023:3119   */\n    tag_299:\n        /* \"#utility.yul\":3060:3067   */\n      0x00\n        /* \"#utility.yul\":3089:3113   */\n      tag_381\n        /* \"#utility.yul\":3107:3112   */\n      dup3\n        /* \"#utility.yul\":3089:3113   */\n      tag_298\n      jump\t// in\n    tag_381:\n        /* \"#utility.yul\":3078:3113   */\n      swap1\n      pop\n        /* \"#utility.yul\":3023:3119   */\n      swap2\n      swap1\n      pop\n      jump\t// out\n        /* \"#utility.yul\":3125:3243   */\n    tag_300:\n        /* \"#utility.yul\":3212:3236   */\n      tag_383\n        /* \"#utility.yul\":3230:3235   */\n      dup2\n        /* \"#utility.yul\":3212:3236   */\n      tag_299\n      jump\t// in\n    tag_383:\n        /* \"#utility.yul\":3207:3210   */\n      dup3\n        /* \"#utility.yul\":3200:3237   */\n      mstore\n        /* \"#utility.yul\":3125:3243   */\n      pop\n      pop\n      jump\t// out\n        /* \"#utility.yul\":3249:3707   */\n    tag_60:\n        /* \"#utility.yul\":3406:3410   */\n      0x00\n        /* \"#utility.yul\":3444:3446   */\n      0x60\n        /* \"#utility.yul\":3433:3442   */\n      dup3\n        /* \"#utility.yul\":3429:3447   */\n      add\n        /* \"#utility.yul\":3421:3447   */\n      swap1\n      pop\n        /* \"#utility.yul\":3457:3536   */\n      tag_385\n        /* \"#utility.yul\":3533:3534   */\n      0x00\n        /* \"#utility.yul\":3522:3531   */\n      dup4\n        /* \"#utility.yul\":3518:3535   */\n      add\n        /* \"#utility.yul\":3509:3515   */\n      dup7\n        /* \"#utility.yul\":3457:3536   */\n      tag_297\n      jump\t// in\n    tag_385:\n        /* \"#utility.yul\":3546:3618   */\n      tag_386\n        /* \"#utility.yul\":3614:3616   */\n      0x20\n        /* \"#utility.yul\":3603:3612   */\n      dup4\n        /* \"#utility.yul\":3599:3617   */\n      add\n        /* \"#utility.yul\":3590:3596   */\n      dup6\n        /* \"#utility.yul\":3546:3618   */\n      tag_300\n      jump\t// in\n    tag_386:\n        /* \"#utility.yul\":3628:3700   */\n      tag_387\n        /* \"#utility.yul\":3696:3698   */\n      0x40\n        /* \"#utility.yul\":3685:3694   */\n      dup4\n        /* \"#utility.yul\":3681:3699   */\n      add\n        /* \"#utility.yul\":3672:3678   */\n      dup5\n        /* \"#utility.yul\":3628:3700   */\n      tag_293\n      jump\t// in\n    tag_387:\n        /* \"#utility.yul\":3249:3707   */\n      swap5\n      swap4\n      pop\n      pop\n      pop\n      pop\n      jump\t// out\n        /* \"#utility.yul\":3713:3835   */\n    tag_301:\n        /* \"#utility.yul\":3786:3810   */\n      tag_389\n        /* \"#utility.yul\":3804:3809   */\n      dup2\n        /* \"#utility.yul\":3786:3810   */\n      tag_299\n      jump\t// in\n    tag_389:\n        /* \"#utility.yul\":3779:3784   */\n      dup2\n        /* \"#utility.yul\":3776:3811   */\n      eq\n        /* \"#utility.yul\":3766:3829   */\n      tag_390\n      jumpi\n        /* \"#utility.yul\":3825:3826   */\n      0x00\n        /* \"#utility.yul\":3822:3823   */\n      dup1\n        /* \"#utility.yul\":3815:3827   */\n      revert\n        /* \"#utility.yul\":3766:3829   */\n    tag_390:\n        /* \"#utility.yul\":3713:3835   */\n      pop\n      jump\t// out\n        /* \"#utility.yul\":3841:3980   */\n    tag_302:\n        /* \"#utility.yul\":3887:3892   */\n      0x00\n        /* \"#utility.yul\":3925:3931   */\n      dup2\n        /* \"#utility.yul\":3912:3932   */\n      calldataload\n        /* \"#utility.yul\":3903:3932   */\n      swap1\n      pop\n        /* \"#utility.yul\":3941:3974   */\n      tag_392\n        /* \"#utility.yul\":3968:3973   */\n      dup2\n        /* \"#utility.yul\":3941:3974   */\n      tag_301\n      jump\t// in\n    tag_392:\n        /* \"#utility.yul\":3841:3980   */\n      swap3\n      swap2\n      pop\n      pop\n      jump\t// out\n        /* \"#utility.yul\":3986:4315   */\n    tag_64:\n        /* \"#utility.yul\":4045:4051   */\n      0x00\n        /* \"#utility.yul\":4094:4096   */\n      0x20\n        /* \"#utility.yul\":4082:4091   */\n      dup3\n        /* \"#utility.yul\":4073:4080   */\n      dup5\n        /* \"#utility.yul\":4069:4092   */\n      sub\n        /* \"#utility.yul\":4065:4097   */\n      slt\n        /* \"#utility.yul\":4062:4181   */\n      iszero\n      tag_394\n      jumpi\n        /* \"#utility.yul\":4100:4179   */\n      tag_395\n      tag_286\n      jump\t// in\n    tag_395:\n        /* \"#utility.yul\":4062:4181   */\n    tag_394:\n        /* \"#utility.yul\":4220:4221   */\n      0x00\n        /* \"#utility.yul\":4245:4298   */\n      tag_396\n        /* \"#utility.yul\":4290:4297   */\n      dup5\n        /* \"#utility.yul\":4281:4287   */\n      dup3\n        /* \"#utility.yul\":4270:4279   */\n      dup6\n        /* \"#utility.yul\":4266:4288   */\n      add\n        /* \"#utility.yul\":4245:4298   */\n      tag_302\n      jump\t// in\n    tag_396:\n        /* \"#utility.yul\":4235:4298   */\n      swap2\n      pop\n        /* \"#utility.yul\":4191:4308   */\n      pop\n        /* \"#utility.yul\":3986:4315   */\n      swap3\n      swap2\n      pop\n      pop\n      jump\t// out\n        /* \"#utility.yul\":4321:4398   */\n    tag_303:\n        /* \"#utility.yul\":4358:4365   */\n      0x00\n        /* \"#utility.yul\":4387:4392   */\n      dup2\n        /* \"#utility.yul\":4376:4392   */\n      swap1\n      pop\n        /* \"#utility.yul\":4321:4398   */\n      swap2\n      swap1\n      pop\n      jump\t// out\n        /* \"#utility.yul\":4404:4522   */\n    tag_304:\n        /* \"#utility.yul\":4491:4515   */\n      tag_399\n        /* \"#utility.yul\":4509:4514   */\n      dup2\n        /* \"#utility.yul\":4491:4515   */\n      tag_303\n      jump\t// in\n    tag_399:\n        /* \"#utility.yul\":4486:4489   */\n      dup3\n        /* \"#utility.yul\":4479:4516   */\n      mstore\n        /* \"#utility.yul\":4404:4522   */\n      pop\n      pop\n      jump\t// out\n        /* \"#utility.yul\":4528:4750   */\n    tag_72:\n        /* \"#utility.yul\":4621:4625   */\n      0x00\n        /* \"#utility.yul\":4659:4661   */\n      0x20\n        /* \"#utility.yul\":4648:4657   */\n      dup3\n        /* \"#utility.yul\":4644:4662   */\n      add\n        /* \"#utility.yul\":4636:4662   */\n      swap1\n      pop\n        /* \"#utility.yul\":4672:4743   */\n      tag_401\n        /* \"#utility.yul\":4740:4741   */\n      0x00\n        /* \"#utility.yul\":4729:4738   */\n      dup4\n        /* \"#utility.yul\":4725:4742   */\n      add\n        /* \"#utility.yul\":4716:4722   */\n      dup5\n        /* \"#utility.yul\":4672:4743   */\n      tag_304\n      jump\t// in\n    tag_401:\n        /* \"#utility.yul\":4528:4750   */\n      swap3\n      swap2\n      pop\n      pop\n      jump\t// out\n        /* \"#utility.yul\":4756:4878   */\n    tag_305:\n        /* \"#utility.yul\":4829:4853   */\n      tag_403\n        /* \"#utility.yul\":4847:4852   */\n      dup2\n        /* \"#utility.yul\":4829:4853   */\n      tag_303\n      jump\t// in\n    tag_403:\n        /* \"#utility.yul\":4822:4827   */\n      dup2\n        /* \"#utility.yul\":4819:4854   */\n      eq\n        /* \"#utility.yul\":4809:4872   */\n      tag_404\n      jumpi\n        /* \"#utility.yul\":4868:4869   */\n      0x00\n        /* \"#utility.yul\":4865:4866   */\n      dup1\n        /* \"#utility.yul\":4858:4870   */\n      revert\n        /* \"#utility.yul\":4809:4872   */\n    tag_404:\n        /* \"#utility.yul\":4756:4878   */\n      pop\n      jump\t// out\n        /* \"#utility.yul\":4884:5023   */\n    tag_306:\n        /* \"#utility.yul\":4930:4935   */\n      0x00\n        /* \"#utility.yul\":4968:4974   */\n      dup2\n        /* \"#utility.yul\":4955:4975   */\n      calldataload\n        /* \"#utility.yul\":4946:4975   */\n      swap1\n      pop\n        /* \"#utility.yul\":4984:5017   */\n      tag_406\n        /* \"#utility.yul\":5011:5016   */\n      dup2\n        /* \"#utility.yul\":4984:5017   */\n      tag_305\n      jump\t// in\n    tag_406:\n        /* \"#utility.yul\":4884:5023   */\n      swap3\n      swap2\n      pop\n      pop\n      jump\t// out\n        /* \"#utility.yul\":5029:5358   */\n    tag_76:\n        /* \"#utility.yul\":5088:5094   */\n      0x00\n        /* \"#utility.yul\":5137:5139   */\n      0x20\n        /* \"#utility.yul\":5125:5134   */\n      dup3\n        /* \"#utility.yul\":5116:5123   */\n      dup5\n        /* \"#utility.yul\":5112:5135   */\n      sub\n        /* \"#utility.yul\":5108:5140   */\n      slt\n        /* \"#utility.yul\":5105:5224   */\n      iszero\n      tag_408\n      jumpi\n        /* \"#utility.yul\":5143:5222   */\n      tag_409\n      tag_286\n      jump\t// in\n    tag_409:\n        /* \"#utility.yul\":5105:5224   */\n    tag_408:\n        /* \"#utility.yul\":5263:5264   */\n      0x00\n        /* \"#utility.yul\":5288:5341   */\n      tag_410\n        /* \"#utility.yul\":5333:5340   */\n      dup5\n        /* \"#utility.yul\":5324:5330   */\n      dup3\n        /* \"#utility.yul\":5313:5322   */\n      dup6\n        /* \"#utility.yul\":5309:5331   */\n      add\n        /* \"#utility.yul\":5288:5341   */\n      tag_306\n      jump\t// in\n    tag_410:\n        /* \"#utility.yul\":5278:5341   */\n      swap2\n      pop\n        /* \"#utility.yul\":5234:5351   */\n      pop\n        /* \"#utility.yul\":5029:5358   */\n      swap3\n      swap2\n      pop\n      pop\n      jump\t// out\n        /* \"#utility.yul\":5364:5544   */\n    tag_307:\n        /* \"#utility.yul\":5412:5489   */\n      0x4e487b7100000000000000000000000000000000000000000000000000000000\n        /* \"#utility.yul\":5409:5410   */\n      0x00\n        /* \"#utility.yul\":5402:5490   */\n      mstore\n        /* \"#utility.yul\":5509:5513   */\n      0x11\n        /* \"#utility.yul\":5506:5507   */\n      0x04\n        /* \"#utility.yul\":5499:5514   */\n      mstore\n        /* \"#utility.yul\":5533:5537   */\n      0x24\n        /* \"#utility.yul\":5530:5531   */\n      0x00\n        /* \"#utility.yul\":5523:5538   */\n      revert\n        /* \"#utility.yul\":5550:5741   */\n    tag_84:\n        /* \"#utility.yul\":5590:5593   */\n      0x00\n        /* \"#utility.yul\":5609:5629   */\n      tag_413\n        /* \"#utility.yul\":5627:5628   */\n      dup3\n        /* \"#utility.yul\":5609:5629   */\n      tag_290\n      jump\t// in\n    tag_413:\n        /* \"#utility.yul\":5604:5629   */\n      swap2\n      pop\n        /* \"#utility.yul\":5643:5663   */\n      tag_414\n        /* \"#utility.yul\":5661:5662   */\n      dup4\n        /* \"#utility.yul\":5643:5663   */\n      tag_290\n      jump\t// in\n    tag_414:\n        /* \"#utility.yul\":5638:5663   */\n      swap3\n      pop\n        /* \"#utility.yul\":5686:5687   */\n      dup3\n        /* \"#utility.yul\":5683:5684   */\n      dup3\n        /* \"#utility.yul\":5679:5688   */\n      add\n        /* \"#utility.yul\":5672:5688   */\n      swap1\n      pop\n        /* \"#utility.yul\":5707:5710   */\n      dup1\n        /* \"#utility.yul\":5704:5705   */\n      dup3\n        /* \"#utility.yul\":5701:5711   */\n      gt\n        /* \"#utility.yul\":5698:5734   */\n      iszero\n      tag_415\n      jumpi\n        /* \"#utility.yul\":5714:5732   */\n      tag_416\n      tag_307\n      jump\t// in\n    tag_416:\n        /* \"#utility.yul\":5698:5734   */\n    tag_415:\n        /* \"#utility.yul\":5550:5741   */\n      swap3\n      swap2\n      pop\n      pop\n      jump\t// out\n        /* \"#utility.yul\":5747:5916   */\n    tag_308:\n        /* \"#utility.yul\":5831:5842   */\n      0x00\n        /* \"#utility.yul\":5865:5871   */\n      dup3\n        /* \"#utility.yul\":5860:5863   */\n      dup3\n        /* \"#utility.yul\":5853:5872   */\n      mstore\n        /* \"#utility.yul\":5905:5909   */\n      0x20\n        /* \"#utility.yul\":5900:5903   */\n      dup3\n        /* \"#utility.yul\":5896:5910   */\n      add\n        /* \"#utility.yul\":5881:5910   */\n      swap1\n      pop\n        /* \"#utility.yul\":5747:5916   */\n      swap3\n      swap2\n      pop\n      pop\n      jump\t// out\n        /* \"#utility.yul\":5922:6100   */\n    tag_309:\n        /* \"#utility.yul\":6062:6092   */\n      0x54696d656f757420686173206e6f74206f636375727265642079657400000000\n        /* \"#utility.yul\":6058:6059   */\n      0x00\n        /* \"#utility.yul\":6050:6056   */\n      dup3\n        /* \"#utility.yul\":6046:6060   */\n      add\n        /* \"#utility.yul\":6039:6093   */\n      mstore\n        /* \"#utility.yul\":5922:6100   */\n      pop\n      jump\t// out\n        /* \"#utility.yul\":6106:6472   */\n    tag_310:\n        /* \"#utility.yul\":6248:6251   */\n      0x00\n        /* \"#utility.yul\":6269:6336   */\n      tag_420\n        /* \"#utility.yul\":6333:6335   */\n      0x1c\n        /* \"#utility.yul\":6328:6331   */\n      dup4\n        /* \"#utility.yul\":6269:6336   */\n      tag_308\n      jump\t// in\n    tag_420:\n        /* \"#utility.yul\":6262:6336   */\n      swap2\n      pop\n        /* \"#utility.yul\":6345:6438   */\n      tag_421\n        /* \"#utility.yul\":6434:6437   */\n      dup3\n        /* \"#utility.yul\":6345:6438   */\n      tag_309\n      jump\t// in\n    tag_421:\n        /* \"#utility.yul\":6463:6465   */\n      0x20\n        /* \"#utility.yul\":6458:6461   */\n      dup3\n        /* \"#utility.yul\":6454:6466   */\n      add\n        /* \"#utility.yul\":6447:6466   */\n      swap1\n      pop\n        /* \"#utility.yul\":6106:6472   */\n      swap2\n      swap1\n      pop\n      jump\t// out\n        /* \"#utility.yul\":6478:6897   */\n    tag_87:\n        /* \"#utility.yul\":6644:6648   */\n      0x00\n        /* \"#utility.yul\":6682:6684   */\n      0x20\n        /* \"#utility.yul\":6671:6680   */\n      dup3\n        /* \"#utility.yul\":6667:6685   */\n      add\n        /* \"#utility.yul\":6659:6685   */\n      swap1\n      pop\n        /* \"#utility.yul\":6731:6740   */\n      dup2\n        /* \"#utility.yul\":6725:6729   */\n      dup2\n        /* \"#utility.yul\":6721:6741   */\n      sub\n        /* \"#utility.yul\":6717:6718   */\n      0x00\n        /* \"#utility.yul\":6706:6715   */\n      dup4\n        /* \"#utility.yul\":6702:6719   */\n      add\n        /* \"#utility.yul\":6695:6742   */\n      mstore\n        /* \"#utility.yul\":6759:6890   */\n      tag_423\n        /* \"#utility.yul\":6885:6889   */\n      dup2\n        /* \"#utility.yul\":6759:6890   */\n      tag_310\n      jump\t// in\n    tag_423:\n        /* \"#utility.yul\":6751:6890   */\n      swap1\n      pop\n        /* \"#utility.yul\":6478:6897   */\n      swap2\n      swap1\n      pop\n      jump\t// out\n        /* \"#utility.yul\":6903:7067   */\n    tag_311:\n        /* \"#utility.yul\":7043:7059   */\n      0x496e76616c69642073656e646572000000000000000000000000000000000000\n        /* \"#utility.yul\":7039:7040   */\n      0x00\n        /* \"#utility.yul\":7031:7037   */\n      dup3\n        /* \"#utility.yul\":7027:7041   */\n      add\n        /* \"#utility.yul\":7020:7060   */\n      mstore\n        /* \"#utility.yul\":6903:7067   */\n      pop\n      jump\t// out\n        /* \"#utility.yul\":7073:7439   */\n    tag_312:\n        /* \"#utility.yul\":7215:7218   */\n      0x00\n        /* \"#utility.yul\":7236:7303   */\n      tag_426\n        /* \"#utility.yul\":7300:7302   */\n      0x0e\n        /* \"#utility.yul\":7295:7298   */\n      dup4\n        /* \"#utility.yul\":7236:7303   */\n      tag_308\n      jump\t// in\n    tag_426:\n        /* \"#utility.yul\":7229:7303   */\n      swap2\n      pop\n        /* \"#utility.yul\":7312:7405   */\n      tag_427\n        /* \"#utility.yul\":7401:7404   */\n      dup3\n        /* \"#utility.yul\":7312:7405   */\n      tag_311\n      jump\t// in\n    tag_427:\n        /* \"#utility.yul\":7430:7432   */\n      0x20\n        /* \"#utility.yul\":7425:7428   */\n      dup3\n        /* \"#utility.yul\":7421:7433   */\n      add\n        /* \"#utility.yul\":7414:7433   */\n      swap1\n      pop\n        /* \"#utility.yul\":7073:7439   */\n      swap2\n      swap1\n      pop\n      jump\t// out\n        /* \"#utility.yul\":7445:7864   */\n    tag_92:\n        /* \"#utility.yul\":7611:7615   */\n      0x00\n        /* \"#utility.yul\":7649:7651   */\n      0x20\n        /* \"#utility.yul\":7638:7647   */\n      dup3\n        /* \"#utility.yul\":7634:7652   */\n      add\n        /* \"#utility.yul\":7626:7652   */\n      swap1\n      pop\n        /* \"#utility.yul\":7698:7707   */\n      dup2\n        /* \"#utility.yul\":7692:7696   */\n      dup2\n        /* \"#utility.yul\":7688:7708   */\n      sub\n        /* \"#utility.yul\":7684:7685   */\n      0x00\n        /* \"#utility.yul\":7673:7682   */\n      dup4\n        /* \"#utility.yul\":7669:7686   */\n      add\n        /* \"#utility.yul\":7662:7709   */\n      mstore\n        /* \"#utility.yul\":7726:7857   */\n      tag_429\n        /* \"#utility.yul\":7852:7856   */\n      dup2\n        /* \"#utility.yul\":7726:7857   */\n      tag_312\n      jump\t// in\n    tag_429:\n        /* \"#utility.yul\":7718:7857   */\n      swap1\n      pop\n        /* \"#utility.yul\":7445:7864   */\n      swap2\n      swap1\n      pop\n      jump\t// out\n        /* \"#utility.yul\":7870:8041   */\n    tag_313:\n        /* \"#utility.yul\":8010:8033   */\n      0x4e6f20706c617965727320726567697374657265640000000000000000000000\n        /* \"#utility.yul\":8006:8007   */\n      0x00\n        /* \"#utility.yul\":7998:8004   */\n      dup3\n        /* \"#utility.yul\":7994:8008   */\n      add\n        /* \"#utility.yul\":7987:8034   */\n      mstore\n        /* \"#utility.yul\":7870:8041   */\n      pop\n      jump\t// out\n        /* \"#utility.yul\":8047:8413   */\n    tag_314:\n        /* \"#utility.yul\":8189:8192   */\n      0x00\n        /* \"#utility.yul\":8210:8277   */\n      tag_432\n        /* \"#utility.yul\":8274:8276   */\n      0x15\n        /* \"#utility.yul\":8269:8272   */\n      dup4\n        /* \"#utility.yul\":8210:8277   */\n      tag_308\n      jump\t// in\n    tag_432:\n        /* \"#utility.yul\":8203:8277   */\n      swap2\n      pop\n        /* \"#utility.yul\":8286:8379   */\n      tag_433\n        /* \"#utility.yul\":8375:8378   */\n      dup3\n        /* \"#utility.yul\":8286:8379   */\n      tag_313\n      jump\t// in\n    tag_433:\n        /* \"#utility.yul\":8404:8406   */\n      0x20\n        /* \"#utility.yul\":8399:8402   */\n      dup3\n        /* \"#utility.yul\":8395:8407   */\n      add\n        /* \"#utility.yul\":8388:8407   */\n      swap1\n      pop\n        /* \"#utility.yul\":8047:8413   */\n      swap2\n      swap1\n      pop\n      jump\t// out\n        /* \"#utility.yul\":8419:8838   */\n    tag_95:\n        /* \"#utility.yul\":8585:8589   */\n      0x00\n        /* \"#utility.yul\":8623:8625   */\n      0x20\n        /* \"#utility.yul\":8612:8621   */\n      dup3\n        /* \"#utility.yul\":8608:8626   */\n      add\n        /* \"#utility.yul\":8600:8626   */\n      swap1\n      pop\n        /* \"#utility.yul\":8672:8681   */\n      dup2\n        /* \"#utility.yul\":8666:8670   */\n      dup2\n        /* \"#utility.yul\":8662:8682   */\n      sub\n        /* \"#utility.yul\":8658:8659   */\n      0x00\n        /* \"#utility.yul\":8647:8656   */\n      dup4\n        /* \"#utility.yul\":8643:8660   */\n      add\n        /* \"#utility.yul\":8636:8683   */\n      mstore\n        /* \"#utility.yul\":8700:8831   */\n      tag_435\n        /* \"#utility.yul\":8826:8830   */\n      dup2\n        /* \"#utility.yul\":8700:8831   */\n      tag_314\n      jump\t// in\n    tag_435:\n        /* \"#utility.yul\":8692:8831   */\n      swap1\n      pop\n        /* \"#utility.yul\":8419:8838   */\n      swap2\n      swap1\n      pop\n      jump\t// out\n        /* \"#utility.yul\":8844:9008   */\n    tag_315:\n        /* \"#utility.yul\":8984:9000   */\n      0x496e76616c69642063686f696365000000000000000000000000000000000000\n        /* \"#utility.yul\":8980:8981   */\n      0x00\n        /* \"#utility.yul\":8972:8978   */\n      dup3\n        /* \"#utility.yul\":8968:8982   */\n      add\n        /* \"#utility.yul\":8961:9001   */\n      mstore\n        /* \"#utility.yul\":8844:9008   */\n      pop\n      jump\t// out\n        /* \"#utility.yul\":9014:9380   */\n    tag_316:\n        /* \"#utility.yul\":9156:9159   */\n      0x00\n        /* \"#utility.yul\":9177:9244   */\n      tag_438\n        /* \"#utility.yul\":9241:9243   */\n      0x0e\n        /* \"#utility.yul\":9236:9239   */\n      dup4\n        /* \"#utility.yul\":9177:9244   */\n      tag_308\n      jump\t// in\n    tag_438:\n        /* \"#utility.yul\":9170:9244   */\n      swap2\n      pop\n        /* \"#utility.yul\":9253:9346   */\n      tag_439\n        /* \"#utility.yul\":9342:9345   */\n      dup3\n        /* \"#utility.yul\":9253:9346   */\n      tag_315\n      jump\t// in\n    tag_439:\n        /* \"#utility.yul\":9371:9373   */\n      0x20\n        /* \"#utility.yul\":9366:9369   */\n      dup3\n        /* \"#utility.yul\":9362:9374   */\n      add\n        /* \"#utility.yul\":9355:9374   */\n      swap1\n      pop\n        /* \"#utility.yul\":9014:9380   */\n      swap2\n      swap1\n      pop\n      jump\t// out\n        /* \"#utility.yul\":9386:9805   */\n    tag_133:\n        /* \"#utility.yul\":9552:9556   */\n      0x00\n        /* \"#utility.yul\":9590:9592   */\n      0x20\n        /* \"#utility.yul\":9579:9588   */\n      dup3\n        /* \"#utility.yul\":9575:9593   */\n      add\n        /* \"#utility.yul\":9567:9593   */\n      swap1\n      pop\n        /* \"#utility.yul\":9639:9648   */\n      dup2\n        /* \"#utility.yul\":9633:9637   */\n      dup2\n        /* \"#utility.yul\":9629:9649   */\n      sub\n        /* \"#utility.yul\":9625:9626   */\n      0x00\n        /* \"#utility.yul\":9614:9623   */\n      dup4\n        /* \"#utility.yul\":9610:9627   */\n      add\n        /* \"#utility.yul\":9603:9650   */\n      mstore\n        /* \"#utility.yul\":9667:9798   */\n      tag_441\n        /* \"#utility.yul\":9793:9797   */\n      dup2\n        /* \"#utility.yul\":9667:9798   */\n      tag_316\n      jump\t// in\n    tag_441:\n        /* \"#utility.yul\":9659:9798   */\n      swap1\n      pop\n        /* \"#utility.yul\":9386:9805   */\n      swap2\n      swap1\n      pop\n      jump\t// out\n        /* \"#utility.yul\":9811:9979   */\n    tag_317:\n        /* \"#utility.yul\":9951:9971   */\n      0x4e6f7420656e6f75676820706c61796572730000000000000000000000000000\n        /* \"#utility.yul\":9947:9948   */\n      0x00\n        /* \"#utility.yul\":9939:9945   */\n      dup3\n        /* \"#utility.yul\":9935:9949   */\n      add\n        /* \"#utility.yul\":9928:9972   */\n      mstore\n        /* \"#utility.yul\":9811:9979   */\n      pop\n      jump\t// out\n        /* \"#utility.yul\":9985:10351   */\n    tag_318:\n        /* \"#utility.yul\":10127:10130   */\n      0x00\n        /* \"#utility.yul\":10148:10215   */\n      tag_444\n        /* \"#utility.yul\":10212:10214   */\n      0x12\n        /* \"#utility.yul\":10207:10210   */\n      dup4\n        /* \"#utility.yul\":10148:10215   */\n      tag_308\n      jump\t// in\n    tag_444:\n        /* \"#utility.yul\":10141:10215   */\n      swap2\n      pop\n        /* \"#utility.yul\":10224:10317   */\n      tag_445\n        /* \"#utility.yul\":10313:10316   */\n      dup3\n        /* \"#utility.yul\":10224:10317   */\n      tag_317\n      jump\t// in\n    tag_445:\n        /* \"#utility.yul\":10342:10344   */\n      0x20\n        /* \"#utility.yul\":10337:10340   */\n      dup3\n        /* \"#utility.yul\":10333:10345   */\n      add\n        /* \"#utility.yul\":10326:10345   */\n      swap1\n      pop\n        /* \"#utility.yul\":9985:10351   */\n      swap2\n      swap1\n      pop\n      jump\t// out\n        /* \"#utility.yul\":10357:10776   */\n    tag_136:\n        /* \"#utility.yul\":10523:10527   */\n      0x00\n        /* \"#utility.yul\":10561:10563   */\n      0x20\n        /* \"#utility.yul\":10550:10559   */\n      dup3\n        /* \"#utility.yul\":10546:10564   */\n      add\n        /* \"#utility.yul\":10538:10564   */\n      swap1\n      pop\n        /* \"#utility.yul\":10610:10619   */\n      dup2\n        /* \"#utility.yul\":10604:10608   */\n      dup2\n        /* \"#utility.yul\":10600:10620   */\n      sub\n        /* \"#utility.yul\":10596:10597   */\n      0x00\n        /* \"#utility.yul\":10585:10594   */\n      dup4\n        /* \"#utility.yul\":10581:10598   */\n      add\n        /* \"#utility.yul\":10574:10621   */\n      mstore\n        /* \"#utility.yul\":10638:10769   */\n      tag_447\n        /* \"#utility.yul\":10764:10768   */\n      dup2\n        /* \"#utility.yul\":10638:10769   */\n      tag_318\n      jump\t// in\n    tag_447:\n        /* \"#utility.yul\":10630:10769   */\n      swap1\n      pop\n        /* \"#utility.yul\":10357:10776   */\n      swap2\n      swap1\n      pop\n      jump\t// out\n        /* \"#utility.yul\":10782:10962   */\n    tag_319:\n        /* \"#utility.yul\":10922:10954   */\n      0x4e6f7420616c6c20706c6179657273206861766520636f6d6d69747465640000\n        /* \"#utility.yul\":10918:10919   */\n      0x00\n        /* \"#utility.yul\":10910:10916   */\n      dup3\n        /* \"#utility.yul\":10906:10920   */\n      add\n        /* \"#utility.yul\":10899:10955   */\n      mstore\n        /* \"#utility.yul\":10782:10962   */\n      pop\n      jump\t// out\n        /* \"#utility.yul\":10968:11334   */\n    tag_320:\n        /* \"#utility.yul\":11110:11113   */\n      0x00\n        /* \"#utility.yul\":11131:11198   */\n      tag_450\n        /* \"#utility.yul\":11195:11197   */\n      0x1e\n        /* \"#utility.yul\":11190:11193   */\n      dup4\n        /* \"#utility.yul\":11131:11198   */\n      tag_308\n      jump\t// in\n    tag_450:\n        /* \"#utility.yul\":11124:11198   */\n      swap2\n      pop\n        /* \"#utility.yul\":11207:11300   */\n      tag_451\n        /* \"#utility.yul\":11296:11299   */\n      dup3\n        /* \"#utility.yul\":11207:11300   */\n      tag_319\n      jump\t// in\n    tag_451:\n        /* \"#utility.yul\":11325:11327   */\n      0x20\n        /* \"#utility.yul\":11320:11323   */\n      dup3\n        /* \"#utility.yul\":11316:11328   */\n      add\n        /* \"#utility.yul\":11309:11328   */\n      swap1\n      pop\n        /* \"#utility.yul\":10968:11334   */\n      swap2\n      swap1\n      pop\n      jump\t// out\n        /* \"#utility.yul\":11340:11759   */\n    tag_139:\n        /* \"#utility.yul\":11506:11510   */\n      0x00\n        /* \"#utility.yul\":11544:11546   */\n      0x20\n        /* \"#utility.yul\":11533:11542   */\n      dup3\n        /* \"#utility.yul\":11529:11547   */\n      add\n        /* \"#utility.yul\":11521:11547   */\n      swap1\n      pop\n        /* \"#utility.yul\":11593:11602   */\n      dup2\n        /* \"#utility.yul\":11587:11591   */\n      dup2\n        /* \"#utility.yul\":11583:11603   */\n      sub\n        /* \"#utility.yul\":11579:11580   */\n      0x00\n        /* \"#utility.yul\":11568:11577   */\n      dup4\n        /* \"#utility.yul\":11564:11581   */\n      add\n        /* \"#utility.yul\":11557:11604   */\n      mstore\n        /* \"#utility.yul\":11621:11752   */\n      tag_453\n        /* \"#utility.yul\":11747:11751   */\n      dup2\n        /* \"#utility.yul\":11621:11752   */\n      tag_320\n      jump\t// in\n    tag_453:\n        /* \"#utility.yul\":11613:11752   */\n      swap1\n      pop\n        /* \"#utility.yul\":11340:11759   */\n      swap2\n      swap1\n      pop\n      jump\t// out\n        /* \"#utility.yul\":11765:11998   */\n    tag_149:\n        /* \"#utility.yul\":11804:11807   */\n      0x00\n        /* \"#utility.yul\":11827:11851   */\n      tag_455\n        /* \"#utility.yul\":11845:11850   */\n      dup3\n        /* \"#utility.yul\":11827:11851   */\n      tag_290\n      jump\t// in\n    tag_455:\n        /* \"#utility.yul\":11818:11851   */\n      swap2\n      pop\n        /* \"#utility.yul\":11873:11939   */\n      0xffffffffffffffffffffffffffffffffffffffffffffffffffffffffffffffff\n        /* \"#utility.yul\":11866:11871   */\n      dup3\n        /* \"#utility.yul\":11863:11940   */\n      sub\n        /* \"#utility.yul\":11860:11963   */\n      tag_456\n      jumpi\n        /* \"#utility.yul\":11943:11961   */\n      tag_457\n      tag_307\n      jump\t// in\n    tag_457:\n        /* \"#utility.yul\":11860:11963   */\n    tag_456:\n        /* \"#utility.yul\":11990:11991   */\n      0x01\n        /* \"#utility.yul\":11983:11988   */\n      dup3\n        /* \"#utility.yul\":11979:11992   */\n      add\n        /* \"#utility.yul\":11972:11992   */\n      swap1\n      pop\n        /* \"#utility.yul\":11765:11998   */\n      swap2\n      swap1\n      pop\n      jump\t// out\n        /* \"#utility.yul\":12004:12224   */\n    tag_321:\n        /* \"#utility.yul\":12144:12178   */\n      0x4d6178696d756d206e756d626572206f6620706c617965727320726561636865\n        /* \"#utility.yul\":12140:12141   */\n      0x00\n        /* \"#utility.yul\":12132:12138   */\n      dup3\n        /* \"#utility.yul\":12128:12142   */\n      add\n        /* \"#utility.yul\":12121:12179   */\n      mstore\n        /* \"#utility.yul\":12213:12216   */\n      0x6400000000000000000000000000000000000000000000000000000000000000\n        /* \"#utility.yul\":12208:12210   */\n      0x20\n        /* \"#utility.yul\":12200:12206   */\n      dup3\n        /* \"#utility.yul\":12196:12211   */\n      add\n        /* \"#utility.yul\":12189:12217   */\n      mstore\n        /* \"#utility.yul\":12004:12224   */\n      pop\n      jump\t// out\n        /* \"#utility.yul\":12230:12596   */\n    tag_322:\n        /* \"#utility.yul\":12372:12375   */\n      0x00\n        /* \"#utility.yul\":12393:12460   */\n      tag_460\n        /* \"#utility.yul\":12457:12459   */\n      0x21\n        /* \"#utility.yul\":12452:12455   */\n      dup4\n        /* \"#utility.yul\":12393:12460   */\n      tag_308\n      jump\t// in\n    tag_460:\n        /* \"#utility.yul\":12386:12460   */\n      swap2\n      pop\n        /* \"#utility.yul\":12469:12562   */\n      tag_461\n        /* \"#utility.yul\":12558:12561   */\n      dup3\n        /* \"#utility.yul\":12469:12562   */\n      tag_321\n      jump\t// in\n    tag_461:\n        /* \"#utility.yul\":12587:12589   */\n      0x40\n        /* \"#utility.yul\":12582:12585   */\n      dup3\n        /* \"#utility.yul\":12578:12590   */\n      add\n        /* \"#utility.yul\":12571:12590   */\n      swap1\n      pop\n        /* \"#utility.yul\":12230:12596   */\n      swap2\n      swap1\n      pop\n      jump\t// out\n        /* \"#utility.yul\":12602:13021   */\n    tag_156:\n        /* \"#utility.yul\":12768:12772   */\n      0x00\n        /* \"#utility.yul\":12806:12808   */\n      0x20\n        /* \"#utility.yul\":12795:12804   */\n      dup3\n        /* \"#utility.yul\":12791:12809   */\n      add\n        /* \"#utility.yul\":12783:12809   */\n      swap1\n      pop\n        /* \"#utility.yul\":12855:12864   */\n      dup2\n        /* \"#utility.yul\":12849:12853   */\n      dup2\n        /* \"#utility.yul\":12845:12865   */\n      sub\n        /* \"#utility.yul\":12841:12842   */\n      0x00\n        /* \"#utility.yul\":12830:12839   */\n      dup4\n        /* \"#utility.yul\":12826:12843   */\n      add\n        /* \"#utility.yul\":12819:12866   */\n      mstore\n        /* \"#utility.yul\":12883:13014   */\n      tag_463\n        /* \"#utility.yul\":13009:13013   */\n      dup2\n        /* \"#utility.yul\":12883:13014   */\n      tag_322\n      jump\t// in\n    tag_463:\n        /* \"#utility.yul\":12875:13014   */\n      swap1\n      pop\n        /* \"#utility.yul\":12602:13021   */\n      swap2\n      swap1\n      pop\n      jump\t// out\n        /* \"#utility.yul\":13027:13251   */\n    tag_323:\n        /* \"#utility.yul\":13167:13201   */\n      0x496e73756666696369656e74206f722065786365737369766520616d6f756e74\n        /* \"#utility.yul\":13163:13164   */\n      0x00\n        /* \"#utility.yul\":13155:13161   */\n      dup3\n        /* \"#utility.yul\":13151:13165   */\n      add\n        /* \"#utility.yul\":13144:13202   */\n      mstore\n        /* \"#utility.yul\":13236:13243   */\n      0x2073656e74000000000000000000000000000000000000000000000000000000\n        /* \"#utility.yul\":13231:13233   */\n      0x20\n        /* \"#utility.yul\":13223:13229   */\n      dup3\n        /* \"#utility.yul\":13219:13234   */\n      add\n        /* \"#utility.yul\":13212:13244   */\n      mstore\n        /* \"#utility.yul\":13027:13251   */\n      pop\n      jump\t// out\n        /* \"#utility.yul\":13257:13623   */\n    tag_324:\n        /* \"#utility.yul\":13399:13402   */\n      0x00\n        /* \"#utility.yul\":13420:13487   */\n      tag_466\n        /* \"#utility.yul\":13484:13486   */\n      0x25\n        /* \"#utility.yul\":13479:13482   */\n      dup4\n        /* \"#utility.yul\":13420:13487   */\n      tag_308\n      jump\t// in\n    tag_466:\n        /* \"#utility.yul\":13413:13487   */\n      swap2\n      pop\n        /* \"#utility.yul\":13496:13589   */\n      tag_467\n        /* \"#utility.yul\":13585:13588   */\n      dup3\n        /* \"#utility.yul\":13496:13589   */\n      tag_323\n      jump\t// in\n    tag_467:\n        /* \"#utility.yul\":13614:13616   */\n      0x40\n        /* \"#utility.yul\":13609:13612   */\n      dup3\n        /* \"#utility.yul\":13605:13617   */\n      add\n        /* \"#utility.yul\":13598:13617   */\n      swap1\n      pop\n        /* \"#utility.yul\":13257:13623   */\n      swap2\n      swap1\n      pop\n      jump\t// out\n        /* \"#utility.yul\":13629:14048   */\n    tag_159:\n        /* \"#utility.yul\":13795:13799   */\n      0x00\n        /* \"#utility.yul\":13833:13835   */\n      0x20\n        /* \"#utility.yul\":13822:13831   */\n      dup3\n        /* \"#utility.yul\":13818:13836   */\n      add\n        /* \"#utility.yul\":13810:13836   */\n      swap1\n      pop\n        /* \"#utility.yul\":13882:13891   */\n      dup2\n        /* \"#utility.yul\":13876:13880   */\n      dup2\n        /* \"#utility.yul\":13872:13892   */\n      sub\n        /* \"#utility.yul\":13868:13869   */\n      0x00\n        /* \"#utility.yul\":13857:13866   */\n      dup4\n        /* \"#utility.yul\":13853:13870   */\n      add\n        /* \"#utility.yul\":13846:13893   */\n      mstore\n        /* \"#utility.yul\":13910:14041   */\n      tag_469\n        /* \"#utility.yul\":14036:14040   */\n      dup2\n        /* \"#utility.yul\":13910:14041   */\n      tag_324\n      jump\t// in\n    tag_469:\n        /* \"#utility.yul\":13902:14041   */\n      swap1\n      pop\n        /* \"#utility.yul\":13629:14048   */\n      swap2\n      swap1\n      pop\n      jump\t// out\n        /* \"#utility.yul\":14054:14223   */\n    tag_325:\n        /* \"#utility.yul\":14194:14215   */\n      0x496e76616c69642063686f696365206861736800000000000000000000000000\n        /* \"#utility.yul\":14190:14191   */\n      0x00\n        /* \"#utility.yul\":14182:14188   */\n      dup3\n        /* \"#utility.yul\":14178:14192   */\n      add\n        /* \"#utility.yul\":14171:14216   */\n      mstore\n        /* \"#utility.yul\":14054:14223   */\n      pop\n      jump\t// out\n        /* \"#utility.yul\":14229:14595   */\n    tag_326:\n        /* \"#utility.yul\":14371:14374   */\n      0x00\n        /* \"#utility.yul\":14392:14459   */\n      tag_472\n        /* \"#utility.yul\":14456:14458   */\n      0x13\n        /* \"#utility.yul\":14451:14454   */\n      dup4\n        /* \"#utility.yul\":14392:14459   */\n      tag_308\n      jump\t// in\n    tag_472:\n        /* \"#utility.yul\":14385:14459   */\n      swap2\n      pop\n        /* \"#utility.yul\":14468:14561   */\n      tag_473\n        /* \"#utility.yul\":14557:14560   */\n      dup3\n        /* \"#utility.yul\":14468:14561   */\n      tag_325\n      jump\t// in\n    tag_473:\n        /* \"#utility.yul\":14586:14588   */\n      0x20\n        /* \"#utility.yul\":14581:14584   */\n      dup3\n        /* \"#utility.yul\":14577:14589   */\n      add\n        /* \"#utility.yul\":14570:14589   */\n      swap1\n      pop\n        /* \"#utility.yul\":14229:14595   */\n      swap2\n      swap1\n      pop\n      jump\t// out\n        /* \"#utility.yul\":14601:15020   */\n    tag_174:\n        /* \"#utility.yul\":14767:14771   */\n      0x00\n        /* \"#utility.yul\":14805:14807   */\n      0x20\n        /* \"#utility.yul\":14794:14803   */\n      dup3\n        /* \"#utility.yul\":14790:14808   */\n      add\n        /* \"#utility.yul\":14782:14808   */\n      swap1\n      pop\n        /* \"#utility.yul\":14854:14863   */\n      dup2\n        /* \"#utility.yul\":14848:14852   */\n      dup2\n        /* \"#utility.yul\":14844:14864   */\n      sub\n        /* \"#utility.yul\":14840:14841   */\n      0x00\n        /* \"#utility.yul\":14829:14838   */\n      dup4\n        /* \"#utility.yul\":14825:14842   */\n      add\n        /* \"#utility.yul\":14818:14865   */\n      mstore\n        /* \"#utility.yul\":14882:15013   */\n      tag_475\n        /* \"#utility.yul\":15008:15012   */\n      dup2\n        /* \"#utility.yul\":14882:15013   */\n      tag_326\n      jump\t// in\n    tag_475:\n        /* \"#utility.yul\":14874:15013   */\n      swap1\n      pop\n        /* \"#utility.yul\":14601:15020   */\n      swap2\n      swap1\n      pop\n      jump\t// out\n        /* \"#utility.yul\":15026:15193   */\n    tag_327:\n        /* \"#utility.yul\":15166:15185   */\n      0x416c726561647920636f6d6d6974746564000000000000000000000000000000\n        /* \"#utility.yul\":15162:15163   */\n      0x00\n        /* \"#utility.yul\":15154:15160   */\n      dup3\n        /* \"#utility.yul\":15150:15164   */\n      add\n        /* \"#utility.yul\":15143:15186   */\n      mstore\n        /* \"#utility.yul\":15026:15193   */\n      pop\n      jump\t// out\n        /* \"#utility.yul\":15199:15565   */\n    tag_328:\n        /* \"#utility.yul\":15341:15344   */\n      0x00\n        /* \"#utility.yul\":15362:15429   */\n      tag_478\n        /* \"#utility.yul\":15426:15428   */\n      0x11\n        /* \"#utility.yul\":15421:15424   */\n      dup4\n        /* \"#utility.yul\":15362:15429   */\n      tag_308\n      jump\t// in\n    tag_478:\n        /* \"#utility.yul\":15355:15429   */\n      swap2\n      pop\n        /* \"#utility.yul\":15438:15531   */\n      tag_479\n        /* \"#utility.yul\":15527:15530   */\n      dup3\n        /* \"#utility.yul\":15438:15531   */\n      tag_327\n      jump\t// in\n    tag_479:\n        /* \"#utility.yul\":15556:15558   */\n      0x20\n        /* \"#utility.yul\":15551:15554   */\n      dup3\n        /* \"#utility.yul\":15547:15559   */\n      add\n        /* \"#utility.yul\":15540:15559   */\n      swap1\n      pop\n        /* \"#utility.yul\":15199:15565   */\n      swap2\n      swap1\n      pop\n      jump\t// out\n        /* \"#utility.yul\":15571:15990   */\n    tag_181:\n        /* \"#utility.yul\":15737:15741   */\n      0x00\n        /* \"#utility.yul\":15775:15777   */\n      0x20\n        /* \"#utility.yul\":15764:15773   */\n      dup3\n        /* \"#utility.yul\":15760:15778   */\n      add\n        /* \"#utility.yul\":15752:15778   */\n      swap1\n      pop\n        /* \"#utility.yul\":15824:15833   */\n      dup2\n        /* \"#utility.yul\":15818:15822   */\n      dup2\n        /* \"#utility.yul\":15814:15834   */\n      sub\n        /* \"#utility.yul\":15810:15811   */\n      0x00\n        /* \"#utility.yul\":15799:15808   */\n      dup4\n        /* \"#utility.yul\":15795:15812   */\n      add\n        /* \"#utility.yul\":15788:15835   */\n      mstore\n        /* \"#utility.yul\":15852:15983   */\n      tag_481\n        /* \"#utility.yul\":15978:15982   */\n      dup2\n        /* \"#utility.yul\":15852:15983   */\n      tag_328\n      jump\t// in\n    tag_481:\n        /* \"#utility.yul\":15844:15983   */\n      swap1\n      pop\n        /* \"#utility.yul\":15571:15990   */\n      swap2\n      swap1\n      pop\n      jump\t// out\n        /* \"#utility.yul\":15996:16162   */\n    tag_329:\n        /* \"#utility.yul\":16136:16154   */\n      0x416c72656164792072657665616c656400000000000000000000000000000000\n        /* \"#utility.yul\":16132:16133   */\n      0x00\n        /* \"#utility.yul\":16124:16130   */\n      dup3\n        /* \"#utility.yul\":16120:16134   */\n      add\n        /* \"#utility.yul\":16113:16155   */\n      mstore\n        /* \"#utility.yul\":15996:16162   */\n      pop\n      jump\t// out\n        /* \"#utility.yul\":16168:16534   */\n    tag_330:\n        /* \"#utility.yul\":16310:16313   */\n      0x00\n        /* \"#utility.yul\":16331:16398   */\n      tag_484\n        /* \"#utility.yul\":16395:16397   */\n      0x10\n        /* \"#utility.yul\":16390:16393   */\n      dup4\n        /* \"#utility.yul\":16331:16398   */\n      tag_308\n      jump\t// in\n    tag_484:\n        /* \"#utility.yul\":16324:16398   */\n      swap2\n      pop\n        /* \"#utility.yul\":16407:16500   */\n      tag_485\n        /* \"#utility.yul\":16496:16499   */\n      dup3\n        /* \"#utility.yul\":16407:16500   */\n      tag_329\n      jump\t// in\n    tag_485:\n        /* \"#utility.yul\":16525:16527   */\n      0x20\n        /* \"#utility.yul\":16520:16523   */\n      dup3\n        /* \"#utility.yul\":16516:16528   */\n      add\n        /* \"#utility.yul\":16509:16528   */\n      swap1\n      pop\n        /* \"#utility.yul\":16168:16534   */\n      swap2\n      swap1\n      pop\n      jump\t// out\n        /* \"#utility.yul\":16540:16959   */\n    tag_184:\n        /* \"#utility.yul\":16706:16710   */\n      0x00\n        /* \"#utility.yul\":16744:16746   */\n      0x20\n        /* \"#utility.yul\":16733:16742   */\n      dup3\n        /* \"#utility.yul\":16729:16747   */\n      add\n        /* \"#utility.yul\":16721:16747   */\n      swap1\n      pop\n        /* \"#utility.yul\":16793:16802   */\n      dup2\n        /* \"#utility.yul\":16787:16791   */\n      dup2\n        /* \"#utility.yul\":16783:16803   */\n      sub\n        /* \"#utility.yul\":16779:16780   */\n      0x00\n        /* \"#utility.yul\":16768:16777   */\n      dup4\n        /* \"#utility.yul\":16764:16781   */\n      add\n        /* \"#utility.yul\":16757:16804   */\n      mstore\n        /* \"#utility.yul\":16821:16952   */\n      tag_487\n        /* \"#utility.yul\":16947:16951   */\n      dup2\n        /* \"#utility.yul\":16821:16952   */\n      tag_330\n      jump\t// in\n    tag_487:\n        /* \"#utility.yul\":16813:16952   */\n      swap1\n      pop\n        /* \"#utility.yul\":16540:16959   */\n      swap2\n      swap1\n      pop\n      jump\t// out\n        /* \"#utility.yul\":16965:17196   */\n    tag_331:\n        /* \"#utility.yul\":17105:17139   */\n      0x436f6d6d697452657665616c3a3a72657665616c416e737765723a20416c7265\n        /* \"#utility.yul\":17101:17102   */\n      0x00\n        /* \"#utility.yul\":17093:17099   */\n      dup3\n        /* \"#utility.yul\":17089:17103   */\n      add\n        /* \"#utility.yul\":17082:17140   */\n      mstore\n        /* \"#utility.yul\":17174:17188   */\n      0x6164792072657665616c65640000000000000000000000000000000000000000\n        /* \"#utility.yul\":17169:17171   */\n      0x20\n        /* \"#utility.yul\":17161:17167   */\n      dup3\n        /* \"#utility.yul\":17157:17172   */\n      add\n        /* \"#utility.yul\":17150:17189   */\n      mstore\n        /* \"#utility.yul\":16965:17196   */\n      pop\n      jump\t// out\n        /* \"#utility.yul\":17202:17568   */\n    tag_332:\n        /* \"#utility.yul\":17344:17347   */\n      0x00\n        /* \"#utility.yul\":17365:17432   */\n      tag_490\n        /* \"#utility.yul\":17429:17431   */\n      0x2c\n        /* \"#utility.yul\":17424:17427   */\n      dup4\n        /* \"#utility.yul\":17365:17432   */\n      tag_308\n      jump\t// in\n    tag_490:\n        /* \"#utility.yul\":17358:17432   */\n      swap2\n      pop\n        /* \"#utility.yul\":17441:17534   */\n      tag_491\n        /* \"#utility.yul\":17530:17533   */\n      dup3\n        /* \"#utility.yul\":17441:17534   */\n      tag_331\n      jump\t// in\n    tag_491:\n        /* \"#utility.yul\":17559:17561   */\n      0x40\n        /* \"#utility.yul\":17554:17557   */\n      dup3\n        /* \"#utility.yul\":17550:17562   */\n      add\n        /* \"#utility.yul\":17543:17562   */\n      swap1\n      pop\n        /* \"#utility.yul\":17202:17568   */\n      swap2\n      swap1\n      pop\n      jump\t// out\n        /* \"#utility.yul\":17574:17993   */\n    tag_192:\n        /* \"#utility.yul\":17740:17744   */\n      0x00\n        /* \"#utility.yul\":17778:17780   */\n      0x20\n        /* \"#utility.yul\":17767:17776   */\n      dup3\n        /* \"#utility.yul\":17763:17781   */\n      add\n        /* \"#utility.yul\":17755:17781   */\n      swap1\n      pop\n        /* \"#utility.yul\":17827:17836   */\n      dup2\n        /* \"#utility.yul\":17821:17825   */\n      dup2\n        /* \"#utility.yul\":17817:17837   */\n      sub\n        /* \"#utility.yul\":17813:17814   */\n      0x00\n        /* \"#utility.yul\":17802:17811   */\n      dup4\n        /* \"#utility.yul\":17798:17815   */\n      add\n        /* \"#utility.yul\":17791:17838   */\n      mstore\n        /* \"#utility.yul\":17855:17986   */\n      tag_493\n        /* \"#utility.yul\":17981:17985   */\n      dup2\n        /* \"#utility.yul\":17855:17986   */\n      tag_332\n      jump\t// in\n    tag_493:\n        /* \"#utility.yul\":17847:17986   */\n      swap1\n      pop\n        /* \"#utility.yul\":17574:17993   */\n      swap2\n      swap1\n      pop\n      jump\t// out\n        /* \"#utility.yul\":17999:18249   */\n    tag_333:\n        /* \"#utility.yul\":18139:18173   */\n      0x436f6d6d697452657665616c3a3a72657665616c416e737765723a2052657665\n        /* \"#utility.yul\":18135:18136   */\n      0x00\n        /* \"#utility.yul\":18127:18133   */\n      dup3\n        /* \"#utility.yul\":18123:18137   */\n      add\n        /* \"#utility.yul\":18116:18174   */\n      mstore\n        /* \"#utility.yul\":18208:18241   */\n      0x616c6564206861736820646f6573206e6f74206d6174636820636f6d6d697400\n        /* \"#utility.yul\":18203:18205   */\n      0x20\n        /* \"#utility.yul\":18195:18201   */\n      dup3\n        /* \"#utility.yul\":18191:18206   */\n      add\n        /* \"#utility.yul\":18184:18242   */\n      mstore\n        /* \"#utility.yul\":17999:18249   */\n      pop\n      jump\t// out\n        /* \"#utility.yul\":18255:18621   */\n    tag_334:\n        /* \"#utility.yul\":18397:18400   */\n      0x00\n        /* \"#utility.yul\":18418:18485   */\n      tag_496\n        /* \"#utility.yul\":18482:18484   */\n      0x3f\n        /* \"#utility.yul\":18477:18480   */\n      dup4\n        /* \"#utility.yul\":18418:18485   */\n      tag_308\n      jump\t// in\n    tag_496:\n        /* \"#utility.yul\":18411:18485   */\n      swap2\n      pop\n        /* \"#utility.yul\":18494:18587   */\n      tag_497\n        /* \"#utility.yul\":18583:18586   */\n      dup3\n        /* \"#utility.yul\":18494:18587   */\n      tag_333\n      jump\t// in\n    tag_497:\n        /* \"#utility.yul\":18612:18614   */\n      0x40\n        /* \"#utility.yul\":18607:18610   */\n      dup3\n        /* \"#utility.yul\":18603:18615   */\n      add\n        /* \"#utility.yul\":18596:18615   */\n      swap1\n      pop\n        /* \"#utility.yul\":18255:18621   */\n      swap2\n      swap1\n      pop\n      jump\t// out\n        /* \"#utility.yul\":18627:19046   */\n    tag_196:\n        /* \"#utility.yul\":18793:18797   */\n      0x00\n        /* \"#utility.yul\":18831:18833   */\n      0x20\n        /* \"#utility.yul\":18820:18829   */\n      dup3\n        /* \"#utility.yul\":18816:18834   */\n      add\n        /* \"#utility.yul\":18808:18834   */\n      swap1\n      pop\n        /* \"#utility.yul\":18880:18889   */\n      dup2\n        /* \"#utility.yul\":18874:18878   */\n      dup2\n        /* \"#utility.yul\":18870:18890   */\n      sub\n        /* \"#utility.yul\":18866:18867   */\n      0x00\n        /* \"#utility.yul\":18855:18864   */\n      dup4\n        /* \"#utility.yul\":18851:18868   */\n      add\n        /* \"#utility.yul\":18844:18891   */\n      mstore\n        /* \"#utility.yul\":18908:19039   */\n      tag_499\n        /* \"#utility.yul\":19034:19038   */\n      dup2\n        /* \"#utility.yul\":18908:19039   */\n      tag_334\n      jump\t// in\n    tag_499:\n        /* \"#utility.yul\":18900:19039   */\n      swap1\n      pop\n        /* \"#utility.yul\":18627:19046   */\n      swap2\n      swap1\n      pop\n      jump\t// out\n        /* \"#utility.yul\":19052:19494   */\n    tag_198:\n        /* \"#utility.yul\":19201:19205   */\n      0x00\n        /* \"#utility.yul\":19239:19241   */\n      0x60\n        /* \"#utility.yul\":19228:19237   */\n      dup3\n        /* \"#utility.yul\":19224:19242   */\n      add\n        /* \"#utility.yul\":19216:19242   */\n      swap1\n      pop\n        /* \"#utility.yul\":19252:19323   */\n      tag_501\n        /* \"#utility.yul\":19320:19321   */\n      0x00\n        /* \"#utility.yul\":19309:19318   */\n      dup4\n        /* \"#utility.yul\":19305:19322   */\n      add\n        /* \"#utility.yul\":19296:19302   */\n      dup7\n        /* \"#utility.yul\":19252:19323   */\n      tag_300\n      jump\t// in\n    tag_501:\n        /* \"#utility.yul\":19333:19405   */\n      tag_502\n        /* \"#utility.yul\":19401:19403   */\n      0x20\n        /* \"#utility.yul\":19390:19399   */\n      dup4\n        /* \"#utility.yul\":19386:19404   */\n      add\n        /* \"#utility.yul\":19377:19383   */\n      dup6\n        /* \"#utility.yul\":19333:19405   */\n      tag_304\n      jump\t// in\n    tag_502:\n        /* \"#utility.yul\":19415:19487   */\n      tag_503\n        /* \"#utility.yul\":19483:19485   */\n      0x40\n        /* \"#utility.yul\":19472:19481   */\n      dup4\n        /* \"#utility.yul\":19468:19486   */\n      add\n        /* \"#utility.yul\":19459:19465   */\n      dup5\n        /* \"#utility.yul\":19415:19487   */\n      tag_304\n      jump\t// in\n    tag_503:\n        /* \"#utility.yul\":19052:19494   */\n      swap5\n      swap4\n      pop\n      pop\n      pop\n      pop\n      jump\t// out\n        /* \"#utility.yul\":19500:19680   */\n    tag_208:\n        /* \"#utility.yul\":19548:19625   */\n      0x4e487b7100000000000000000000000000000000000000000000000000000000\n        /* \"#utility.yul\":19545:19546   */\n      0x00\n        /* \"#utility.yul\":19538:19626   */\n      mstore\n        /* \"#utility.yul\":19645:19649   */\n      0x41\n        /* \"#utility.yul\":19642:19643   */\n      0x04\n        /* \"#utility.yul\":19635:19650   */\n      mstore\n        /* \"#utility.yul\":19669:19673   */\n      0x24\n        /* \"#utility.yul\":19666:19667   */\n      0x00\n        /* \"#utility.yul\":19659:19674   */\n      revert\n        /* \"#utility.yul\":19686:19866   */\n    tag_214:\n        /* \"#utility.yul\":19734:19811   */\n      0x4e487b7100000000000000000000000000000000000000000000000000000000\n        /* \"#utility.yul\":19731:19732   */\n      0x00\n        /* \"#utility.yul\":19724:19812   */\n      mstore\n        /* \"#utility.yul\":19831:19835   */\n      0x32\n        /* \"#utility.yul\":19828:19829   */\n      0x04\n        /* \"#utility.yul\":19821:19836   */\n      mstore\n        /* \"#utility.yul\":19855:19859   */\n      0x24\n        /* \"#utility.yul\":19852:19853   */\n      0x00\n        /* \"#utility.yul\":19845:19860   */\n      revert\n        /* \"#utility.yul\":19872:20052   */\n    tag_335:\n        /* \"#utility.yul\":19920:19997   */\n      0x4e487b7100000000000000000000000000000000000000000000000000000000\n        /* \"#utility.yul\":19917:19918   */\n      0x00\n        /* \"#utility.yul\":19910:19998   */\n      mstore\n        /* \"#utility.yul\":20017:20021   */\n      0x12\n        /* \"#utility.yul\":20014:20015   */\n      0x04\n        /* \"#utility.yul\":20007:20022   */\n      mstore\n        /* \"#utility.yul\":20041:20045   */\n      0x24\n        /* \"#utility.yul\":20038:20039   */\n      0x00\n        /* \"#utility.yul\":20031:20046   */\n      revert\n        /* \"#utility.yul\":20058:20243   */\n    tag_253:\n        /* \"#utility.yul\":20098:20099   */\n      0x00\n        /* \"#utility.yul\":20115:20135   */\n      tag_508\n        /* \"#utility.yul\":20133:20134   */\n      dup3\n        /* \"#utility.yul\":20115:20135   */\n      tag_290\n      jump\t// in\n    tag_508:\n        /* \"#utility.yul\":20110:20135   */\n      swap2\n      pop\n        /* \"#utility.yul\":20149:20169   */\n      tag_509\n        /* \"#utility.yul\":20167:20168   */\n      dup4\n        /* \"#utility.yul\":20149:20169   */\n      tag_290\n      jump\t// in\n    tag_509:\n        /* \"#utility.yul\":20144:20169   */\n      swap3\n      pop\n        /* \"#utility.yul\":20188:20189   */\n      dup3\n        /* \"#utility.yul\":20178:20213   */\n      tag_510\n      jumpi\n        /* \"#utility.yul\":20193:20211   */\n      tag_511\n      tag_335\n      jump\t// in\n    tag_511:\n        /* \"#utility.yul\":20178:20213   */\n    tag_510:\n        /* \"#utility.yul\":20235:20236   */\n      dup3\n        /* \"#utility.yul\":20232:20233   */\n      dup3\n        /* \"#utility.yul\":20228:20237   */\n      div\n        /* \"#utility.yul\":20223:20237   */\n      swap1\n      pop\n        /* \"#utility.yul\":20058:20243   */\n      swap3\n      swap2\n      pop\n      pop\n      jump\t// out\n        /* \"#utility.yul\":20249:20343   */\n    tag_336:\n        /* \"#utility.yul\":20282:20290   */\n      0x00\n        /* \"#utility.yul\":20330:20335   */\n      dup2\n        /* \"#utility.yul\":20326:20328   */\n      0x60\n        /* \"#utility.yul\":20322:20336   */\n      shl\n        /* \"#utility.yul\":20301:20336   */\n      swap1\n      pop\n        /* \"#utility.yul\":20249:20343   */\n      swap2\n      swap1\n      pop\n      jump\t// out\n        /* \"#utility.yul\":20349:20443   */\n    tag_337:\n        /* \"#utility.yul\":20388:20395   */\n      0x00\n        /* \"#utility.yul\":20417:20437   */\n      tag_514\n        /* \"#utility.yul\":20431:20436   */\n      dup3\n        /* \"#utility.yul\":20417:20437   */\n      tag_336\n      jump\t// in\n    tag_514:\n        /* \"#utility.yul\":20406:20437   */\n      swap1\n      pop\n        /* \"#utility.yul\":20349:20443   */\n      swap2\n      swap1\n      pop\n      jump\t// out\n        /* \"#utility.yul\":20449:20549   */\n    tag_338:\n        /* \"#utility.yul\":20488:20495   */\n      0x00\n        /* \"#utility.yul\":20517:20543   */\n      tag_516\n        /* \"#utility.yul\":20537:20542   */\n      dup3\n        /* \"#utility.yul\":20517:20543   */\n      tag_337\n      jump\t// in\n    tag_516:\n        /* \"#utility.yul\":20506:20543   */\n      swap1\n      pop\n        /* \"#utility.yul\":20449:20549   */\n      swap2\n      swap1\n      pop\n      jump\t// out\n        /* \"#utility.yul\":20555:20712   */\n    tag_339:\n        /* \"#utility.yul\":20660:20705   */\n      tag_518\n        /* \"#utility.yul\":20680:20704   */\n      tag_519\n        /* \"#utility.yul\":20698:20703   */\n      dup3\n        /* \"#utility.yul\":20680:20704   */\n      tag_299\n      jump\t// in\n    tag_519:\n        /* \"#utility.yul\":20660:20705   */\n      tag_338\n      jump\t// in\n    tag_518:\n        /* \"#utility.yul\":20655:20658   */\n      dup3\n        /* \"#utility.yul\":20648:20706   */\n      mstore\n        /* \"#utility.yul\":20555:20712   */\n      pop\n      pop\n      jump\t// out\n        /* \"#utility.yul\":20718:20797   */\n    tag_340:\n        /* \"#utility.yul\":20757:20764   */\n      0x00\n        /* \"#utility.yul\":20786:20791   */\n      dup2\n        /* \"#utility.yul\":20775:20791   */\n      swap1\n      pop\n        /* \"#utility.yul\":20718:20797   */\n      swap2\n      swap1\n      pop\n      jump\t// out\n        /* \"#utility.yul\":20803:20960   */\n    tag_341:\n        /* \"#utility.yul\":20908:20953   */\n      tag_522\n        /* \"#utility.yul\":20928:20952   */\n      tag_523\n        /* \"#utility.yul\":20946:20951   */\n      dup3\n        /* \"#utility.yul\":20928:20952   */\n      tag_303\n      jump\t// in\n    tag_523:\n        /* \"#utility.yul\":20908:20953   */\n      tag_340\n      jump\t// in\n    tag_522:\n        /* \"#utility.yul\":20903:20906   */\n      dup3\n        /* \"#utility.yul\":20896:20954   */\n      mstore\n        /* \"#utility.yul\":20803:20960   */\n      pop\n      pop\n      jump\t// out\n        /* \"#utility.yul\":20966:21504   */\n    tag_259:\n        /* \"#utility.yul\":21134:21137   */\n      0x00\n        /* \"#utility.yul\":21149:21224   */\n      tag_525\n        /* \"#utility.yul\":21220:21223   */\n      dup3\n        /* \"#utility.yul\":21211:21217   */\n      dup7\n        /* \"#utility.yul\":21149:21224   */\n      tag_339\n      jump\t// in\n    tag_525:\n        /* \"#utility.yul\":21249:21251   */\n      0x14\n        /* \"#utility.yul\":21244:21247   */\n      dup3\n        /* \"#utility.yul\":21240:21252   */\n      add\n        /* \"#utility.yul\":21233:21252   */\n      swap2\n      pop\n        /* \"#utility.yul\":21262:21337   */\n      tag_526\n        /* \"#utility.yul\":21333:21336   */\n      dup3\n        /* \"#utility.yul\":21324:21330   */\n      dup6\n        /* \"#utility.yul\":21262:21337   */\n      tag_341\n      jump\t// in\n    tag_526:\n        /* \"#utility.yul\":21362:21364   */\n      0x20\n        /* \"#utility.yul\":21357:21360   */\n      dup3\n        /* \"#utility.yul\":21353:21365   */\n      add\n        /* \"#utility.yul\":21346:21365   */\n      swap2\n      pop\n        /* \"#utility.yul\":21375:21450   */\n      tag_527\n        /* \"#utility.yul\":21446:21449   */\n      dup3\n        /* \"#utility.yul\":21437:21443   */\n      dup5\n        /* \"#utility.yul\":21375:21450   */\n      tag_341\n      jump\t// in\n    tag_527:\n        /* \"#utility.yul\":21475:21477   */\n      0x20\n        /* \"#utility.yul\":21470:21473   */\n      dup3\n        /* \"#utility.yul\":21466:21478   */\n      add\n        /* \"#utility.yul\":21459:21478   */\n      swap2\n      pop\n        /* \"#utility.yul\":21495:21498   */\n      dup2\n        /* \"#utility.yul\":21488:21498   */\n      swap1\n      pop\n        /* \"#utility.yul\":20966:21504   */\n      swap5\n      swap4\n      pop\n      pop\n      pop\n      pop\n      jump\t// out\n        /* \"#utility.yul\":21510:21842   */\n    tag_262:\n        /* \"#utility.yul\":21631:21635   */\n      0x00\n        /* \"#utility.yul\":21669:21671   */\n      0x40\n        /* \"#utility.yul\":21658:21667   */\n      dup3\n        /* \"#utility.yul\":21654:21672   */\n      add\n        /* \"#utility.yul\":21646:21672   */\n      swap1\n      pop\n        /* \"#utility.yul\":21682:21753   */\n      tag_529\n        /* \"#utility.yul\":21750:21751   */\n      0x00\n        /* \"#utility.yul\":21739:21748   */\n      dup4\n        /* \"#utility.yul\":21735:21752   */\n      add\n        /* \"#utility.yul\":21726:21732   */\n      dup6\n        /* \"#utility.yul\":21682:21753   */\n      tag_300\n      jump\t// in\n    tag_529:\n        /* \"#utility.yul\":21763:21835   */\n      tag_530\n        /* \"#utility.yul\":21831:21833   */\n      0x20\n        /* \"#utility.yul\":21820:21829   */\n      dup4\n        /* \"#utility.yul\":21816:21834   */\n      add\n        /* \"#utility.yul\":21807:21813   */\n      dup5\n        /* \"#utility.yul\":21763:21835   */\n      tag_304\n      jump\t// in\n    tag_530:\n        /* \"#utility.yul\":21510:21842   */\n      swap4\n      swap3\n      pop\n      pop\n      pop\n      jump\t// out\n        /* \"#utility.yul\":21848:22024   */\n    tag_266:\n        /* \"#utility.yul\":21880:21881   */\n      0x00\n        /* \"#utility.yul\":21897:21917   */\n      tag_532\n        /* \"#utility.yul\":21915:21916   */\n      dup3\n        /* \"#utility.yul\":21897:21917   */\n      tag_290\n      jump\t// in\n    tag_532:\n        /* \"#utility.yul\":21892:21917   */\n      swap2\n      pop\n        /* \"#utility.yul\":21931:21951   */\n      tag_533\n        /* \"#utility.yul\":21949:21950   */\n      dup4\n        /* \"#utility.yul\":21931:21951   */\n      tag_290\n      jump\t// in\n    tag_533:\n        /* \"#utility.yul\":21926:21951   */\n      swap3\n      pop\n        /* \"#utility.yul\":21970:21971   */\n      dup3\n        /* \"#utility.yul\":21960:21995   */\n      tag_534\n      jumpi\n        /* \"#utility.yul\":21975:21993   */\n      tag_535\n      tag_335\n      jump\t// in\n    tag_535:\n        /* \"#utility.yul\":21960:21995   */\n    tag_534:\n        /* \"#utility.yul\":22016:22017   */\n      dup3\n        /* \"#utility.yul\":22013:22014   */\n      dup3\n        /* \"#utility.yul\":22009:22018   */\n      mod\n        /* \"#utility.yul\":22004:22018   */\n      swap1\n      pop\n        /* \"#utility.yul\":21848:22024   */\n      swap3\n      swap2\n      pop\n      pop\n      jump\t// out\n\n    auxdata: 0xa2646970667358221220756a66e5fe4e1a6f82d44dfc859331103f147bf987fe7e6145a2092ee2bfe5f564736f6c63430008180033\n}\n",
				"bytecode": {
					"linkReferences": {},
					"object": "608060405260645f806101000a81548160ff021916908360ff1602179055505f6004555f6005555f6006555f6007555f60085534801561003d575f80fd5b506127758061004b5f395ff3fe6080604052600436106100dc575f3560e01c806390d5d0c31161007e578063ae73ea6511610058578063ae73ea6514610262578063b40cac8c1461029e578063e05b10c0146102da578063f56f48f214610302576100dc565b806390d5d0c3146101d0578063929dfff2146101fa5780639e0551c614610224576100dc565b806327b5db8a116100ba57806327b5db8a146101485780634411b3eb1461015257806350899a1e1461017c57806376d4192c146101a6576100dc565b806309bbd6a0146100e05780630c0b568d146100f6578063228cb7331461011e575b5f80fd5b3480156100eb575f80fd5b506100f461032c565b005b348015610101575f80fd5b5061011c60048036038101906101179190611c71565b6109e3565b005b348015610129575f80fd5b50610132610c6d565b60405161013f9190611cbe565b60405180910390f35b610150610c73565b005b34801561015d575f80fd5b50610166610ded565b6040516101739190611cbe565b60405180910390f35b348015610187575f80fd5b50610190610df2565b60405161019d9190611cbe565b60405180910390f35b3480156101b1575f80fd5b506101ba610df8565b6040516101c79190611cbe565b60405180910390f35b3480156101db575f80fd5b506101e4610dfe565b6040516101f19190611cbe565b60405180910390f35b348015610205575f80fd5b5061020e610e04565b60405161021b9190611cbe565b60405180910390f35b34801561022f575f80fd5b5061024a60048036038101906102459190611cd7565b610e0a565b60405161025993929190611db4565b60405180910390f35b34801561026d575f80fd5b5061028860048036038101906102839190611e13565b610e5b565b6040516102959190611cbe565b60405180910390f35b3480156102a9575f80fd5b506102c460048036038101906102bf9190611c71565b610e70565b6040516102d19190611e56565b60405180910390f35b3480156102e5575f80fd5b5061030060048036038101906102fb9190611e99565b610eef565b005b34801561030d575f80fd5b50610316611190565b6040516103239190611cbe565b60405180910390f35b6201518060085461033d9190611ef1565b421161037e576040517f08c379a000000000000000000000000000000000000000000000000000000000815260040161037590611f7e565b60405180910390fd5b60025f8081526020019081526020015f205f0160019054906101000a900473ffffffffffffffffffffffffffffffffffffffff1673ffffffffffffffffffffffffffffffffffffffff163373ffffffffffffffffffffffffffffffffffffffff16148061044a575060025f600181526020019081526020015f205f0160019054906101000a900473ffffffffffffffffffffffffffffffffffffffff1673ffffffffffffffffffffffffffffffffffffffff163373ffffffffffffffffffffffffffffffffffffffff16145b806104b4575060025f600281526020019081526020015f205f0160019054906101000a900473ffffffffffffffffffffffffffffffffffffffff1673ffffffffffffffffffffffffffffffffffffffff163373ffffffffffffffffffffffffffffffffffffffff16145b6104f3576040517f08c379a00000000000000000000000000000000000000000000000000000000081526004016104ea90611fe6565b60405180910390fd5b5f60045411610537576040517f08c379a000000000000000000000000000000000000000000000000000000000815260040161052e9061204e565b60405180910390fd5b5f60025f8081526020019081526020015f205f0160019054906101000a900473ffffffffffffffffffffffffffffffffffffffff169050600360045410156105cd578073ffffffffffffffffffffffffffffffffffffffff166108fc60055490811502906040515f60405180830381858888f193505050501580156105be573d5f803e3d5ffd5b506105c7611197565b506109e1565b5f60025f600181526020019081526020015f205f0160019054906101000a900473ffffffffffffffffffffffffffffffffffffffff1690506002600654108061061757505f600754145b156106dc578173ffffffffffffffffffffffffffffffffffffffff166108fc60025f8081526020019081526020015f206001015490811502906040515f60405180830381858888f19350505050158015610673573d5f803e3d5ffd5b508073ffffffffffffffffffffffffffffffffffffffff166108fc60025f600181526020019081526020015f206001015490811502906040515f60405180830381858888f193505050501580156106cc573d5f803e3d5ffd5b506106d5611197565b50506109e1565b5f60025f600281526020019081526020015f205f0160019054906101000a900473ffffffffffffffffffffffffffffffffffffffff1690506003600654108061072657505f600754145b15610845578273ffffffffffffffffffffffffffffffffffffffff166108fc60025f8081526020019081526020015f206001015490811502906040515f60405180830381858888f19350505050158015610782573d5f803e3d5ffd5b508173ffffffffffffffffffffffffffffffffffffffff166108fc60025f600181526020019081526020015f206001015490811502906040515f60405180830381858888f193505050501580156107db573d5f803e3d5ffd5b508073ffffffffffffffffffffffffffffffffffffffff166108fc60025f600281526020019081526020015f206001015490811502906040515f60405180830381858888f19350505050158015610834573d5f803e3d5ffd5b5061083d611197565b5050506109e1565b600360075410156109dd575f5b60038110156109db5760015f60025f8481526020019081526020015f205f0160019054906101000a900473ffffffffffffffffffffffffffffffffffffffff1673ffffffffffffffffffffffffffffffffffffffff1673ffffffffffffffffffffffffffffffffffffffff1681526020019081526020015f206001015f9054906101000a900460ff1615610975575f60025f8381526020019081526020015f205f0160019054906101000a900473ffffffffffffffffffffffffffffffffffffffff1690508073ffffffffffffffffffffffffffffffffffffffff166108fc60025f8581526020019081526020015f206001015490811502906040515f60405180830381858888f1935050505015801561096e573d5f803e3d5ffd5b50506109ce565b3373ffffffffffffffffffffffffffffffffffffffff166108fc60025f8481526020019081526020015f206001015490811502906040515f60405180830381858888f193505050501580156109cc573d5f803e3d5ffd5b505b8080600101915050610852565b505b5050505b565b60068260068111156109f8576109f7611d02565b5b1115610a39576040517f08c379a0000000000000000000000000000000000000000000000000000000008152600401610a30906120b6565b60405180910390fd5b600360045414610a7e576040517f08c379a0000000000000000000000000000000000000000000000000000000008152600401610a759061211e565b60405180910390fd5b600360065414610ac3576040517f08c379a0000000000000000000000000000000000000000000000000000000008152600401610aba90612186565b60405180910390fd5b60025f60035f3373ffffffffffffffffffffffffffffffffffffffff1673ffffffffffffffffffffffffffffffffffffffff1681526020019081526020015f205481526020019081526020015f205f0160019054906101000a900473ffffffffffffffffffffffffffffffffffffffff1673ffffffffffffffffffffffffffffffffffffffff163373ffffffffffffffffffffffffffffffffffffffff1614610ba1576040517f08c379a0000000000000000000000000000000000000000000000000000000008152600401610b9890611fe6565b60405180910390fd5b610bc1826006811115610bb757610bb6611d02565b5b5f1b825f1b61145d565b8160025f60035f3373ffffffffffffffffffffffffffffffffffffffff1673ffffffffffffffffffffffffffffffffffffffff1681526020019081526020015f205481526020019081526020015f205f015f6101000a81548160ff02191690836006811115610c3357610c32611d02565b5b021790555060075f815480929190610c4a906121a4565b9190505550600360075403610c6257610c6161160f565b5b426008819055505050565b60055481565b600360045410610cb8576040517f08c379a0000000000000000000000000000000000000000000000000000000008152600401610caf9061225b565b60405180910390fd5b670de0b6b3a76400003414610d02576040517f08c379a0000000000000000000000000000000000000000000000000000000008152600401610cf9906122e9565b60405180910390fd5b3460055f828254610d139190611ef1565b925050819055503460025f60045481526020019081526020015f20600101819055503360025f60045481526020019081526020015f205f0160016101000a81548173ffffffffffffffffffffffffffffffffffffffff021916908373ffffffffffffffffffffffffffffffffffffffff16021790555060045460035f3373ffffffffffffffffffffffffffffffffffffffff1673ffffffffffffffffffffffffffffffffffffffff1681526020019081526020015f208190555060045f815480929190610ddf906121a4565b919050555042600881905550565b600381565b60085481565b60075481565b60045481565b60065481565b6002602052805f5260405f205f91509050805f015f9054906101000a900460ff1690805f0160019054906101000a900473ffffffffffffffffffffffffffffffffffffffff16908060010154905083565b6003602052805f5260405f205f915090505481565b5f6006836006811115610e8657610e85611d02565b5b1115610ec7576040517f08c379a0000000000000000000000000000000000000000000000000000000008152600401610ebe906120b6565b60405180910390fd5b610ee7836006811115610edd57610edc611d02565b5b5f1b835f1b6119e8565b905092915050565b5f801b8103610f33576040517f08c379a0000000000000000000000000000000000000000000000000000000008152600401610f2a90612351565b60405180910390fd5b600360045414610f78576040517f08c379a0000000000000000000000000000000000000000000000000000000008152600401610f6f9061211e565b60405180910390fd5b60025f60035f3373ffffffffffffffffffffffffffffffffffffffff1673ffffffffffffffffffffffffffffffffffffffff1681526020019081526020015f205481526020019081526020015f205f0160019054906101000a900473ffffffffffffffffffffffffffffffffffffffff1673ffffffffffffffffffffffffffffffffffffffff163373ffffffffffffffffffffffffffffffffffffffff1614611056576040517f08c379a000000000000000000000000000000000000000000000000000000000815260040161104d90611fe6565b60405180910390fd5b5f801b60015f3373ffffffffffffffffffffffffffffffffffffffff1673ffffffffffffffffffffffffffffffffffffffff1681526020019081526020015f205f0154146110d9576040517f08c379a00000000000000000000000000000000000000000000000000000000081526004016110d0906123b9565b60405180910390fd5b60015f3373ffffffffffffffffffffffffffffffffffffffff1673ffffffffffffffffffffffffffffffffffffffff1681526020019081526020015f206001015f9054906101000a900460ff1615611166576040517f08c379a000000000000000000000000000000000000000000000000000000000815260040161115d90612421565b60405180910390fd5b61116f81611a1c565b60065f815480929190611181906121a4565b91905055504260088190555050565b6201518081565b5f6004819055505f6005819055505f6006819055505f6007819055505f60088190555060015f60025f8081526020019081526020015f205f0160019054906101000a900473ffffffffffffffffffffffffffffffffffffffff1673ffffffffffffffffffffffffffffffffffffffff1673ffffffffffffffffffffffffffffffffffffffff1681526020019081526020015f205f8082015f9055600182015f6101000a81549060ff0219169055505060015f60025f600181526020019081526020015f205f0160019054906101000a900473ffffffffffffffffffffffffffffffffffffffff1673ffffffffffffffffffffffffffffffffffffffff1673ffffffffffffffffffffffffffffffffffffffff1681526020019081526020015f205f8082015f9055600182015f6101000a81549060ff0219169055505060015f60025f600281526020019081526020015f205f0160019054906101000a900473ffffffffffffffffffffffffffffffffffffffff1673ffffffffffffffffffffffffffffffffffffffff1673ffffffffffffffffffffffffffffffffffffffff1681526020019081526020015f205f8082015f9055600182015f6101000a81549060ff0219169055505060025f8081526020019081526020015f205f8082015f6101000a81549060ff02191690555f820160016101000a81549073ffffffffffffffffffffffffffffffffffffffff0219169055600182015f9055505060025f600181526020019081526020015f205f8082015f6101000a81549060ff02191690555f820160016101000a81549073ffffffffffffffffffffffffffffffffffffffff0219169055600182015f9055505060025f600281526020019081526020015f205f8082015f6101000a81549060ff02191690555f820160016101000a81549073ffffffffffffffffffffffffffffffffffffffff0219169055600182015f90555050565b5f151560015f3373ffffffffffffffffffffffffffffffffffffffff1673ffffffffffffffffffffffffffffffffffffffff1681526020019081526020015f206001015f9054906101000a900460ff161515146114ef576040517f08c379a00000000000000000000000000000000000000000000000000000000081526004016114e6906124af565b60405180910390fd5b6001805f3373ffffffffffffffffffffffffffffffffffffffff1673ffffffffffffffffffffffffffffffffffffffff1681526020019081526020015f206001015f6101000a81548160ff02191690831515021790555060015f3373ffffffffffffffffffffffffffffffffffffffff1673ffffffffffffffffffffffffffffffffffffffff1681526020019081526020015f205f015461159083836119e8565b146115d0576040517f08c379a00000000000000000000000000000000000000000000000000000000081526004016115c79061253d565b60405180910390fd5b7f8bed02c4d61e56ed1d90657e7a0ba48f15cca20fcc2899d7235221b2cb0423a63383836040516116039392919061255b565b60405180910390a15050565b5f60025f8081526020019081526020015f205f015f9054906101000a900460ff16600681111561164257611641611d02565b5b90505f60025f600181526020019081526020015f205f015f9054906101000a900460ff16600681111561167857611677611d02565b5b90505f60025f600281526020019081526020015f205f015f9054906101000a900460ff1660068111156116ae576116ad611d02565b5b90505f600367ffffffffffffffff8111156116cc576116cb612590565b5b6040519080825280602002602001820160405280156116fa5781602001602082028036833780820191505090505b5090506117078484611b32565b815f8151811061171a576117196125bd565b5b6020026020010181815250506117308483611b32565b815f81518110611743576117426125bd565b5b6020026020010181815250506117598385611b32565b8160018151811061176d5761176c6125bd565b5b6020026020010181815250506117838383611b32565b81600181518110611797576117966125bd565b5b6020026020010181815250506117ad8285611b32565b816002815181106117c1576117c06125bd565b5b6020026020010181815250506117d78284611b32565b816002815181106117eb576117ea6125bd565b5b6020026020010181815250505f805f805b60038110156118865782858281518110611819576118186125bd565b5b602002602001015111156118485784818151811061183a576118396125bd565b5b602002602001015192508091505b8285828151811061185c5761185b6125bd565b5b602002602001015103611879576001846118769190611ef1565b93505b80806001019150506117fc565b5060018303611912575f60025f8381526020019081526020015f205f0160019054906101000a900473ffffffffffffffffffffffffffffffffffffffff1690508073ffffffffffffffffffffffffffffffffffffffff166108fc60055490811502906040515f60405180830381858888f1935050505015801561190b573d5f803e3d5ffd5b50506119d7565b5f5b60038110156119d55782858281518110611931576119306125bd565b5b6020026020010151036119c8575f60025f8381526020019081526020015f205f0160019054906101000a900473ffffffffffffffffffffffffffffffffffffffff1690508073ffffffffffffffffffffffffffffffffffffffff166108fc8660055461199d9190612617565b90811502906040515f60405180830381858888f193505050501580156119c5573d5f803e3d5ffd5b50505b8080600101915050611914565b505b6119df611197565b50505050505050565b5f3083836040516020016119fe939291906126ac565b60405160208183030381529060405280519060200120905092915050565b8060015f3373ffffffffffffffffffffffffffffffffffffffff1673ffffffffffffffffffffffffffffffffffffffff1681526020019081526020015f205f01819055505f60015f3373ffffffffffffffffffffffffffffffffffffffff1673ffffffffffffffffffffffffffffffffffffffff1681526020019081526020015f206001015f6101000a81548160ff0219169083151502179055507fc38ed506edc9404e14f0bb335345918b4d4798a17868c1948c4d3e3f8add64403360015f3373ffffffffffffffffffffffffffffffffffffffff1673ffffffffffffffffffffffffffffffffffffffff1681526020019081526020015f205f0154604051611b279291906126e8565b60405180910390a150565b5f826007600184611b439190611ef1565b611b4d919061270f565b1480611b705750826007600284611b649190611ef1565b611b6e919061270f565b145b80611b925750826007600384611b869190611ef1565b611b90919061270f565b145b15611ba05760039050611c11565b816007600185611bb09190611ef1565b611bba919061270f565b1480611bdd5750816007600285611bd19190611ef1565b611bdb919061270f565b145b80611bff5750816007600385611bf39190611ef1565b611bfd919061270f565b145b15611c0c575f9050611c11565b600190505b92915050565b5f80fd5b60078110611c27575f80fd5b50565b5f81359050611c3881611c1b565b92915050565b5f819050919050565b611c5081611c3e565b8114611c5a575f80fd5b50565b5f81359050611c6b81611c47565b92915050565b5f8060408385031215611c8757611c86611c17565b5b5f611c9485828601611c2a565b9250506020611ca585828601611c5d565b9150509250929050565b611cb881611c3e565b82525050565b5f602082019050611cd15f830184611caf565b92915050565b5f60208284031215611cec57611ceb611c17565b5b5f611cf984828501611c5d565b91505092915050565b7f4e487b71000000000000000000000000000000000000000000000000000000005f52602160045260245ffd5b60078110611d4057611d3f611d02565b5b50565b5f819050611d5082611d2f565b919050565b5f611d5f82611d43565b9050919050565b611d6f81611d55565b82525050565b5f73ffffffffffffffffffffffffffffffffffffffff82169050919050565b5f611d9e82611d75565b9050919050565b611dae81611d94565b82525050565b5f606082019050611dc75f830186611d66565b611dd46020830185611da5565b611de16040830184611caf565b949350505050565b611df281611d94565b8114611dfc575f80fd5b50565b5f81359050611e0d81611de9565b92915050565b5f60208284031215611e2857611e27611c17565b5b5f611e3584828501611dff565b91505092915050565b5f819050919050565b611e5081611e3e565b82525050565b5f602082019050611e695f830184611e47565b92915050565b611e7881611e3e565b8114611e82575f80fd5b50565b5f81359050611e9381611e6f565b92915050565b5f60208284031215611eae57611ead611c17565b5b5f611ebb84828501611e85565b91505092915050565b7f4e487b71000000000000000000000000000000000000000000000000000000005f52601160045260245ffd5b5f611efb82611c3e565b9150611f0683611c3e565b9250828201905080821115611f1e57611f1d611ec4565b5b92915050565b5f82825260208201905092915050565b7f54696d656f757420686173206e6f74206f6363757272656420796574000000005f82015250565b5f611f68601c83611f24565b9150611f7382611f34565b602082019050919050565b5f6020820190508181035f830152611f9581611f5c565b9050919050565b7f496e76616c69642073656e6465720000000000000000000000000000000000005f82015250565b5f611fd0600e83611f24565b9150611fdb82611f9c565b602082019050919050565b5f6020820190508181035f830152611ffd81611fc4565b9050919050565b7f4e6f20706c6179657273207265676973746572656400000000000000000000005f82015250565b5f612038601583611f24565b915061204382612004565b602082019050919050565b5f6020820190508181035f8301526120658161202c565b9050919050565b7f496e76616c69642063686f6963650000000000000000000000000000000000005f82015250565b5f6120a0600e83611f24565b91506120ab8261206c565b602082019050919050565b5f6020820190508181035f8301526120cd81612094565b9050919050565b7f4e6f7420656e6f75676820706c617965727300000000000000000000000000005f82015250565b5f612108601283611f24565b9150612113826120d4565b602082019050919050565b5f6020820190508181035f830152612135816120fc565b9050919050565b7f4e6f7420616c6c20706c6179657273206861766520636f6d6d697474656400005f82015250565b5f612170601e83611f24565b915061217b8261213c565b602082019050919050565b5f6020820190508181035f83015261219d81612164565b9050919050565b5f6121ae82611c3e565b91507fffffffffffffffffffffffffffffffffffffffffffffffffffffffffffffffff82036121e0576121df611ec4565b5b600182019050919050565b7f4d6178696d756d206e756d626572206f6620706c6179657273207265616368655f8201527f6400000000000000000000000000000000000000000000000000000000000000602082015250565b5f612245602183611f24565b9150612250826121eb565b604082019050919050565b5f6020820190508181035f83015261227281612239565b9050919050565b7f496e73756666696369656e74206f722065786365737369766520616d6f756e745f8201527f2073656e74000000000000000000000000000000000000000000000000000000602082015250565b5f6122d3602583611f24565b91506122de82612279565b604082019050919050565b5f6020820190508181035f830152612300816122c7565b9050919050565b7f496e76616c69642063686f6963652068617368000000000000000000000000005f82015250565b5f61233b601383611f24565b915061234682612307565b602082019050919050565b5f6020820190508181035f8301526123688161232f565b9050919050565b7f416c726561647920636f6d6d69747465640000000000000000000000000000005f82015250565b5f6123a3601183611f24565b91506123ae8261236f565b602082019050919050565b5f6020820190508181035f8301526123d081612397565b9050919050565b7f416c72656164792072657665616c6564000000000000000000000000000000005f82015250565b5f61240b601083611f24565b9150612416826123d7565b602082019050919050565b5f6020820190508181035f830152612438816123ff565b9050919050565b7f436f6d6d697452657665616c3a3a72657665616c416e737765723a20416c72655f8201527f6164792072657665616c65640000000000000000000000000000000000000000602082015250565b5f612499602c83611f24565b91506124a48261243f565b604082019050919050565b5f6020820190508181035f8301526124c68161248d565b9050919050565b7f436f6d6d697452657665616c3a3a72657665616c416e737765723a20526576655f8201527f616c6564206861736820646f6573206e6f74206d6174636820636f6d6d697400602082015250565b5f612527603f83611f24565b9150612532826124cd565b604082019050919050565b5f6020820190508181035f8301526125548161251b565b9050919050565b5f60608201905061256e5f830186611da5565b61257b6020830185611e47565b6125886040830184611e47565b949350505050565b7f4e487b71000000000000000000000000000000000000000000000000000000005f52604160045260245ffd5b7f4e487b71000000000000000000000000000000000000000000000000000000005f52603260045260245ffd5b7f4e487b71000000000000000000000000000000000000000000000000000000005f52601260045260245ffd5b5f61262182611c3e565b915061262c83611c3e565b92508261263c5761263b6125ea565b5b828204905092915050565b5f8160601b9050919050565b5f61265d82612647565b9050919050565b5f61266e82612653565b9050919050565b61268661268182611d94565b612664565b82525050565b5f819050919050565b6126a66126a182611e3e565b61268c565b82525050565b5f6126b78286612675565b6014820191506126c78285612695565b6020820191506126d78284612695565b602082019150819050949350505050565b5f6040820190506126fb5f830185611da5565b6127086020830184611e47565b9392505050565b5f61271982611c3e565b915061272483611c3e565b925082612734576127336125ea565b5b82820690509291505056fea2646970667358221220756a66e5fe4e1a6f82d44dfc859331103f147bf987fe7e6145a2092ee2bfe5f564736f6c63430008180033",
					"opcodes": "PUSH1 0x80 PUSH1 0x40 MSTORE PUSH1 0x64 PUSH0 DUP1 PUSH2 0x100 EXP DUP2 SLOAD DUP2 PUSH1 0xFF MUL NOT AND SWAP1 DUP4 PUSH1 0xFF AND MUL OR SWAP1 SSTORE POP PUSH0 PUSH1 0x4 SSTORE PUSH0 PUSH1 0x5 SSTORE PUSH0 PUSH1 0x6 SSTORE PUSH0 PUSH1 0x7 SSTORE PUSH0 PUSH1 0x8 SSTORE CALLVALUE DUP1 ISZERO PUSH2 0x3D JUMPI PUSH0 DUP1 REVERT JUMPDEST POP PUSH2 0x2775 DUP1 PUSH2 0x4B PUSH0 CODECOPY PUSH0 RETURN INVALID PUSH1 0x80 PUSH1 0x40 MSTORE PUSH1 0x4 CALLDATASIZE LT PUSH2 0xDC JUMPI PUSH0 CALLDATALOAD PUSH1 0xE0 SHR DUP1 PUSH4 0x90D5D0C3 GT PUSH2 0x7E JUMPI DUP1 PUSH4 0xAE73EA65 GT PUSH2 0x58 JUMPI DUP1 PUSH4 0xAE73EA65 EQ PUSH2 0x262 JUMPI DUP1 PUSH4 0xB40CAC8C EQ PUSH2 0x29E JUMPI DUP1 PUSH4 0xE05B10C0 EQ PUSH2 0x2DA JUMPI DUP1 PUSH4 0xF56F48F2 EQ PUSH2 0x302 JUMPI PUSH2 0xDC JUMP JUMPDEST DUP1 PUSH4 0x90D5D0C3 EQ PUSH2 0x1D0 JUMPI DUP1 PUSH4 0x929DFFF2 EQ PUSH2 0x1FA JUMPI DUP1 PUSH4 0x9E0551C6 EQ PUSH2 0x224 JUMPI PUSH2 0xDC JUMP JUMPDEST DUP1 PUSH4 0x27B5DB8A GT PUSH2 0xBA JUMPI DUP1 PUSH4 0x27B5DB8A EQ PUSH2 0x148 JUMPI DUP1 PUSH4 0x4411B3EB EQ PUSH2 0x152 JUMPI DUP1 PUSH4 0x50899A1E EQ PUSH2 0x17C JUMPI DUP1 PUSH4 0x76D4192C EQ PUSH2 0x1A6 JUMPI PUSH2 0xDC JUMP JUMPDEST DUP1 PUSH4 0x9BBD6A0 EQ PUSH2 0xE0 JUMPI DUP1 PUSH4 0xC0B568D EQ PUSH2 0xF6 JUMPI DUP1 PUSH4 0x228CB733 EQ PUSH2 0x11E JUMPI JUMPDEST PUSH0 DUP1 REVERT JUMPDEST CALLVALUE DUP1 ISZERO PUSH2 0xEB JUMPI PUSH0 DUP1 REVERT JUMPDEST POP PUSH2 0xF4 PUSH2 0x32C JUMP JUMPDEST STOP JUMPDEST CALLVALUE DUP1 ISZERO PUSH2 0x101 JUMPI PUSH0 DUP1 REVERT JUMPDEST POP PUSH2 0x11C PUSH1 0x4 DUP1 CALLDATASIZE SUB DUP2 ADD SWAP1 PUSH2 0x117 SWAP2 SWAP1 PUSH2 0x1C71 JUMP JUMPDEST PUSH2 0x9E3 JUMP JUMPDEST STOP JUMPDEST CALLVALUE DUP1 ISZERO PUSH2 0x129 JUMPI PUSH0 DUP1 REVERT JUMPDEST POP PUSH2 0x132 PUSH2 0xC6D JUMP JUMPDEST PUSH1 0x40 MLOAD PUSH2 0x13F SWAP2 SWAP1 PUSH2 0x1CBE JUMP JUMPDEST PUSH1 0x40 MLOAD DUP1 SWAP2 SUB SWAP1 RETURN JUMPDEST PUSH2 0x150 PUSH2 0xC73 JUMP JUMPDEST STOP JUMPDEST CALLVALUE DUP1 ISZERO PUSH2 0x15D JUMPI PUSH0 DUP1 REVERT JUMPDEST POP PUSH2 0x166 PUSH2 0xDED JUMP JUMPDEST PUSH1 0x40 MLOAD PUSH2 0x173 SWAP2 SWAP1 PUSH2 0x1CBE JUMP JUMPDEST PUSH1 0x40 MLOAD DUP1 SWAP2 SUB SWAP1 RETURN JUMPDEST CALLVALUE DUP1 ISZERO PUSH2 0x187 JUMPI PUSH0 DUP1 REVERT JUMPDEST POP PUSH2 0x190 PUSH2 0xDF2 JUMP JUMPDEST PUSH1 0x40 MLOAD PUSH2 0x19D SWAP2 SWAP1 PUSH2 0x1CBE JUMP JUMPDEST PUSH1 0x40 MLOAD DUP1 SWAP2 SUB SWAP1 RETURN JUMPDEST CALLVALUE DUP1 ISZERO PUSH2 0x1B1 JUMPI PUSH0 DUP1 REVERT JUMPDEST POP PUSH2 0x1BA PUSH2 0xDF8 JUMP JUMPDEST PUSH1 0x40 MLOAD PUSH2 0x1C7 SWAP2 SWAP1 PUSH2 0x1CBE JUMP JUMPDEST PUSH1 0x40 MLOAD DUP1 SWAP2 SUB SWAP1 RETURN JUMPDEST CALLVALUE DUP1 ISZERO PUSH2 0x1DB JUMPI PUSH0 DUP1 REVERT JUMPDEST POP PUSH2 0x1E4 PUSH2 0xDFE JUMP JUMPDEST PUSH1 0x40 MLOAD PUSH2 0x1F1 SWAP2 SWAP1 PUSH2 0x1CBE JUMP JUMPDEST PUSH1 0x40 MLOAD DUP1 SWAP2 SUB SWAP1 RETURN JUMPDEST CALLVALUE DUP1 ISZERO PUSH2 0x205 JUMPI PUSH0 DUP1 REVERT JUMPDEST POP PUSH2 0x20E PUSH2 0xE04 JUMP JUMPDEST PUSH1 0x40 MLOAD PUSH2 0x21B SWAP2 SWAP1 PUSH2 0x1CBE JUMP JUMPDEST PUSH1 0x40 MLOAD DUP1 SWAP2 SUB SWAP1 RETURN JUMPDEST CALLVALUE DUP1 ISZERO PUSH2 0x22F JUMPI PUSH0 DUP1 REVERT JUMPDEST POP PUSH2 0x24A PUSH1 0x4 DUP1 CALLDATASIZE SUB DUP2 ADD SWAP1 PUSH2 0x245 SWAP2 SWAP1 PUSH2 0x1CD7 JUMP JUMPDEST PUSH2 0xE0A JUMP JUMPDEST PUSH1 0x40 MLOAD PUSH2 0x259 SWAP4 SWAP3 SWAP2 SWAP1 PUSH2 0x1DB4 JUMP JUMPDEST PUSH1 0x40 MLOAD DUP1 SWAP2 SUB SWAP1 RETURN JUMPDEST CALLVALUE DUP1 ISZERO PUSH2 0x26D JUMPI PUSH0 DUP1 REVERT JUMPDEST POP PUSH2 0x288 PUSH1 0x4 DUP1 CALLDATASIZE SUB DUP2 ADD SWAP1 PUSH2 0x283 SWAP2 SWAP1 PUSH2 0x1E13 JUMP JUMPDEST PUSH2 0xE5B JUMP JUMPDEST PUSH1 0x40 MLOAD PUSH2 0x295 SWAP2 SWAP1 PUSH2 0x1CBE JUMP JUMPDEST PUSH1 0x40 MLOAD DUP1 SWAP2 SUB SWAP1 RETURN JUMPDEST CALLVALUE DUP1 ISZERO PUSH2 0x2A9 JUMPI PUSH0 DUP1 REVERT JUMPDEST POP PUSH2 0x2C4 PUSH1 0x4 DUP1 CALLDATASIZE SUB DUP2 ADD SWAP1 PUSH2 0x2BF SWAP2 SWAP1 PUSH2 0x1C71 JUMP JUMPDEST PUSH2 0xE70 JUMP JUMPDEST PUSH1 0x40 MLOAD PUSH2 0x2D1 SWAP2 SWAP1 PUSH2 0x1E56 JUMP JUMPDEST PUSH1 0x40 MLOAD DUP1 SWAP2 SUB SWAP1 RETURN JUMPDEST CALLVALUE DUP1 ISZERO PUSH2 0x2E5 JUMPI PUSH0 DUP1 REVERT JUMPDEST POP PUSH2 0x300 PUSH1 0x4 DUP1 CALLDATASIZE SUB DUP2 ADD SWAP1 PUSH2 0x2FB SWAP2 SWAP1 PUSH2 0x1E99 JUMP JUMPDEST PUSH2 0xEEF JUMP JUMPDEST STOP JUMPDEST CALLVALUE DUP1 ISZERO PUSH2 0x30D JUMPI PUSH0 DUP1 REVERT JUMPDEST POP PUSH2 0x316 PUSH2 0x1190 JUMP JUMPDEST PUSH1 0x40 MLOAD PUSH2 0x323 SWAP2 SWAP1 PUSH2 0x1CBE JUMP JUMPDEST PUSH1 0x40 MLOAD DUP1 SWAP2 SUB SWAP1 RETURN JUMPDEST PUSH3 0x15180 PUSH1 0x8 SLOAD PUSH2 0x33D SWAP2 SWAP1 PUSH2 0x1EF1 JUMP JUMPDEST TIMESTAMP GT PUSH2 0x37E JUMPI PUSH1 0x40 MLOAD PUSH32 0x8C379A000000000000000000000000000000000000000000000000000000000 DUP2 MSTORE PUSH1 0x4 ADD PUSH2 0x375 SWAP1 PUSH2 0x1F7E JUMP JUMPDEST PUSH1 0x40 MLOAD DUP1 SWAP2 SUB SWAP1 REVERT JUMPDEST PUSH1 0x2 PUSH0 DUP1 DUP2 MSTORE PUSH1 0x20 ADD SWAP1 DUP2 MSTORE PUSH1 0x20 ADD PUSH0 KECCAK256 PUSH0 ADD PUSH1 0x1 SWAP1 SLOAD SWAP1 PUSH2 0x100 EXP SWAP1 DIV PUSH20 0xFFFFFFFFFFFFFFFFFFFFFFFFFFFFFFFFFFFFFFFF AND PUSH20 0xFFFFFFFFFFFFFFFFFFFFFFFFFFFFFFFFFFFFFFFF AND CALLER PUSH20 0xFFFFFFFFFFFFFFFFFFFFFFFFFFFFFFFFFFFFFFFF AND EQ DUP1 PUSH2 0x44A JUMPI POP PUSH1 0x2 PUSH0 PUSH1 0x1 DUP2 MSTORE PUSH1 0x20 ADD SWAP1 DUP2 MSTORE PUSH1 0x20 ADD PUSH0 KECCAK256 PUSH0 ADD PUSH1 0x1 SWAP1 SLOAD SWAP1 PUSH2 0x100 EXP SWAP1 DIV PUSH20 0xFFFFFFFFFFFFFFFFFFFFFFFFFFFFFFFFFFFFFFFF AND PUSH20 0xFFFFFFFFFFFFFFFFFFFFFFFFFFFFFFFFFFFFFFFF AND CALLER PUSH20 0xFFFFFFFFFFFFFFFFFFFFFFFFFFFFFFFFFFFFFFFF AND EQ JUMPDEST DUP1 PUSH2 0x4B4 JUMPI POP PUSH1 0x2 PUSH0 PUSH1 0x2 DUP2 MSTORE PUSH1 0x20 ADD SWAP1 DUP2 MSTORE PUSH1 0x20 ADD PUSH0 KECCAK256 PUSH0 ADD PUSH1 0x1 SWAP1 SLOAD SWAP1 PUSH2 0x100 EXP SWAP1 DIV PUSH20 0xFFFFFFFFFFFFFFFFFFFFFFFFFFFFFFFFFFFFFFFF AND PUSH20 0xFFFFFFFFFFFFFFFFFFFFFFFFFFFFFFFFFFFFFFFF AND CALLER PUSH20 0xFFFFFFFFFFFFFFFFFFFFFFFFFFFFFFFFFFFFFFFF AND EQ JUMPDEST PUSH2 0x4F3 JUMPI PUSH1 0x40 MLOAD PUSH32 0x8C379A000000000000000000000000000000000000000000000000000000000 DUP2 MSTORE PUSH1 0x4 ADD PUSH2 0x4EA SWAP1 PUSH2 0x1FE6 JUMP JUMPDEST PUSH1 0x40 MLOAD DUP1 SWAP2 SUB SWAP1 REVERT JUMPDEST PUSH0 PUSH1 0x4 SLOAD GT PUSH2 0x537 JUMPI PUSH1 0x40 MLOAD PUSH32 0x8C379A000000000000000000000000000000000000000000000000000000000 DUP2 MSTORE PUSH1 0x4 ADD PUSH2 0x52E SWAP1 PUSH2 0x204E JUMP JUMPDEST PUSH1 0x40 MLOAD DUP1 SWAP2 SUB SWAP1 REVERT JUMPDEST PUSH0 PUSH1 0x2 PUSH0 DUP1 DUP2 MSTORE PUSH1 0x20 ADD SWAP1 DUP2 MSTORE PUSH1 0x20 ADD PUSH0 KECCAK256 PUSH0 ADD PUSH1 0x1 SWAP1 SLOAD SWAP1 PUSH2 0x100 EXP SWAP1 DIV PUSH20 0xFFFFFFFFFFFFFFFFFFFFFFFFFFFFFFFFFFFFFFFF AND SWAP1 POP PUSH1 0x3 PUSH1 0x4 SLOAD LT ISZERO PUSH2 0x5CD JUMPI DUP1 PUSH20 0xFFFFFFFFFFFFFFFFFFFFFFFFFFFFFFFFFFFFFFFF AND PUSH2 0x8FC PUSH1 0x5 SLOAD SWAP1 DUP2 ISZERO MUL SWAP1 PUSH1 0x40 MLOAD PUSH0 PUSH1 0x40 MLOAD DUP1 DUP4 SUB DUP2 DUP6 DUP9 DUP9 CALL SWAP4 POP POP POP POP ISZERO DUP1 ISZERO PUSH2 0x5BE JUMPI RETURNDATASIZE PUSH0 DUP1 RETURNDATACOPY RETURNDATASIZE PUSH0 REVERT JUMPDEST POP PUSH2 0x5C7 PUSH2 0x1197 JUMP JUMPDEST POP PUSH2 0x9E1 JUMP JUMPDEST PUSH0 PUSH1 0x2 PUSH0 PUSH1 0x1 DUP2 MSTORE PUSH1 0x20 ADD SWAP1 DUP2 MSTORE PUSH1 0x20 ADD PUSH0 KECCAK256 PUSH0 ADD PUSH1 0x1 SWAP1 SLOAD SWAP1 PUSH2 0x100 EXP SWAP1 DIV PUSH20 0xFFFFFFFFFFFFFFFFFFFFFFFFFFFFFFFFFFFFFFFF AND SWAP1 POP PUSH1 0x2 PUSH1 0x6 SLOAD LT DUP1 PUSH2 0x617 JUMPI POP PUSH0 PUSH1 0x7 SLOAD EQ JUMPDEST ISZERO PUSH2 0x6DC JUMPI DUP2 PUSH20 0xFFFFFFFFFFFFFFFFFFFFFFFFFFFFFFFFFFFFFFFF AND PUSH2 0x8FC PUSH1 0x2 PUSH0 DUP1 DUP2 MSTORE PUSH1 0x20 ADD SWAP1 DUP2 MSTORE PUSH1 0x20 ADD PUSH0 KECCAK256 PUSH1 0x1 ADD SLOAD SWAP1 DUP2 ISZERO MUL SWAP1 PUSH1 0x40 MLOAD PUSH0 PUSH1 0x40 MLOAD DUP1 DUP4 SUB DUP2 DUP6 DUP9 DUP9 CALL SWAP4 POP POP POP POP ISZERO DUP1 ISZERO PUSH2 0x673 JUMPI RETURNDATASIZE PUSH0 DUP1 RETURNDATACOPY RETURNDATASIZE PUSH0 REVERT JUMPDEST POP DUP1 PUSH20 0xFFFFFFFFFFFFFFFFFFFFFFFFFFFFFFFFFFFFFFFF AND PUSH2 0x8FC PUSH1 0x2 PUSH0 PUSH1 0x1 DUP2 MSTORE PUSH1 0x20 ADD SWAP1 DUP2 MSTORE PUSH1 0x20 ADD PUSH0 KECCAK256 PUSH1 0x1 ADD SLOAD SWAP1 DUP2 ISZERO MUL SWAP1 PUSH1 0x40 MLOAD PUSH0 PUSH1 0x40 MLOAD DUP1 DUP4 SUB DUP2 DUP6 DUP9 DUP9 CALL SWAP4 POP POP POP POP ISZERO DUP1 ISZERO PUSH2 0x6CC JUMPI RETURNDATASIZE PUSH0 DUP1 RETURNDATACOPY RETURNDATASIZE PUSH0 REVERT JUMPDEST POP PUSH2 0x6D5 PUSH2 0x1197 JUMP JUMPDEST POP POP PUSH2 0x9E1 JUMP JUMPDEST PUSH0 PUSH1 0x2 PUSH0 PUSH1 0x2 DUP2 MSTORE PUSH1 0x20 ADD SWAP1 DUP2 MSTORE PUSH1 0x20 ADD PUSH0 KECCAK256 PUSH0 ADD PUSH1 0x1 SWAP1 SLOAD SWAP1 PUSH2 0x100 EXP SWAP1 DIV PUSH20 0xFFFFFFFFFFFFFFFFFFFFFFFFFFFFFFFFFFFFFFFF AND SWAP1 POP PUSH1 0x3 PUSH1 0x6 SLOAD LT DUP1 PUSH2 0x726 JUMPI POP PUSH0 PUSH1 0x7 SLOAD EQ JUMPDEST ISZERO PUSH2 0x845 JUMPI DUP3 PUSH20 0xFFFFFFFFFFFFFFFFFFFFFFFFFFFFFFFFFFFFFFFF AND PUSH2 0x8FC PUSH1 0x2 PUSH0 DUP1 DUP2 MSTORE PUSH1 0x20 ADD SWAP1 DUP2 MSTORE PUSH1 0x20 ADD PUSH0 KECCAK256 PUSH1 0x1 ADD SLOAD SWAP1 DUP2 ISZERO MUL SWAP1 PUSH1 0x40 MLOAD PUSH0 PUSH1 0x40 MLOAD DUP1 DUP4 SUB DUP2 DUP6 DUP9 DUP9 CALL SWAP4 POP POP POP POP ISZERO DUP1 ISZERO PUSH2 0x782 JUMPI RETURNDATASIZE PUSH0 DUP1 RETURNDATACOPY RETURNDATASIZE PUSH0 REVERT JUMPDEST POP DUP2 PUSH20 0xFFFFFFFFFFFFFFFFFFFFFFFFFFFFFFFFFFFFFFFF AND PUSH2 0x8FC PUSH1 0x2 PUSH0 PUSH1 0x1 DUP2 MSTORE PUSH1 0x20 ADD SWAP1 DUP2 MSTORE PUSH1 0x20 ADD PUSH0 KECCAK256 PUSH1 0x1 ADD SLOAD SWAP1 DUP2 ISZERO MUL SWAP1 PUSH1 0x40 MLOAD PUSH0 PUSH1 0x40 MLOAD DUP1 DUP4 SUB DUP2 DUP6 DUP9 DUP9 CALL SWAP4 POP POP POP POP ISZERO DUP1 ISZERO PUSH2 0x7DB JUMPI RETURNDATASIZE PUSH0 DUP1 RETURNDATACOPY RETURNDATASIZE PUSH0 REVERT JUMPDEST POP DUP1 PUSH20 0xFFFFFFFFFFFFFFFFFFFFFFFFFFFFFFFFFFFFFFFF AND PUSH2 0x8FC PUSH1 0x2 PUSH0 PUSH1 0x2 DUP2 MSTORE PUSH1 0x20 ADD SWAP1 DUP2 MSTORE PUSH1 0x20 ADD PUSH0 KECCAK256 PUSH1 0x1 ADD SLOAD SWAP1 DUP2 ISZERO MUL SWAP1 PUSH1 0x40 MLOAD PUSH0 PUSH1 0x40 MLOAD DUP1 DUP4 SUB DUP2 DUP6 DUP9 DUP9 CALL SWAP4 POP POP POP POP ISZERO DUP1 ISZERO PUSH2 0x834 JUMPI RETURNDATASIZE PUSH0 DUP1 RETURNDATACOPY RETURNDATASIZE PUSH0 REVERT JUMPDEST POP PUSH2 0x83D PUSH2 0x1197 JUMP JUMPDEST POP POP POP PUSH2 0x9E1 JUMP JUMPDEST PUSH1 0x3 PUSH1 0x7 SLOAD LT ISZERO PUSH2 0x9DD JUMPI PUSH0 JUMPDEST PUSH1 0x3 DUP2 LT ISZERO PUSH2 0x9DB JUMPI PUSH1 0x1 PUSH0 PUSH1 0x2 PUSH0 DUP5 DUP2 MSTORE PUSH1 0x20 ADD SWAP1 DUP2 MSTORE PUSH1 0x20 ADD PUSH0 KECCAK256 PUSH0 ADD PUSH1 0x1 SWAP1 SLOAD SWAP1 PUSH2 0x100 EXP SWAP1 DIV PUSH20 0xFFFFFFFFFFFFFFFFFFFFFFFFFFFFFFFFFFFFFFFF AND PUSH20 0xFFFFFFFFFFFFFFFFFFFFFFFFFFFFFFFFFFFFFFFF AND PUSH20 0xFFFFFFFFFFFFFFFFFFFFFFFFFFFFFFFFFFFFFFFF AND DUP2 MSTORE PUSH1 0x20 ADD SWAP1 DUP2 MSTORE PUSH1 0x20 ADD PUSH0 KECCAK256 PUSH1 0x1 ADD PUSH0 SWAP1 SLOAD SWAP1 PUSH2 0x100 EXP SWAP1 DIV PUSH1 0xFF AND ISZERO PUSH2 0x975 JUMPI PUSH0 PUSH1 0x2 PUSH0 DUP4 DUP2 MSTORE PUSH1 0x20 ADD SWAP1 DUP2 MSTORE PUSH1 0x20 ADD PUSH0 KECCAK256 PUSH0 ADD PUSH1 0x1 SWAP1 SLOAD SWAP1 PUSH2 0x100 EXP SWAP1 DIV PUSH20 0xFFFFFFFFFFFFFFFFFFFFFFFFFFFFFFFFFFFFFFFF AND SWAP1 POP DUP1 PUSH20 0xFFFFFFFFFFFFFFFFFFFFFFFFFFFFFFFFFFFFFFFF AND PUSH2 0x8FC PUSH1 0x2 PUSH0 DUP6 DUP2 MSTORE PUSH1 0x20 ADD SWAP1 DUP2 MSTORE PUSH1 0x20 ADD PUSH0 KECCAK256 PUSH1 0x1 ADD SLOAD SWAP1 DUP2 ISZERO MUL SWAP1 PUSH1 0x40 MLOAD PUSH0 PUSH1 0x40 MLOAD DUP1 DUP4 SUB DUP2 DUP6 DUP9 DUP9 CALL SWAP4 POP POP POP POP ISZERO DUP1 ISZERO PUSH2 0x96E JUMPI RETURNDATASIZE PUSH0 DUP1 RETURNDATACOPY RETURNDATASIZE PUSH0 REVERT JUMPDEST POP POP PUSH2 0x9CE JUMP JUMPDEST CALLER PUSH20 0xFFFFFFFFFFFFFFFFFFFFFFFFFFFFFFFFFFFFFFFF AND PUSH2 0x8FC PUSH1 0x2 PUSH0 DUP5 DUP2 MSTORE PUSH1 0x20 ADD SWAP1 DUP2 MSTORE PUSH1 0x20 ADD PUSH0 KECCAK256 PUSH1 0x1 ADD SLOAD SWAP1 DUP2 ISZERO MUL SWAP1 PUSH1 0x40 MLOAD PUSH0 PUSH1 0x40 MLOAD DUP1 DUP4 SUB DUP2 DUP6 DUP9 DUP9 CALL SWAP4 POP POP POP POP ISZERO DUP1 ISZERO PUSH2 0x9CC JUMPI RETURNDATASIZE PUSH0 DUP1 RETURNDATACOPY RETURNDATASIZE PUSH0 REVERT JUMPDEST POP JUMPDEST DUP1 DUP1 PUSH1 0x1 ADD SWAP2 POP POP PUSH2 0x852 JUMP JUMPDEST POP JUMPDEST POP POP POP JUMPDEST JUMP JUMPDEST PUSH1 0x6 DUP3 PUSH1 0x6 DUP2 GT ISZERO PUSH2 0x9F8 JUMPI PUSH2 0x9F7 PUSH2 0x1D02 JUMP JUMPDEST JUMPDEST GT ISZERO PUSH2 0xA39 JUMPI PUSH1 0x40 MLOAD PUSH32 0x8C379A000000000000000000000000000000000000000000000000000000000 DUP2 MSTORE PUSH1 0x4 ADD PUSH2 0xA30 SWAP1 PUSH2 0x20B6 JUMP JUMPDEST PUSH1 0x40 MLOAD DUP1 SWAP2 SUB SWAP1 REVERT JUMPDEST PUSH1 0x3 PUSH1 0x4 SLOAD EQ PUSH2 0xA7E JUMPI PUSH1 0x40 MLOAD PUSH32 0x8C379A000000000000000000000000000000000000000000000000000000000 DUP2 MSTORE PUSH1 0x4 ADD PUSH2 0xA75 SWAP1 PUSH2 0x211E JUMP JUMPDEST PUSH1 0x40 MLOAD DUP1 SWAP2 SUB SWAP1 REVERT JUMPDEST PUSH1 0x3 PUSH1 0x6 SLOAD EQ PUSH2 0xAC3 JUMPI PUSH1 0x40 MLOAD PUSH32 0x8C379A000000000000000000000000000000000000000000000000000000000 DUP2 MSTORE PUSH1 0x4 ADD PUSH2 0xABA SWAP1 PUSH2 0x2186 JUMP JUMPDEST PUSH1 0x40 MLOAD DUP1 SWAP2 SUB SWAP1 REVERT JUMPDEST PUSH1 0x2 PUSH0 PUSH1 0x3 PUSH0 CALLER PUSH20 0xFFFFFFFFFFFFFFFFFFFFFFFFFFFFFFFFFFFFFFFF AND PUSH20 0xFFFFFFFFFFFFFFFFFFFFFFFFFFFFFFFFFFFFFFFF AND DUP2 MSTORE PUSH1 0x20 ADD SWAP1 DUP2 MSTORE PUSH1 0x20 ADD PUSH0 KECCAK256 SLOAD DUP2 MSTORE PUSH1 0x20 ADD SWAP1 DUP2 MSTORE PUSH1 0x20 ADD PUSH0 KECCAK256 PUSH0 ADD PUSH1 0x1 SWAP1 SLOAD SWAP1 PUSH2 0x100 EXP SWAP1 DIV PUSH20 0xFFFFFFFFFFFFFFFFFFFFFFFFFFFFFFFFFFFFFFFF AND PUSH20 0xFFFFFFFFFFFFFFFFFFFFFFFFFFFFFFFFFFFFFFFF AND CALLER PUSH20 0xFFFFFFFFFFFFFFFFFFFFFFFFFFFFFFFFFFFFFFFF AND EQ PUSH2 0xBA1 JUMPI PUSH1 0x40 MLOAD PUSH32 0x8C379A000000000000000000000000000000000000000000000000000000000 DUP2 MSTORE PUSH1 0x4 ADD PUSH2 0xB98 SWAP1 PUSH2 0x1FE6 JUMP JUMPDEST PUSH1 0x40 MLOAD DUP1 SWAP2 SUB SWAP1 REVERT JUMPDEST PUSH2 0xBC1 DUP3 PUSH1 0x6 DUP2 GT ISZERO PUSH2 0xBB7 JUMPI PUSH2 0xBB6 PUSH2 0x1D02 JUMP JUMPDEST JUMPDEST PUSH0 SHL DUP3 PUSH0 SHL PUSH2 0x145D JUMP JUMPDEST DUP2 PUSH1 0x2 PUSH0 PUSH1 0x3 PUSH0 CALLER PUSH20 0xFFFFFFFFFFFFFFFFFFFFFFFFFFFFFFFFFFFFFFFF AND PUSH20 0xFFFFFFFFFFFFFFFFFFFFFFFFFFFFFFFFFFFFFFFF AND DUP2 MSTORE PUSH1 0x20 ADD SWAP1 DUP2 MSTORE PUSH1 0x20 ADD PUSH0 KECCAK256 SLOAD DUP2 MSTORE PUSH1 0x20 ADD SWAP1 DUP2 MSTORE PUSH1 0x20 ADD PUSH0 KECCAK256 PUSH0 ADD PUSH0 PUSH2 0x100 EXP DUP2 SLOAD DUP2 PUSH1 0xFF MUL NOT AND SWAP1 DUP4 PUSH1 0x6 DUP2 GT ISZERO PUSH2 0xC33 JUMPI PUSH2 0xC32 PUSH2 0x1D02 JUMP JUMPDEST JUMPDEST MUL OR SWAP1 SSTORE POP PUSH1 0x7 PUSH0 DUP2 SLOAD DUP1 SWAP3 SWAP2 SWAP1 PUSH2 0xC4A SWAP1 PUSH2 0x21A4 JUMP JUMPDEST SWAP2 SWAP1 POP SSTORE POP PUSH1 0x3 PUSH1 0x7 SLOAD SUB PUSH2 0xC62 JUMPI PUSH2 0xC61 PUSH2 0x160F JUMP JUMPDEST JUMPDEST TIMESTAMP PUSH1 0x8 DUP2 SWAP1 SSTORE POP POP POP JUMP JUMPDEST PUSH1 0x5 SLOAD DUP2 JUMP JUMPDEST PUSH1 0x3 PUSH1 0x4 SLOAD LT PUSH2 0xCB8 JUMPI PUSH1 0x40 MLOAD PUSH32 0x8C379A000000000000000000000000000000000000000000000000000000000 DUP2 MSTORE PUSH1 0x4 ADD PUSH2 0xCAF SWAP1 PUSH2 0x225B JUMP JUMPDEST PUSH1 0x40 MLOAD DUP1 SWAP2 SUB SWAP1 REVERT JUMPDEST PUSH8 0xDE0B6B3A7640000 CALLVALUE EQ PUSH2 0xD02 JUMPI PUSH1 0x40 MLOAD PUSH32 0x8C379A000000000000000000000000000000000000000000000000000000000 DUP2 MSTORE PUSH1 0x4 ADD PUSH2 0xCF9 SWAP1 PUSH2 0x22E9 JUMP JUMPDEST PUSH1 0x40 MLOAD DUP1 SWAP2 SUB SWAP1 REVERT JUMPDEST CALLVALUE PUSH1 0x5 PUSH0 DUP3 DUP3 SLOAD PUSH2 0xD13 SWAP2 SWAP1 PUSH2 0x1EF1 JUMP JUMPDEST SWAP3 POP POP DUP2 SWAP1 SSTORE POP CALLVALUE PUSH1 0x2 PUSH0 PUSH1 0x4 SLOAD DUP2 MSTORE PUSH1 0x20 ADD SWAP1 DUP2 MSTORE PUSH1 0x20 ADD PUSH0 KECCAK256 PUSH1 0x1 ADD DUP2 SWAP1 SSTORE POP CALLER PUSH1 0x2 PUSH0 PUSH1 0x4 SLOAD DUP2 MSTORE PUSH1 0x20 ADD SWAP1 DUP2 MSTORE PUSH1 0x20 ADD PUSH0 KECCAK256 PUSH0 ADD PUSH1 0x1 PUSH2 0x100 EXP DUP2 SLOAD DUP2 PUSH20 0xFFFFFFFFFFFFFFFFFFFFFFFFFFFFFFFFFFFFFFFF MUL NOT AND SWAP1 DUP4 PUSH20 0xFFFFFFFFFFFFFFFFFFFFFFFFFFFFFFFFFFFFFFFF AND MUL OR SWAP1 SSTORE POP PUSH1 0x4 SLOAD PUSH1 0x3 PUSH0 CALLER PUSH20 0xFFFFFFFFFFFFFFFFFFFFFFFFFFFFFFFFFFFFFFFF AND PUSH20 0xFFFFFFFFFFFFFFFFFFFFFFFFFFFFFFFFFFFFFFFF AND DUP2 MSTORE PUSH1 0x20 ADD SWAP1 DUP2 MSTORE PUSH1 0x20 ADD PUSH0 KECCAK256 DUP2 SWAP1 SSTORE POP PUSH1 0x4 PUSH0 DUP2 SLOAD DUP1 SWAP3 SWAP2 SWAP1 PUSH2 0xDDF SWAP1 PUSH2 0x21A4 JUMP JUMPDEST SWAP2 SWAP1 POP SSTORE POP TIMESTAMP PUSH1 0x8 DUP2 SWAP1 SSTORE POP JUMP JUMPDEST PUSH1 0x3 DUP2 JUMP JUMPDEST PUSH1 0x8 SLOAD DUP2 JUMP JUMPDEST PUSH1 0x7 SLOAD DUP2 JUMP JUMPDEST PUSH1 0x4 SLOAD DUP2 JUMP JUMPDEST PUSH1 0x6 SLOAD DUP2 JUMP JUMPDEST PUSH1 0x2 PUSH1 0x20 MSTORE DUP1 PUSH0 MSTORE PUSH1 0x40 PUSH0 KECCAK256 PUSH0 SWAP2 POP SWAP1 POP DUP1 PUSH0 ADD PUSH0 SWAP1 SLOAD SWAP1 PUSH2 0x100 EXP SWAP1 DIV PUSH1 0xFF AND SWAP1 DUP1 PUSH0 ADD PUSH1 0x1 SWAP1 SLOAD SWAP1 PUSH2 0x100 EXP SWAP1 DIV PUSH20 0xFFFFFFFFFFFFFFFFFFFFFFFFFFFFFFFFFFFFFFFF AND SWAP1 DUP1 PUSH1 0x1 ADD SLOAD SWAP1 POP DUP4 JUMP JUMPDEST PUSH1 0x3 PUSH1 0x20 MSTORE DUP1 PUSH0 MSTORE PUSH1 0x40 PUSH0 KECCAK256 PUSH0 SWAP2 POP SWAP1 POP SLOAD DUP2 JUMP JUMPDEST PUSH0 PUSH1 0x6 DUP4 PUSH1 0x6 DUP2 GT ISZERO PUSH2 0xE86 JUMPI PUSH2 0xE85 PUSH2 0x1D02 JUMP JUMPDEST JUMPDEST GT ISZERO PUSH2 0xEC7 JUMPI PUSH1 0x40 MLOAD PUSH32 0x8C379A000000000000000000000000000000000000000000000000000000000 DUP2 MSTORE PUSH1 0x4 ADD PUSH2 0xEBE SWAP1 PUSH2 0x20B6 JUMP JUMPDEST PUSH1 0x40 MLOAD DUP1 SWAP2 SUB SWAP1 REVERT JUMPDEST PUSH2 0xEE7 DUP4 PUSH1 0x6 DUP2 GT ISZERO PUSH2 0xEDD JUMPI PUSH2 0xEDC PUSH2 0x1D02 JUMP JUMPDEST JUMPDEST PUSH0 SHL DUP4 PUSH0 SHL PUSH2 0x19E8 JUMP JUMPDEST SWAP1 POP SWAP3 SWAP2 POP POP JUMP JUMPDEST PUSH0 DUP1 SHL DUP2 SUB PUSH2 0xF33 JUMPI PUSH1 0x40 MLOAD PUSH32 0x8C379A000000000000000000000000000000000000000000000000000000000 DUP2 MSTORE PUSH1 0x4 ADD PUSH2 0xF2A SWAP1 PUSH2 0x2351 JUMP JUMPDEST PUSH1 0x40 MLOAD DUP1 SWAP2 SUB SWAP1 REVERT JUMPDEST PUSH1 0x3 PUSH1 0x4 SLOAD EQ PUSH2 0xF78 JUMPI PUSH1 0x40 MLOAD PUSH32 0x8C379A000000000000000000000000000000000000000000000000000000000 DUP2 MSTORE PUSH1 0x4 ADD PUSH2 0xF6F SWAP1 PUSH2 0x211E JUMP JUMPDEST PUSH1 0x40 MLOAD DUP1 SWAP2 SUB SWAP1 REVERT JUMPDEST PUSH1 0x2 PUSH0 PUSH1 0x3 PUSH0 CALLER PUSH20 0xFFFFFFFFFFFFFFFFFFFFFFFFFFFFFFFFFFFFFFFF AND PUSH20 0xFFFFFFFFFFFFFFFFFFFFFFFFFFFFFFFFFFFFFFFF AND DUP2 MSTORE PUSH1 0x20 ADD SWAP1 DUP2 MSTORE PUSH1 0x20 ADD PUSH0 KECCAK256 SLOAD DUP2 MSTORE PUSH1 0x20 ADD SWAP1 DUP2 MSTORE PUSH1 0x20 ADD PUSH0 KECCAK256 PUSH0 ADD PUSH1 0x1 SWAP1 SLOAD SWAP1 PUSH2 0x100 EXP SWAP1 DIV PUSH20 0xFFFFFFFFFFFFFFFFFFFFFFFFFFFFFFFFFFFFFFFF AND PUSH20 0xFFFFFFFFFFFFFFFFFFFFFFFFFFFFFFFFFFFFFFFF AND CALLER PUSH20 0xFFFFFFFFFFFFFFFFFFFFFFFFFFFFFFFFFFFFFFFF AND EQ PUSH2 0x1056 JUMPI PUSH1 0x40 MLOAD PUSH32 0x8C379A000000000000000000000000000000000000000000000000000000000 DUP2 MSTORE PUSH1 0x4 ADD PUSH2 0x104D SWAP1 PUSH2 0x1FE6 JUMP JUMPDEST PUSH1 0x40 MLOAD DUP1 SWAP2 SUB SWAP1 REVERT JUMPDEST PUSH0 DUP1 SHL PUSH1 0x1 PUSH0 CALLER PUSH20 0xFFFFFFFFFFFFFFFFFFFFFFFFFFFFFFFFFFFFFFFF AND PUSH20 0xFFFFFFFFFFFFFFFFFFFFFFFFFFFFFFFFFFFFFFFF AND DUP2 MSTORE PUSH1 0x20 ADD SWAP1 DUP2 MSTORE PUSH1 0x20 ADD PUSH0 KECCAK256 PUSH0 ADD SLOAD EQ PUSH2 0x10D9 JUMPI PUSH1 0x40 MLOAD PUSH32 0x8C379A000000000000000000000000000000000000000000000000000000000 DUP2 MSTORE PUSH1 0x4 ADD PUSH2 0x10D0 SWAP1 PUSH2 0x23B9 JUMP JUMPDEST PUSH1 0x40 MLOAD DUP1 SWAP2 SUB SWAP1 REVERT JUMPDEST PUSH1 0x1 PUSH0 CALLER PUSH20 0xFFFFFFFFFFFFFFFFFFFFFFFFFFFFFFFFFFFFFFFF AND PUSH20 0xFFFFFFFFFFFFFFFFFFFFFFFFFFFFFFFFFFFFFFFF AND DUP2 MSTORE PUSH1 0x20 ADD SWAP1 DUP2 MSTORE PUSH1 0x20 ADD PUSH0 KECCAK256 PUSH1 0x1 ADD PUSH0 SWAP1 SLOAD SWAP1 PUSH2 0x100 EXP SWAP1 DIV PUSH1 0xFF AND ISZERO PUSH2 0x1166 JUMPI PUSH1 0x40 MLOAD PUSH32 0x8C379A000000000000000000000000000000000000000000000000000000000 DUP2 MSTORE PUSH1 0x4 ADD PUSH2 0x115D SWAP1 PUSH2 0x2421 JUMP JUMPDEST PUSH1 0x40 MLOAD DUP1 SWAP2 SUB SWAP1 REVERT JUMPDEST PUSH2 0x116F DUP2 PUSH2 0x1A1C JUMP JUMPDEST PUSH1 0x6 PUSH0 DUP2 SLOAD DUP1 SWAP3 SWAP2 SWAP1 PUSH2 0x1181 SWAP1 PUSH2 0x21A4 JUMP JUMPDEST SWAP2 SWAP1 POP SSTORE POP TIMESTAMP PUSH1 0x8 DUP2 SWAP1 SSTORE POP POP JUMP JUMPDEST PUSH3 0x15180 DUP2 JUMP JUMPDEST PUSH0 PUSH1 0x4 DUP2 SWAP1 SSTORE POP PUSH0 PUSH1 0x5 DUP2 SWAP1 SSTORE POP PUSH0 PUSH1 0x6 DUP2 SWAP1 SSTORE POP PUSH0 PUSH1 0x7 DUP2 SWAP1 SSTORE POP PUSH0 PUSH1 0x8 DUP2 SWAP1 SSTORE POP PUSH1 0x1 PUSH0 PUSH1 0x2 PUSH0 DUP1 DUP2 MSTORE PUSH1 0x20 ADD SWAP1 DUP2 MSTORE PUSH1 0x20 ADD PUSH0 KECCAK256 PUSH0 ADD PUSH1 0x1 SWAP1 SLOAD SWAP1 PUSH2 0x100 EXP SWAP1 DIV PUSH20 0xFFFFFFFFFFFFFFFFFFFFFFFFFFFFFFFFFFFFFFFF AND PUSH20 0xFFFFFFFFFFFFFFFFFFFFFFFFFFFFFFFFFFFFFFFF AND PUSH20 0xFFFFFFFFFFFFFFFFFFFFFFFFFFFFFFFFFFFFFFFF AND DUP2 MSTORE PUSH1 0x20 ADD SWAP1 DUP2 MSTORE PUSH1 0x20 ADD PUSH0 KECCAK256 PUSH0 DUP1 DUP3 ADD PUSH0 SWAP1 SSTORE PUSH1 0x1 DUP3 ADD PUSH0 PUSH2 0x100 EXP DUP2 SLOAD SWAP1 PUSH1 0xFF MUL NOT AND SWAP1 SSTORE POP POP PUSH1 0x1 PUSH0 PUSH1 0x2 PUSH0 PUSH1 0x1 DUP2 MSTORE PUSH1 0x20 ADD SWAP1 DUP2 MSTORE PUSH1 0x20 ADD PUSH0 KECCAK256 PUSH0 ADD PUSH1 0x1 SWAP1 SLOAD SWAP1 PUSH2 0x100 EXP SWAP1 DIV PUSH20 0xFFFFFFFFFFFFFFFFFFFFFFFFFFFFFFFFFFFFFFFF AND PUSH20 0xFFFFFFFFFFFFFFFFFFFFFFFFFFFFFFFFFFFFFFFF AND PUSH20 0xFFFFFFFFFFFFFFFFFFFFFFFFFFFFFFFFFFFFFFFF AND DUP2 MSTORE PUSH1 0x20 ADD SWAP1 DUP2 MSTORE PUSH1 0x20 ADD PUSH0 KECCAK256 PUSH0 DUP1 DUP3 ADD PUSH0 SWAP1 SSTORE PUSH1 0x1 DUP3 ADD PUSH0 PUSH2 0x100 EXP DUP2 SLOAD SWAP1 PUSH1 0xFF MUL NOT AND SWAP1 SSTORE POP POP PUSH1 0x1 PUSH0 PUSH1 0x2 PUSH0 PUSH1 0x2 DUP2 MSTORE PUSH1 0x20 ADD SWAP1 DUP2 MSTORE PUSH1 0x20 ADD PUSH0 KECCAK256 PUSH0 ADD PUSH1 0x1 SWAP1 SLOAD SWAP1 PUSH2 0x100 EXP SWAP1 DIV PUSH20 0xFFFFFFFFFFFFFFFFFFFFFFFFFFFFFFFFFFFFFFFF AND PUSH20 0xFFFFFFFFFFFFFFFFFFFFFFFFFFFFFFFFFFFFFFFF AND PUSH20 0xFFFFFFFFFFFFFFFFFFFFFFFFFFFFFFFFFFFFFFFF AND DUP2 MSTORE PUSH1 0x20 ADD SWAP1 DUP2 MSTORE PUSH1 0x20 ADD PUSH0 KECCAK256 PUSH0 DUP1 DUP3 ADD PUSH0 SWAP1 SSTORE PUSH1 0x1 DUP3 ADD PUSH0 PUSH2 0x100 EXP DUP2 SLOAD SWAP1 PUSH1 0xFF MUL NOT AND SWAP1 SSTORE POP POP PUSH1 0x2 PUSH0 DUP1 DUP2 MSTORE PUSH1 0x20 ADD SWAP1 DUP2 MSTORE PUSH1 0x20 ADD PUSH0 KECCAK256 PUSH0 DUP1 DUP3 ADD PUSH0 PUSH2 0x100 EXP DUP2 SLOAD SWAP1 PUSH1 0xFF MUL NOT AND SWAP1 SSTORE PUSH0 DUP3 ADD PUSH1 0x1 PUSH2 0x100 EXP DUP2 SLOAD SWAP1 PUSH20 0xFFFFFFFFFFFFFFFFFFFFFFFFFFFFFFFFFFFFFFFF MUL NOT AND SWAP1 SSTORE PUSH1 0x1 DUP3 ADD PUSH0 SWAP1 SSTORE POP POP PUSH1 0x2 PUSH0 PUSH1 0x1 DUP2 MSTORE PUSH1 0x20 ADD SWAP1 DUP2 MSTORE PUSH1 0x20 ADD PUSH0 KECCAK256 PUSH0 DUP1 DUP3 ADD PUSH0 PUSH2 0x100 EXP DUP2 SLOAD SWAP1 PUSH1 0xFF MUL NOT AND SWAP1 SSTORE PUSH0 DUP3 ADD PUSH1 0x1 PUSH2 0x100 EXP DUP2 SLOAD SWAP1 PUSH20 0xFFFFFFFFFFFFFFFFFFFFFFFFFFFFFFFFFFFFFFFF MUL NOT AND SWAP1 SSTORE PUSH1 0x1 DUP3 ADD PUSH0 SWAP1 SSTORE POP POP PUSH1 0x2 PUSH0 PUSH1 0x2 DUP2 MSTORE PUSH1 0x20 ADD SWAP1 DUP2 MSTORE PUSH1 0x20 ADD PUSH0 KECCAK256 PUSH0 DUP1 DUP3 ADD PUSH0 PUSH2 0x100 EXP DUP2 SLOAD SWAP1 PUSH1 0xFF MUL NOT AND SWAP1 SSTORE PUSH0 DUP3 ADD PUSH1 0x1 PUSH2 0x100 EXP DUP2 SLOAD SWAP1 PUSH20 0xFFFFFFFFFFFFFFFFFFFFFFFFFFFFFFFFFFFFFFFF MUL NOT AND SWAP1 SSTORE PUSH1 0x1 DUP3 ADD PUSH0 SWAP1 SSTORE POP POP JUMP JUMPDEST PUSH0 ISZERO ISZERO PUSH1 0x1 PUSH0 CALLER PUSH20 0xFFFFFFFFFFFFFFFFFFFFFFFFFFFFFFFFFFFFFFFF AND PUSH20 0xFFFFFFFFFFFFFFFFFFFFFFFFFFFFFFFFFFFFFFFF AND DUP2 MSTORE PUSH1 0x20 ADD SWAP1 DUP2 MSTORE PUSH1 0x20 ADD PUSH0 KECCAK256 PUSH1 0x1 ADD PUSH0 SWAP1 SLOAD SWAP1 PUSH2 0x100 EXP SWAP1 DIV PUSH1 0xFF AND ISZERO ISZERO EQ PUSH2 0x14EF JUMPI PUSH1 0x40 MLOAD PUSH32 0x8C379A000000000000000000000000000000000000000000000000000000000 DUP2 MSTORE PUSH1 0x4 ADD PUSH2 0x14E6 SWAP1 PUSH2 0x24AF JUMP JUMPDEST PUSH1 0x40 MLOAD DUP1 SWAP2 SUB SWAP1 REVERT JUMPDEST PUSH1 0x1 DUP1 PUSH0 CALLER PUSH20 0xFFFFFFFFFFFFFFFFFFFFFFFFFFFFFFFFFFFFFFFF AND PUSH20 0xFFFFFFFFFFFFFFFFFFFFFFFFFFFFFFFFFFFFFFFF AND DUP2 MSTORE PUSH1 0x20 ADD SWAP1 DUP2 MSTORE PUSH1 0x20 ADD PUSH0 KECCAK256 PUSH1 0x1 ADD PUSH0 PUSH2 0x100 EXP DUP2 SLOAD DUP2 PUSH1 0xFF MUL NOT AND SWAP1 DUP4 ISZERO ISZERO MUL OR SWAP1 SSTORE POP PUSH1 0x1 PUSH0 CALLER PUSH20 0xFFFFFFFFFFFFFFFFFFFFFFFFFFFFFFFFFFFFFFFF AND PUSH20 0xFFFFFFFFFFFFFFFFFFFFFFFFFFFFFFFFFFFFFFFF AND DUP2 MSTORE PUSH1 0x20 ADD SWAP1 DUP2 MSTORE PUSH1 0x20 ADD PUSH0 KECCAK256 PUSH0 ADD SLOAD PUSH2 0x1590 DUP4 DUP4 PUSH2 0x19E8 JUMP JUMPDEST EQ PUSH2 0x15D0 JUMPI PUSH1 0x40 MLOAD PUSH32 0x8C379A000000000000000000000000000000000000000000000000000000000 DUP2 MSTORE PUSH1 0x4 ADD PUSH2 0x15C7 SWAP1 PUSH2 0x253D JUMP JUMPDEST PUSH1 0x40 MLOAD DUP1 SWAP2 SUB SWAP1 REVERT JUMPDEST PUSH32 0x8BED02C4D61E56ED1D90657E7A0BA48F15CCA20FCC2899D7235221B2CB0423A6 CALLER DUP4 DUP4 PUSH1 0x40 MLOAD PUSH2 0x1603 SWAP4 SWAP3 SWAP2 SWAP1 PUSH2 0x255B JUMP JUMPDEST PUSH1 0x40 MLOAD DUP1 SWAP2 SUB SWAP1 LOG1 POP POP JUMP JUMPDEST PUSH0 PUSH1 0x2 PUSH0 DUP1 DUP2 MSTORE PUSH1 0x20 ADD SWAP1 DUP2 MSTORE PUSH1 0x20 ADD PUSH0 KECCAK256 PUSH0 ADD PUSH0 SWAP1 SLOAD SWAP1 PUSH2 0x100 EXP SWAP1 DIV PUSH1 0xFF AND PUSH1 0x6 DUP2 GT ISZERO PUSH2 0x1642 JUMPI PUSH2 0x1641 PUSH2 0x1D02 JUMP JUMPDEST JUMPDEST SWAP1 POP PUSH0 PUSH1 0x2 PUSH0 PUSH1 0x1 DUP2 MSTORE PUSH1 0x20 ADD SWAP1 DUP2 MSTORE PUSH1 0x20 ADD PUSH0 KECCAK256 PUSH0 ADD PUSH0 SWAP1 SLOAD SWAP1 PUSH2 0x100 EXP SWAP1 DIV PUSH1 0xFF AND PUSH1 0x6 DUP2 GT ISZERO PUSH2 0x1678 JUMPI PUSH2 0x1677 PUSH2 0x1D02 JUMP JUMPDEST JUMPDEST SWAP1 POP PUSH0 PUSH1 0x2 PUSH0 PUSH1 0x2 DUP2 MSTORE PUSH1 0x20 ADD SWAP1 DUP2 MSTORE PUSH1 0x20 ADD PUSH0 KECCAK256 PUSH0 ADD PUSH0 SWAP1 SLOAD SWAP1 PUSH2 0x100 EXP SWAP1 DIV PUSH1 0xFF AND PUSH1 0x6 DUP2 GT ISZERO PUSH2 0x16AE JUMPI PUSH2 0x16AD PUSH2 0x1D02 JUMP JUMPDEST JUMPDEST SWAP1 POP PUSH0 PUSH1 0x3 PUSH8 0xFFFFFFFFFFFFFFFF DUP2 GT ISZERO PUSH2 0x16CC JUMPI PUSH2 0x16CB PUSH2 0x2590 JUMP JUMPDEST JUMPDEST PUSH1 0x40 MLOAD SWAP1 DUP1 DUP3 MSTORE DUP1 PUSH1 0x20 MUL PUSH1 0x20 ADD DUP3 ADD PUSH1 0x40 MSTORE DUP1 ISZERO PUSH2 0x16FA JUMPI DUP2 PUSH1 0x20 ADD PUSH1 0x20 DUP3 MUL DUP1 CALLDATASIZE DUP4 CALLDATACOPY DUP1 DUP3 ADD SWAP2 POP POP SWAP1 POP JUMPDEST POP SWAP1 POP PUSH2 0x1707 DUP5 DUP5 PUSH2 0x1B32 JUMP JUMPDEST DUP2 PUSH0 DUP2 MLOAD DUP2 LT PUSH2 0x171A JUMPI PUSH2 0x1719 PUSH2 0x25BD JUMP JUMPDEST JUMPDEST PUSH1 0x20 MUL PUSH1 0x20 ADD ADD DUP2 DUP2 MSTORE POP POP PUSH2 0x1730 DUP5 DUP4 PUSH2 0x1B32 JUMP JUMPDEST DUP2 PUSH0 DUP2 MLOAD DUP2 LT PUSH2 0x1743 JUMPI PUSH2 0x1742 PUSH2 0x25BD JUMP JUMPDEST JUMPDEST PUSH1 0x20 MUL PUSH1 0x20 ADD ADD DUP2 DUP2 MSTORE POP POP PUSH2 0x1759 DUP4 DUP6 PUSH2 0x1B32 JUMP JUMPDEST DUP2 PUSH1 0x1 DUP2 MLOAD DUP2 LT PUSH2 0x176D JUMPI PUSH2 0x176C PUSH2 0x25BD JUMP JUMPDEST JUMPDEST PUSH1 0x20 MUL PUSH1 0x20 ADD ADD DUP2 DUP2 MSTORE POP POP PUSH2 0x1783 DUP4 DUP4 PUSH2 0x1B32 JUMP JUMPDEST DUP2 PUSH1 0x1 DUP2 MLOAD DUP2 LT PUSH2 0x1797 JUMPI PUSH2 0x1796 PUSH2 0x25BD JUMP JUMPDEST JUMPDEST PUSH1 0x20 MUL PUSH1 0x20 ADD ADD DUP2 DUP2 MSTORE POP POP PUSH2 0x17AD DUP3 DUP6 PUSH2 0x1B32 JUMP JUMPDEST DUP2 PUSH1 0x2 DUP2 MLOAD DUP2 LT PUSH2 0x17C1 JUMPI PUSH2 0x17C0 PUSH2 0x25BD JUMP JUMPDEST JUMPDEST PUSH1 0x20 MUL PUSH1 0x20 ADD ADD DUP2 DUP2 MSTORE POP POP PUSH2 0x17D7 DUP3 DUP5 PUSH2 0x1B32 JUMP JUMPDEST DUP2 PUSH1 0x2 DUP2 MLOAD DUP2 LT PUSH2 0x17EB JUMPI PUSH2 0x17EA PUSH2 0x25BD JUMP JUMPDEST JUMPDEST PUSH1 0x20 MUL PUSH1 0x20 ADD ADD DUP2 DUP2 MSTORE POP POP PUSH0 DUP1 PUSH0 DUP1 JUMPDEST PUSH1 0x3 DUP2 LT ISZERO PUSH2 0x1886 JUMPI DUP3 DUP6 DUP3 DUP2 MLOAD DUP2 LT PUSH2 0x1819 JUMPI PUSH2 0x1818 PUSH2 0x25BD JUMP JUMPDEST JUMPDEST PUSH1 0x20 MUL PUSH1 0x20 ADD ADD MLOAD GT ISZERO PUSH2 0x1848 JUMPI DUP5 DUP2 DUP2 MLOAD DUP2 LT PUSH2 0x183A JUMPI PUSH2 0x1839 PUSH2 0x25BD JUMP JUMPDEST JUMPDEST PUSH1 0x20 MUL PUSH1 0x20 ADD ADD MLOAD SWAP3 POP DUP1 SWAP2 POP JUMPDEST DUP3 DUP6 DUP3 DUP2 MLOAD DUP2 LT PUSH2 0x185C JUMPI PUSH2 0x185B PUSH2 0x25BD JUMP JUMPDEST JUMPDEST PUSH1 0x20 MUL PUSH1 0x20 ADD ADD MLOAD SUB PUSH2 0x1879 JUMPI PUSH1 0x1 DUP5 PUSH2 0x1876 SWAP2 SWAP1 PUSH2 0x1EF1 JUMP JUMPDEST SWAP4 POP JUMPDEST DUP1 DUP1 PUSH1 0x1 ADD SWAP2 POP POP PUSH2 0x17FC JUMP JUMPDEST POP PUSH1 0x1 DUP4 SUB PUSH2 0x1912 JUMPI PUSH0 PUSH1 0x2 PUSH0 DUP4 DUP2 MSTORE PUSH1 0x20 ADD SWAP1 DUP2 MSTORE PUSH1 0x20 ADD PUSH0 KECCAK256 PUSH0 ADD PUSH1 0x1 SWAP1 SLOAD SWAP1 PUSH2 0x100 EXP SWAP1 DIV PUSH20 0xFFFFFFFFFFFFFFFFFFFFFFFFFFFFFFFFFFFFFFFF AND SWAP1 POP DUP1 PUSH20 0xFFFFFFFFFFFFFFFFFFFFFFFFFFFFFFFFFFFFFFFF AND PUSH2 0x8FC PUSH1 0x5 SLOAD SWAP1 DUP2 ISZERO MUL SWAP1 PUSH1 0x40 MLOAD PUSH0 PUSH1 0x40 MLOAD DUP1 DUP4 SUB DUP2 DUP6 DUP9 DUP9 CALL SWAP4 POP POP POP POP ISZERO DUP1 ISZERO PUSH2 0x190B JUMPI RETURNDATASIZE PUSH0 DUP1 RETURNDATACOPY RETURNDATASIZE PUSH0 REVERT JUMPDEST POP POP PUSH2 0x19D7 JUMP JUMPDEST PUSH0 JUMPDEST PUSH1 0x3 DUP2 LT ISZERO PUSH2 0x19D5 JUMPI DUP3 DUP6 DUP3 DUP2 MLOAD DUP2 LT PUSH2 0x1931 JUMPI PUSH2 0x1930 PUSH2 0x25BD JUMP JUMPDEST JUMPDEST PUSH1 0x20 MUL PUSH1 0x20 ADD ADD MLOAD SUB PUSH2 0x19C8 JUMPI PUSH0 PUSH1 0x2 PUSH0 DUP4 DUP2 MSTORE PUSH1 0x20 ADD SWAP1 DUP2 MSTORE PUSH1 0x20 ADD PUSH0 KECCAK256 PUSH0 ADD PUSH1 0x1 SWAP1 SLOAD SWAP1 PUSH2 0x100 EXP SWAP1 DIV PUSH20 0xFFFFFFFFFFFFFFFFFFFFFFFFFFFFFFFFFFFFFFFF AND SWAP1 POP DUP1 PUSH20 0xFFFFFFFFFFFFFFFFFFFFFFFFFFFFFFFFFFFFFFFF AND PUSH2 0x8FC DUP7 PUSH1 0x5 SLOAD PUSH2 0x199D SWAP2 SWAP1 PUSH2 0x2617 JUMP JUMPDEST SWAP1 DUP2 ISZERO MUL SWAP1 PUSH1 0x40 MLOAD PUSH0 PUSH1 0x40 MLOAD DUP1 DUP4 SUB DUP2 DUP6 DUP9 DUP9 CALL SWAP4 POP POP POP POP ISZERO DUP1 ISZERO PUSH2 0x19C5 JUMPI RETURNDATASIZE PUSH0 DUP1 RETURNDATACOPY RETURNDATASIZE PUSH0 REVERT JUMPDEST POP POP JUMPDEST DUP1 DUP1 PUSH1 0x1 ADD SWAP2 POP POP PUSH2 0x1914 JUMP JUMPDEST POP JUMPDEST PUSH2 0x19DF PUSH2 0x1197 JUMP JUMPDEST POP POP POP POP POP POP POP JUMP JUMPDEST PUSH0 ADDRESS DUP4 DUP4 PUSH1 0x40 MLOAD PUSH1 0x20 ADD PUSH2 0x19FE SWAP4 SWAP3 SWAP2 SWAP1 PUSH2 0x26AC JUMP JUMPDEST PUSH1 0x40 MLOAD PUSH1 0x20 DUP2 DUP4 SUB SUB DUP2 MSTORE SWAP1 PUSH1 0x40 MSTORE DUP1 MLOAD SWAP1 PUSH1 0x20 ADD KECCAK256 SWAP1 POP SWAP3 SWAP2 POP POP JUMP JUMPDEST DUP1 PUSH1 0x1 PUSH0 CALLER PUSH20 0xFFFFFFFFFFFFFFFFFFFFFFFFFFFFFFFFFFFFFFFF AND PUSH20 0xFFFFFFFFFFFFFFFFFFFFFFFFFFFFFFFFFFFFFFFF AND DUP2 MSTORE PUSH1 0x20 ADD SWAP1 DUP2 MSTORE PUSH1 0x20 ADD PUSH0 KECCAK256 PUSH0 ADD DUP2 SWAP1 SSTORE POP PUSH0 PUSH1 0x1 PUSH0 CALLER PUSH20 0xFFFFFFFFFFFFFFFFFFFFFFFFFFFFFFFFFFFFFFFF AND PUSH20 0xFFFFFFFFFFFFFFFFFFFFFFFFFFFFFFFFFFFFFFFF AND DUP2 MSTORE PUSH1 0x20 ADD SWAP1 DUP2 MSTORE PUSH1 0x20 ADD PUSH0 KECCAK256 PUSH1 0x1 ADD PUSH0 PUSH2 0x100 EXP DUP2 SLOAD DUP2 PUSH1 0xFF MUL NOT AND SWAP1 DUP4 ISZERO ISZERO MUL OR SWAP1 SSTORE POP PUSH32 0xC38ED506EDC9404E14F0BB335345918B4D4798A17868C1948C4D3E3F8ADD6440 CALLER PUSH1 0x1 PUSH0 CALLER PUSH20 0xFFFFFFFFFFFFFFFFFFFFFFFFFFFFFFFFFFFFFFFF AND PUSH20 0xFFFFFFFFFFFFFFFFFFFFFFFFFFFFFFFFFFFFFFFF AND DUP2 MSTORE PUSH1 0x20 ADD SWAP1 DUP2 MSTORE PUSH1 0x20 ADD PUSH0 KECCAK256 PUSH0 ADD SLOAD PUSH1 0x40 MLOAD PUSH2 0x1B27 SWAP3 SWAP2 SWAP1 PUSH2 0x26E8 JUMP JUMPDEST PUSH1 0x40 MLOAD DUP1 SWAP2 SUB SWAP1 LOG1 POP JUMP JUMPDEST PUSH0 DUP3 PUSH1 0x7 PUSH1 0x1 DUP5 PUSH2 0x1B43 SWAP2 SWAP1 PUSH2 0x1EF1 JUMP JUMPDEST PUSH2 0x1B4D SWAP2 SWAP1 PUSH2 0x270F JUMP JUMPDEST EQ DUP1 PUSH2 0x1B70 JUMPI POP DUP3 PUSH1 0x7 PUSH1 0x2 DUP5 PUSH2 0x1B64 SWAP2 SWAP1 PUSH2 0x1EF1 JUMP JUMPDEST PUSH2 0x1B6E SWAP2 SWAP1 PUSH2 0x270F JUMP JUMPDEST EQ JUMPDEST DUP1 PUSH2 0x1B92 JUMPI POP DUP3 PUSH1 0x7 PUSH1 0x3 DUP5 PUSH2 0x1B86 SWAP2 SWAP1 PUSH2 0x1EF1 JUMP JUMPDEST PUSH2 0x1B90 SWAP2 SWAP1 PUSH2 0x270F JUMP JUMPDEST EQ JUMPDEST ISZERO PUSH2 0x1BA0 JUMPI PUSH1 0x3 SWAP1 POP PUSH2 0x1C11 JUMP JUMPDEST DUP2 PUSH1 0x7 PUSH1 0x1 DUP6 PUSH2 0x1BB0 SWAP2 SWAP1 PUSH2 0x1EF1 JUMP JUMPDEST PUSH2 0x1BBA SWAP2 SWAP1 PUSH2 0x270F JUMP JUMPDEST EQ DUP1 PUSH2 0x1BDD JUMPI POP DUP2 PUSH1 0x7 PUSH1 0x2 DUP6 PUSH2 0x1BD1 SWAP2 SWAP1 PUSH2 0x1EF1 JUMP JUMPDEST PUSH2 0x1BDB SWAP2 SWAP1 PUSH2 0x270F JUMP JUMPDEST EQ JUMPDEST DUP1 PUSH2 0x1BFF JUMPI POP DUP2 PUSH1 0x7 PUSH1 0x3 DUP6 PUSH2 0x1BF3 SWAP2 SWAP1 PUSH2 0x1EF1 JUMP JUMPDEST PUSH2 0x1BFD SWAP2 SWAP1 PUSH2 0x270F JUMP JUMPDEST EQ JUMPDEST ISZERO PUSH2 0x1C0C JUMPI PUSH0 SWAP1 POP PUSH2 0x1C11 JUMP JUMPDEST PUSH1 0x1 SWAP1 POP JUMPDEST SWAP3 SWAP2 POP POP JUMP JUMPDEST PUSH0 DUP1 REVERT JUMPDEST PUSH1 0x7 DUP2 LT PUSH2 0x1C27 JUMPI PUSH0 DUP1 REVERT JUMPDEST POP JUMP JUMPDEST PUSH0 DUP2 CALLDATALOAD SWAP1 POP PUSH2 0x1C38 DUP2 PUSH2 0x1C1B JUMP JUMPDEST SWAP3 SWAP2 POP POP JUMP JUMPDEST PUSH0 DUP2 SWAP1 POP SWAP2 SWAP1 POP JUMP JUMPDEST PUSH2 0x1C50 DUP2 PUSH2 0x1C3E JUMP JUMPDEST DUP2 EQ PUSH2 0x1C5A JUMPI PUSH0 DUP1 REVERT JUMPDEST POP JUMP JUMPDEST PUSH0 DUP2 CALLDATALOAD SWAP1 POP PUSH2 0x1C6B DUP2 PUSH2 0x1C47 JUMP JUMPDEST SWAP3 SWAP2 POP POP JUMP JUMPDEST PUSH0 DUP1 PUSH1 0x40 DUP4 DUP6 SUB SLT ISZERO PUSH2 0x1C87 JUMPI PUSH2 0x1C86 PUSH2 0x1C17 JUMP JUMPDEST JUMPDEST PUSH0 PUSH2 0x1C94 DUP6 DUP3 DUP7 ADD PUSH2 0x1C2A JUMP JUMPDEST SWAP3 POP POP PUSH1 0x20 PUSH2 0x1CA5 DUP6 DUP3 DUP7 ADD PUSH2 0x1C5D JUMP JUMPDEST SWAP2 POP POP SWAP3 POP SWAP3 SWAP1 POP JUMP JUMPDEST PUSH2 0x1CB8 DUP2 PUSH2 0x1C3E JUMP JUMPDEST DUP3 MSTORE POP POP JUMP JUMPDEST PUSH0 PUSH1 0x20 DUP3 ADD SWAP1 POP PUSH2 0x1CD1 PUSH0 DUP4 ADD DUP5 PUSH2 0x1CAF JUMP JUMPDEST SWAP3 SWAP2 POP POP JUMP JUMPDEST PUSH0 PUSH1 0x20 DUP3 DUP5 SUB SLT ISZERO PUSH2 0x1CEC JUMPI PUSH2 0x1CEB PUSH2 0x1C17 JUMP JUMPDEST JUMPDEST PUSH0 PUSH2 0x1CF9 DUP5 DUP3 DUP6 ADD PUSH2 0x1C5D JUMP JUMPDEST SWAP2 POP POP SWAP3 SWAP2 POP POP JUMP JUMPDEST PUSH32 0x4E487B7100000000000000000000000000000000000000000000000000000000 PUSH0 MSTORE PUSH1 0x21 PUSH1 0x4 MSTORE PUSH1 0x24 PUSH0 REVERT JUMPDEST PUSH1 0x7 DUP2 LT PUSH2 0x1D40 JUMPI PUSH2 0x1D3F PUSH2 0x1D02 JUMP JUMPDEST JUMPDEST POP JUMP JUMPDEST PUSH0 DUP2 SWAP1 POP PUSH2 0x1D50 DUP3 PUSH2 0x1D2F JUMP JUMPDEST SWAP2 SWAP1 POP JUMP JUMPDEST PUSH0 PUSH2 0x1D5F DUP3 PUSH2 0x1D43 JUMP JUMPDEST SWAP1 POP SWAP2 SWAP1 POP JUMP JUMPDEST PUSH2 0x1D6F DUP2 PUSH2 0x1D55 JUMP JUMPDEST DUP3 MSTORE POP POP JUMP JUMPDEST PUSH0 PUSH20 0xFFFFFFFFFFFFFFFFFFFFFFFFFFFFFFFFFFFFFFFF DUP3 AND SWAP1 POP SWAP2 SWAP1 POP JUMP JUMPDEST PUSH0 PUSH2 0x1D9E DUP3 PUSH2 0x1D75 JUMP JUMPDEST SWAP1 POP SWAP2 SWAP1 POP JUMP JUMPDEST PUSH2 0x1DAE DUP2 PUSH2 0x1D94 JUMP JUMPDEST DUP3 MSTORE POP POP JUMP JUMPDEST PUSH0 PUSH1 0x60 DUP3 ADD SWAP1 POP PUSH2 0x1DC7 PUSH0 DUP4 ADD DUP7 PUSH2 0x1D66 JUMP JUMPDEST PUSH2 0x1DD4 PUSH1 0x20 DUP4 ADD DUP6 PUSH2 0x1DA5 JUMP JUMPDEST PUSH2 0x1DE1 PUSH1 0x40 DUP4 ADD DUP5 PUSH2 0x1CAF JUMP JUMPDEST SWAP5 SWAP4 POP POP POP POP JUMP JUMPDEST PUSH2 0x1DF2 DUP2 PUSH2 0x1D94 JUMP JUMPDEST DUP2 EQ PUSH2 0x1DFC JUMPI PUSH0 DUP1 REVERT JUMPDEST POP JUMP JUMPDEST PUSH0 DUP2 CALLDATALOAD SWAP1 POP PUSH2 0x1E0D DUP2 PUSH2 0x1DE9 JUMP JUMPDEST SWAP3 SWAP2 POP POP JUMP JUMPDEST PUSH0 PUSH1 0x20 DUP3 DUP5 SUB SLT ISZERO PUSH2 0x1E28 JUMPI PUSH2 0x1E27 PUSH2 0x1C17 JUMP JUMPDEST JUMPDEST PUSH0 PUSH2 0x1E35 DUP5 DUP3 DUP6 ADD PUSH2 0x1DFF JUMP JUMPDEST SWAP2 POP POP SWAP3 SWAP2 POP POP JUMP JUMPDEST PUSH0 DUP2 SWAP1 POP SWAP2 SWAP1 POP JUMP JUMPDEST PUSH2 0x1E50 DUP2 PUSH2 0x1E3E JUMP JUMPDEST DUP3 MSTORE POP POP JUMP JUMPDEST PUSH0 PUSH1 0x20 DUP3 ADD SWAP1 POP PUSH2 0x1E69 PUSH0 DUP4 ADD DUP5 PUSH2 0x1E47 JUMP JUMPDEST SWAP3 SWAP2 POP POP JUMP JUMPDEST PUSH2 0x1E78 DUP2 PUSH2 0x1E3E JUMP JUMPDEST DUP2 EQ PUSH2 0x1E82 JUMPI PUSH0 DUP1 REVERT JUMPDEST POP JUMP JUMPDEST PUSH0 DUP2 CALLDATALOAD SWAP1 POP PUSH2 0x1E93 DUP2 PUSH2 0x1E6F JUMP JUMPDEST SWAP3 SWAP2 POP POP JUMP JUMPDEST PUSH0 PUSH1 0x20 DUP3 DUP5 SUB SLT ISZERO PUSH2 0x1EAE JUMPI PUSH2 0x1EAD PUSH2 0x1C17 JUMP JUMPDEST JUMPDEST PUSH0 PUSH2 0x1EBB DUP5 DUP3 DUP6 ADD PUSH2 0x1E85 JUMP JUMPDEST SWAP2 POP POP SWAP3 SWAP2 POP POP JUMP JUMPDEST PUSH32 0x4E487B7100000000000000000000000000000000000000000000000000000000 PUSH0 MSTORE PUSH1 0x11 PUSH1 0x4 MSTORE PUSH1 0x24 PUSH0 REVERT JUMPDEST PUSH0 PUSH2 0x1EFB DUP3 PUSH2 0x1C3E JUMP JUMPDEST SWAP2 POP PUSH2 0x1F06 DUP4 PUSH2 0x1C3E JUMP JUMPDEST SWAP3 POP DUP3 DUP3 ADD SWAP1 POP DUP1 DUP3 GT ISZERO PUSH2 0x1F1E JUMPI PUSH2 0x1F1D PUSH2 0x1EC4 JUMP JUMPDEST JUMPDEST SWAP3 SWAP2 POP POP JUMP JUMPDEST PUSH0 DUP3 DUP3 MSTORE PUSH1 0x20 DUP3 ADD SWAP1 POP SWAP3 SWAP2 POP POP JUMP JUMPDEST PUSH32 0x54696D656F757420686173206E6F74206F636375727265642079657400000000 PUSH0 DUP3 ADD MSTORE POP JUMP JUMPDEST PUSH0 PUSH2 0x1F68 PUSH1 0x1C DUP4 PUSH2 0x1F24 JUMP JUMPDEST SWAP2 POP PUSH2 0x1F73 DUP3 PUSH2 0x1F34 JUMP JUMPDEST PUSH1 0x20 DUP3 ADD SWAP1 POP SWAP2 SWAP1 POP JUMP JUMPDEST PUSH0 PUSH1 0x20 DUP3 ADD SWAP1 POP DUP2 DUP2 SUB PUSH0 DUP4 ADD MSTORE PUSH2 0x1F95 DUP2 PUSH2 0x1F5C JUMP JUMPDEST SWAP1 POP SWAP2 SWAP1 POP JUMP JUMPDEST PUSH32 0x496E76616C69642073656E646572000000000000000000000000000000000000 PUSH0 DUP3 ADD MSTORE POP JUMP JUMPDEST PUSH0 PUSH2 0x1FD0 PUSH1 0xE DUP4 PUSH2 0x1F24 JUMP JUMPDEST SWAP2 POP PUSH2 0x1FDB DUP3 PUSH2 0x1F9C JUMP JUMPDEST PUSH1 0x20 DUP3 ADD SWAP1 POP SWAP2 SWAP1 POP JUMP JUMPDEST PUSH0 PUSH1 0x20 DUP3 ADD SWAP1 POP DUP2 DUP2 SUB PUSH0 DUP4 ADD MSTORE PUSH2 0x1FFD DUP2 PUSH2 0x1FC4 JUMP JUMPDEST SWAP1 POP SWAP2 SWAP1 POP JUMP JUMPDEST PUSH32 0x4E6F20706C617965727320726567697374657265640000000000000000000000 PUSH0 DUP3 ADD MSTORE POP JUMP JUMPDEST PUSH0 PUSH2 0x2038 PUSH1 0x15 DUP4 PUSH2 0x1F24 JUMP JUMPDEST SWAP2 POP PUSH2 0x2043 DUP3 PUSH2 0x2004 JUMP JUMPDEST PUSH1 0x20 DUP3 ADD SWAP1 POP SWAP2 SWAP1 POP JUMP JUMPDEST PUSH0 PUSH1 0x20 DUP3 ADD SWAP1 POP DUP2 DUP2 SUB PUSH0 DUP4 ADD MSTORE PUSH2 0x2065 DUP2 PUSH2 0x202C JUMP JUMPDEST SWAP1 POP SWAP2 SWAP1 POP JUMP JUMPDEST PUSH32 0x496E76616C69642063686F696365000000000000000000000000000000000000 PUSH0 DUP3 ADD MSTORE POP JUMP JUMPDEST PUSH0 PUSH2 0x20A0 PUSH1 0xE DUP4 PUSH2 0x1F24 JUMP JUMPDEST SWAP2 POP PUSH2 0x20AB DUP3 PUSH2 0x206C JUMP JUMPDEST PUSH1 0x20 DUP3 ADD SWAP1 POP SWAP2 SWAP1 POP JUMP JUMPDEST PUSH0 PUSH1 0x20 DUP3 ADD SWAP1 POP DUP2 DUP2 SUB PUSH0 DUP4 ADD MSTORE PUSH2 0x20CD DUP2 PUSH2 0x2094 JUMP JUMPDEST SWAP1 POP SWAP2 SWAP1 POP JUMP JUMPDEST PUSH32 0x4E6F7420656E6F75676820706C61796572730000000000000000000000000000 PUSH0 DUP3 ADD MSTORE POP JUMP JUMPDEST PUSH0 PUSH2 0x2108 PUSH1 0x12 DUP4 PUSH2 0x1F24 JUMP JUMPDEST SWAP2 POP PUSH2 0x2113 DUP3 PUSH2 0x20D4 JUMP JUMPDEST PUSH1 0x20 DUP3 ADD SWAP1 POP SWAP2 SWAP1 POP JUMP JUMPDEST PUSH0 PUSH1 0x20 DUP3 ADD SWAP1 POP DUP2 DUP2 SUB PUSH0 DUP4 ADD MSTORE PUSH2 0x2135 DUP2 PUSH2 0x20FC JUMP JUMPDEST SWAP1 POP SWAP2 SWAP1 POP JUMP JUMPDEST PUSH32 0x4E6F7420616C6C20706C6179657273206861766520636F6D6D69747465640000 PUSH0 DUP3 ADD MSTORE POP JUMP JUMPDEST PUSH0 PUSH2 0x2170 PUSH1 0x1E DUP4 PUSH2 0x1F24 JUMP JUMPDEST SWAP2 POP PUSH2 0x217B DUP3 PUSH2 0x213C JUMP JUMPDEST PUSH1 0x20 DUP3 ADD SWAP1 POP SWAP2 SWAP1 POP JUMP JUMPDEST PUSH0 PUSH1 0x20 DUP3 ADD SWAP1 POP DUP2 DUP2 SUB PUSH0 DUP4 ADD MSTORE PUSH2 0x219D DUP2 PUSH2 0x2164 JUMP JUMPDEST SWAP1 POP SWAP2 SWAP1 POP JUMP JUMPDEST PUSH0 PUSH2 0x21AE DUP3 PUSH2 0x1C3E JUMP JUMPDEST SWAP2 POP PUSH32 0xFFFFFFFFFFFFFFFFFFFFFFFFFFFFFFFFFFFFFFFFFFFFFFFFFFFFFFFFFFFFFFFF DUP3 SUB PUSH2 0x21E0 JUMPI PUSH2 0x21DF PUSH2 0x1EC4 JUMP JUMPDEST JUMPDEST PUSH1 0x1 DUP3 ADD SWAP1 POP SWAP2 SWAP1 POP JUMP JUMPDEST PUSH32 0x4D6178696D756D206E756D626572206F6620706C617965727320726561636865 PUSH0 DUP3 ADD MSTORE PUSH32 0x6400000000000000000000000000000000000000000000000000000000000000 PUSH1 0x20 DUP3 ADD MSTORE POP JUMP JUMPDEST PUSH0 PUSH2 0x2245 PUSH1 0x21 DUP4 PUSH2 0x1F24 JUMP JUMPDEST SWAP2 POP PUSH2 0x2250 DUP3 PUSH2 0x21EB JUMP JUMPDEST PUSH1 0x40 DUP3 ADD SWAP1 POP SWAP2 SWAP1 POP JUMP JUMPDEST PUSH0 PUSH1 0x20 DUP3 ADD SWAP1 POP DUP2 DUP2 SUB PUSH0 DUP4 ADD MSTORE PUSH2 0x2272 DUP2 PUSH2 0x2239 JUMP JUMPDEST SWAP1 POP SWAP2 SWAP1 POP JUMP JUMPDEST PUSH32 0x496E73756666696369656E74206F722065786365737369766520616D6F756E74 PUSH0 DUP3 ADD MSTORE PUSH32 0x2073656E74000000000000000000000000000000000000000000000000000000 PUSH1 0x20 DUP3 ADD MSTORE POP JUMP JUMPDEST PUSH0 PUSH2 0x22D3 PUSH1 0x25 DUP4 PUSH2 0x1F24 JUMP JUMPDEST SWAP2 POP PUSH2 0x22DE DUP3 PUSH2 0x2279 JUMP JUMPDEST PUSH1 0x40 DUP3 ADD SWAP1 POP SWAP2 SWAP1 POP JUMP JUMPDEST PUSH0 PUSH1 0x20 DUP3 ADD SWAP1 POP DUP2 DUP2 SUB PUSH0 DUP4 ADD MSTORE PUSH2 0x2300 DUP2 PUSH2 0x22C7 JUMP JUMPDEST SWAP1 POP SWAP2 SWAP1 POP JUMP JUMPDEST PUSH32 0x496E76616C69642063686F696365206861736800000000000000000000000000 PUSH0 DUP3 ADD MSTORE POP JUMP JUMPDEST PUSH0 PUSH2 0x233B PUSH1 0x13 DUP4 PUSH2 0x1F24 JUMP JUMPDEST SWAP2 POP PUSH2 0x2346 DUP3 PUSH2 0x2307 JUMP JUMPDEST PUSH1 0x20 DUP3 ADD SWAP1 POP SWAP2 SWAP1 POP JUMP JUMPDEST PUSH0 PUSH1 0x20 DUP3 ADD SWAP1 POP DUP2 DUP2 SUB PUSH0 DUP4 ADD MSTORE PUSH2 0x2368 DUP2 PUSH2 0x232F JUMP JUMPDEST SWAP1 POP SWAP2 SWAP1 POP JUMP JUMPDEST PUSH32 0x416C726561647920636F6D6D6974746564000000000000000000000000000000 PUSH0 DUP3 ADD MSTORE POP JUMP JUMPDEST PUSH0 PUSH2 0x23A3 PUSH1 0x11 DUP4 PUSH2 0x1F24 JUMP JUMPDEST SWAP2 POP PUSH2 0x23AE DUP3 PUSH2 0x236F JUMP JUMPDEST PUSH1 0x20 DUP3 ADD SWAP1 POP SWAP2 SWAP1 POP JUMP JUMPDEST PUSH0 PUSH1 0x20 DUP3 ADD SWAP1 POP DUP2 DUP2 SUB PUSH0 DUP4 ADD MSTORE PUSH2 0x23D0 DUP2 PUSH2 0x2397 JUMP JUMPDEST SWAP1 POP SWAP2 SWAP1 POP JUMP JUMPDEST PUSH32 0x416C72656164792072657665616C656400000000000000000000000000000000 PUSH0 DUP3 ADD MSTORE POP JUMP JUMPDEST PUSH0 PUSH2 0x240B PUSH1 0x10 DUP4 PUSH2 0x1F24 JUMP JUMPDEST SWAP2 POP PUSH2 0x2416 DUP3 PUSH2 0x23D7 JUMP JUMPDEST PUSH1 0x20 DUP3 ADD SWAP1 POP SWAP2 SWAP1 POP JUMP JUMPDEST PUSH0 PUSH1 0x20 DUP3 ADD SWAP1 POP DUP2 DUP2 SUB PUSH0 DUP4 ADD MSTORE PUSH2 0x2438 DUP2 PUSH2 0x23FF JUMP JUMPDEST SWAP1 POP SWAP2 SWAP1 POP JUMP JUMPDEST PUSH32 0x436F6D6D697452657665616C3A3A72657665616C416E737765723A20416C7265 PUSH0 DUP3 ADD MSTORE PUSH32 0x6164792072657665616C65640000000000000000000000000000000000000000 PUSH1 0x20 DUP3 ADD MSTORE POP JUMP JUMPDEST PUSH0 PUSH2 0x2499 PUSH1 0x2C DUP4 PUSH2 0x1F24 JUMP JUMPDEST SWAP2 POP PUSH2 0x24A4 DUP3 PUSH2 0x243F JUMP JUMPDEST PUSH1 0x40 DUP3 ADD SWAP1 POP SWAP2 SWAP1 POP JUMP JUMPDEST PUSH0 PUSH1 0x20 DUP3 ADD SWAP1 POP DUP2 DUP2 SUB PUSH0 DUP4 ADD MSTORE PUSH2 0x24C6 DUP2 PUSH2 0x248D JUMP JUMPDEST SWAP1 POP SWAP2 SWAP1 POP JUMP JUMPDEST PUSH32 0x436F6D6D697452657665616C3A3A72657665616C416E737765723A2052657665 PUSH0 DUP3 ADD MSTORE PUSH32 0x616C6564206861736820646F6573206E6F74206D6174636820636F6D6D697400 PUSH1 0x20 DUP3 ADD MSTORE POP JUMP JUMPDEST PUSH0 PUSH2 0x2527 PUSH1 0x3F DUP4 PUSH2 0x1F24 JUMP JUMPDEST SWAP2 POP PUSH2 0x2532 DUP3 PUSH2 0x24CD JUMP JUMPDEST PUSH1 0x40 DUP3 ADD SWAP1 POP SWAP2 SWAP1 POP JUMP JUMPDEST PUSH0 PUSH1 0x20 DUP3 ADD SWAP1 POP DUP2 DUP2 SUB PUSH0 DUP4 ADD MSTORE PUSH2 0x2554 DUP2 PUSH2 0x251B JUMP JUMPDEST SWAP1 POP SWAP2 SWAP1 POP JUMP JUMPDEST PUSH0 PUSH1 0x60 DUP3 ADD SWAP1 POP PUSH2 0x256E PUSH0 DUP4 ADD DUP7 PUSH2 0x1DA5 JUMP JUMPDEST PUSH2 0x257B PUSH1 0x20 DUP4 ADD DUP6 PUSH2 0x1E47 JUMP JUMPDEST PUSH2 0x2588 PUSH1 0x40 DUP4 ADD DUP5 PUSH2 0x1E47 JUMP JUMPDEST SWAP5 SWAP4 POP POP POP POP JUMP JUMPDEST PUSH32 0x4E487B7100000000000000000000000000000000000000000000000000000000 PUSH0 MSTORE PUSH1 0x41 PUSH1 0x4 MSTORE PUSH1 0x24 PUSH0 REVERT JUMPDEST PUSH32 0x4E487B7100000000000000000000000000000000000000000000000000000000 PUSH0 MSTORE PUSH1 0x32 PUSH1 0x4 MSTORE PUSH1 0x24 PUSH0 REVERT JUMPDEST PUSH32 0x4E487B7100000000000000000000000000000000000000000000000000000000 PUSH0 MSTORE PUSH1 0x12 PUSH1 0x4 MSTORE PUSH1 0x24 PUSH0 REVERT JUMPDEST PUSH0 PUSH2 0x2621 DUP3 PUSH2 0x1C3E JUMP JUMPDEST SWAP2 POP PUSH2 0x262C DUP4 PUSH2 0x1C3E JUMP JUMPDEST SWAP3 POP DUP3 PUSH2 0x263C JUMPI PUSH2 0x263B PUSH2 0x25EA JUMP JUMPDEST JUMPDEST DUP3 DUP3 DIV SWAP1 POP SWAP3 SWAP2 POP POP JUMP JUMPDEST PUSH0 DUP2 PUSH1 0x60 SHL SWAP1 POP SWAP2 SWAP1 POP JUMP JUMPDEST PUSH0 PUSH2 0x265D DUP3 PUSH2 0x2647 JUMP JUMPDEST SWAP1 POP SWAP2 SWAP1 POP JUMP JUMPDEST PUSH0 PUSH2 0x266E DUP3 PUSH2 0x2653 JUMP JUMPDEST SWAP1 POP SWAP2 SWAP1 POP JUMP JUMPDEST PUSH2 0x2686 PUSH2 0x2681 DUP3 PUSH2 0x1D94 JUMP JUMPDEST PUSH2 0x2664 JUMP JUMPDEST DUP3 MSTORE POP POP JUMP JUMPDEST PUSH0 DUP2 SWAP1 POP SWAP2 SWAP1 POP JUMP JUMPDEST PUSH2 0x26A6 PUSH2 0x26A1 DUP3 PUSH2 0x1E3E JUMP JUMPDEST PUSH2 0x268C JUMP JUMPDEST DUP3 MSTORE POP POP JUMP JUMPDEST PUSH0 PUSH2 0x26B7 DUP3 DUP7 PUSH2 0x2675 JUMP JUMPDEST PUSH1 0x14 DUP3 ADD SWAP2 POP PUSH2 0x26C7 DUP3 DUP6 PUSH2 0x2695 JUMP JUMPDEST PUSH1 0x20 DUP3 ADD SWAP2 POP PUSH2 0x26D7 DUP3 DUP5 PUSH2 0x2695 JUMP JUMPDEST PUSH1 0x20 DUP3 ADD SWAP2 POP DUP2 SWAP1 POP SWAP5 SWAP4 POP POP POP POP JUMP JUMPDEST PUSH0 PUSH1 0x40 DUP3 ADD SWAP1 POP PUSH2 0x26FB PUSH0 DUP4 ADD DUP6 PUSH2 0x1DA5 JUMP JUMPDEST PUSH2 0x2708 PUSH1 0x20 DUP4 ADD DUP5 PUSH2 0x1E47 JUMP JUMPDEST SWAP4 SWAP3 POP POP POP JUMP JUMPDEST PUSH0 PUSH2 0x2719 DUP3 PUSH2 0x1C3E JUMP JUMPDEST SWAP2 POP PUSH2 0x2724 DUP4 PUSH2 0x1C3E JUMP JUMPDEST SWAP3 POP DUP3 PUSH2 0x2734 JUMPI PUSH2 0x2733 PUSH2 0x25EA JUMP JUMPDEST JUMPDEST DUP3 DUP3 MOD SWAP1 POP SWAP3 SWAP2 POP POP JUMP INVALID LOG2 PUSH5 0x6970667358 0x22 SLT KECCAK256 PUSH22 0x6A66E5FE4E1A6F82D44DFC859331103F147BF987FE7E PUSH2 0x45A2 MULMOD 0x2E 0xE2 0xBF 0xE5 CREATE2 PUSH5 0x736F6C6343 STOP ADDMOD XOR STOP CALLER "
				},
				"gasEstimates": {
					"creation": {
						"codeDepositCost": "2020200",
						"executionCost": "51431",
						"totalCost": "2071631"
					},
					"external": {
						"MAX_PLAYERS()": "370",
						"TIMEOUT()": "413",
						"addPlayer()": "infinite",
						"checkTimeout()": "infinite",
						"commitChoice(bytes32)": "infinite",
						"getChoiceHash(uint8,uint256)": "infinite",
						"latestActionTimestamp()": "2492",
						"numCommit()": "2470",
						"numPlayer()": "2448",
						"numRevealed()": "2514",
						"player(uint256)": "infinite",
						"playerIdx(address)": "2824",
						"revealChoice(uint8,uint256)": "infinite",
						"reward()": "2493"
					},
					"internal": {
						"_checkWin(uint256,uint256)": "infinite",
						"_checkWinnerAndPay()": "infinite",
						"_reset()": "280884"
					}
				},
				"methodIdentifiers": {
					"MAX_PLAYERS()": "4411b3eb",
					"TIMEOUT()": "f56f48f2",
					"addPlayer()": "27b5db8a",
					"checkTimeout()": "09bbd6a0",
					"commitChoice(bytes32)": "e05b10c0",
					"getChoiceHash(uint8,uint256)": "b40cac8c",
					"latestActionTimestamp()": "50899a1e",
					"numCommit()": "929dfff2",
					"numPlayer()": "90d5d0c3",
					"numRevealed()": "76d4192c",
					"player(uint256)": "9e0551c6",
					"playerIdx(address)": "ae73ea65",
					"revealChoice(uint8,uint256)": "0c0b568d",
					"reward()": "228cb733"
				}
			},
			"storageLayout": {
				"storage": [
					{
						"astId": 4,
						"contract": "RWAPSSF.sol:RPS",
						"label": "max",
						"offset": 0,
						"slot": "0",
						"type": "t_uint8"
					},
					{
						"astId": 14,
						"contract": "RWAPSSF.sol:RPS",
						"label": "commits",
						"offset": 0,
						"slot": "1",
						"type": "t_mapping(t_address,t_struct(Commit)9_storage)"
					},
					{
						"astId": 163,
						"contract": "RWAPSSF.sol:RPS",
						"label": "player",
						"offset": 0,
						"slot": "2",
						"type": "t_mapping(t_uint256,t_struct(Player)152_storage)"
					},
					{
						"astId": 167,
						"contract": "RWAPSSF.sol:RPS",
						"label": "playerIdx",
						"offset": 0,
						"slot": "3",
						"type": "t_mapping(t_address,t_uint256)"
					},
					{
						"astId": 170,
						"contract": "RWAPSSF.sol:RPS",
						"label": "numPlayer",
						"offset": 0,
						"slot": "4",
						"type": "t_uint256"
					},
					{
						"astId": 173,
						"contract": "RWAPSSF.sol:RPS",
						"label": "reward",
						"offset": 0,
						"slot": "5",
						"type": "t_uint256"
					},
					{
						"astId": 176,
						"contract": "RWAPSSF.sol:RPS",
						"label": "numCommit",
						"offset": 0,
						"slot": "6",
						"type": "t_uint256"
					},
					{
						"astId": 179,
						"contract": "RWAPSSF.sol:RPS",
						"label": "numRevealed",
						"offset": 0,
						"slot": "7",
						"type": "t_uint256"
					},
					{
						"astId": 182,
						"contract": "RWAPSSF.sol:RPS",
						"label": "latestActionTimestamp",
						"offset": 0,
						"slot": "8",
						"type": "t_uint256"
					}
				],
				"types": {
					"t_address": {
						"encoding": "inplace",
						"label": "address",
						"numberOfBytes": "20"
					},
					"t_bool": {
						"encoding": "inplace",
						"label": "bool",
						"numberOfBytes": "1"
					},
					"t_bytes32": {
						"encoding": "inplace",
						"label": "bytes32",
						"numberOfBytes": "32"
					},
					"t_enum(Choice)144": {
						"encoding": "inplace",
						"label": "enum RPS.Choice",
						"numberOfBytes": "1"
					},
					"t_mapping(t_address,t_struct(Commit)9_storage)": {
						"encoding": "mapping",
						"key": "t_address",
						"label": "mapping(address => struct CommitReveal.Commit)",
						"numberOfBytes": "32",
						"value": "t_struct(Commit)9_storage"
					},
					"t_mapping(t_address,t_uint256)": {
						"encoding": "mapping",
						"key": "t_address",
						"label": "mapping(address => uint256)",
						"numberOfBytes": "32",
						"value": "t_uint256"
					},
					"t_mapping(t_uint256,t_struct(Player)152_storage)": {
						"encoding": "mapping",
						"key": "t_uint256",
						"label": "mapping(uint256 => struct RPS.Player)",
						"numberOfBytes": "32",
						"value": "t_struct(Player)152_storage"
					},
					"t_struct(Commit)9_storage": {
						"encoding": "inplace",
						"label": "struct CommitReveal.Commit",
						"members": [
							{
								"astId": 6,
								"contract": "RWAPSSF.sol:RPS",
								"label": "commit",
								"offset": 0,
								"slot": "0",
								"type": "t_bytes32"
							},
							{
								"astId": 8,
								"contract": "RWAPSSF.sol:RPS",
								"label": "revealed",
								"offset": 0,
								"slot": "1",
								"type": "t_bool"
							}
						],
						"numberOfBytes": "64"
					},
					"t_struct(Player)152_storage": {
						"encoding": "inplace",
						"label": "struct RPS.Player",
						"members": [
							{
								"astId": 147,
								"contract": "RWAPSSF.sol:RPS",
								"label": "choice",
								"offset": 0,
								"slot": "0",
								"type": "t_enum(Choice)144"
							},
							{
								"astId": 149,
								"contract": "RWAPSSF.sol:RPS",
								"label": "addr",
								"offset": 1,
								"slot": "0",
								"type": "t_address"
							},
							{
								"astId": 151,
								"contract": "RWAPSSF.sol:RPS",
								"label": "fund",
								"offset": 0,
								"slot": "1",
								"type": "t_uint256"
							}
						],
						"numberOfBytes": "64"
					},
					"t_uint256": {
						"encoding": "inplace",
						"label": "uint256",
						"numberOfBytes": "32"
					},
					"t_uint8": {
						"encoding": "inplace",
						"label": "uint8",
						"numberOfBytes": "1"
					}
				}
			},
			"userdoc": {
				"kind": "user",
				"methods": {},
				"version": 1
			}
		}
	}
}