{
	"RWAPSSF.sol": {
		"RPS": {
			"abi": [
				{
					"anonymous": false,
					"inputs": [
						{
							"indexed": false,
							"internalType": "address",
							"name": "sender",
							"type": "address"
						},
						{
							"indexed": false,
							"internalType": "bytes32",
							"name": "dataHash",
							"type": "bytes32"
						}
					],
					"name": "CommitHash",
					"type": "event"
				},
				{
					"anonymous": false,
					"inputs": [
						{
							"indexed": false,
							"internalType": "address",
							"name": "sender",
							"type": "address"
						},
						{
							"indexed": false,
							"internalType": "bytes32",
							"name": "answer",
							"type": "bytes32"
						},
						{
							"indexed": false,
							"internalType": "bytes32",
							"name": "salt",
							"type": "bytes32"
						}
					],
					"name": "RevealAnswer",
					"type": "event"
				},
				{
					"inputs": [],
					"name": "TIMEOUT",
					"outputs": [
						{
							"internalType": "uint256",
							"name": "",
							"type": "uint256"
						}
					],
					"stateMutability": "view",
					"type": "function"
				},
				{
					"inputs": [],
					"name": "addPlayer",
					"outputs": [],
					"stateMutability": "payable",
					"type": "function"
				},
				{
					"inputs": [],
					"name": "checkTimeout",
					"outputs": [],
					"stateMutability": "nonpayable",
					"type": "function"
				},
				{
					"inputs": [
						{
							"internalType": "bytes32",
							"name": "choiceHash",
							"type": "bytes32"
						}
					],
					"name": "commitChoice",
					"outputs": [],
					"stateMutability": "nonpayable",
					"type": "function"
				},
				{
					"inputs": [],
					"name": "currentTime",
					"outputs": [
						{
							"internalType": "uint256",
							"name": "",
							"type": "uint256"
						}
					],
					"stateMutability": "view",
					"type": "function"
				},
				{
					"inputs": [
						{
							"internalType": "uint256",
							"name": "choice",
							"type": "uint256"
						},
						{
							"internalType": "uint256",
							"name": "salt",
							"type": "uint256"
						}
					],
					"name": "getChoiceHash",
					"outputs": [
						{
							"internalType": "bytes32",
							"name": "",
							"type": "bytes32"
						}
					],
					"stateMutability": "view",
					"type": "function"
				},
				{
					"inputs": [],
					"name": "latestActionTimestamp",
					"outputs": [
						{
							"internalType": "uint256",
							"name": "",
							"type": "uint256"
						}
					],
					"stateMutability": "view",
					"type": "function"
				},
				{
					"inputs": [],
					"name": "numCommit",
					"outputs": [
						{
							"internalType": "uint256",
							"name": "",
							"type": "uint256"
						}
					],
					"stateMutability": "view",
					"type": "function"
				},
				{
					"inputs": [],
					"name": "numPlayer",
					"outputs": [
						{
							"internalType": "uint256",
							"name": "",
							"type": "uint256"
						}
					],
					"stateMutability": "view",
					"type": "function"
				},
				{
					"inputs": [],
					"name": "numRevealed",
					"outputs": [
						{
							"internalType": "uint256",
							"name": "",
							"type": "uint256"
						}
					],
					"stateMutability": "view",
					"type": "function"
				},
				{
					"inputs": [
						{
							"internalType": "uint256",
							"name": "",
							"type": "uint256"
						}
					],
					"name": "player",
					"outputs": [
						{
							"internalType": "uint256",
							"name": "choice",
							"type": "uint256"
						},
						{
							"internalType": "address",
							"name": "addr",
							"type": "address"
						},
						{
							"internalType": "uint256",
							"name": "fund",
							"type": "uint256"
						}
					],
					"stateMutability": "view",
					"type": "function"
				},
				{
					"inputs": [
						{
							"internalType": "address",
							"name": "",
							"type": "address"
						}
					],
					"name": "playerIdx",
					"outputs": [
						{
							"internalType": "uint256",
							"name": "",
							"type": "uint256"
						}
					],
					"stateMutability": "view",
					"type": "function"
				},
				{
					"inputs": [
						{
							"internalType": "uint256",
							"name": "choice",
							"type": "uint256"
						},
						{
							"internalType": "uint256",
							"name": "salt",
							"type": "uint256"
						}
					],
					"name": "revealChoice",
					"outputs": [],
					"stateMutability": "nonpayable",
					"type": "function"
				},
				{
					"inputs": [],
					"name": "reward",
					"outputs": [
						{
							"internalType": "uint256",
							"name": "",
							"type": "uint256"
						}
					],
					"stateMutability": "view",
					"type": "function"
				}
			],
			"devdoc": {
				"kind": "dev",
				"methods": {},
				"version": 1
			},
			"evm": {
				"assembly": "    /* \"RWAPSSF.sol\":104:4640  contract RPS is CommitReveal {... */\n  mstore(0x40, 0x80)\n    /* \"CommitReveal.sol\":118:121  100 */\n  0x64\n    /* \"CommitReveal.sol\":97:121  uint8 internal max = 100 */\n  0x00\n  dup1\n  0x0100\n  exp\n  dup2\n  sload\n  dup2\n  0xff\n  mul\n  not\n  and\n  swap1\n  dup4\n  0xff\n  and\n  mul\n  or\n  swap1\n  sstore\n  pop\n    /* \"RWAPSSF.sol\":548:549  0 */\n  0x00\n    /* \"RWAPSSF.sol\":521:549  uint256 public numPlayer = 0 */\n  0x04\n  sstore\n    /* \"RWAPSSF.sol\":580:581  0 */\n  0x00\n    /* \"RWAPSSF.sol\":556:581  uint256 public reward = 0 */\n  0x05\n  sstore\n    /* \"RWAPSSF.sol\":615:616  0 */\n  0x00\n    /* \"RWAPSSF.sol\":588:616  uint256 public numCommit = 0 */\n  0x06\n  sstore\n    /* \"RWAPSSF.sol\":652:653  0 */\n  0x00\n    /* \"RWAPSSF.sol\":623:653  uint256 public numRevealed = 0 */\n  0x07\n  sstore\n    /* \"RWAPSSF.sol\":699:700  0 */\n  0x00\n    /* \"RWAPSSF.sol\":660:700  uint256 public latestActionTimestamp = 0 */\n  0x08\n  sstore\n    /* \"RWAPSSF.sol\":104:4640  contract RPS is CommitReveal {... */\n  callvalue\n  dup1\n  iszero\n  tag_1\n  jumpi\n  0x00\n  dup1\n  revert\ntag_1:\n  pop\n  dataSize(sub_0)\n  dup1\n  dataOffset(sub_0)\n  0x00\n  codecopy\n  0x00\n  return\nstop\n\nsub_0: assembly {\n        /* \"RWAPSSF.sol\":104:4640  contract RPS is CommitReveal {... */\n      mstore(0x40, 0x80)\n      jumpi(tag_1, lt(calldatasize, 0x04))\n      shr(0xe0, calldataload(0x00))\n      dup1\n      0x90d5d0c3\n      gt\n      tag_16\n      jumpi\n      dup1\n      0xae73ea65\n      gt\n      tag_17\n      jumpi\n      dup1\n      0xae73ea65\n      eq\n      tag_12\n      jumpi\n      dup1\n      0xd18e81b3\n      eq\n      tag_13\n      jumpi\n      dup1\n      0xe05b10c0\n      eq\n      tag_14\n      jumpi\n      dup1\n      0xf56f48f2\n      eq\n      tag_15\n      jumpi\n      jump(tag_1)\n    tag_17:\n      dup1\n      0x90d5d0c3\n      eq\n      tag_9\n      jumpi\n      dup1\n      0x929dfff2\n      eq\n      tag_10\n      jumpi\n      dup1\n      0x9e0551c6\n      eq\n      tag_11\n      jumpi\n      jump(tag_1)\n    tag_16:\n      dup1\n      0x41a807e1\n      gt\n      tag_18\n      jumpi\n      dup1\n      0x41a807e1\n      eq\n      tag_5\n      jumpi\n      dup1\n      0x50899a1e\n      eq\n      tag_6\n      jumpi\n      dup1\n      0x7661f2b1\n      eq\n      tag_7\n      jumpi\n      dup1\n      0x76d4192c\n      eq\n      tag_8\n      jumpi\n      jump(tag_1)\n    tag_18:\n      dup1\n      0x09bbd6a0\n      eq\n      tag_2\n      jumpi\n      dup1\n      0x228cb733\n      eq\n      tag_3\n      jumpi\n      dup1\n      0x27b5db8a\n      eq\n      tag_4\n      jumpi\n    tag_1:\n      0x00\n      dup1\n      revert\n        /* \"RWAPSSF.sol\":3002:4464  function checkTimeout() public {... */\n    tag_2:\n      callvalue\n      dup1\n      iszero\n      tag_19\n      jumpi\n      0x00\n      dup1\n      revert\n    tag_19:\n      pop\n      tag_20\n      tag_21\n      jump\t// in\n    tag_20:\n      stop\n        /* \"RWAPSSF.sol\":556:581  uint256 public reward = 0 */\n    tag_3:\n      callvalue\n      dup1\n      iszero\n      tag_22\n      jumpi\n      0x00\n      dup1\n      revert\n    tag_22:\n      pop\n      tag_23\n      tag_24\n      jump\t// in\n    tag_23:\n      mload(0x40)\n      tag_25\n      swap2\n      swap1\n      tag_26\n      jump\t// in\n    tag_25:\n      mload(0x40)\n      dup1\n      swap2\n      sub\n      swap1\n      return\n        /* \"RWAPSSF.sol\":709:1067  function addPlayer() public payable {... */\n    tag_4:\n      tag_27\n      tag_28\n      jump\t// in\n    tag_27:\n      stop\n        /* \"RWAPSSF.sol\":1609:2115  function revealChoice(uint256 choice, uint256 salt) public {... */\n    tag_5:\n      callvalue\n      dup1\n      iszero\n      tag_29\n      jumpi\n      0x00\n      dup1\n      revert\n    tag_29:\n      pop\n      tag_30\n      0x04\n      dup1\n      calldatasize\n      sub\n      dup2\n      add\n      swap1\n      tag_31\n      swap2\n      swap1\n      tag_32\n      jump\t// in\n    tag_31:\n      tag_33\n      jump\t// in\n    tag_30:\n      stop\n        /* \"RWAPSSF.sol\":660:700  uint256 public latestActionTimestamp = 0 */\n    tag_6:\n      callvalue\n      dup1\n      iszero\n      tag_34\n      jumpi\n      0x00\n      dup1\n      revert\n    tag_34:\n      pop\n      tag_35\n      tag_36\n      jump\t// in\n    tag_35:\n      mload(0x40)\n      tag_37\n      swap2\n      swap1\n      tag_26\n      jump\t// in\n    tag_37:\n      mload(0x40)\n      dup1\n      swap2\n      sub\n      swap1\n      return\n        /* \"RWAPSSF.sol\":1075:1292  function getChoiceHash(uint256 choice, uint256 salt)... */\n    tag_7:\n      callvalue\n      dup1\n      iszero\n      tag_38\n      jumpi\n      0x00\n      dup1\n      revert\n    tag_38:\n      pop\n      tag_39\n      0x04\n      dup1\n      calldatasize\n      sub\n      dup2\n      add\n      swap1\n      tag_40\n      swap2\n      swap1\n      tag_32\n      jump\t// in\n    tag_40:\n      tag_41\n      jump\t// in\n    tag_39:\n      mload(0x40)\n      tag_42\n      swap2\n      swap1\n      tag_43\n      jump\t// in\n    tag_42:\n      mload(0x40)\n      dup1\n      swap2\n      sub\n      swap1\n      return\n        /* \"RWAPSSF.sol\":623:653  uint256 public numRevealed = 0 */\n    tag_8:\n      callvalue\n      dup1\n      iszero\n      tag_44\n      jumpi\n      0x00\n      dup1\n      revert\n    tag_44:\n      pop\n      tag_45\n      tag_46\n      jump\t// in\n    tag_45:\n      mload(0x40)\n      tag_47\n      swap2\n      swap1\n      tag_26\n      jump\t// in\n    tag_47:\n      mload(0x40)\n      dup1\n      swap2\n      sub\n      swap1\n      return\n        /* \"RWAPSSF.sol\":521:549  uint256 public numPlayer = 0 */\n    tag_9:\n      callvalue\n      dup1\n      iszero\n      tag_48\n      jumpi\n      0x00\n      dup1\n      revert\n    tag_48:\n      pop\n      tag_49\n      tag_50\n      jump\t// in\n    tag_49:\n      mload(0x40)\n      tag_51\n      swap2\n      swap1\n      tag_26\n      jump\t// in\n    tag_51:\n      mload(0x40)\n      dup1\n      swap2\n      sub\n      swap1\n      return\n        /* \"RWAPSSF.sol\":588:616  uint256 public numCommit = 0 */\n    tag_10:\n      callvalue\n      dup1\n      iszero\n      tag_52\n      jumpi\n      0x00\n      dup1\n      revert\n    tag_52:\n      pop\n      tag_53\n      tag_54\n      jump\t// in\n    tag_53:\n      mload(0x40)\n      tag_55\n      swap2\n      swap1\n      tag_26\n      jump\t// in\n    tag_55:\n      mload(0x40)\n      dup1\n      swap2\n      sub\n      swap1\n      return\n        /* \"RWAPSSF.sol\":420:460  mapping(uint256 => Player) public player */\n    tag_11:\n      callvalue\n      dup1\n      iszero\n      tag_56\n      jumpi\n      0x00\n      dup1\n      revert\n    tag_56:\n      pop\n      tag_57\n      0x04\n      dup1\n      calldatasize\n      sub\n      dup2\n      add\n      swap1\n      tag_58\n      swap2\n      swap1\n      tag_59\n      jump\t// in\n    tag_58:\n      tag_60\n      jump\t// in\n    tag_57:\n      mload(0x40)\n      tag_61\n      swap4\n      swap3\n      swap2\n      swap1\n      tag_62\n      jump\t// in\n    tag_61:\n      mload(0x40)\n      dup1\n      swap2\n      sub\n      swap1\n      return\n        /* \"RWAPSSF.sol\":467:511  mapping(address => uint256) public playerIdx */\n    tag_12:\n      callvalue\n      dup1\n      iszero\n      tag_63\n      jumpi\n      0x00\n      dup1\n      revert\n    tag_63:\n      pop\n      tag_64\n      0x04\n      dup1\n      calldatasize\n      sub\n      dup2\n      add\n      swap1\n      tag_65\n      swap2\n      swap1\n      tag_66\n      jump\t// in\n    tag_65:\n      tag_67\n      jump\t// in\n    tag_64:\n      mload(0x40)\n      tag_68\n      swap2\n      swap1\n      tag_26\n      jump\t// in\n    tag_68:\n      mload(0x40)\n      dup1\n      swap2\n      sub\n      swap1\n      return\n        /* \"RWAPSSF.sol\":2900:2993  function currentTime() public view returns(uint256) {... */\n    tag_13:\n      callvalue\n      dup1\n      iszero\n      tag_69\n      jumpi\n      0x00\n      dup1\n      revert\n    tag_69:\n      pop\n      tag_70\n      tag_71\n      jump\t// in\n    tag_70:\n      mload(0x40)\n      tag_72\n      swap2\n      swap1\n      tag_26\n      jump\t// in\n    tag_72:\n      mload(0x40)\n      dup1\n      swap2\n      sub\n      swap1\n      return\n        /* \"RWAPSSF.sol\":1300:1601  function commitChoice(bytes32 choiceHash) public {... */\n    tag_14:\n      callvalue\n      dup1\n      iszero\n      tag_73\n      jumpi\n      0x00\n      dup1\n      revert\n    tag_73:\n      pop\n      tag_74\n      0x04\n      dup1\n      calldatasize\n      sub\n      dup2\n      add\n      swap1\n      tag_75\n      swap2\n      swap1\n      tag_76\n      jump\t// in\n    tag_75:\n      tag_77\n      jump\t// in\n    tag_74:\n      stop\n        /* \"RWAPSSF.sol\":367:411  uint256 public constant TIMEOUT = 10 seconds */\n    tag_15:\n      callvalue\n      dup1\n      iszero\n      tag_78\n      jumpi\n      0x00\n      dup1\n      revert\n    tag_78:\n      pop\n      tag_79\n      tag_80\n      jump\t// in\n    tag_79:\n      mload(0x40)\n      tag_81\n      swap2\n      swap1\n      tag_26\n      jump\t// in\n    tag_81:\n      mload(0x40)\n      dup1\n      swap2\n      sub\n      swap1\n      return\n        /* \"RWAPSSF.sol\":3002:4464  function checkTimeout() public {... */\n    tag_21:\n        /* \"RWAPSSF.sol\":401:411  10 seconds */\n      0x0a\n        /* \"RWAPSSF.sol\":3070:3091  latestActionTimestamp */\n      sload(0x08)\n        /* \"RWAPSSF.sol\":3070:3101  latestActionTimestamp + TIMEOUT */\n      tag_83\n      swap2\n      swap1\n      tag_84\n      jump\t// in\n    tag_83:\n        /* \"RWAPSSF.sol\":3052:3067  block.timestamp */\n      timestamp\n        /* \"RWAPSSF.sol\":3052:3101  block.timestamp > latestActionTimestamp + TIMEOUT */\n      gt\n        /* \"RWAPSSF.sol\":3044:3131  require(block.timestamp > latestActionTimestamp + TIMEOUT , \"Time has not ran out yet\") */\n      tag_85\n      jumpi\n      mload(0x40)\n      0x08c379a000000000000000000000000000000000000000000000000000000000\n      dup2\n      mstore\n      0x04\n      add\n      tag_86\n      swap1\n      tag_87\n      jump\t// in\n    tag_86:\n      mload(0x40)\n      dup1\n      swap2\n      sub\n      swap1\n      revert\n    tag_85:\n        /* \"RWAPSSF.sol\":3164:3170  player */\n      0x02\n        /* \"RWAPSSF.sol\":3164:3173  player[0] */\n      0x00\n        /* \"RWAPSSF.sol\":3171:3172  0 */\n      dup1\n        /* \"RWAPSSF.sol\":3164:3173  player[0] */\n      dup2\n      mstore\n      0x20\n      add\n      swap1\n      dup2\n      mstore\n      0x20\n      add\n      0x00\n      keccak256\n        /* \"RWAPSSF.sol\":3164:3178  player[0].addr */\n      0x01\n      add\n      0x00\n      swap1\n      sload\n      swap1\n      0x0100\n      exp\n      swap1\n      div\n      0xffffffffffffffffffffffffffffffffffffffff\n      and\n        /* \"RWAPSSF.sol\":3150:3178  msg.sender == player[0].addr */\n      0xffffffffffffffffffffffffffffffffffffffff\n      and\n        /* \"RWAPSSF.sol\":3150:3160  msg.sender */\n      caller\n        /* \"RWAPSSF.sol\":3150:3178  msg.sender == player[0].addr */\n      0xffffffffffffffffffffffffffffffffffffffff\n      and\n      eq\n        /* \"RWAPSSF.sol\":3150:3210  msg.sender == player[0].addr || msg.sender == player[1].addr */\n      dup1\n      tag_88\n      jumpi\n      pop\n        /* \"RWAPSSF.sol\":3196:3202  player */\n      0x02\n        /* \"RWAPSSF.sol\":3196:3205  player[1] */\n      0x00\n        /* \"RWAPSSF.sol\":3203:3204  1 */\n      0x01\n        /* \"RWAPSSF.sol\":3196:3205  player[1] */\n      dup2\n      mstore\n      0x20\n      add\n      swap1\n      dup2\n      mstore\n      0x20\n      add\n      0x00\n      keccak256\n        /* \"RWAPSSF.sol\":3196:3210  player[1].addr */\n      0x01\n      add\n      0x00\n      swap1\n      sload\n      swap1\n      0x0100\n      exp\n      swap1\n      div\n      0xffffffffffffffffffffffffffffffffffffffff\n      and\n        /* \"RWAPSSF.sol\":3182:3210  msg.sender == player[1].addr */\n      0xffffffffffffffffffffffffffffffffffffffff\n      and\n        /* \"RWAPSSF.sol\":3182:3192  msg.sender */\n      caller\n        /* \"RWAPSSF.sol\":3182:3210  msg.sender == player[1].addr */\n      0xffffffffffffffffffffffffffffffffffffffff\n      and\n      eq\n        /* \"RWAPSSF.sol\":3150:3210  msg.sender == player[0].addr || msg.sender == player[1].addr */\n    tag_88:\n        /* \"RWAPSSF.sol\":3142:3211  require(msg.sender == player[0].addr || msg.sender == player[1].addr) */\n      tag_89\n      jumpi\n      0x00\n      dup1\n      revert\n    tag_89:\n        /* \"RWAPSSF.sol\":3242:3243  0 */\n      0x00\n        /* \"RWAPSSF.sol\":3230:3239  numPlayer */\n      sload(0x04)\n        /* \"RWAPSSF.sol\":3230:3243  numPlayer > 0 */\n      gt\n        /* \"RWAPSSF.sol\":3222:3244  require(numPlayer > 0) */\n      tag_90\n      jumpi\n      0x00\n      dup1\n      revert\n    tag_90:\n        /* \"RWAPSSF.sol\":3272:3273  0 */\n      0x00\n        /* \"RWAPSSF.sol\":3263:3269  reward */\n      sload(0x05)\n        /* \"RWAPSSF.sol\":3263:3273  reward > 0 */\n      gt\n        /* \"RWAPSSF.sol\":3255:3274  require(reward > 0) */\n      tag_91\n      jumpi\n      0x00\n      dup1\n      revert\n    tag_91:\n        /* \"RWAPSSF.sol\":3287:3311  address payable account0 */\n      0x00\n        /* \"RWAPSSF.sol\":3322:3328  player */\n      0x02\n        /* \"RWAPSSF.sol\":3322:3331  player[0] */\n      0x00\n        /* \"RWAPSSF.sol\":3329:3330  0 */\n      dup1\n        /* \"RWAPSSF.sol\":3322:3331  player[0] */\n      dup2\n      mstore\n      0x20\n      add\n      swap1\n      dup2\n      mstore\n      0x20\n      add\n      0x00\n      keccak256\n        /* \"RWAPSSF.sol\":3322:3336  player[0].addr */\n      0x01\n      add\n      0x00\n      swap1\n      sload\n      swap1\n      0x0100\n      exp\n      swap1\n      div\n      0xffffffffffffffffffffffffffffffffffffffff\n      and\n        /* \"RWAPSSF.sol\":3287:3337  address payable account0 = payable(player[0].addr) */\n      swap1\n      pop\n        /* \"RWAPSSF.sol\":3348:3372  address payable account1 */\n      0x00\n        /* \"RWAPSSF.sol\":3383:3389  player */\n      0x02\n        /* \"RWAPSSF.sol\":3383:3392  player[1] */\n      0x00\n        /* \"RWAPSSF.sol\":3390:3391  1 */\n      0x01\n        /* \"RWAPSSF.sol\":3383:3392  player[1] */\n      dup2\n      mstore\n      0x20\n      add\n      swap1\n      dup2\n      mstore\n      0x20\n      add\n      0x00\n      keccak256\n        /* \"RWAPSSF.sol\":3383:3397  player[1].addr */\n      0x01\n      add\n      0x00\n      swap1\n      sload\n      swap1\n      0x0100\n      exp\n      swap1\n      div\n      0xffffffffffffffffffffffffffffffffffffffff\n      and\n        /* \"RWAPSSF.sol\":3348:3398  address payable account1 = payable(player[1].addr) */\n      swap1\n      pop\n        /* \"RWAPSSF.sol\":3498:3499  2 */\n      0x02\n        /* \"RWAPSSF.sol\":3486:3495  numPlayer */\n      sload(0x04)\n        /* \"RWAPSSF.sol\":3486:3499  numPlayer < 2 */\n      lt\n        /* \"RWAPSSF.sol\":3482:3611  if (numPlayer < 2) {... */\n      iszero\n      tag_92\n      jumpi\n        /* \"RWAPSSF.sol\":3516:3524  account0 */\n      dup2\n        /* \"RWAPSSF.sol\":3516:3533  account0.transfer */\n      0xffffffffffffffffffffffffffffffffffffffff\n      and\n        /* \"RWAPSSF.sol\":3516:3541  account0.transfer(reward) */\n      0x08fc\n        /* \"RWAPSSF.sol\":3534:3540  reward */\n      sload(0x05)\n        /* \"RWAPSSF.sol\":3516:3541  account0.transfer(reward) */\n      swap1\n      dup2\n      iszero\n      mul\n      swap1\n      mload(0x40)\n      0x00\n      mload(0x40)\n      dup1\n      dup4\n      sub\n      dup2\n      dup6\n      dup9\n      dup9\n      call\n      swap4\n      pop\n      pop\n      pop\n      pop\n      iszero\n      dup1\n      iszero\n      tag_94\n      jumpi\n      returndatasize\n      0x00\n      dup1\n      returndatacopy\n      revert(0x00, returndatasize)\n    tag_94:\n      pop\n        /* \"RWAPSSF.sol\":3570:3578  _reset() */\n      tag_95\n        /* \"RWAPSSF.sol\":3570:3576  _reset */\n      tag_96\n        /* \"RWAPSSF.sol\":3570:3578  _reset() */\n      jump\t// in\n    tag_95:\n        /* \"RWAPSSF.sol\":3593:3600  return; */\n      pop\n      pop\n      jump(tag_82)\n        /* \"RWAPSSF.sol\":3482:3611  if (numPlayer < 2) {... */\n    tag_92:\n        /* \"RWAPSSF.sol\":3652:3653  2 */\n      0x02\n        /* \"RWAPSSF.sol\":3639:3648  numPlayer */\n      sload(0x04)\n        /* \"RWAPSSF.sol\":3639:3653  numPlayer == 2 */\n      eq\n        /* \"RWAPSSF.sol\":3631:3654  require(numPlayer == 2) */\n      tag_97\n      jumpi\n      0x00\n      dup1\n      revert\n    tag_97:\n        /* \"RWAPSSF.sol\":3777:3778  2 */\n      0x02\n        /* \"RWAPSSF.sol\":3765:3774  numCommit */\n      sload(0x06)\n        /* \"RWAPSSF.sol\":3765:3778  numCommit < 2 */\n      lt\n        /* \"RWAPSSF.sol\":3765:3859  numCommit < 2 &&... */\n      dup1\n      iszero\n      tag_98\n      jumpi\n      pop\n        /* \"RWAPSSF.sol\":3824:3825  0 */\n      0x00\n        /* \"RWAPSSF.sol\":3796:3825  commits[account0].commit == 0 */\n      dup1\n      shl\n        /* \"RWAPSSF.sol\":3796:3803  commits */\n      0x01\n        /* \"RWAPSSF.sol\":3796:3813  commits[account0] */\n      0x00\n        /* \"RWAPSSF.sol\":3804:3812  account0 */\n      dup5\n        /* \"RWAPSSF.sol\":3796:3813  commits[account0] */\n      0xffffffffffffffffffffffffffffffffffffffff\n      and\n      0xffffffffffffffffffffffffffffffffffffffff\n      and\n      dup2\n      mstore\n      0x20\n      add\n      swap1\n      dup2\n      mstore\n      0x20\n      add\n      0x00\n      keccak256\n        /* \"RWAPSSF.sol\":3796:3820  commits[account0].commit */\n      0x00\n      add\n      sload\n        /* \"RWAPSSF.sol\":3796:3825  commits[account0].commit == 0 */\n      eq\n        /* \"RWAPSSF.sol\":3796:3858  commits[account0].commit == 0 || commits[account1].commit == 0 */\n      dup1\n      tag_99\n      jumpi\n      pop\n        /* \"RWAPSSF.sol\":3857:3858  0 */\n      0x00\n        /* \"RWAPSSF.sol\":3829:3858  commits[account1].commit == 0 */\n      dup1\n      shl\n        /* \"RWAPSSF.sol\":3829:3836  commits */\n      0x01\n        /* \"RWAPSSF.sol\":3829:3846  commits[account1] */\n      0x00\n        /* \"RWAPSSF.sol\":3837:3845  account1 */\n      dup4\n        /* \"RWAPSSF.sol\":3829:3846  commits[account1] */\n      0xffffffffffffffffffffffffffffffffffffffff\n      and\n      0xffffffffffffffffffffffffffffffffffffffff\n      and\n      dup2\n      mstore\n      0x20\n      add\n      swap1\n      dup2\n      mstore\n      0x20\n      add\n      0x00\n      keccak256\n        /* \"RWAPSSF.sol\":3829:3853  commits[account1].commit */\n      0x00\n      add\n      sload\n        /* \"RWAPSSF.sol\":3829:3858  commits[account1].commit == 0 */\n      eq\n        /* \"RWAPSSF.sol\":3796:3858  commits[account0].commit == 0 || commits[account1].commit == 0 */\n    tag_99:\n        /* \"RWAPSSF.sol\":3765:3859  numCommit < 2 &&... */\n    tag_98:\n        /* \"RWAPSSF.sol\":3747:4037  if (... */\n      iszero\n      tag_100\n      jumpi\n        /* \"RWAPSSF.sol\":3886:3894  account0 */\n      dup2\n        /* \"RWAPSSF.sol\":3886:3903  account0.transfer */\n      0xffffffffffffffffffffffffffffffffffffffff\n      and\n        /* \"RWAPSSF.sol\":3886:3919  account0.transfer(player[0].fund) */\n      0x08fc\n        /* \"RWAPSSF.sol\":3904:3910  player */\n      0x02\n        /* \"RWAPSSF.sol\":3904:3913  player[0] */\n      0x00\n        /* \"RWAPSSF.sol\":3911:3912  0 */\n      dup1\n        /* \"RWAPSSF.sol\":3904:3913  player[0] */\n      dup2\n      mstore\n      0x20\n      add\n      swap1\n      dup2\n      mstore\n      0x20\n      add\n      0x00\n      keccak256\n        /* \"RWAPSSF.sol\":3904:3918  player[0].fund */\n      0x02\n      add\n      sload\n        /* \"RWAPSSF.sol\":3886:3919  account0.transfer(player[0].fund) */\n      swap1\n      dup2\n      iszero\n      mul\n      swap1\n      mload(0x40)\n      0x00\n      mload(0x40)\n      dup1\n      dup4\n      sub\n      dup2\n      dup6\n      dup9\n      dup9\n      call\n      swap4\n      pop\n      pop\n      pop\n      pop\n      iszero\n      dup1\n      iszero\n      tag_102\n      jumpi\n      returndatasize\n      0x00\n      dup1\n      returndatacopy\n      revert(0x00, returndatasize)\n    tag_102:\n      pop\n        /* \"RWAPSSF.sol\":3934:3942  account1 */\n      dup1\n        /* \"RWAPSSF.sol\":3934:3951  account1.transfer */\n      0xffffffffffffffffffffffffffffffffffffffff\n      and\n        /* \"RWAPSSF.sol\":3934:3967  account1.transfer(player[1].fund) */\n      0x08fc\n        /* \"RWAPSSF.sol\":3952:3958  player */\n      0x02\n        /* \"RWAPSSF.sol\":3952:3961  player[1] */\n      0x00\n        /* \"RWAPSSF.sol\":3959:3960  1 */\n      0x01\n        /* \"RWAPSSF.sol\":3952:3961  player[1] */\n      dup2\n      mstore\n      0x20\n      add\n      swap1\n      dup2\n      mstore\n      0x20\n      add\n      0x00\n      keccak256\n        /* \"RWAPSSF.sol\":3952:3966  player[1].fund */\n      0x02\n      add\n      sload\n        /* \"RWAPSSF.sol\":3934:3967  account1.transfer(player[1].fund) */\n      swap1\n      dup2\n      iszero\n      mul\n      swap1\n      mload(0x40)\n      0x00\n      mload(0x40)\n      dup1\n      dup4\n      sub\n      dup2\n      dup6\n      dup9\n      dup9\n      call\n      swap4\n      pop\n      pop\n      pop\n      pop\n      iszero\n      dup1\n      iszero\n      tag_104\n      jumpi\n      returndatasize\n      0x00\n      dup1\n      returndatacopy\n      revert(0x00, returndatasize)\n    tag_104:\n      pop\n        /* \"RWAPSSF.sol\":3996:4004  _reset() */\n      tag_105\n        /* \"RWAPSSF.sol\":3996:4002  _reset */\n      tag_96\n        /* \"RWAPSSF.sol\":3996:4004  _reset() */\n      jump\t// in\n    tag_105:\n        /* \"RWAPSSF.sol\":4019:4026  return; */\n      pop\n      pop\n      jump(tag_82)\n        /* \"RWAPSSF.sol\":3747:4037  if (... */\n    tag_100:\n        /* \"RWAPSSF.sol\":4109:4116  commits */\n      0x01\n        /* \"RWAPSSF.sol\":4109:4126  commits[account0] */\n      0x00\n        /* \"RWAPSSF.sol\":4117:4125  account0 */\n      dup4\n        /* \"RWAPSSF.sol\":4109:4126  commits[account0] */\n      0xffffffffffffffffffffffffffffffffffffffff\n      and\n      0xffffffffffffffffffffffffffffffffffffffff\n      and\n      dup2\n      mstore\n      0x20\n      add\n      swap1\n      dup2\n      mstore\n      0x20\n      add\n      0x00\n      keccak256\n        /* \"RWAPSSF.sol\":4109:4135  commits[account0].revealed */\n      0x01\n      add\n      0x00\n      swap1\n      sload\n      swap1\n      0x0100\n      exp\n      swap1\n      div\n      0xff\n      and\n        /* \"RWAPSSF.sol\":4109:4166  commits[account0].revealed && !commits[account1].revealed */\n      dup1\n      iszero\n      tag_106\n      jumpi\n      pop\n        /* \"RWAPSSF.sol\":4140:4147  commits */\n      0x01\n        /* \"RWAPSSF.sol\":4140:4157  commits[account1] */\n      0x00\n        /* \"RWAPSSF.sol\":4148:4156  account1 */\n      dup3\n        /* \"RWAPSSF.sol\":4140:4157  commits[account1] */\n      0xffffffffffffffffffffffffffffffffffffffff\n      and\n      0xffffffffffffffffffffffffffffffffffffffff\n      and\n      dup2\n      mstore\n      0x20\n      add\n      swap1\n      dup2\n      mstore\n      0x20\n      add\n      0x00\n      keccak256\n        /* \"RWAPSSF.sol\":4140:4166  commits[account1].revealed */\n      0x01\n      add\n      0x00\n      swap1\n      sload\n      swap1\n      0x0100\n      exp\n      swap1\n      div\n      0xff\n      and\n        /* \"RWAPSSF.sol\":4139:4166  !commits[account1].revealed */\n      iszero\n        /* \"RWAPSSF.sol\":4109:4166  commits[account0].revealed && !commits[account1].revealed */\n    tag_106:\n        /* \"RWAPSSF.sol\":4105:4457  if (commits[account0].revealed && !commits[account1].revealed) {... */\n      iszero\n      tag_107\n      jumpi\n        /* \"RWAPSSF.sol\":4183:4191  account0 */\n      dup2\n        /* \"RWAPSSF.sol\":4183:4200  account0.transfer */\n      0xffffffffffffffffffffffffffffffffffffffff\n      and\n        /* \"RWAPSSF.sol\":4183:4208  account0.transfer(reward) */\n      0x08fc\n        /* \"RWAPSSF.sol\":4201:4207  reward */\n      sload(0x05)\n        /* \"RWAPSSF.sol\":4183:4208  account0.transfer(reward) */\n      swap1\n      dup2\n      iszero\n      mul\n      swap1\n      mload(0x40)\n      0x00\n      mload(0x40)\n      dup1\n      dup4\n      sub\n      dup2\n      dup6\n      dup9\n      dup9\n      call\n      swap4\n      pop\n      pop\n      pop\n      pop\n      iszero\n      dup1\n      iszero\n      tag_109\n      jumpi\n      returndatasize\n      0x00\n      dup1\n      returndatacopy\n      revert(0x00, returndatasize)\n    tag_109:\n      pop\n        /* \"RWAPSSF.sol\":4237:4245  _reset() */\n      tag_110\n        /* \"RWAPSSF.sol\":4237:4243  _reset */\n      tag_96\n        /* \"RWAPSSF.sol\":4237:4245  _reset() */\n      jump\t// in\n    tag_110:\n        /* \"RWAPSSF.sol\":4260:4267  return; */\n      pop\n      pop\n      jump(tag_82)\n        /* \"RWAPSSF.sol\":4105:4457  if (commits[account0].revealed && !commits[account1].revealed) {... */\n    tag_107:\n        /* \"RWAPSSF.sol\":4288:4295  commits */\n      0x01\n        /* \"RWAPSSF.sol\":4288:4305  commits[account1] */\n      0x00\n        /* \"RWAPSSF.sol\":4296:4304  account1 */\n      dup3\n        /* \"RWAPSSF.sol\":4288:4305  commits[account1] */\n      0xffffffffffffffffffffffffffffffffffffffff\n      and\n      0xffffffffffffffffffffffffffffffffffffffff\n      and\n      dup2\n      mstore\n      0x20\n      add\n      swap1\n      dup2\n      mstore\n      0x20\n      add\n      0x00\n      keccak256\n        /* \"RWAPSSF.sol\":4288:4314  commits[account1].revealed */\n      0x01\n      add\n      0x00\n      swap1\n      sload\n      swap1\n      0x0100\n      exp\n      swap1\n      div\n      0xff\n      and\n        /* \"RWAPSSF.sol\":4288:4345  commits[account1].revealed && !commits[account0].revealed */\n      dup1\n      iszero\n      tag_112\n      jumpi\n      pop\n        /* \"RWAPSSF.sol\":4319:4326  commits */\n      0x01\n        /* \"RWAPSSF.sol\":4319:4336  commits[account0] */\n      0x00\n        /* \"RWAPSSF.sol\":4327:4335  account0 */\n      dup4\n        /* \"RWAPSSF.sol\":4319:4336  commits[account0] */\n      0xffffffffffffffffffffffffffffffffffffffff\n      and\n      0xffffffffffffffffffffffffffffffffffffffff\n      and\n      dup2\n      mstore\n      0x20\n      add\n      swap1\n      dup2\n      mstore\n      0x20\n      add\n      0x00\n      keccak256\n        /* \"RWAPSSF.sol\":4319:4345  commits[account0].revealed */\n      0x01\n      add\n      0x00\n      swap1\n      sload\n      swap1\n      0x0100\n      exp\n      swap1\n      div\n      0xff\n      and\n        /* \"RWAPSSF.sol\":4318:4345  !commits[account0].revealed */\n      iszero\n        /* \"RWAPSSF.sol\":4288:4345  commits[account1].revealed && !commits[account0].revealed */\n    tag_112:\n        /* \"RWAPSSF.sol\":4284:4457  if (commits[account1].revealed && !commits[account0].revealed) {... */\n      iszero\n      tag_113\n      jumpi\n        /* \"RWAPSSF.sol\":4362:4370  account1 */\n      dup1\n        /* \"RWAPSSF.sol\":4362:4379  account1.transfer */\n      0xffffffffffffffffffffffffffffffffffffffff\n      and\n        /* \"RWAPSSF.sol\":4362:4387  account1.transfer(reward) */\n      0x08fc\n        /* \"RWAPSSF.sol\":4380:4386  reward */\n      sload(0x05)\n        /* \"RWAPSSF.sol\":4362:4387  account1.transfer(reward) */\n      swap1\n      dup2\n      iszero\n      mul\n      swap1\n      mload(0x40)\n      0x00\n      mload(0x40)\n      dup1\n      dup4\n      sub\n      dup2\n      dup6\n      dup9\n      dup9\n      call\n      swap4\n      pop\n      pop\n      pop\n      pop\n      iszero\n      dup1\n      iszero\n      tag_115\n      jumpi\n      returndatasize\n      0x00\n      dup1\n      returndatacopy\n      revert(0x00, returndatasize)\n    tag_115:\n      pop\n        /* \"RWAPSSF.sol\":4416:4424  _reset() */\n      tag_116\n        /* \"RWAPSSF.sol\":4416:4422  _reset */\n      tag_96\n        /* \"RWAPSSF.sol\":4416:4424  _reset() */\n      jump\t// in\n    tag_116:\n        /* \"RWAPSSF.sol\":4439:4446  return; */\n      pop\n      pop\n      jump(tag_82)\n        /* \"RWAPSSF.sol\":4284:4457  if (commits[account1].revealed && !commits[account0].revealed) {... */\n    tag_113:\n        /* \"RWAPSSF.sol\":3033:4464  {... */\n      pop\n      pop\n        /* \"RWAPSSF.sol\":3002:4464  function checkTimeout() public {... */\n    tag_82:\n      jump\t// out\n        /* \"RWAPSSF.sol\":556:581  uint256 public reward = 0 */\n    tag_24:\n      sload(0x05)\n      dup2\n      jump\t// out\n        /* \"RWAPSSF.sol\":709:1067  function addPlayer() public payable {... */\n    tag_28:\n        /* \"RWAPSSF.sol\":776:777  2 */\n      0x02\n        /* \"RWAPSSF.sol\":764:773  numPlayer */\n      sload(0x04)\n        /* \"RWAPSSF.sol\":764:777  numPlayer < 2 */\n      lt\n        /* \"RWAPSSF.sol\":756:778  require(numPlayer < 2) */\n      tag_118\n      jumpi\n      0x00\n      dup1\n      revert\n    tag_118:\n        /* \"RWAPSSF.sol\":810:817  1 ether */\n      0x0de0b6b3a7640000\n        /* \"RWAPSSF.sol\":797:806  msg.value */\n      callvalue\n        /* \"RWAPSSF.sol\":797:817  msg.value == 1 ether */\n      eq\n        /* \"RWAPSSF.sol\":789:818  require(msg.value == 1 ether) */\n      tag_119\n      jumpi\n      0x00\n      dup1\n      revert\n    tag_119:\n        /* \"RWAPSSF.sol\":841:850  msg.value */\n      callvalue\n        /* \"RWAPSSF.sol\":831:837  reward */\n      0x05\n      0x00\n        /* \"RWAPSSF.sol\":831:850  reward += msg.value */\n      dup3\n      dup3\n      sload\n      tag_120\n      swap2\n      swap1\n      tag_84\n      jump\t// in\n    tag_120:\n      swap3\n      pop\n      pop\n      dup2\n      swap1\n      sstore\n      pop\n        /* \"RWAPSSF.sol\":886:895  msg.value */\n      callvalue\n        /* \"RWAPSSF.sol\":861:867  player */\n      0x02\n        /* \"RWAPSSF.sol\":861:878  player[numPlayer] */\n      0x00\n        /* \"RWAPSSF.sol\":868:877  numPlayer */\n      sload(0x04)\n        /* \"RWAPSSF.sol\":861:878  player[numPlayer] */\n      dup2\n      mstore\n      0x20\n      add\n      swap1\n      dup2\n      mstore\n      0x20\n      add\n      0x00\n      keccak256\n        /* \"RWAPSSF.sol\":861:883  player[numPlayer].fund */\n      0x02\n      add\n        /* \"RWAPSSF.sol\":861:895  player[numPlayer].fund = msg.value */\n      dup2\n      swap1\n      sstore\n      pop\n        /* \"RWAPSSF.sol\":931:941  msg.sender */\n      caller\n        /* \"RWAPSSF.sol\":906:912  player */\n      0x02\n        /* \"RWAPSSF.sol\":906:923  player[numPlayer] */\n      0x00\n        /* \"RWAPSSF.sol\":913:922  numPlayer */\n      sload(0x04)\n        /* \"RWAPSSF.sol\":906:923  player[numPlayer] */\n      dup2\n      mstore\n      0x20\n      add\n      swap1\n      dup2\n      mstore\n      0x20\n      add\n      0x00\n      keccak256\n        /* \"RWAPSSF.sol\":906:928  player[numPlayer].addr */\n      0x01\n      add\n      0x00\n        /* \"RWAPSSF.sol\":906:941  player[numPlayer].addr = msg.sender */\n      0x0100\n      exp\n      dup2\n      sload\n      dup2\n      0xffffffffffffffffffffffffffffffffffffffff\n      mul\n      not\n      and\n      swap1\n      dup4\n      0xffffffffffffffffffffffffffffffffffffffff\n      and\n      mul\n      or\n      swap1\n      sstore\n      pop\n        /* \"RWAPSSF.sol\":976:985  numPlayer */\n      sload(0x04)\n        /* \"RWAPSSF.sol\":952:961  playerIdx */\n      0x03\n        /* \"RWAPSSF.sol\":952:973  playerIdx[msg.sender] */\n      0x00\n        /* \"RWAPSSF.sol\":962:972  msg.sender */\n      caller\n        /* \"RWAPSSF.sol\":952:973  playerIdx[msg.sender] */\n      0xffffffffffffffffffffffffffffffffffffffff\n      and\n      0xffffffffffffffffffffffffffffffffffffffff\n      and\n      dup2\n      mstore\n      0x20\n      add\n      swap1\n      dup2\n      mstore\n      0x20\n      add\n      0x00\n      keccak256\n        /* \"RWAPSSF.sol\":952:985  playerIdx[msg.sender] = numPlayer */\n      dup2\n      swap1\n      sstore\n      pop\n        /* \"RWAPSSF.sol\":996:1005  numPlayer */\n      0x04\n      0x00\n        /* \"RWAPSSF.sol\":996:1007  numPlayer++ */\n      dup2\n      sload\n      dup1\n      swap3\n      swap2\n      swap1\n      tag_121\n      swap1\n      tag_122\n      jump\t// in\n    tag_121:\n      swap2\n      swap1\n      pop\n      sstore\n      pop\n        /* \"RWAPSSF.sol\":1044:1059  block.timestamp */\n      timestamp\n        /* \"RWAPSSF.sol\":1020:1041  latestActionTimestamp */\n      0x08\n        /* \"RWAPSSF.sol\":1020:1059  latestActionTimestamp = block.timestamp */\n      dup2\n      swap1\n      sstore\n      pop\n        /* \"RWAPSSF.sol\":709:1067  function addPlayer() public payable {... */\n      jump\t// out\n        /* \"RWAPSSF.sol\":1609:2115  function revealChoice(uint256 choice, uint256 salt) public {... */\n    tag_33:\n        /* \"RWAPSSF.sol\":1697:1698  6 */\n      0x06\n        /* \"RWAPSSF.sol\":1687:1693  choice */\n      dup3\n        /* \"RWAPSSF.sol\":1687:1698  choice <= 6 */\n      gt\n      iszero\n        /* \"RWAPSSF.sol\":1679:1699  require(choice <= 6) */\n      tag_124\n      jumpi\n      0x00\n      dup1\n      revert\n    tag_124:\n        /* \"RWAPSSF.sol\":1731:1732  2 */\n      0x02\n        /* \"RWAPSSF.sol\":1718:1727  numPlayer */\n      sload(0x04)\n        /* \"RWAPSSF.sol\":1718:1732  numPlayer == 2 */\n      eq\n        /* \"RWAPSSF.sol\":1710:1733  require(numPlayer == 2) */\n      tag_125\n      jumpi\n      0x00\n      dup1\n      revert\n    tag_125:\n        /* \"RWAPSSF.sol\":1765:1766  2 */\n      0x02\n        /* \"RWAPSSF.sol\":1752:1761  numCommit */\n      sload(0x06)\n        /* \"RWAPSSF.sol\":1752:1766  numCommit == 2 */\n      eq\n        /* \"RWAPSSF.sol\":1744:1767  require(numCommit == 2) */\n      tag_126\n      jumpi\n      0x00\n      dup1\n      revert\n    tag_126:\n        /* \"RWAPSSF.sol\":1800:1806  player */\n      0x02\n        /* \"RWAPSSF.sol\":1800:1829  player[playerIdx[msg.sender]] */\n      0x00\n        /* \"RWAPSSF.sol\":1807:1816  playerIdx */\n      0x03\n        /* \"RWAPSSF.sol\":1807:1828  playerIdx[msg.sender] */\n      0x00\n        /* \"RWAPSSF.sol\":1817:1827  msg.sender */\n      caller\n        /* \"RWAPSSF.sol\":1807:1828  playerIdx[msg.sender] */\n      0xffffffffffffffffffffffffffffffffffffffff\n      and\n      0xffffffffffffffffffffffffffffffffffffffff\n      and\n      dup2\n      mstore\n      0x20\n      add\n      swap1\n      dup2\n      mstore\n      0x20\n      add\n      0x00\n      keccak256\n      sload\n        /* \"RWAPSSF.sol\":1800:1829  player[playerIdx[msg.sender]] */\n      dup2\n      mstore\n      0x20\n      add\n      swap1\n      dup2\n      mstore\n      0x20\n      add\n      0x00\n      keccak256\n        /* \"RWAPSSF.sol\":1800:1834  player[playerIdx[msg.sender]].addr */\n      0x01\n      add\n      0x00\n      swap1\n      sload\n      swap1\n      0x0100\n      exp\n      swap1\n      div\n      0xffffffffffffffffffffffffffffffffffffffff\n      and\n        /* \"RWAPSSF.sol\":1786:1834  msg.sender == player[playerIdx[msg.sender]].addr */\n      0xffffffffffffffffffffffffffffffffffffffff\n      and\n        /* \"RWAPSSF.sol\":1786:1796  msg.sender */\n      caller\n        /* \"RWAPSSF.sol\":1786:1834  msg.sender == player[playerIdx[msg.sender]].addr */\n      0xffffffffffffffffffffffffffffffffffffffff\n      and\n      eq\n        /* \"RWAPSSF.sol\":1778:1835  require(msg.sender == player[playerIdx[msg.sender]].addr) */\n      tag_127\n      jumpi\n      0x00\n      dup1\n      revert\n    tag_127:\n        /* \"RWAPSSF.sol\":1848:1892  revealAnswer(bytes32(choice), bytes32(salt)) */\n      tag_128\n        /* \"RWAPSSF.sol\":1869:1875  choice */\n      dup3\n        /* \"RWAPSSF.sol\":1861:1876  bytes32(choice) */\n      0x00\n      shl\n        /* \"RWAPSSF.sol\":1886:1890  salt */\n      dup3\n        /* \"RWAPSSF.sol\":1878:1891  bytes32(salt) */\n      0x00\n      shl\n        /* \"RWAPSSF.sol\":1848:1860  revealAnswer */\n      tag_129\n        /* \"RWAPSSF.sol\":1848:1892  revealAnswer(bytes32(choice), bytes32(salt)) */\n      jump\t// in\n    tag_128:\n        /* \"RWAPSSF.sol\":1942:1948  choice */\n      dup2\n        /* \"RWAPSSF.sol\":1903:1909  player */\n      0x02\n        /* \"RWAPSSF.sol\":1903:1932  player[playerIdx[msg.sender]] */\n      0x00\n        /* \"RWAPSSF.sol\":1910:1919  playerIdx */\n      0x03\n        /* \"RWAPSSF.sol\":1910:1931  playerIdx[msg.sender] */\n      0x00\n        /* \"RWAPSSF.sol\":1920:1930  msg.sender */\n      caller\n        /* \"RWAPSSF.sol\":1910:1931  playerIdx[msg.sender] */\n      0xffffffffffffffffffffffffffffffffffffffff\n      and\n      0xffffffffffffffffffffffffffffffffffffffff\n      and\n      dup2\n      mstore\n      0x20\n      add\n      swap1\n      dup2\n      mstore\n      0x20\n      add\n      0x00\n      keccak256\n      sload\n        /* \"RWAPSSF.sol\":1903:1932  player[playerIdx[msg.sender]] */\n      dup2\n      mstore\n      0x20\n      add\n      swap1\n      dup2\n      mstore\n      0x20\n      add\n      0x00\n      keccak256\n        /* \"RWAPSSF.sol\":1903:1939  player[playerIdx[msg.sender]].choice */\n      0x00\n      add\n        /* \"RWAPSSF.sol\":1903:1948  player[playerIdx[msg.sender]].choice = choice */\n      dup2\n      swap1\n      sstore\n      pop\n        /* \"RWAPSSF.sol\":1961:1972  numRevealed */\n      0x07\n      0x00\n        /* \"RWAPSSF.sol\":1961:1974  numRevealed++ */\n      dup2\n      sload\n      dup1\n      swap3\n      swap2\n      swap1\n      tag_130\n      swap1\n      tag_122\n      jump\t// in\n    tag_130:\n      swap2\n      swap1\n      pop\n      sstore\n      pop\n        /* \"RWAPSSF.sol\":2006:2007  2 */\n      0x02\n        /* \"RWAPSSF.sol\":1991:2002  numRevealed */\n      sload(0x07)\n        /* \"RWAPSSF.sol\":1991:2007  numRevealed == 2 */\n      sub\n        /* \"RWAPSSF.sol\":1987:2056  if (numRevealed == 2) {... */\n      tag_131\n      jumpi\n        /* \"RWAPSSF.sol\":2024:2044  _checkWinnerAndPay() */\n      tag_132\n        /* \"RWAPSSF.sol\":2024:2042  _checkWinnerAndPay */\n      tag_133\n        /* \"RWAPSSF.sol\":2024:2044  _checkWinnerAndPay() */\n      jump\t// in\n    tag_132:\n        /* \"RWAPSSF.sol\":1987:2056  if (numRevealed == 2) {... */\n    tag_131:\n        /* \"RWAPSSF.sol\":2092:2107  block.timestamp */\n      timestamp\n        /* \"RWAPSSF.sol\":2068:2089  latestActionTimestamp */\n      0x08\n        /* \"RWAPSSF.sol\":2068:2107  latestActionTimestamp = block.timestamp */\n      dup2\n      swap1\n      sstore\n      pop\n        /* \"RWAPSSF.sol\":1609:2115  function revealChoice(uint256 choice, uint256 salt) public {... */\n      pop\n      pop\n      jump\t// out\n        /* \"RWAPSSF.sol\":660:700  uint256 public latestActionTimestamp = 0 */\n    tag_36:\n      sload(0x08)\n      dup2\n      jump\t// out\n        /* \"RWAPSSF.sol\":1075:1292  function getChoiceHash(uint256 choice, uint256 salt)... */\n    tag_41:\n        /* \"RWAPSSF.sol\":1176:1183  bytes32 */\n      0x00\n        /* \"RWAPSSF.sol\":1219:1220  6 */\n      0x06\n        /* \"RWAPSSF.sol\":1209:1215  choice */\n      dup4\n        /* \"RWAPSSF.sol\":1209:1220  choice <= 6 */\n      gt\n      iszero\n        /* \"RWAPSSF.sol\":1201:1221  require(choice <= 6) */\n      tag_135\n      jumpi\n      0x00\n      dup1\n      revert\n    tag_135:\n        /* \"RWAPSSF.sol\":1239:1284  getSaltedHash(bytes32(choice), bytes32(salt)) */\n      tag_136\n        /* \"RWAPSSF.sol\":1261:1267  choice */\n      dup4\n        /* \"RWAPSSF.sol\":1253:1268  bytes32(choice) */\n      0x00\n      shl\n        /* \"RWAPSSF.sol\":1278:1282  salt */\n      dup4\n        /* \"RWAPSSF.sol\":1270:1283  bytes32(salt) */\n      0x00\n      shl\n        /* \"RWAPSSF.sol\":1239:1252  getSaltedHash */\n      tag_137\n        /* \"RWAPSSF.sol\":1239:1284  getSaltedHash(bytes32(choice), bytes32(salt)) */\n      jump\t// in\n    tag_136:\n        /* \"RWAPSSF.sol\":1232:1284  return getSaltedHash(bytes32(choice), bytes32(salt)) */\n      swap1\n      pop\n        /* \"RWAPSSF.sol\":1075:1292  function getChoiceHash(uint256 choice, uint256 salt)... */\n      swap3\n      swap2\n      pop\n      pop\n      jump\t// out\n        /* \"RWAPSSF.sol\":623:653  uint256 public numRevealed = 0 */\n    tag_46:\n      sload(0x07)\n      dup2\n      jump\t// out\n        /* \"RWAPSSF.sol\":521:549  uint256 public numPlayer = 0 */\n    tag_50:\n      sload(0x04)\n      dup2\n      jump\t// out\n        /* \"RWAPSSF.sol\":588:616  uint256 public numCommit = 0 */\n    tag_54:\n      sload(0x06)\n      dup2\n      jump\t// out\n        /* \"RWAPSSF.sol\":420:460  mapping(uint256 => Player) public player */\n    tag_60:\n      mstore(0x20, 0x02)\n      dup1\n      0x00\n      mstore\n      keccak256(0x00, 0x40)\n      0x00\n      swap2\n      pop\n      swap1\n      pop\n      dup1\n      0x00\n      add\n      sload\n      swap1\n      dup1\n      0x01\n      add\n      0x00\n      swap1\n      sload\n      swap1\n      0x0100\n      exp\n      swap1\n      div\n      0xffffffffffffffffffffffffffffffffffffffff\n      and\n      swap1\n      dup1\n      0x02\n      add\n      sload\n      swap1\n      pop\n      dup4\n      jump\t// out\n        /* \"RWAPSSF.sol\":467:511  mapping(address => uint256) public playerIdx */\n    tag_67:\n      mstore(0x20, 0x03)\n      dup1\n      0x00\n      mstore\n      keccak256(0x00, 0x40)\n      0x00\n      swap2\n      pop\n      swap1\n      pop\n      sload\n      dup2\n      jump\t// out\n        /* \"RWAPSSF.sol\":2900:2993  function currentTime() public view returns(uint256) {... */\n    tag_71:\n        /* \"RWAPSSF.sol\":2943:2950  uint256 */\n      0x00\n        /* \"RWAPSSF.sol\":2970:2985  block.timestamp */\n      timestamp\n        /* \"RWAPSSF.sol\":2963:2985  return block.timestamp */\n      swap1\n      pop\n        /* \"RWAPSSF.sol\":2900:2993  function currentTime() public view returns(uint256) {... */\n      swap1\n      jump\t// out\n        /* \"RWAPSSF.sol\":1300:1601  function commitChoice(bytes32 choiceHash) public {... */\n    tag_77:\n        /* \"RWAPSSF.sol\":1381:1382  2 */\n      0x02\n        /* \"RWAPSSF.sol\":1368:1377  numPlayer */\n      sload(0x04)\n        /* \"RWAPSSF.sol\":1368:1382  numPlayer == 2 */\n      eq\n        /* \"RWAPSSF.sol\":1360:1383  require(numPlayer == 2) */\n      tag_140\n      jumpi\n      0x00\n      dup1\n      revert\n    tag_140:\n        /* \"RWAPSSF.sol\":1416:1422  player */\n      0x02\n        /* \"RWAPSSF.sol\":1416:1445  player[playerIdx[msg.sender]] */\n      0x00\n        /* \"RWAPSSF.sol\":1423:1432  playerIdx */\n      0x03\n        /* \"RWAPSSF.sol\":1423:1444  playerIdx[msg.sender] */\n      0x00\n        /* \"RWAPSSF.sol\":1433:1443  msg.sender */\n      caller\n        /* \"RWAPSSF.sol\":1423:1444  playerIdx[msg.sender] */\n      0xffffffffffffffffffffffffffffffffffffffff\n      and\n      0xffffffffffffffffffffffffffffffffffffffff\n      and\n      dup2\n      mstore\n      0x20\n      add\n      swap1\n      dup2\n      mstore\n      0x20\n      add\n      0x00\n      keccak256\n      sload\n        /* \"RWAPSSF.sol\":1416:1445  player[playerIdx[msg.sender]] */\n      dup2\n      mstore\n      0x20\n      add\n      swap1\n      dup2\n      mstore\n      0x20\n      add\n      0x00\n      keccak256\n        /* \"RWAPSSF.sol\":1416:1450  player[playerIdx[msg.sender]].addr */\n      0x01\n      add\n      0x00\n      swap1\n      sload\n      swap1\n      0x0100\n      exp\n      swap1\n      div\n      0xffffffffffffffffffffffffffffffffffffffff\n      and\n        /* \"RWAPSSF.sol\":1402:1450  msg.sender == player[playerIdx[msg.sender]].addr */\n      0xffffffffffffffffffffffffffffffffffffffff\n      and\n        /* \"RWAPSSF.sol\":1402:1412  msg.sender */\n      caller\n        /* \"RWAPSSF.sol\":1402:1450  msg.sender == player[playerIdx[msg.sender]].addr */\n      0xffffffffffffffffffffffffffffffffffffffff\n      and\n      eq\n        /* \"RWAPSSF.sol\":1394:1451  require(msg.sender == player[playerIdx[msg.sender]].addr) */\n      tag_141\n      jumpi\n      0x00\n      dup1\n      revert\n    tag_141:\n        /* \"RWAPSSF.sol\":1484:1485  0 */\n      0x00\n        /* \"RWAPSSF.sol\":1470:1485  choiceHash != 0 */\n      dup1\n      shl\n        /* \"RWAPSSF.sol\":1470:1480  choiceHash */\n      dup2\n        /* \"RWAPSSF.sol\":1470:1485  choiceHash != 0 */\n      sub\n        /* \"RWAPSSF.sol\":1462:1486  require(choiceHash != 0) */\n      tag_142\n      jumpi\n      0x00\n      dup1\n      revert\n    tag_142:\n        /* \"RWAPSSF.sol\":1499:1517  commit(choiceHash) */\n      tag_143\n        /* \"RWAPSSF.sol\":1506:1516  choiceHash */\n      dup2\n        /* \"RWAPSSF.sol\":1499:1505  commit */\n      tag_144\n        /* \"RWAPSSF.sol\":1499:1517  commit(choiceHash) */\n      jump\t// in\n    tag_143:\n        /* \"RWAPSSF.sol\":1530:1539  numCommit */\n      0x06\n      0x00\n        /* \"RWAPSSF.sol\":1530:1541  numCommit++ */\n      dup2\n      sload\n      dup1\n      swap3\n      swap2\n      swap1\n      tag_145\n      swap1\n      tag_122\n      jump\t// in\n    tag_145:\n      swap2\n      swap1\n      pop\n      sstore\n      pop\n        /* \"RWAPSSF.sol\":1578:1593  block.timestamp */\n      timestamp\n        /* \"RWAPSSF.sol\":1554:1575  latestActionTimestamp */\n      0x08\n        /* \"RWAPSSF.sol\":1554:1593  latestActionTimestamp = block.timestamp */\n      dup2\n      swap1\n      sstore\n      pop\n        /* \"RWAPSSF.sol\":1300:1601  function commitChoice(bytes32 choiceHash) public {... */\n      pop\n      jump\t// out\n        /* \"RWAPSSF.sol\":367:411  uint256 public constant TIMEOUT = 10 seconds */\n    tag_80:\n        /* \"RWAPSSF.sol\":401:411  10 seconds */\n      0x0a\n        /* \"RWAPSSF.sol\":367:411  uint256 public constant TIMEOUT = 10 seconds */\n      dup2\n      jump\t// out\n        /* \"RWAPSSF.sol\":4472:4637  function _reset() private {... */\n    tag_96:\n        /* \"RWAPSSF.sol\":4521:4522  0 */\n      0x00\n        /* \"RWAPSSF.sol\":4509:4518  numPlayer */\n      0x04\n        /* \"RWAPSSF.sol\":4509:4522  numPlayer = 0 */\n      dup2\n      swap1\n      sstore\n      pop\n        /* \"RWAPSSF.sol\":4542:4543  0 */\n      0x00\n        /* \"RWAPSSF.sol\":4533:4539  reward */\n      0x05\n        /* \"RWAPSSF.sol\":4533:4543  reward = 0 */\n      dup2\n      swap1\n      sstore\n      pop\n        /* \"RWAPSSF.sol\":4566:4567  0 */\n      0x00\n        /* \"RWAPSSF.sol\":4554:4563  numCommit */\n      0x06\n        /* \"RWAPSSF.sol\":4554:4567  numCommit = 0 */\n      dup2\n      swap1\n      sstore\n      pop\n        /* \"RWAPSSF.sol\":4592:4593  0 */\n      0x00\n        /* \"RWAPSSF.sol\":4578:4589  numRevealed */\n      0x07\n        /* \"RWAPSSF.sol\":4578:4593  numRevealed = 0 */\n      dup2\n      swap1\n      sstore\n      pop\n        /* \"RWAPSSF.sol\":4628:4629  0 */\n      0x00\n        /* \"RWAPSSF.sol\":4604:4625  latestActionTimestamp */\n      0x08\n        /* \"RWAPSSF.sol\":4604:4629  latestActionTimestamp = 0 */\n      dup2\n      swap1\n      sstore\n      pop\n        /* \"RWAPSSF.sol\":4472:4637  function _reset() private {... */\n      jump\t// out\n        /* \"CommitReveal.sol\":488:994  function revealAnswer(bytes32 answer, bytes32 salt) internal {... */\n    tag_129:\n        /* \"CommitReveal.sol\":660:665  false */\n      0x00\n        /* \"CommitReveal.sol\":630:665  commits[msg.sender].revealed==false */\n      iszero\n      iszero\n        /* \"CommitReveal.sol\":630:637  commits */\n      0x01\n        /* \"CommitReveal.sol\":630:649  commits[msg.sender] */\n      0x00\n        /* \"CommitReveal.sol\":638:648  msg.sender */\n      caller\n        /* \"CommitReveal.sol\":630:649  commits[msg.sender] */\n      0xffffffffffffffffffffffffffffffffffffffff\n      and\n      0xffffffffffffffffffffffffffffffffffffffff\n      and\n      dup2\n      mstore\n      0x20\n      add\n      swap1\n      dup2\n      mstore\n      0x20\n      add\n      0x00\n      keccak256\n        /* \"CommitReveal.sol\":630:658  commits[msg.sender].revealed */\n      0x01\n      add\n      0x00\n      swap1\n      sload\n      swap1\n      0x0100\n      exp\n      swap1\n      div\n      0xff\n      and\n        /* \"CommitReveal.sol\":630:665  commits[msg.sender].revealed==false */\n      iszero\n      iszero\n      eq\n        /* \"CommitReveal.sol\":622:713  require(commits[msg.sender].revealed==false,\"CommitReveal::revealAnswer: Already revealed\") */\n      tag_148\n      jumpi\n      mload(0x40)\n      0x08c379a000000000000000000000000000000000000000000000000000000000\n      dup2\n      mstore\n      0x04\n      add\n      tag_149\n      swap1\n      tag_150\n      jump\t// in\n    tag_149:\n      mload(0x40)\n      dup1\n      swap2\n      sub\n      swap1\n      revert\n    tag_148:\n        /* \"CommitReveal.sol\":748:752  true */\n      0x01\n        /* \"CommitReveal.sol\":719:726  commits */\n      dup1\n        /* \"CommitReveal.sol\":719:738  commits[msg.sender] */\n      0x00\n        /* \"CommitReveal.sol\":727:737  msg.sender */\n      caller\n        /* \"CommitReveal.sol\":719:738  commits[msg.sender] */\n      0xffffffffffffffffffffffffffffffffffffffff\n      and\n      0xffffffffffffffffffffffffffffffffffffffff\n      and\n      dup2\n      mstore\n      0x20\n      add\n      swap1\n      dup2\n      mstore\n      0x20\n      add\n      0x00\n      keccak256\n        /* \"CommitReveal.sol\":719:747  commits[msg.sender].revealed */\n      0x01\n      add\n      0x00\n        /* \"CommitReveal.sol\":719:752  commits[msg.sender].revealed=true */\n      0x0100\n      exp\n      dup2\n      sload\n      dup2\n      0xff\n      mul\n      not\n      and\n      swap1\n      dup4\n      iszero\n      iszero\n      mul\n      or\n      swap1\n      sstore\n      pop\n        /* \"CommitReveal.sol\":849:856  commits */\n      0x01\n        /* \"CommitReveal.sol\":849:868  commits[msg.sender] */\n      0x00\n        /* \"CommitReveal.sol\":857:867  msg.sender */\n      caller\n        /* \"CommitReveal.sol\":849:868  commits[msg.sender] */\n      0xffffffffffffffffffffffffffffffffffffffff\n      and\n      0xffffffffffffffffffffffffffffffffffffffff\n      and\n      dup2\n      mstore\n      0x20\n      add\n      swap1\n      dup2\n      mstore\n      0x20\n      add\n      0x00\n      keccak256\n        /* \"CommitReveal.sol\":849:875  commits[msg.sender].commit */\n      0x00\n      add\n      sload\n        /* \"CommitReveal.sol\":821:847  getSaltedHash(answer,salt) */\n      tag_151\n        /* \"CommitReveal.sol\":835:841  answer */\n      dup4\n        /* \"CommitReveal.sol\":842:846  salt */\n      dup4\n        /* \"CommitReveal.sol\":821:834  getSaltedHash */\n      tag_137\n        /* \"CommitReveal.sol\":821:847  getSaltedHash(answer,salt) */\n      jump\t// in\n    tag_151:\n        /* \"CommitReveal.sol\":821:875  getSaltedHash(answer,salt)==commits[msg.sender].commit */\n      eq\n        /* \"CommitReveal.sol\":813:942  require(getSaltedHash(answer,salt)==commits[msg.sender].commit,\"CommitReveal::revealAnswer: Revealed hash does not match commit\") */\n      tag_152\n      jumpi\n      mload(0x40)\n      0x08c379a000000000000000000000000000000000000000000000000000000000\n      dup2\n      mstore\n      0x04\n      add\n      tag_153\n      swap1\n      tag_154\n      jump\t// in\n    tag_153:\n      mload(0x40)\n      dup1\n      swap2\n      sub\n      swap1\n      revert\n    tag_152:\n        /* \"CommitReveal.sol\":953:989  RevealAnswer(msg.sender,answer,salt) */\n      0x8bed02c4d61e56ed1d90657e7a0ba48f15cca20fcc2899d7235221b2cb0423a6\n        /* \"CommitReveal.sol\":966:976  msg.sender */\n      caller\n        /* \"CommitReveal.sol\":977:983  answer */\n      dup4\n        /* \"CommitReveal.sol\":984:988  salt */\n      dup4\n        /* \"CommitReveal.sol\":953:989  RevealAnswer(msg.sender,answer,salt) */\n      mload(0x40)\n      tag_155\n      swap4\n      swap3\n      swap2\n      swap1\n      tag_156\n      jump\t// in\n    tag_155:\n      mload(0x40)\n      dup1\n      swap2\n      sub\n      swap1\n      log1\n        /* \"CommitReveal.sol\":488:994  function revealAnswer(bytes32 answer, bytes32 salt) internal {... */\n      pop\n      pop\n      jump\t// out\n        /* \"RWAPSSF.sol\":2123:2888  function _checkWinnerAndPay() private {... */\n    tag_133:\n        /* \"RWAPSSF.sol\":2172:2188  uint256 p0Choice */\n      0x00\n        /* \"RWAPSSF.sol\":2191:2197  player */\n      0x02\n        /* \"RWAPSSF.sol\":2191:2200  player[0] */\n      0x00\n        /* \"RWAPSSF.sol\":2198:2199  0 */\n      dup1\n        /* \"RWAPSSF.sol\":2191:2200  player[0] */\n      dup2\n      mstore\n      0x20\n      add\n      swap1\n      dup2\n      mstore\n      0x20\n      add\n      0x00\n      keccak256\n        /* \"RWAPSSF.sol\":2191:2207  player[0].choice */\n      0x00\n      add\n      sload\n        /* \"RWAPSSF.sol\":2172:2207  uint256 p0Choice = player[0].choice */\n      swap1\n      pop\n        /* \"RWAPSSF.sol\":2218:2234  uint256 p1Choice */\n      0x00\n        /* \"RWAPSSF.sol\":2237:2243  player */\n      0x02\n        /* \"RWAPSSF.sol\":2237:2246  player[1] */\n      0x00\n        /* \"RWAPSSF.sol\":2244:2245  1 */\n      0x01\n        /* \"RWAPSSF.sol\":2237:2246  player[1] */\n      dup2\n      mstore\n      0x20\n      add\n      swap1\n      dup2\n      mstore\n      0x20\n      add\n      0x00\n      keccak256\n        /* \"RWAPSSF.sol\":2237:2253  player[1].choice */\n      0x00\n      add\n      sload\n        /* \"RWAPSSF.sol\":2218:2253  uint256 p1Choice = player[1].choice */\n      swap1\n      pop\n        /* \"RWAPSSF.sol\":2264:2288  address payable account0 */\n      0x00\n        /* \"RWAPSSF.sol\":2299:2305  player */\n      0x02\n        /* \"RWAPSSF.sol\":2299:2308  player[0] */\n      0x00\n        /* \"RWAPSSF.sol\":2306:2307  0 */\n      dup1\n        /* \"RWAPSSF.sol\":2299:2308  player[0] */\n      dup2\n      mstore\n      0x20\n      add\n      swap1\n      dup2\n      mstore\n      0x20\n      add\n      0x00\n      keccak256\n        /* \"RWAPSSF.sol\":2299:2313  player[0].addr */\n      0x01\n      add\n      0x00\n      swap1\n      sload\n      swap1\n      0x0100\n      exp\n      swap1\n      div\n      0xffffffffffffffffffffffffffffffffffffffff\n      and\n        /* \"RWAPSSF.sol\":2264:2314  address payable account0 = payable(player[0].addr) */\n      swap1\n      pop\n        /* \"RWAPSSF.sol\":2325:2349  address payable account1 */\n      0x00\n        /* \"RWAPSSF.sol\":2360:2366  player */\n      0x02\n        /* \"RWAPSSF.sol\":2360:2369  player[1] */\n      0x00\n        /* \"RWAPSSF.sol\":2367:2368  1 */\n      0x01\n        /* \"RWAPSSF.sol\":2360:2369  player[1] */\n      dup2\n      mstore\n      0x20\n      add\n      swap1\n      dup2\n      mstore\n      0x20\n      add\n      0x00\n      keccak256\n        /* \"RWAPSSF.sol\":2360:2374  player[1].addr */\n      0x01\n      add\n      0x00\n      swap1\n      sload\n      swap1\n      0x0100\n      exp\n      swap1\n      div\n      0xffffffffffffffffffffffffffffffffffffffff\n      and\n        /* \"RWAPSSF.sol\":2325:2375  address payable account1 = payable(player[1].addr) */\n      swap1\n      pop\n        /* \"RWAPSSF.sol\":2412:2420  p1Choice */\n      dup3\n        /* \"RWAPSSF.sol\":2407:2408  7 */\n      0x07\n        /* \"RWAPSSF.sol\":2402:2403  1 */\n      0x01\n        /* \"RWAPSSF.sol\":2391:2399  p0Choice */\n      dup7\n        /* \"RWAPSSF.sol\":2391:2403  p0Choice + 1 */\n      tag_158\n      swap2\n      swap1\n      tag_84\n      jump\t// in\n    tag_158:\n        /* \"RWAPSSF.sol\":2390:2408  (p0Choice + 1) % 7 */\n      tag_159\n      swap2\n      swap1\n      tag_160\n      jump\t// in\n    tag_159:\n        /* \"RWAPSSF.sol\":2390:2420  (p0Choice + 1) % 7 == p1Choice */\n      eq\n        /* \"RWAPSSF.sol\":2390:2454  (p0Choice + 1) % 7 == p1Choice || (p0Choice + 2) % 7 == p1Choice */\n      dup1\n      tag_161\n      jumpi\n      pop\n        /* \"RWAPSSF.sol\":2446:2454  p1Choice */\n      dup3\n        /* \"RWAPSSF.sol\":2441:2442  7 */\n      0x07\n        /* \"RWAPSSF.sol\":2436:2437  2 */\n      0x02\n        /* \"RWAPSSF.sol\":2425:2433  p0Choice */\n      dup7\n        /* \"RWAPSSF.sol\":2425:2437  p0Choice + 2 */\n      tag_162\n      swap2\n      swap1\n      tag_84\n      jump\t// in\n    tag_162:\n        /* \"RWAPSSF.sol\":2424:2442  (p0Choice + 2) % 7 */\n      tag_163\n      swap2\n      swap1\n      tag_160\n      jump\t// in\n    tag_163:\n        /* \"RWAPSSF.sol\":2424:2454  (p0Choice + 2) % 7 == p1Choice */\n      eq\n        /* \"RWAPSSF.sol\":2390:2454  (p0Choice + 1) % 7 == p1Choice || (p0Choice + 2) % 7 == p1Choice */\n    tag_161:\n        /* \"RWAPSSF.sol\":2390:2488  (p0Choice + 1) % 7 == p1Choice || (p0Choice + 2) % 7 == p1Choice || (p0Choice + 3) % 7 == p1Choice */\n      dup1\n      tag_164\n      jumpi\n      pop\n        /* \"RWAPSSF.sol\":2480:2488  p1Choice */\n      dup3\n        /* \"RWAPSSF.sol\":2475:2476  7 */\n      0x07\n        /* \"RWAPSSF.sol\":2470:2471  3 */\n      0x03\n        /* \"RWAPSSF.sol\":2459:2467  p0Choice */\n      dup7\n        /* \"RWAPSSF.sol\":2459:2471  p0Choice + 3 */\n      tag_165\n      swap2\n      swap1\n      tag_84\n      jump\t// in\n    tag_165:\n        /* \"RWAPSSF.sol\":2458:2476  (p0Choice + 3) % 7 */\n      tag_166\n      swap2\n      swap1\n      tag_160\n      jump\t// in\n    tag_166:\n        /* \"RWAPSSF.sol\":2458:2488  (p0Choice + 3) % 7 == p1Choice */\n      eq\n        /* \"RWAPSSF.sol\":2390:2488  (p0Choice + 1) % 7 == p1Choice || (p0Choice + 2) % 7 == p1Choice || (p0Choice + 3) % 7 == p1Choice */\n    tag_164:\n        /* \"RWAPSSF.sol\":2386:2810  if ((p0Choice + 1) % 7 == p1Choice || (p0Choice + 2) % 7 == p1Choice || (p0Choice + 3) % 7 == p1Choice) {... */\n      iszero\n      tag_167\n      jumpi\n        /* \"RWAPSSF.sol\":2505:2513  account1 */\n      dup1\n        /* \"RWAPSSF.sol\":2505:2522  account1.transfer */\n      0xffffffffffffffffffffffffffffffffffffffff\n      and\n        /* \"RWAPSSF.sol\":2505:2530  account1.transfer(reward) */\n      0x08fc\n        /* \"RWAPSSF.sol\":2523:2529  reward */\n      sload(0x05)\n        /* \"RWAPSSF.sol\":2505:2530  account1.transfer(reward) */\n      swap1\n      dup2\n      iszero\n      mul\n      swap1\n      mload(0x40)\n      0x00\n      mload(0x40)\n      dup1\n      dup4\n      sub\n      dup2\n      dup6\n      dup9\n      dup9\n      call\n      swap4\n      pop\n      pop\n      pop\n      pop\n      iszero\n      dup1\n      iszero\n      tag_169\n      jumpi\n      returndatasize\n      0x00\n      dup1\n      returndatacopy\n      revert(0x00, returndatasize)\n    tag_169:\n      pop\n        /* \"RWAPSSF.sol\":2386:2810  if ((p0Choice + 1) % 7 == p1Choice || (p0Choice + 2) % 7 == p1Choice || (p0Choice + 3) % 7 == p1Choice) {... */\n      jump(tag_170)\n    tag_167:\n        /* \"RWAPSSF.sol\":2574:2582  p0Choice */\n      dup4\n        /* \"RWAPSSF.sol\":2569:2570  7 */\n      0x07\n        /* \"RWAPSSF.sol\":2564:2565  1 */\n      0x01\n        /* \"RWAPSSF.sol\":2553:2561  p1Choice */\n      dup6\n        /* \"RWAPSSF.sol\":2553:2565  p1Choice + 1 */\n      tag_171\n      swap2\n      swap1\n      tag_84\n      jump\t// in\n    tag_171:\n        /* \"RWAPSSF.sol\":2552:2570  (p1Choice + 1) % 7 */\n      tag_172\n      swap2\n      swap1\n      tag_160\n      jump\t// in\n    tag_172:\n        /* \"RWAPSSF.sol\":2552:2582  (p1Choice + 1) % 7 == p0Choice */\n      eq\n        /* \"RWAPSSF.sol\":2552:2616  (p1Choice + 1) % 7 == p0Choice || (p1Choice + 2) % 7 == p0Choice */\n      dup1\n      tag_173\n      jumpi\n      pop\n        /* \"RWAPSSF.sol\":2608:2616  p0Choice */\n      dup4\n        /* \"RWAPSSF.sol\":2603:2604  7 */\n      0x07\n        /* \"RWAPSSF.sol\":2598:2599  2 */\n      0x02\n        /* \"RWAPSSF.sol\":2587:2595  p1Choice */\n      dup6\n        /* \"RWAPSSF.sol\":2587:2599  p1Choice + 2 */\n      tag_174\n      swap2\n      swap1\n      tag_84\n      jump\t// in\n    tag_174:\n        /* \"RWAPSSF.sol\":2586:2604  (p1Choice + 2) % 7 */\n      tag_175\n      swap2\n      swap1\n      tag_160\n      jump\t// in\n    tag_175:\n        /* \"RWAPSSF.sol\":2586:2616  (p1Choice + 2) % 7 == p0Choice */\n      eq\n        /* \"RWAPSSF.sol\":2552:2616  (p1Choice + 1) % 7 == p0Choice || (p1Choice + 2) % 7 == p0Choice */\n    tag_173:\n        /* \"RWAPSSF.sol\":2552:2650  (p1Choice + 1) % 7 == p0Choice || (p1Choice + 2) % 7 == p0Choice || (p1Choice + 3) % 7 == p0Choice */\n      dup1\n      tag_176\n      jumpi\n      pop\n        /* \"RWAPSSF.sol\":2642:2650  p0Choice */\n      dup4\n        /* \"RWAPSSF.sol\":2637:2638  7 */\n      0x07\n        /* \"RWAPSSF.sol\":2632:2633  3 */\n      0x03\n        /* \"RWAPSSF.sol\":2621:2629  p1Choice */\n      dup6\n        /* \"RWAPSSF.sol\":2621:2633  p1Choice + 3 */\n      tag_177\n      swap2\n      swap1\n      tag_84\n      jump\t// in\n    tag_177:\n        /* \"RWAPSSF.sol\":2620:2638  (p1Choice + 3) % 7 */\n      tag_178\n      swap2\n      swap1\n      tag_160\n      jump\t// in\n    tag_178:\n        /* \"RWAPSSF.sol\":2620:2650  (p1Choice + 3) % 7 == p0Choice */\n      eq\n        /* \"RWAPSSF.sol\":2552:2650  (p1Choice + 1) % 7 == p0Choice || (p1Choice + 2) % 7 == p0Choice || (p1Choice + 3) % 7 == p0Choice */\n    tag_176:\n        /* \"RWAPSSF.sol\":2548:2810  if ((p1Choice + 1) % 7 == p0Choice || (p1Choice + 2) % 7 == p0Choice || (p1Choice + 3) % 7 == p0Choice) {... */\n      iszero\n      tag_179\n      jumpi\n        /* \"RWAPSSF.sol\":2667:2675  account0 */\n      dup2\n        /* \"RWAPSSF.sol\":2667:2684  account0.transfer */\n      0xffffffffffffffffffffffffffffffffffffffff\n      and\n        /* \"RWAPSSF.sol\":2667:2692  account0.transfer(reward) */\n      0x08fc\n        /* \"RWAPSSF.sol\":2685:2691  reward */\n      sload(0x05)\n        /* \"RWAPSSF.sol\":2667:2692  account0.transfer(reward) */\n      swap1\n      dup2\n      iszero\n      mul\n      swap1\n      mload(0x40)\n      0x00\n      mload(0x40)\n      dup1\n      dup4\n      sub\n      dup2\n      dup6\n      dup9\n      dup9\n      call\n      swap4\n      pop\n      pop\n      pop\n      pop\n      iszero\n      dup1\n      iszero\n      tag_181\n      jumpi\n      returndatasize\n      0x00\n      dup1\n      returndatacopy\n      revert(0x00, returndatasize)\n    tag_181:\n      pop\n        /* \"RWAPSSF.sol\":2548:2810  if ((p1Choice + 1) % 7 == p0Choice || (p1Choice + 2) % 7 == p0Choice || (p1Choice + 3) % 7 == p0Choice) {... */\n      jump(tag_182)\n    tag_179:\n        /* \"RWAPSSF.sol\":2725:2733  account0 */\n      dup2\n        /* \"RWAPSSF.sol\":2725:2742  account0.transfer */\n      0xffffffffffffffffffffffffffffffffffffffff\n      and\n        /* \"RWAPSSF.sol\":2725:2754  account0.transfer(reward / 2) */\n      0x08fc\n        /* \"RWAPSSF.sol\":2752:2753  2 */\n      0x02\n        /* \"RWAPSSF.sol\":2743:2749  reward */\n      sload(0x05)\n        /* \"RWAPSSF.sol\":2743:2753  reward / 2 */\n      tag_183\n      swap2\n      swap1\n      tag_184\n      jump\t// in\n    tag_183:\n        /* \"RWAPSSF.sol\":2725:2754  account0.transfer(reward / 2) */\n      swap1\n      dup2\n      iszero\n      mul\n      swap1\n      mload(0x40)\n      0x00\n      mload(0x40)\n      dup1\n      dup4\n      sub\n      dup2\n      dup6\n      dup9\n      dup9\n      call\n      swap4\n      pop\n      pop\n      pop\n      pop\n      iszero\n      dup1\n      iszero\n      tag_186\n      jumpi\n      returndatasize\n      0x00\n      dup1\n      returndatacopy\n      revert(0x00, returndatasize)\n    tag_186:\n      pop\n        /* \"RWAPSSF.sol\":2769:2777  account1 */\n      dup1\n        /* \"RWAPSSF.sol\":2769:2786  account1.transfer */\n      0xffffffffffffffffffffffffffffffffffffffff\n      and\n        /* \"RWAPSSF.sol\":2769:2798  account1.transfer(reward / 2) */\n      0x08fc\n        /* \"RWAPSSF.sol\":2796:2797  2 */\n      0x02\n        /* \"RWAPSSF.sol\":2787:2793  reward */\n      sload(0x05)\n        /* \"RWAPSSF.sol\":2787:2797  reward / 2 */\n      tag_187\n      swap2\n      swap1\n      tag_184\n      jump\t// in\n    tag_187:\n        /* \"RWAPSSF.sol\":2769:2798  account1.transfer(reward / 2) */\n      swap1\n      dup2\n      iszero\n      mul\n      swap1\n      mload(0x40)\n      0x00\n      mload(0x40)\n      dup1\n      dup4\n      sub\n      dup2\n      dup6\n      dup9\n      dup9\n      call\n      swap4\n      pop\n      pop\n      pop\n      pop\n      iszero\n      dup1\n      iszero\n      tag_189\n      jumpi\n      returndatasize\n      0x00\n      dup1\n      returndatacopy\n      revert(0x00, returndatasize)\n    tag_189:\n      pop\n        /* \"RWAPSSF.sol\":2548:2810  if ((p1Choice + 1) % 7 == p0Choice || (p1Choice + 2) % 7 == p0Choice || (p1Choice + 3) % 7 == p0Choice) {... */\n    tag_182:\n        /* \"RWAPSSF.sol\":2386:2810  if ((p0Choice + 1) % 7 == p1Choice || (p0Choice + 2) % 7 == p1Choice || (p0Choice + 3) % 7 == p1Choice) {... */\n    tag_170:\n        /* \"RWAPSSF.sol\":2846:2861  block.timestamp */\n      timestamp\n        /* \"RWAPSSF.sol\":2822:2843  latestActionTimestamp */\n      0x08\n        /* \"RWAPSSF.sol\":2822:2861  latestActionTimestamp = block.timestamp */\n      dup2\n      swap1\n      sstore\n      pop\n        /* \"RWAPSSF.sol\":2872:2880  _reset() */\n      tag_190\n        /* \"RWAPSSF.sol\":2872:2878  _reset */\n      tag_96\n        /* \"RWAPSSF.sol\":2872:2880  _reset() */\n      jump\t// in\n    tag_190:\n        /* \"RWAPSSF.sol\":2161:2888  {... */\n      pop\n      pop\n      pop\n      pop\n        /* \"RWAPSSF.sol\":2123:2888  function _checkWinnerAndPay() private {... */\n      jump\t// out\n        /* \"CommitReveal.sol\":1066:1218  function getSaltedHash(bytes32 data,bytes32 salt) internal view returns(bytes32){... */\n    tag_137:\n        /* \"CommitReveal.sol\":1138:1145  bytes32 */\n      0x00\n        /* \"CommitReveal.sol\":1194:1198  this */\n      address\n        /* \"CommitReveal.sol\":1201:1205  data */\n      dup4\n        /* \"CommitReveal.sol\":1207:1211  salt */\n      dup4\n        /* \"CommitReveal.sol\":1169:1212  abi.encodePacked(address(this), data, salt) */\n      add(0x20, mload(0x40))\n      tag_192\n      swap4\n      swap3\n      swap2\n      swap1\n      tag_193\n      jump\t// in\n    tag_192:\n      mload(0x40)\n      0x20\n      dup2\n      dup4\n      sub\n      sub\n      dup2\n      mstore\n      swap1\n      0x40\n      mstore\n        /* \"CommitReveal.sol\":1159:1213  keccak256(abi.encodePacked(address(this), data, salt)) */\n      dup1\n      mload\n      swap1\n      0x20\n      add\n      keccak256\n        /* \"CommitReveal.sol\":1152:1213  return keccak256(abi.encodePacked(address(this), data, salt)) */\n      swap1\n      pop\n        /* \"CommitReveal.sol\":1066:1218  function getSaltedHash(bytes32 data,bytes32 salt) internal view returns(bytes32){... */\n      swap3\n      swap2\n      pop\n      pop\n      jump\t// out\n        /* \"CommitReveal.sol\":237:430  function commit(bytes32 dataHash) internal {... */\n    tag_144:\n        /* \"CommitReveal.sol\":315:323  dataHash */\n      dup1\n        /* \"CommitReveal.sol\":286:293  commits */\n      0x01\n        /* \"CommitReveal.sol\":286:305  commits[msg.sender] */\n      0x00\n        /* \"CommitReveal.sol\":294:304  msg.sender */\n      caller\n        /* \"CommitReveal.sol\":286:305  commits[msg.sender] */\n      0xffffffffffffffffffffffffffffffffffffffff\n      and\n      0xffffffffffffffffffffffffffffffffffffffff\n      and\n      dup2\n      mstore\n      0x20\n      add\n      swap1\n      dup2\n      mstore\n      0x20\n      add\n      0x00\n      keccak256\n        /* \"CommitReveal.sol\":286:312  commits[msg.sender].commit */\n      0x00\n      add\n        /* \"CommitReveal.sol\":286:323  commits[msg.sender].commit = dataHash */\n      dup2\n      swap1\n      sstore\n      pop\n        /* \"CommitReveal.sol\":360:365  false */\n      0x00\n        /* \"CommitReveal.sol\":329:336  commits */\n      0x01\n        /* \"CommitReveal.sol\":329:348  commits[msg.sender] */\n      0x00\n        /* \"CommitReveal.sol\":337:347  msg.sender */\n      caller\n        /* \"CommitReveal.sol\":329:348  commits[msg.sender] */\n      0xffffffffffffffffffffffffffffffffffffffff\n      and\n      0xffffffffffffffffffffffffffffffffffffffff\n      and\n      dup2\n      mstore\n      0x20\n      add\n      swap1\n      dup2\n      mstore\n      0x20\n      add\n      0x00\n      keccak256\n        /* \"CommitReveal.sol\":329:357  commits[msg.sender].revealed */\n      0x01\n      add\n      0x00\n        /* \"CommitReveal.sol\":329:365  commits[msg.sender].revealed = false */\n      0x0100\n      exp\n      dup2\n      sload\n      dup2\n      0xff\n      mul\n      not\n      and\n      swap1\n      dup4\n      iszero\n      iszero\n      mul\n      or\n      swap1\n      sstore\n      pop\n        /* \"CommitReveal.sol\":376:425  CommitHash(msg.sender,commits[msg.sender].commit) */\n      0xc38ed506edc9404e14f0bb335345918b4d4798a17868c1948c4d3e3f8add6440\n        /* \"CommitReveal.sol\":387:397  msg.sender */\n      caller\n        /* \"CommitReveal.sol\":398:405  commits */\n      0x01\n        /* \"CommitReveal.sol\":398:417  commits[msg.sender] */\n      0x00\n        /* \"CommitReveal.sol\":406:416  msg.sender */\n      caller\n        /* \"CommitReveal.sol\":398:417  commits[msg.sender] */\n      0xffffffffffffffffffffffffffffffffffffffff\n      and\n      0xffffffffffffffffffffffffffffffffffffffff\n      and\n      dup2\n      mstore\n      0x20\n      add\n      swap1\n      dup2\n      mstore\n      0x20\n      add\n      0x00\n      keccak256\n        /* \"CommitReveal.sol\":398:424  commits[msg.sender].commit */\n      0x00\n      add\n      sload\n        /* \"CommitReveal.sol\":376:425  CommitHash(msg.sender,commits[msg.sender].commit) */\n      mload(0x40)\n      tag_195\n      swap3\n      swap2\n      swap1\n      tag_196\n      jump\t// in\n    tag_195:\n      mload(0x40)\n      dup1\n      swap2\n      sub\n      swap1\n      log1\n        /* \"CommitReveal.sol\":237:430  function commit(bytes32 dataHash) internal {... */\n      pop\n      jump\t// out\n        /* \"#utility.yul\":7:84   */\n    tag_197:\n        /* \"#utility.yul\":44:51   */\n      0x00\n        /* \"#utility.yul\":73:78   */\n      dup2\n        /* \"#utility.yul\":62:78   */\n      swap1\n      pop\n        /* \"#utility.yul\":7:84   */\n      swap2\n      swap1\n      pop\n      jump\t// out\n        /* \"#utility.yul\":90:208   */\n    tag_198:\n        /* \"#utility.yul\":177:201   */\n      tag_231\n        /* \"#utility.yul\":195:200   */\n      dup2\n        /* \"#utility.yul\":177:201   */\n      tag_197\n      jump\t// in\n    tag_231:\n        /* \"#utility.yul\":172:175   */\n      dup3\n        /* \"#utility.yul\":165:202   */\n      mstore\n        /* \"#utility.yul\":90:208   */\n      pop\n      pop\n      jump\t// out\n        /* \"#utility.yul\":214:436   */\n    tag_26:\n        /* \"#utility.yul\":307:311   */\n      0x00\n        /* \"#utility.yul\":345:347   */\n      0x20\n        /* \"#utility.yul\":334:343   */\n      dup3\n        /* \"#utility.yul\":330:348   */\n      add\n        /* \"#utility.yul\":322:348   */\n      swap1\n      pop\n        /* \"#utility.yul\":358:429   */\n      tag_233\n        /* \"#utility.yul\":426:427   */\n      0x00\n        /* \"#utility.yul\":415:424   */\n      dup4\n        /* \"#utility.yul\":411:428   */\n      add\n        /* \"#utility.yul\":402:408   */\n      dup5\n        /* \"#utility.yul\":358:429   */\n      tag_198\n      jump\t// in\n    tag_233:\n        /* \"#utility.yul\":214:436   */\n      swap3\n      swap2\n      pop\n      pop\n      jump\t// out\n        /* \"#utility.yul\":523:640   */\n    tag_200:\n        /* \"#utility.yul\":632:633   */\n      0x00\n        /* \"#utility.yul\":629:630   */\n      dup1\n        /* \"#utility.yul\":622:634   */\n      revert\n        /* \"#utility.yul\":769:891   */\n    tag_202:\n        /* \"#utility.yul\":842:866   */\n      tag_238\n        /* \"#utility.yul\":860:865   */\n      dup2\n        /* \"#utility.yul\":842:866   */\n      tag_197\n      jump\t// in\n    tag_238:\n        /* \"#utility.yul\":835:840   */\n      dup2\n        /* \"#utility.yul\":832:867   */\n      eq\n        /* \"#utility.yul\":822:885   */\n      tag_239\n      jumpi\n        /* \"#utility.yul\":881:882   */\n      0x00\n        /* \"#utility.yul\":878:879   */\n      dup1\n        /* \"#utility.yul\":871:883   */\n      revert\n        /* \"#utility.yul\":822:885   */\n    tag_239:\n        /* \"#utility.yul\":769:891   */\n      pop\n      jump\t// out\n        /* \"#utility.yul\":897:1036   */\n    tag_203:\n        /* \"#utility.yul\":943:948   */\n      0x00\n        /* \"#utility.yul\":981:987   */\n      dup2\n        /* \"#utility.yul\":968:988   */\n      calldataload\n        /* \"#utility.yul\":959:988   */\n      swap1\n      pop\n        /* \"#utility.yul\":997:1030   */\n      tag_241\n        /* \"#utility.yul\":1024:1029   */\n      dup2\n        /* \"#utility.yul\":997:1030   */\n      tag_202\n      jump\t// in\n    tag_241:\n        /* \"#utility.yul\":897:1036   */\n      swap3\n      swap2\n      pop\n      pop\n      jump\t// out\n        /* \"#utility.yul\":1042:1516   */\n    tag_32:\n        /* \"#utility.yul\":1110:1116   */\n      0x00\n        /* \"#utility.yul\":1118:1124   */\n      dup1\n        /* \"#utility.yul\":1167:1169   */\n      0x40\n        /* \"#utility.yul\":1155:1164   */\n      dup4\n        /* \"#utility.yul\":1146:1153   */\n      dup6\n        /* \"#utility.yul\":1142:1165   */\n      sub\n        /* \"#utility.yul\":1138:1170   */\n      slt\n        /* \"#utility.yul\":1135:1254   */\n      iszero\n      tag_243\n      jumpi\n        /* \"#utility.yul\":1173:1252   */\n      tag_244\n      tag_200\n      jump\t// in\n    tag_244:\n        /* \"#utility.yul\":1135:1254   */\n    tag_243:\n        /* \"#utility.yul\":1293:1294   */\n      0x00\n        /* \"#utility.yul\":1318:1371   */\n      tag_245\n        /* \"#utility.yul\":1363:1370   */\n      dup6\n        /* \"#utility.yul\":1354:1360   */\n      dup3\n        /* \"#utility.yul\":1343:1352   */\n      dup7\n        /* \"#utility.yul\":1339:1361   */\n      add\n        /* \"#utility.yul\":1318:1371   */\n      tag_203\n      jump\t// in\n    tag_245:\n        /* \"#utility.yul\":1308:1371   */\n      swap3\n      pop\n        /* \"#utility.yul\":1264:1381   */\n      pop\n        /* \"#utility.yul\":1420:1422   */\n      0x20\n        /* \"#utility.yul\":1446:1499   */\n      tag_246\n        /* \"#utility.yul\":1491:1498   */\n      dup6\n        /* \"#utility.yul\":1482:1488   */\n      dup3\n        /* \"#utility.yul\":1471:1480   */\n      dup7\n        /* \"#utility.yul\":1467:1489   */\n      add\n        /* \"#utility.yul\":1446:1499   */\n      tag_203\n      jump\t// in\n    tag_246:\n        /* \"#utility.yul\":1436:1499   */\n      swap2\n      pop\n        /* \"#utility.yul\":1391:1509   */\n      pop\n        /* \"#utility.yul\":1042:1516   */\n      swap3\n      pop\n      swap3\n      swap1\n      pop\n      jump\t// out\n        /* \"#utility.yul\":1522:1599   */\n    tag_204:\n        /* \"#utility.yul\":1559:1566   */\n      0x00\n        /* \"#utility.yul\":1588:1593   */\n      dup2\n        /* \"#utility.yul\":1577:1593   */\n      swap1\n      pop\n        /* \"#utility.yul\":1522:1599   */\n      swap2\n      swap1\n      pop\n      jump\t// out\n        /* \"#utility.yul\":1605:1723   */\n    tag_205:\n        /* \"#utility.yul\":1692:1716   */\n      tag_249\n        /* \"#utility.yul\":1710:1715   */\n      dup2\n        /* \"#utility.yul\":1692:1716   */\n      tag_204\n      jump\t// in\n    tag_249:\n        /* \"#utility.yul\":1687:1690   */\n      dup3\n        /* \"#utility.yul\":1680:1717   */\n      mstore\n        /* \"#utility.yul\":1605:1723   */\n      pop\n      pop\n      jump\t// out\n        /* \"#utility.yul\":1729:1951   */\n    tag_43:\n        /* \"#utility.yul\":1822:1826   */\n      0x00\n        /* \"#utility.yul\":1860:1862   */\n      0x20\n        /* \"#utility.yul\":1849:1858   */\n      dup3\n        /* \"#utility.yul\":1845:1863   */\n      add\n        /* \"#utility.yul\":1837:1863   */\n      swap1\n      pop\n        /* \"#utility.yul\":1873:1944   */\n      tag_251\n        /* \"#utility.yul\":1941:1942   */\n      0x00\n        /* \"#utility.yul\":1930:1939   */\n      dup4\n        /* \"#utility.yul\":1926:1943   */\n      add\n        /* \"#utility.yul\":1917:1923   */\n      dup5\n        /* \"#utility.yul\":1873:1944   */\n      tag_205\n      jump\t// in\n    tag_251:\n        /* \"#utility.yul\":1729:1951   */\n      swap3\n      swap2\n      pop\n      pop\n      jump\t// out\n        /* \"#utility.yul\":1957:2286   */\n    tag_59:\n        /* \"#utility.yul\":2016:2022   */\n      0x00\n        /* \"#utility.yul\":2065:2067   */\n      0x20\n        /* \"#utility.yul\":2053:2062   */\n      dup3\n        /* \"#utility.yul\":2044:2051   */\n      dup5\n        /* \"#utility.yul\":2040:2063   */\n      sub\n        /* \"#utility.yul\":2036:2068   */\n      slt\n        /* \"#utility.yul\":2033:2152   */\n      iszero\n      tag_253\n      jumpi\n        /* \"#utility.yul\":2071:2150   */\n      tag_254\n      tag_200\n      jump\t// in\n    tag_254:\n        /* \"#utility.yul\":2033:2152   */\n    tag_253:\n        /* \"#utility.yul\":2191:2192   */\n      0x00\n        /* \"#utility.yul\":2216:2269   */\n      tag_255\n        /* \"#utility.yul\":2261:2268   */\n      dup5\n        /* \"#utility.yul\":2252:2258   */\n      dup3\n        /* \"#utility.yul\":2241:2250   */\n      dup6\n        /* \"#utility.yul\":2237:2259   */\n      add\n        /* \"#utility.yul\":2216:2269   */\n      tag_203\n      jump\t// in\n    tag_255:\n        /* \"#utility.yul\":2206:2269   */\n      swap2\n      pop\n        /* \"#utility.yul\":2162:2279   */\n      pop\n        /* \"#utility.yul\":1957:2286   */\n      swap3\n      swap2\n      pop\n      pop\n      jump\t// out\n        /* \"#utility.yul\":2292:2418   */\n    tag_206:\n        /* \"#utility.yul\":2329:2336   */\n      0x00\n        /* \"#utility.yul\":2369:2411   */\n      0xffffffffffffffffffffffffffffffffffffffff\n        /* \"#utility.yul\":2362:2367   */\n      dup3\n        /* \"#utility.yul\":2358:2412   */\n      and\n        /* \"#utility.yul\":2347:2412   */\n      swap1\n      pop\n        /* \"#utility.yul\":2292:2418   */\n      swap2\n      swap1\n      pop\n      jump\t// out\n        /* \"#utility.yul\":2424:2520   */\n    tag_207:\n        /* \"#utility.yul\":2461:2468   */\n      0x00\n        /* \"#utility.yul\":2490:2514   */\n      tag_258\n        /* \"#utility.yul\":2508:2513   */\n      dup3\n        /* \"#utility.yul\":2490:2514   */\n      tag_206\n      jump\t// in\n    tag_258:\n        /* \"#utility.yul\":2479:2514   */\n      swap1\n      pop\n        /* \"#utility.yul\":2424:2520   */\n      swap2\n      swap1\n      pop\n      jump\t// out\n        /* \"#utility.yul\":2526:2644   */\n    tag_208:\n        /* \"#utility.yul\":2613:2637   */\n      tag_260\n        /* \"#utility.yul\":2631:2636   */\n      dup2\n        /* \"#utility.yul\":2613:2637   */\n      tag_207\n      jump\t// in\n    tag_260:\n        /* \"#utility.yul\":2608:2611   */\n      dup3\n        /* \"#utility.yul\":2601:2638   */\n      mstore\n        /* \"#utility.yul\":2526:2644   */\n      pop\n      pop\n      jump\t// out\n        /* \"#utility.yul\":2650:3092   */\n    tag_62:\n        /* \"#utility.yul\":2799:2803   */\n      0x00\n        /* \"#utility.yul\":2837:2839   */\n      0x60\n        /* \"#utility.yul\":2826:2835   */\n      dup3\n        /* \"#utility.yul\":2822:2840   */\n      add\n        /* \"#utility.yul\":2814:2840   */\n      swap1\n      pop\n        /* \"#utility.yul\":2850:2921   */\n      tag_262\n        /* \"#utility.yul\":2918:2919   */\n      0x00\n        /* \"#utility.yul\":2907:2916   */\n      dup4\n        /* \"#utility.yul\":2903:2920   */\n      add\n        /* \"#utility.yul\":2894:2900   */\n      dup7\n        /* \"#utility.yul\":2850:2921   */\n      tag_198\n      jump\t// in\n    tag_262:\n        /* \"#utility.yul\":2931:3003   */\n      tag_263\n        /* \"#utility.yul\":2999:3001   */\n      0x20\n        /* \"#utility.yul\":2988:2997   */\n      dup4\n        /* \"#utility.yul\":2984:3002   */\n      add\n        /* \"#utility.yul\":2975:2981   */\n      dup6\n        /* \"#utility.yul\":2931:3003   */\n      tag_208\n      jump\t// in\n    tag_263:\n        /* \"#utility.yul\":3013:3085   */\n      tag_264\n        /* \"#utility.yul\":3081:3083   */\n      0x40\n        /* \"#utility.yul\":3070:3079   */\n      dup4\n        /* \"#utility.yul\":3066:3084   */\n      add\n        /* \"#utility.yul\":3057:3063   */\n      dup5\n        /* \"#utility.yul\":3013:3085   */\n      tag_198\n      jump\t// in\n    tag_264:\n        /* \"#utility.yul\":2650:3092   */\n      swap5\n      swap4\n      pop\n      pop\n      pop\n      pop\n      jump\t// out\n        /* \"#utility.yul\":3098:3220   */\n    tag_209:\n        /* \"#utility.yul\":3171:3195   */\n      tag_266\n        /* \"#utility.yul\":3189:3194   */\n      dup2\n        /* \"#utility.yul\":3171:3195   */\n      tag_207\n      jump\t// in\n    tag_266:\n        /* \"#utility.yul\":3164:3169   */\n      dup2\n        /* \"#utility.yul\":3161:3196   */\n      eq\n        /* \"#utility.yul\":3151:3214   */\n      tag_267\n      jumpi\n        /* \"#utility.yul\":3210:3211   */\n      0x00\n        /* \"#utility.yul\":3207:3208   */\n      dup1\n        /* \"#utility.yul\":3200:3212   */\n      revert\n        /* \"#utility.yul\":3151:3214   */\n    tag_267:\n        /* \"#utility.yul\":3098:3220   */\n      pop\n      jump\t// out\n        /* \"#utility.yul\":3226:3365   */\n    tag_210:\n        /* \"#utility.yul\":3272:3277   */\n      0x00\n        /* \"#utility.yul\":3310:3316   */\n      dup2\n        /* \"#utility.yul\":3297:3317   */\n      calldataload\n        /* \"#utility.yul\":3288:3317   */\n      swap1\n      pop\n        /* \"#utility.yul\":3326:3359   */\n      tag_269\n        /* \"#utility.yul\":3353:3358   */\n      dup2\n        /* \"#utility.yul\":3326:3359   */\n      tag_209\n      jump\t// in\n    tag_269:\n        /* \"#utility.yul\":3226:3365   */\n      swap3\n      swap2\n      pop\n      pop\n      jump\t// out\n        /* \"#utility.yul\":3371:3700   */\n    tag_66:\n        /* \"#utility.yul\":3430:3436   */\n      0x00\n        /* \"#utility.yul\":3479:3481   */\n      0x20\n        /* \"#utility.yul\":3467:3476   */\n      dup3\n        /* \"#utility.yul\":3458:3465   */\n      dup5\n        /* \"#utility.yul\":3454:3477   */\n      sub\n        /* \"#utility.yul\":3450:3482   */\n      slt\n        /* \"#utility.yul\":3447:3566   */\n      iszero\n      tag_271\n      jumpi\n        /* \"#utility.yul\":3485:3564   */\n      tag_272\n      tag_200\n      jump\t// in\n    tag_272:\n        /* \"#utility.yul\":3447:3566   */\n    tag_271:\n        /* \"#utility.yul\":3605:3606   */\n      0x00\n        /* \"#utility.yul\":3630:3683   */\n      tag_273\n        /* \"#utility.yul\":3675:3682   */\n      dup5\n        /* \"#utility.yul\":3666:3672   */\n      dup3\n        /* \"#utility.yul\":3655:3664   */\n      dup6\n        /* \"#utility.yul\":3651:3673   */\n      add\n        /* \"#utility.yul\":3630:3683   */\n      tag_210\n      jump\t// in\n    tag_273:\n        /* \"#utility.yul\":3620:3683   */\n      swap2\n      pop\n        /* \"#utility.yul\":3576:3693   */\n      pop\n        /* \"#utility.yul\":3371:3700   */\n      swap3\n      swap2\n      pop\n      pop\n      jump\t// out\n        /* \"#utility.yul\":3706:3828   */\n    tag_211:\n        /* \"#utility.yul\":3779:3803   */\n      tag_275\n        /* \"#utility.yul\":3797:3802   */\n      dup2\n        /* \"#utility.yul\":3779:3803   */\n      tag_204\n      jump\t// in\n    tag_275:\n        /* \"#utility.yul\":3772:3777   */\n      dup2\n        /* \"#utility.yul\":3769:3804   */\n      eq\n        /* \"#utility.yul\":3759:3822   */\n      tag_276\n      jumpi\n        /* \"#utility.yul\":3818:3819   */\n      0x00\n        /* \"#utility.yul\":3815:3816   */\n      dup1\n        /* \"#utility.yul\":3808:3820   */\n      revert\n        /* \"#utility.yul\":3759:3822   */\n    tag_276:\n        /* \"#utility.yul\":3706:3828   */\n      pop\n      jump\t// out\n        /* \"#utility.yul\":3834:3973   */\n    tag_212:\n        /* \"#utility.yul\":3880:3885   */\n      0x00\n        /* \"#utility.yul\":3918:3924   */\n      dup2\n        /* \"#utility.yul\":3905:3925   */\n      calldataload\n        /* \"#utility.yul\":3896:3925   */\n      swap1\n      pop\n        /* \"#utility.yul\":3934:3967   */\n      tag_278\n        /* \"#utility.yul\":3961:3966   */\n      dup2\n        /* \"#utility.yul\":3934:3967   */\n      tag_211\n      jump\t// in\n    tag_278:\n        /* \"#utility.yul\":3834:3973   */\n      swap3\n      swap2\n      pop\n      pop\n      jump\t// out\n        /* \"#utility.yul\":3979:4308   */\n    tag_76:\n        /* \"#utility.yul\":4038:4044   */\n      0x00\n        /* \"#utility.yul\":4087:4089   */\n      0x20\n        /* \"#utility.yul\":4075:4084   */\n      dup3\n        /* \"#utility.yul\":4066:4073   */\n      dup5\n        /* \"#utility.yul\":4062:4085   */\n      sub\n        /* \"#utility.yul\":4058:4090   */\n      slt\n        /* \"#utility.yul\":4055:4174   */\n      iszero\n      tag_280\n      jumpi\n        /* \"#utility.yul\":4093:4172   */\n      tag_281\n      tag_200\n      jump\t// in\n    tag_281:\n        /* \"#utility.yul\":4055:4174   */\n    tag_280:\n        /* \"#utility.yul\":4213:4214   */\n      0x00\n        /* \"#utility.yul\":4238:4291   */\n      tag_282\n        /* \"#utility.yul\":4283:4290   */\n      dup5\n        /* \"#utility.yul\":4274:4280   */\n      dup3\n        /* \"#utility.yul\":4263:4272   */\n      dup6\n        /* \"#utility.yul\":4259:4281   */\n      add\n        /* \"#utility.yul\":4238:4291   */\n      tag_212\n      jump\t// in\n    tag_282:\n        /* \"#utility.yul\":4228:4291   */\n      swap2\n      pop\n        /* \"#utility.yul\":4184:4301   */\n      pop\n        /* \"#utility.yul\":3979:4308   */\n      swap3\n      swap2\n      pop\n      pop\n      jump\t// out\n        /* \"#utility.yul\":4314:4494   */\n    tag_213:\n        /* \"#utility.yul\":4362:4439   */\n      0x4e487b7100000000000000000000000000000000000000000000000000000000\n        /* \"#utility.yul\":4359:4360   */\n      0x00\n        /* \"#utility.yul\":4352:4440   */\n      mstore\n        /* \"#utility.yul\":4459:4463   */\n      0x11\n        /* \"#utility.yul\":4456:4457   */\n      0x04\n        /* \"#utility.yul\":4449:4464   */\n      mstore\n        /* \"#utility.yul\":4483:4487   */\n      0x24\n        /* \"#utility.yul\":4480:4481   */\n      0x00\n        /* \"#utility.yul\":4473:4488   */\n      revert\n        /* \"#utility.yul\":4500:4691   */\n    tag_84:\n        /* \"#utility.yul\":4540:4543   */\n      0x00\n        /* \"#utility.yul\":4559:4579   */\n      tag_285\n        /* \"#utility.yul\":4577:4578   */\n      dup3\n        /* \"#utility.yul\":4559:4579   */\n      tag_197\n      jump\t// in\n    tag_285:\n        /* \"#utility.yul\":4554:4579   */\n      swap2\n      pop\n        /* \"#utility.yul\":4593:4613   */\n      tag_286\n        /* \"#utility.yul\":4611:4612   */\n      dup4\n        /* \"#utility.yul\":4593:4613   */\n      tag_197\n      jump\t// in\n    tag_286:\n        /* \"#utility.yul\":4588:4613   */\n      swap3\n      pop\n        /* \"#utility.yul\":4636:4637   */\n      dup3\n        /* \"#utility.yul\":4633:4634   */\n      dup3\n        /* \"#utility.yul\":4629:4638   */\n      add\n        /* \"#utility.yul\":4622:4638   */\n      swap1\n      pop\n        /* \"#utility.yul\":4657:4660   */\n      dup1\n        /* \"#utility.yul\":4654:4655   */\n      dup3\n        /* \"#utility.yul\":4651:4661   */\n      gt\n        /* \"#utility.yul\":4648:4684   */\n      iszero\n      tag_287\n      jumpi\n        /* \"#utility.yul\":4664:4682   */\n      tag_288\n      tag_213\n      jump\t// in\n    tag_288:\n        /* \"#utility.yul\":4648:4684   */\n    tag_287:\n        /* \"#utility.yul\":4500:4691   */\n      swap3\n      swap2\n      pop\n      pop\n      jump\t// out\n        /* \"#utility.yul\":4697:4866   */\n    tag_214:\n        /* \"#utility.yul\":4781:4792   */\n      0x00\n        /* \"#utility.yul\":4815:4821   */\n      dup3\n        /* \"#utility.yul\":4810:4813   */\n      dup3\n        /* \"#utility.yul\":4803:4822   */\n      mstore\n        /* \"#utility.yul\":4855:4859   */\n      0x20\n        /* \"#utility.yul\":4850:4853   */\n      dup3\n        /* \"#utility.yul\":4846:4860   */\n      add\n        /* \"#utility.yul\":4831:4860   */\n      swap1\n      pop\n        /* \"#utility.yul\":4697:4866   */\n      swap3\n      swap2\n      pop\n      pop\n      jump\t// out\n        /* \"#utility.yul\":4872:5046   */\n    tag_215:\n        /* \"#utility.yul\":5012:5038   */\n      0x54696d6520686173206e6f742072616e206f7574207965740000000000000000\n        /* \"#utility.yul\":5008:5009   */\n      0x00\n        /* \"#utility.yul\":5000:5006   */\n      dup3\n        /* \"#utility.yul\":4996:5010   */\n      add\n        /* \"#utility.yul\":4989:5039   */\n      mstore\n        /* \"#utility.yul\":4872:5046   */\n      pop\n      jump\t// out\n        /* \"#utility.yul\":5052:5418   */\n    tag_216:\n        /* \"#utility.yul\":5194:5197   */\n      0x00\n        /* \"#utility.yul\":5215:5282   */\n      tag_292\n        /* \"#utility.yul\":5279:5281   */\n      0x18\n        /* \"#utility.yul\":5274:5277   */\n      dup4\n        /* \"#utility.yul\":5215:5282   */\n      tag_214\n      jump\t// in\n    tag_292:\n        /* \"#utility.yul\":5208:5282   */\n      swap2\n      pop\n        /* \"#utility.yul\":5291:5384   */\n      tag_293\n        /* \"#utility.yul\":5380:5383   */\n      dup3\n        /* \"#utility.yul\":5291:5384   */\n      tag_215\n      jump\t// in\n    tag_293:\n        /* \"#utility.yul\":5409:5411   */\n      0x20\n        /* \"#utility.yul\":5404:5407   */\n      dup3\n        /* \"#utility.yul\":5400:5412   */\n      add\n        /* \"#utility.yul\":5393:5412   */\n      swap1\n      pop\n        /* \"#utility.yul\":5052:5418   */\n      swap2\n      swap1\n      pop\n      jump\t// out\n        /* \"#utility.yul\":5424:5843   */\n    tag_87:\n        /* \"#utility.yul\":5590:5594   */\n      0x00\n        /* \"#utility.yul\":5628:5630   */\n      0x20\n        /* \"#utility.yul\":5617:5626   */\n      dup3\n        /* \"#utility.yul\":5613:5631   */\n      add\n        /* \"#utility.yul\":5605:5631   */\n      swap1\n      pop\n        /* \"#utility.yul\":5677:5686   */\n      dup2\n        /* \"#utility.yul\":5671:5675   */\n      dup2\n        /* \"#utility.yul\":5667:5687   */\n      sub\n        /* \"#utility.yul\":5663:5664   */\n      0x00\n        /* \"#utility.yul\":5652:5661   */\n      dup4\n        /* \"#utility.yul\":5648:5665   */\n      add\n        /* \"#utility.yul\":5641:5688   */\n      mstore\n        /* \"#utility.yul\":5705:5836   */\n      tag_295\n        /* \"#utility.yul\":5831:5835   */\n      dup2\n        /* \"#utility.yul\":5705:5836   */\n      tag_216\n      jump\t// in\n    tag_295:\n        /* \"#utility.yul\":5697:5836   */\n      swap1\n      pop\n        /* \"#utility.yul\":5424:5843   */\n      swap2\n      swap1\n      pop\n      jump\t// out\n        /* \"#utility.yul\":5849:6082   */\n    tag_122:\n        /* \"#utility.yul\":5888:5891   */\n      0x00\n        /* \"#utility.yul\":5911:5935   */\n      tag_297\n        /* \"#utility.yul\":5929:5934   */\n      dup3\n        /* \"#utility.yul\":5911:5935   */\n      tag_197\n      jump\t// in\n    tag_297:\n        /* \"#utility.yul\":5902:5935   */\n      swap2\n      pop\n        /* \"#utility.yul\":5957:6023   */\n      0xffffffffffffffffffffffffffffffffffffffffffffffffffffffffffffffff\n        /* \"#utility.yul\":5950:5955   */\n      dup3\n        /* \"#utility.yul\":5947:6024   */\n      sub\n        /* \"#utility.yul\":5944:6047   */\n      tag_298\n      jumpi\n        /* \"#utility.yul\":6027:6045   */\n      tag_299\n      tag_213\n      jump\t// in\n    tag_299:\n        /* \"#utility.yul\":5944:6047   */\n    tag_298:\n        /* \"#utility.yul\":6074:6075   */\n      0x01\n        /* \"#utility.yul\":6067:6072   */\n      dup3\n        /* \"#utility.yul\":6063:6076   */\n      add\n        /* \"#utility.yul\":6056:6076   */\n      swap1\n      pop\n        /* \"#utility.yul\":5849:6082   */\n      swap2\n      swap1\n      pop\n      jump\t// out\n        /* \"#utility.yul\":6088:6319   */\n    tag_217:\n        /* \"#utility.yul\":6228:6262   */\n      0x436f6d6d697452657665616c3a3a72657665616c416e737765723a20416c7265\n        /* \"#utility.yul\":6224:6225   */\n      0x00\n        /* \"#utility.yul\":6216:6222   */\n      dup3\n        /* \"#utility.yul\":6212:6226   */\n      add\n        /* \"#utility.yul\":6205:6263   */\n      mstore\n        /* \"#utility.yul\":6297:6311   */\n      0x6164792072657665616c65640000000000000000000000000000000000000000\n        /* \"#utility.yul\":6292:6294   */\n      0x20\n        /* \"#utility.yul\":6284:6290   */\n      dup3\n        /* \"#utility.yul\":6280:6295   */\n      add\n        /* \"#utility.yul\":6273:6312   */\n      mstore\n        /* \"#utility.yul\":6088:6319   */\n      pop\n      jump\t// out\n        /* \"#utility.yul\":6325:6691   */\n    tag_218:\n        /* \"#utility.yul\":6467:6470   */\n      0x00\n        /* \"#utility.yul\":6488:6555   */\n      tag_302\n        /* \"#utility.yul\":6552:6554   */\n      0x2c\n        /* \"#utility.yul\":6547:6550   */\n      dup4\n        /* \"#utility.yul\":6488:6555   */\n      tag_214\n      jump\t// in\n    tag_302:\n        /* \"#utility.yul\":6481:6555   */\n      swap2\n      pop\n        /* \"#utility.yul\":6564:6657   */\n      tag_303\n        /* \"#utility.yul\":6653:6656   */\n      dup3\n        /* \"#utility.yul\":6564:6657   */\n      tag_217\n      jump\t// in\n    tag_303:\n        /* \"#utility.yul\":6682:6684   */\n      0x40\n        /* \"#utility.yul\":6677:6680   */\n      dup3\n        /* \"#utility.yul\":6673:6685   */\n      add\n        /* \"#utility.yul\":6666:6685   */\n      swap1\n      pop\n        /* \"#utility.yul\":6325:6691   */\n      swap2\n      swap1\n      pop\n      jump\t// out\n        /* \"#utility.yul\":6697:7116   */\n    tag_150:\n        /* \"#utility.yul\":6863:6867   */\n      0x00\n        /* \"#utility.yul\":6901:6903   */\n      0x20\n        /* \"#utility.yul\":6890:6899   */\n      dup3\n        /* \"#utility.yul\":6886:6904   */\n      add\n        /* \"#utility.yul\":6878:6904   */\n      swap1\n      pop\n        /* \"#utility.yul\":6950:6959   */\n      dup2\n        /* \"#utility.yul\":6944:6948   */\n      dup2\n        /* \"#utility.yul\":6940:6960   */\n      sub\n        /* \"#utility.yul\":6936:6937   */\n      0x00\n        /* \"#utility.yul\":6925:6934   */\n      dup4\n        /* \"#utility.yul\":6921:6938   */\n      add\n        /* \"#utility.yul\":6914:6961   */\n      mstore\n        /* \"#utility.yul\":6978:7109   */\n      tag_305\n        /* \"#utility.yul\":7104:7108   */\n      dup2\n        /* \"#utility.yul\":6978:7109   */\n      tag_218\n      jump\t// in\n    tag_305:\n        /* \"#utility.yul\":6970:7109   */\n      swap1\n      pop\n        /* \"#utility.yul\":6697:7116   */\n      swap2\n      swap1\n      pop\n      jump\t// out\n        /* \"#utility.yul\":7122:7372   */\n    tag_219:\n        /* \"#utility.yul\":7262:7296   */\n      0x436f6d6d697452657665616c3a3a72657665616c416e737765723a2052657665\n        /* \"#utility.yul\":7258:7259   */\n      0x00\n        /* \"#utility.yul\":7250:7256   */\n      dup3\n        /* \"#utility.yul\":7246:7260   */\n      add\n        /* \"#utility.yul\":7239:7297   */\n      mstore\n        /* \"#utility.yul\":7331:7364   */\n      0x616c6564206861736820646f6573206e6f74206d6174636820636f6d6d697400\n        /* \"#utility.yul\":7326:7328   */\n      0x20\n        /* \"#utility.yul\":7318:7324   */\n      dup3\n        /* \"#utility.yul\":7314:7329   */\n      add\n        /* \"#utility.yul\":7307:7365   */\n      mstore\n        /* \"#utility.yul\":7122:7372   */\n      pop\n      jump\t// out\n        /* \"#utility.yul\":7378:7744   */\n    tag_220:\n        /* \"#utility.yul\":7520:7523   */\n      0x00\n        /* \"#utility.yul\":7541:7608   */\n      tag_308\n        /* \"#utility.yul\":7605:7607   */\n      0x3f\n        /* \"#utility.yul\":7600:7603   */\n      dup4\n        /* \"#utility.yul\":7541:7608   */\n      tag_214\n      jump\t// in\n    tag_308:\n        /* \"#utility.yul\":7534:7608   */\n      swap2\n      pop\n        /* \"#utility.yul\":7617:7710   */\n      tag_309\n        /* \"#utility.yul\":7706:7709   */\n      dup3\n        /* \"#utility.yul\":7617:7710   */\n      tag_219\n      jump\t// in\n    tag_309:\n        /* \"#utility.yul\":7735:7737   */\n      0x40\n        /* \"#utility.yul\":7730:7733   */\n      dup3\n        /* \"#utility.yul\":7726:7738   */\n      add\n        /* \"#utility.yul\":7719:7738   */\n      swap1\n      pop\n        /* \"#utility.yul\":7378:7744   */\n      swap2\n      swap1\n      pop\n      jump\t// out\n        /* \"#utility.yul\":7750:8169   */\n    tag_154:\n        /* \"#utility.yul\":7916:7920   */\n      0x00\n        /* \"#utility.yul\":7954:7956   */\n      0x20\n        /* \"#utility.yul\":7943:7952   */\n      dup3\n        /* \"#utility.yul\":7939:7957   */\n      add\n        /* \"#utility.yul\":7931:7957   */\n      swap1\n      pop\n        /* \"#utility.yul\":8003:8012   */\n      dup2\n        /* \"#utility.yul\":7997:8001   */\n      dup2\n        /* \"#utility.yul\":7993:8013   */\n      sub\n        /* \"#utility.yul\":7989:7990   */\n      0x00\n        /* \"#utility.yul\":7978:7987   */\n      dup4\n        /* \"#utility.yul\":7974:7991   */\n      add\n        /* \"#utility.yul\":7967:8014   */\n      mstore\n        /* \"#utility.yul\":8031:8162   */\n      tag_311\n        /* \"#utility.yul\":8157:8161   */\n      dup2\n        /* \"#utility.yul\":8031:8162   */\n      tag_220\n      jump\t// in\n    tag_311:\n        /* \"#utility.yul\":8023:8162   */\n      swap1\n      pop\n        /* \"#utility.yul\":7750:8169   */\n      swap2\n      swap1\n      pop\n      jump\t// out\n        /* \"#utility.yul\":8175:8617   */\n    tag_156:\n        /* \"#utility.yul\":8324:8328   */\n      0x00\n        /* \"#utility.yul\":8362:8364   */\n      0x60\n        /* \"#utility.yul\":8351:8360   */\n      dup3\n        /* \"#utility.yul\":8347:8365   */\n      add\n        /* \"#utility.yul\":8339:8365   */\n      swap1\n      pop\n        /* \"#utility.yul\":8375:8446   */\n      tag_313\n        /* \"#utility.yul\":8443:8444   */\n      0x00\n        /* \"#utility.yul\":8432:8441   */\n      dup4\n        /* \"#utility.yul\":8428:8445   */\n      add\n        /* \"#utility.yul\":8419:8425   */\n      dup7\n        /* \"#utility.yul\":8375:8446   */\n      tag_208\n      jump\t// in\n    tag_313:\n        /* \"#utility.yul\":8456:8528   */\n      tag_314\n        /* \"#utility.yul\":8524:8526   */\n      0x20\n        /* \"#utility.yul\":8513:8522   */\n      dup4\n        /* \"#utility.yul\":8509:8527   */\n      add\n        /* \"#utility.yul\":8500:8506   */\n      dup6\n        /* \"#utility.yul\":8456:8528   */\n      tag_205\n      jump\t// in\n    tag_314:\n        /* \"#utility.yul\":8538:8610   */\n      tag_315\n        /* \"#utility.yul\":8606:8608   */\n      0x40\n        /* \"#utility.yul\":8595:8604   */\n      dup4\n        /* \"#utility.yul\":8591:8609   */\n      add\n        /* \"#utility.yul\":8582:8588   */\n      dup5\n        /* \"#utility.yul\":8538:8610   */\n      tag_205\n      jump\t// in\n    tag_315:\n        /* \"#utility.yul\":8175:8617   */\n      swap5\n      swap4\n      pop\n      pop\n      pop\n      pop\n      jump\t// out\n        /* \"#utility.yul\":8623:8803   */\n    tag_221:\n        /* \"#utility.yul\":8671:8748   */\n      0x4e487b7100000000000000000000000000000000000000000000000000000000\n        /* \"#utility.yul\":8668:8669   */\n      0x00\n        /* \"#utility.yul\":8661:8749   */\n      mstore\n        /* \"#utility.yul\":8768:8772   */\n      0x12\n        /* \"#utility.yul\":8765:8766   */\n      0x04\n        /* \"#utility.yul\":8758:8773   */\n      mstore\n        /* \"#utility.yul\":8792:8796   */\n      0x24\n        /* \"#utility.yul\":8789:8790   */\n      0x00\n        /* \"#utility.yul\":8782:8797   */\n      revert\n        /* \"#utility.yul\":8809:8985   */\n    tag_160:\n        /* \"#utility.yul\":8841:8842   */\n      0x00\n        /* \"#utility.yul\":8858:8878   */\n      tag_318\n        /* \"#utility.yul\":8876:8877   */\n      dup3\n        /* \"#utility.yul\":8858:8878   */\n      tag_197\n      jump\t// in\n    tag_318:\n        /* \"#utility.yul\":8853:8878   */\n      swap2\n      pop\n        /* \"#utility.yul\":8892:8912   */\n      tag_319\n        /* \"#utility.yul\":8910:8911   */\n      dup4\n        /* \"#utility.yul\":8892:8912   */\n      tag_197\n      jump\t// in\n    tag_319:\n        /* \"#utility.yul\":8887:8912   */\n      swap3\n      pop\n        /* \"#utility.yul\":8931:8932   */\n      dup3\n        /* \"#utility.yul\":8921:8956   */\n      tag_320\n      jumpi\n        /* \"#utility.yul\":8936:8954   */\n      tag_321\n      tag_221\n      jump\t// in\n    tag_321:\n        /* \"#utility.yul\":8921:8956   */\n    tag_320:\n        /* \"#utility.yul\":8977:8978   */\n      dup3\n        /* \"#utility.yul\":8974:8975   */\n      dup3\n        /* \"#utility.yul\":8970:8979   */\n      mod\n        /* \"#utility.yul\":8965:8979   */\n      swap1\n      pop\n        /* \"#utility.yul\":8809:8985   */\n      swap3\n      swap2\n      pop\n      pop\n      jump\t// out\n        /* \"#utility.yul\":8991:9176   */\n    tag_184:\n        /* \"#utility.yul\":9031:9032   */\n      0x00\n        /* \"#utility.yul\":9048:9068   */\n      tag_323\n        /* \"#utility.yul\":9066:9067   */\n      dup3\n        /* \"#utility.yul\":9048:9068   */\n      tag_197\n      jump\t// in\n    tag_323:\n        /* \"#utility.yul\":9043:9068   */\n      swap2\n      pop\n        /* \"#utility.yul\":9082:9102   */\n      tag_324\n        /* \"#utility.yul\":9100:9101   */\n      dup4\n        /* \"#utility.yul\":9082:9102   */\n      tag_197\n      jump\t// in\n    tag_324:\n        /* \"#utility.yul\":9077:9102   */\n      swap3\n      pop\n        /* \"#utility.yul\":9121:9122   */\n      dup3\n        /* \"#utility.yul\":9111:9146   */\n      tag_325\n      jumpi\n        /* \"#utility.yul\":9126:9144   */\n      tag_326\n      tag_221\n      jump\t// in\n    tag_326:\n        /* \"#utility.yul\":9111:9146   */\n    tag_325:\n        /* \"#utility.yul\":9168:9169   */\n      dup3\n        /* \"#utility.yul\":9165:9166   */\n      dup3\n        /* \"#utility.yul\":9161:9170   */\n      div\n        /* \"#utility.yul\":9156:9170   */\n      swap1\n      pop\n        /* \"#utility.yul\":8991:9176   */\n      swap3\n      swap2\n      pop\n      pop\n      jump\t// out\n        /* \"#utility.yul\":9182:9276   */\n    tag_222:\n        /* \"#utility.yul\":9215:9223   */\n      0x00\n        /* \"#utility.yul\":9263:9268   */\n      dup2\n        /* \"#utility.yul\":9259:9261   */\n      0x60\n        /* \"#utility.yul\":9255:9269   */\n      shl\n        /* \"#utility.yul\":9234:9269   */\n      swap1\n      pop\n        /* \"#utility.yul\":9182:9276   */\n      swap2\n      swap1\n      pop\n      jump\t// out\n        /* \"#utility.yul\":9282:9376   */\n    tag_223:\n        /* \"#utility.yul\":9321:9328   */\n      0x00\n        /* \"#utility.yul\":9350:9370   */\n      tag_329\n        /* \"#utility.yul\":9364:9369   */\n      dup3\n        /* \"#utility.yul\":9350:9370   */\n      tag_222\n      jump\t// in\n    tag_329:\n        /* \"#utility.yul\":9339:9370   */\n      swap1\n      pop\n        /* \"#utility.yul\":9282:9376   */\n      swap2\n      swap1\n      pop\n      jump\t// out\n        /* \"#utility.yul\":9382:9482   */\n    tag_224:\n        /* \"#utility.yul\":9421:9428   */\n      0x00\n        /* \"#utility.yul\":9450:9476   */\n      tag_331\n        /* \"#utility.yul\":9470:9475   */\n      dup3\n        /* \"#utility.yul\":9450:9476   */\n      tag_223\n      jump\t// in\n    tag_331:\n        /* \"#utility.yul\":9439:9476   */\n      swap1\n      pop\n        /* \"#utility.yul\":9382:9482   */\n      swap2\n      swap1\n      pop\n      jump\t// out\n        /* \"#utility.yul\":9488:9645   */\n    tag_225:\n        /* \"#utility.yul\":9593:9638   */\n      tag_333\n        /* \"#utility.yul\":9613:9637   */\n      tag_334\n        /* \"#utility.yul\":9631:9636   */\n      dup3\n        /* \"#utility.yul\":9613:9637   */\n      tag_207\n      jump\t// in\n    tag_334:\n        /* \"#utility.yul\":9593:9638   */\n      tag_224\n      jump\t// in\n    tag_333:\n        /* \"#utility.yul\":9588:9591   */\n      dup3\n        /* \"#utility.yul\":9581:9639   */\n      mstore\n        /* \"#utility.yul\":9488:9645   */\n      pop\n      pop\n      jump\t// out\n        /* \"#utility.yul\":9651:9730   */\n    tag_226:\n        /* \"#utility.yul\":9690:9697   */\n      0x00\n        /* \"#utility.yul\":9719:9724   */\n      dup2\n        /* \"#utility.yul\":9708:9724   */\n      swap1\n      pop\n        /* \"#utility.yul\":9651:9730   */\n      swap2\n      swap1\n      pop\n      jump\t// out\n        /* \"#utility.yul\":9736:9893   */\n    tag_227:\n        /* \"#utility.yul\":9841:9886   */\n      tag_337\n        /* \"#utility.yul\":9861:9885   */\n      tag_338\n        /* \"#utility.yul\":9879:9884   */\n      dup3\n        /* \"#utility.yul\":9861:9885   */\n      tag_204\n      jump\t// in\n    tag_338:\n        /* \"#utility.yul\":9841:9886   */\n      tag_226\n      jump\t// in\n    tag_337:\n        /* \"#utility.yul\":9836:9839   */\n      dup3\n        /* \"#utility.yul\":9829:9887   */\n      mstore\n        /* \"#utility.yul\":9736:9893   */\n      pop\n      pop\n      jump\t// out\n        /* \"#utility.yul\":9899:10437   */\n    tag_193:\n        /* \"#utility.yul\":10067:10070   */\n      0x00\n        /* \"#utility.yul\":10082:10157   */\n      tag_340\n        /* \"#utility.yul\":10153:10156   */\n      dup3\n        /* \"#utility.yul\":10144:10150   */\n      dup7\n        /* \"#utility.yul\":10082:10157   */\n      tag_225\n      jump\t// in\n    tag_340:\n        /* \"#utility.yul\":10182:10184   */\n      0x14\n        /* \"#utility.yul\":10177:10180   */\n      dup3\n        /* \"#utility.yul\":10173:10185   */\n      add\n        /* \"#utility.yul\":10166:10185   */\n      swap2\n      pop\n        /* \"#utility.yul\":10195:10270   */\n      tag_341\n        /* \"#utility.yul\":10266:10269   */\n      dup3\n        /* \"#utility.yul\":10257:10263   */\n      dup6\n        /* \"#utility.yul\":10195:10270   */\n      tag_227\n      jump\t// in\n    tag_341:\n        /* \"#utility.yul\":10295:10297   */\n      0x20\n        /* \"#utility.yul\":10290:10293   */\n      dup3\n        /* \"#utility.yul\":10286:10298   */\n      add\n        /* \"#utility.yul\":10279:10298   */\n      swap2\n      pop\n        /* \"#utility.yul\":10308:10383   */\n      tag_342\n        /* \"#utility.yul\":10379:10382   */\n      dup3\n        /* \"#utility.yul\":10370:10376   */\n      dup5\n        /* \"#utility.yul\":10308:10383   */\n      tag_227\n      jump\t// in\n    tag_342:\n        /* \"#utility.yul\":10408:10410   */\n      0x20\n        /* \"#utility.yul\":10403:10406   */\n      dup3\n        /* \"#utility.yul\":10399:10411   */\n      add\n        /* \"#utility.yul\":10392:10411   */\n      swap2\n      pop\n        /* \"#utility.yul\":10428:10431   */\n      dup2\n        /* \"#utility.yul\":10421:10431   */\n      swap1\n      pop\n        /* \"#utility.yul\":9899:10437   */\n      swap5\n      swap4\n      pop\n      pop\n      pop\n      pop\n      jump\t// out\n        /* \"#utility.yul\":10443:10775   */\n    tag_196:\n        /* \"#utility.yul\":10564:10568   */\n      0x00\n        /* \"#utility.yul\":10602:10604   */\n      0x40\n        /* \"#utility.yul\":10591:10600   */\n      dup3\n        /* \"#utility.yul\":10587:10605   */\n      add\n        /* \"#utility.yul\":10579:10605   */\n      swap1\n      pop\n        /* \"#utility.yul\":10615:10686   */\n      tag_344\n        /* \"#utility.yul\":10683:10684   */\n      0x00\n        /* \"#utility.yul\":10672:10681   */\n      dup4\n        /* \"#utility.yul\":10668:10685   */\n      add\n        /* \"#utility.yul\":10659:10665   */\n      dup6\n        /* \"#utility.yul\":10615:10686   */\n      tag_208\n      jump\t// in\n    tag_344:\n        /* \"#utility.yul\":10696:10768   */\n      tag_345\n        /* \"#utility.yul\":10764:10766   */\n      0x20\n        /* \"#utility.yul\":10753:10762   */\n      dup4\n        /* \"#utility.yul\":10749:10767   */\n      add\n        /* \"#utility.yul\":10740:10746   */\n      dup5\n        /* \"#utility.yul\":10696:10768   */\n      tag_205\n      jump\t// in\n    tag_345:\n        /* \"#utility.yul\":10443:10775   */\n      swap4\n      swap3\n      pop\n      pop\n      pop\n      jump\t// out\n\n    auxdata: 0xa26469706673582212203459b65ac67464d61a8f5cdf134748a353466e0c3e400166e2e55eec38b5c3e664736f6c63430008180033\n}\n",
				"bytecode": {
					"linkReferences": {},
					"object": "608060405260645f806101000a81548160ff021916908360ff1602179055505f6004555f6005555f6006555f6007555f60085534801561003d575f80fd5b5061189a8061004b5f395ff3fe6080604052600436106100dc575f3560e01c806390d5d0c31161007e578063ae73ea6511610058578063ae73ea6514610274578063d18e81b3146102b0578063e05b10c0146102da578063f56f48f214610302576100dc565b806390d5d0c3146101e2578063929dfff21461020c5780639e0551c614610236576100dc565b806341a807e1116100ba57806341a807e11461012a57806350899a1e146101525780637661f2b11461017c57806376d4192c146101b8576100dc565b806309bbd6a0146100e0578063228cb733146100f657806327b5db8a14610120575b5f80fd5b3480156100eb575f80fd5b506100f461032c565b005b348015610101575f80fd5b5061010a6108a8565b60405161011791906112a0565b60405180910390f35b6101286108ae565b005b348015610135575f80fd5b50610150600480360381019061014b91906112e7565b6109ba565b005b34801561015d575f80fd5b50610166610b22565b60405161017391906112a0565b60405180910390f35b348015610187575f80fd5b506101a2600480360381019061019d91906112e7565b610b28565b6040516101af919061133d565b60405180910390f35b3480156101c3575f80fd5b506101cc610b4c565b6040516101d991906112a0565b60405180910390f35b3480156101ed575f80fd5b506101f6610b52565b60405161020391906112a0565b60405180910390f35b348015610217575f80fd5b50610220610b58565b60405161022d91906112a0565b60405180910390f35b348015610241575f80fd5b5061025c60048036038101906102579190611356565b610b5e565b60405161026b939291906113c0565b60405180910390f35b34801561027f575f80fd5b5061029a6004803603810190610295919061141f565b610ba3565b6040516102a791906112a0565b60405180910390f35b3480156102bb575f80fd5b506102c4610bb8565b6040516102d191906112a0565b60405180910390f35b3480156102e5575f80fd5b5061030060048036038101906102fb9190611474565b610bbf565b005b34801561030d575f80fd5b50610316610cab565b60405161032391906112a0565b60405180910390f35b600a60085461033b91906114cc565b421161037c576040517f08c379a000000000000000000000000000000000000000000000000000000000815260040161037390611559565b60405180910390fd5b60025f8081526020019081526020015f206001015f9054906101000a900473ffffffffffffffffffffffffffffffffffffffff1673ffffffffffffffffffffffffffffffffffffffff163373ffffffffffffffffffffffffffffffffffffffff161480610448575060025f600181526020019081526020015f206001015f9054906101000a900473ffffffffffffffffffffffffffffffffffffffff1673ffffffffffffffffffffffffffffffffffffffff163373ffffffffffffffffffffffffffffffffffffffff16145b610450575f80fd5b5f6004541161045d575f80fd5b5f6005541161046a575f80fd5b5f60025f8081526020019081526020015f206001015f9054906101000a900473ffffffffffffffffffffffffffffffffffffffff1690505f60025f600181526020019081526020015f206001015f9054906101000a900473ffffffffffffffffffffffffffffffffffffffff16905060026004541015610539578173ffffffffffffffffffffffffffffffffffffffff166108fc60055490811502906040515f60405180830381858888f19350505050158015610529573d5f803e3d5ffd5b50610532610cb0565b50506108a6565b600260045414610547575f80fd5b60026006541080156105e457505f801b60015f8473ffffffffffffffffffffffffffffffffffffffff1673ffffffffffffffffffffffffffffffffffffffff1681526020019081526020015f205f015414806105e357505f801b60015f8373ffffffffffffffffffffffffffffffffffffffff1673ffffffffffffffffffffffffffffffffffffffff1681526020019081526020015f205f0154145b5b156106a9578173ffffffffffffffffffffffffffffffffffffffff166108fc60025f8081526020019081526020015f206002015490811502906040515f60405180830381858888f19350505050158015610640573d5f803e3d5ffd5b508073ffffffffffffffffffffffffffffffffffffffff166108fc60025f600181526020019081526020015f206002015490811502906040515f60405180830381858888f19350505050158015610699573d5f803e3d5ffd5b506106a2610cb0565b50506108a6565b60015f8373ffffffffffffffffffffffffffffffffffffffff1673ffffffffffffffffffffffffffffffffffffffff1681526020019081526020015f206001015f9054906101000a900460ff16801561074c575060015f8273ffffffffffffffffffffffffffffffffffffffff1673ffffffffffffffffffffffffffffffffffffffff1681526020019081526020015f206001015f9054906101000a900460ff16155b156107a6578173ffffffffffffffffffffffffffffffffffffffff166108fc60055490811502906040515f60405180830381858888f19350505050158015610796573d5f803e3d5ffd5b5061079f610cb0565b50506108a6565b60015f8273ffffffffffffffffffffffffffffffffffffffff1673ffffffffffffffffffffffffffffffffffffffff1681526020019081526020015f206001015f9054906101000a900460ff168015610849575060015f8373ffffffffffffffffffffffffffffffffffffffff1673ffffffffffffffffffffffffffffffffffffffff1681526020019081526020015f206001015f9054906101000a900460ff16155b156108a3578073ffffffffffffffffffffffffffffffffffffffff166108fc60055490811502906040515f60405180830381858888f19350505050158015610893573d5f803e3d5ffd5b5061089c610cb0565b50506108a6565b50505b565b60055481565b6002600454106108bc575f80fd5b670de0b6b3a764000034146108cf575f80fd5b3460055f8282546108e091906114cc565b925050819055503460025f60045481526020019081526020015f20600201819055503360025f60045481526020019081526020015f206001015f6101000a81548173ffffffffffffffffffffffffffffffffffffffff021916908373ffffffffffffffffffffffffffffffffffffffff16021790555060045460035f3373ffffffffffffffffffffffffffffffffffffffff1673ffffffffffffffffffffffffffffffffffffffff1681526020019081526020015f208190555060045f8154809291906109ac90611577565b919050555042600881905550565b60068211156109c7575f80fd5b6002600454146109d5575f80fd5b6002600654146109e3575f80fd5b60025f60035f3373ffffffffffffffffffffffffffffffffffffffff1673ffffffffffffffffffffffffffffffffffffffff1681526020019081526020015f205481526020019081526020015f206001015f9054906101000a900473ffffffffffffffffffffffffffffffffffffffff1673ffffffffffffffffffffffffffffffffffffffff163373ffffffffffffffffffffffffffffffffffffffff1614610a8a575f80fd5b610a98825f1b825f1b610cd5565b8160025f60035f3373ffffffffffffffffffffffffffffffffffffffff1673ffffffffffffffffffffffffffffffffffffffff1681526020019081526020015f205481526020019081526020015f205f018190555060075f815480929190610aff90611577565b9190505550600260075403610b1757610b16610e87565b5b426008819055505050565b60085481565b5f6006831115610b36575f80fd5b610b44835f1b835f1b61113e565b905092915050565b60075481565b60045481565b60065481565b6002602052805f5260405f205f91509050805f015490806001015f9054906101000a900473ffffffffffffffffffffffffffffffffffffffff16908060020154905083565b6003602052805f5260405f205f915090505481565b5f42905090565b600260045414610bcd575f80fd5b60025f60035f3373ffffffffffffffffffffffffffffffffffffffff1673ffffffffffffffffffffffffffffffffffffffff1681526020019081526020015f205481526020019081526020015f206001015f9054906101000a900473ffffffffffffffffffffffffffffffffffffffff1673ffffffffffffffffffffffffffffffffffffffff163373ffffffffffffffffffffffffffffffffffffffff1614610c74575f80fd5b5f801b8103610c81575f80fd5b610c8a81611172565b60065f815480929190610c9c90611577565b91905055504260088190555050565b600a81565b5f6004819055505f6005819055505f6006819055505f6007819055505f600881905550565b5f151560015f3373ffffffffffffffffffffffffffffffffffffffff1673ffffffffffffffffffffffffffffffffffffffff1681526020019081526020015f206001015f9054906101000a900460ff16151514610d67576040517f08c379a0000000000000000000000000000000000000000000000000000000008152600401610d5e9061162e565b60405180910390fd5b6001805f3373ffffffffffffffffffffffffffffffffffffffff1673ffffffffffffffffffffffffffffffffffffffff1681526020019081526020015f206001015f6101000a81548160ff02191690831515021790555060015f3373ffffffffffffffffffffffffffffffffffffffff1673ffffffffffffffffffffffffffffffffffffffff1681526020019081526020015f205f0154610e08838361113e565b14610e48576040517f08c379a0000000000000000000000000000000000000000000000000000000008152600401610e3f906116bc565b60405180910390fd5b7f8bed02c4d61e56ed1d90657e7a0ba48f15cca20fcc2899d7235221b2cb0423a6338383604051610e7b939291906116da565b60405180910390a15050565b5f60025f8081526020019081526020015f205f015490505f60025f600181526020019081526020015f205f015490505f60025f8081526020019081526020015f206001015f9054906101000a900473ffffffffffffffffffffffffffffffffffffffff1690505f60025f600181526020019081526020015f206001015f9054906101000a900473ffffffffffffffffffffffffffffffffffffffff169050826007600186610f3591906114cc565b610f3f919061173c565b1480610f625750826007600286610f5691906114cc565b610f60919061173c565b145b80610f845750826007600386610f7891906114cc565b610f82919061173c565b145b15610fd4578073ffffffffffffffffffffffffffffffffffffffff166108fc60055490811502906040515f60405180830381858888f19350505050158015610fce573d5f803e3d5ffd5b50611129565b836007600185610fe491906114cc565b610fee919061173c565b1480611011575083600760028561100591906114cc565b61100f919061173c565b145b80611033575083600760038561102791906114cc565b611031919061173c565b145b15611083578173ffffffffffffffffffffffffffffffffffffffff166108fc60055490811502906040515f60405180830381858888f1935050505015801561107d573d5f803e3d5ffd5b50611128565b8173ffffffffffffffffffffffffffffffffffffffff166108fc60026005546110ac919061176c565b90811502906040515f60405180830381858888f193505050501580156110d4573d5f803e3d5ffd5b508073ffffffffffffffffffffffffffffffffffffffff166108fc60026005546110fe919061176c565b90811502906040515f60405180830381858888f19350505050158015611126573d5f803e3d5ffd5b505b5b42600881905550611138610cb0565b50505050565b5f30838360405160200161115493929190611801565b60405160208183030381529060405280519060200120905092915050565b8060015f3373ffffffffffffffffffffffffffffffffffffffff1673ffffffffffffffffffffffffffffffffffffffff1681526020019081526020015f205f01819055505f60015f3373ffffffffffffffffffffffffffffffffffffffff1673ffffffffffffffffffffffffffffffffffffffff1681526020019081526020015f206001015f6101000a81548160ff0219169083151502179055507fc38ed506edc9404e14f0bb335345918b4d4798a17868c1948c4d3e3f8add64403360015f3373ffffffffffffffffffffffffffffffffffffffff1673ffffffffffffffffffffffffffffffffffffffff1681526020019081526020015f205f015460405161127d92919061183d565b60405180910390a150565b5f819050919050565b61129a81611288565b82525050565b5f6020820190506112b35f830184611291565b92915050565b5f80fd5b6112c681611288565b81146112d0575f80fd5b50565b5f813590506112e1816112bd565b92915050565b5f80604083850312156112fd576112fc6112b9565b5b5f61130a858286016112d3565b925050602061131b858286016112d3565b9150509250929050565b5f819050919050565b61133781611325565b82525050565b5f6020820190506113505f83018461132e565b92915050565b5f6020828403121561136b5761136a6112b9565b5b5f611378848285016112d3565b91505092915050565b5f73ffffffffffffffffffffffffffffffffffffffff82169050919050565b5f6113aa82611381565b9050919050565b6113ba816113a0565b82525050565b5f6060820190506113d35f830186611291565b6113e060208301856113b1565b6113ed6040830184611291565b949350505050565b6113fe816113a0565b8114611408575f80fd5b50565b5f81359050611419816113f5565b92915050565b5f60208284031215611434576114336112b9565b5b5f6114418482850161140b565b91505092915050565b61145381611325565b811461145d575f80fd5b50565b5f8135905061146e8161144a565b92915050565b5f60208284031215611489576114886112b9565b5b5f61149684828501611460565b91505092915050565b7f4e487b71000000000000000000000000000000000000000000000000000000005f52601160045260245ffd5b5f6114d682611288565b91506114e183611288565b92508282019050808211156114f9576114f861149f565b5b92915050565b5f82825260208201905092915050565b7f54696d6520686173206e6f742072616e206f75742079657400000000000000005f82015250565b5f6115436018836114ff565b915061154e8261150f565b602082019050919050565b5f6020820190508181035f83015261157081611537565b9050919050565b5f61158182611288565b91507fffffffffffffffffffffffffffffffffffffffffffffffffffffffffffffffff82036115b3576115b261149f565b5b600182019050919050565b7f436f6d6d697452657665616c3a3a72657665616c416e737765723a20416c72655f8201527f6164792072657665616c65640000000000000000000000000000000000000000602082015250565b5f611618602c836114ff565b9150611623826115be565b604082019050919050565b5f6020820190508181035f8301526116458161160c565b9050919050565b7f436f6d6d697452657665616c3a3a72657665616c416e737765723a20526576655f8201527f616c6564206861736820646f6573206e6f74206d6174636820636f6d6d697400602082015250565b5f6116a6603f836114ff565b91506116b18261164c565b604082019050919050565b5f6020820190508181035f8301526116d38161169a565b9050919050565b5f6060820190506116ed5f8301866113b1565b6116fa602083018561132e565b611707604083018461132e565b949350505050565b7f4e487b71000000000000000000000000000000000000000000000000000000005f52601260045260245ffd5b5f61174682611288565b915061175183611288565b9250826117615761176061170f565b5b828206905092915050565b5f61177682611288565b915061178183611288565b9250826117915761179061170f565b5b828204905092915050565b5f8160601b9050919050565b5f6117b28261179c565b9050919050565b5f6117c3826117a8565b9050919050565b6117db6117d6826113a0565b6117b9565b82525050565b5f819050919050565b6117fb6117f682611325565b6117e1565b82525050565b5f61180c82866117ca565b60148201915061181c82856117ea565b60208201915061182c82846117ea565b602082019150819050949350505050565b5f6040820190506118505f8301856113b1565b61185d602083018461132e565b939250505056fea26469706673582212203459b65ac67464d61a8f5cdf134748a353466e0c3e400166e2e55eec38b5c3e664736f6c63430008180033",
					"opcodes": "PUSH1 0x80 PUSH1 0x40 MSTORE PUSH1 0x64 PUSH0 DUP1 PUSH2 0x100 EXP DUP2 SLOAD DUP2 PUSH1 0xFF MUL NOT AND SWAP1 DUP4 PUSH1 0xFF AND MUL OR SWAP1 SSTORE POP PUSH0 PUSH1 0x4 SSTORE PUSH0 PUSH1 0x5 SSTORE PUSH0 PUSH1 0x6 SSTORE PUSH0 PUSH1 0x7 SSTORE PUSH0 PUSH1 0x8 SSTORE CALLVALUE DUP1 ISZERO PUSH2 0x3D JUMPI PUSH0 DUP1 REVERT JUMPDEST POP PUSH2 0x189A DUP1 PUSH2 0x4B PUSH0 CODECOPY PUSH0 RETURN INVALID PUSH1 0x80 PUSH1 0x40 MSTORE PUSH1 0x4 CALLDATASIZE LT PUSH2 0xDC JUMPI PUSH0 CALLDATALOAD PUSH1 0xE0 SHR DUP1 PUSH4 0x90D5D0C3 GT PUSH2 0x7E JUMPI DUP1 PUSH4 0xAE73EA65 GT PUSH2 0x58 JUMPI DUP1 PUSH4 0xAE73EA65 EQ PUSH2 0x274 JUMPI DUP1 PUSH4 0xD18E81B3 EQ PUSH2 0x2B0 JUMPI DUP1 PUSH4 0xE05B10C0 EQ PUSH2 0x2DA JUMPI DUP1 PUSH4 0xF56F48F2 EQ PUSH2 0x302 JUMPI PUSH2 0xDC JUMP JUMPDEST DUP1 PUSH4 0x90D5D0C3 EQ PUSH2 0x1E2 JUMPI DUP1 PUSH4 0x929DFFF2 EQ PUSH2 0x20C JUMPI DUP1 PUSH4 0x9E0551C6 EQ PUSH2 0x236 JUMPI PUSH2 0xDC JUMP JUMPDEST DUP1 PUSH4 0x41A807E1 GT PUSH2 0xBA JUMPI DUP1 PUSH4 0x41A807E1 EQ PUSH2 0x12A JUMPI DUP1 PUSH4 0x50899A1E EQ PUSH2 0x152 JUMPI DUP1 PUSH4 0x7661F2B1 EQ PUSH2 0x17C JUMPI DUP1 PUSH4 0x76D4192C EQ PUSH2 0x1B8 JUMPI PUSH2 0xDC JUMP JUMPDEST DUP1 PUSH4 0x9BBD6A0 EQ PUSH2 0xE0 JUMPI DUP1 PUSH4 0x228CB733 EQ PUSH2 0xF6 JUMPI DUP1 PUSH4 0x27B5DB8A EQ PUSH2 0x120 JUMPI JUMPDEST PUSH0 DUP1 REVERT JUMPDEST CALLVALUE DUP1 ISZERO PUSH2 0xEB JUMPI PUSH0 DUP1 REVERT JUMPDEST POP PUSH2 0xF4 PUSH2 0x32C JUMP JUMPDEST STOP JUMPDEST CALLVALUE DUP1 ISZERO PUSH2 0x101 JUMPI PUSH0 DUP1 REVERT JUMPDEST POP PUSH2 0x10A PUSH2 0x8A8 JUMP JUMPDEST PUSH1 0x40 MLOAD PUSH2 0x117 SWAP2 SWAP1 PUSH2 0x12A0 JUMP JUMPDEST PUSH1 0x40 MLOAD DUP1 SWAP2 SUB SWAP1 RETURN JUMPDEST PUSH2 0x128 PUSH2 0x8AE JUMP JUMPDEST STOP JUMPDEST CALLVALUE DUP1 ISZERO PUSH2 0x135 JUMPI PUSH0 DUP1 REVERT JUMPDEST POP PUSH2 0x150 PUSH1 0x4 DUP1 CALLDATASIZE SUB DUP2 ADD SWAP1 PUSH2 0x14B SWAP2 SWAP1 PUSH2 0x12E7 JUMP JUMPDEST PUSH2 0x9BA JUMP JUMPDEST STOP JUMPDEST CALLVALUE DUP1 ISZERO PUSH2 0x15D JUMPI PUSH0 DUP1 REVERT JUMPDEST POP PUSH2 0x166 PUSH2 0xB22 JUMP JUMPDEST PUSH1 0x40 MLOAD PUSH2 0x173 SWAP2 SWAP1 PUSH2 0x12A0 JUMP JUMPDEST PUSH1 0x40 MLOAD DUP1 SWAP2 SUB SWAP1 RETURN JUMPDEST CALLVALUE DUP1 ISZERO PUSH2 0x187 JUMPI PUSH0 DUP1 REVERT JUMPDEST POP PUSH2 0x1A2 PUSH1 0x4 DUP1 CALLDATASIZE SUB DUP2 ADD SWAP1 PUSH2 0x19D SWAP2 SWAP1 PUSH2 0x12E7 JUMP JUMPDEST PUSH2 0xB28 JUMP JUMPDEST PUSH1 0x40 MLOAD PUSH2 0x1AF SWAP2 SWAP1 PUSH2 0x133D JUMP JUMPDEST PUSH1 0x40 MLOAD DUP1 SWAP2 SUB SWAP1 RETURN JUMPDEST CALLVALUE DUP1 ISZERO PUSH2 0x1C3 JUMPI PUSH0 DUP1 REVERT JUMPDEST POP PUSH2 0x1CC PUSH2 0xB4C JUMP JUMPDEST PUSH1 0x40 MLOAD PUSH2 0x1D9 SWAP2 SWAP1 PUSH2 0x12A0 JUMP JUMPDEST PUSH1 0x40 MLOAD DUP1 SWAP2 SUB SWAP1 RETURN JUMPDEST CALLVALUE DUP1 ISZERO PUSH2 0x1ED JUMPI PUSH0 DUP1 REVERT JUMPDEST POP PUSH2 0x1F6 PUSH2 0xB52 JUMP JUMPDEST PUSH1 0x40 MLOAD PUSH2 0x203 SWAP2 SWAP1 PUSH2 0x12A0 JUMP JUMPDEST PUSH1 0x40 MLOAD DUP1 SWAP2 SUB SWAP1 RETURN JUMPDEST CALLVALUE DUP1 ISZERO PUSH2 0x217 JUMPI PUSH0 DUP1 REVERT JUMPDEST POP PUSH2 0x220 PUSH2 0xB58 JUMP JUMPDEST PUSH1 0x40 MLOAD PUSH2 0x22D SWAP2 SWAP1 PUSH2 0x12A0 JUMP JUMPDEST PUSH1 0x40 MLOAD DUP1 SWAP2 SUB SWAP1 RETURN JUMPDEST CALLVALUE DUP1 ISZERO PUSH2 0x241 JUMPI PUSH0 DUP1 REVERT JUMPDEST POP PUSH2 0x25C PUSH1 0x4 DUP1 CALLDATASIZE SUB DUP2 ADD SWAP1 PUSH2 0x257 SWAP2 SWAP1 PUSH2 0x1356 JUMP JUMPDEST PUSH2 0xB5E JUMP JUMPDEST PUSH1 0x40 MLOAD PUSH2 0x26B SWAP4 SWAP3 SWAP2 SWAP1 PUSH2 0x13C0 JUMP JUMPDEST PUSH1 0x40 MLOAD DUP1 SWAP2 SUB SWAP1 RETURN JUMPDEST CALLVALUE DUP1 ISZERO PUSH2 0x27F JUMPI PUSH0 DUP1 REVERT JUMPDEST POP PUSH2 0x29A PUSH1 0x4 DUP1 CALLDATASIZE SUB DUP2 ADD SWAP1 PUSH2 0x295 SWAP2 SWAP1 PUSH2 0x141F JUMP JUMPDEST PUSH2 0xBA3 JUMP JUMPDEST PUSH1 0x40 MLOAD PUSH2 0x2A7 SWAP2 SWAP1 PUSH2 0x12A0 JUMP JUMPDEST PUSH1 0x40 MLOAD DUP1 SWAP2 SUB SWAP1 RETURN JUMPDEST CALLVALUE DUP1 ISZERO PUSH2 0x2BB JUMPI PUSH0 DUP1 REVERT JUMPDEST POP PUSH2 0x2C4 PUSH2 0xBB8 JUMP JUMPDEST PUSH1 0x40 MLOAD PUSH2 0x2D1 SWAP2 SWAP1 PUSH2 0x12A0 JUMP JUMPDEST PUSH1 0x40 MLOAD DUP1 SWAP2 SUB SWAP1 RETURN JUMPDEST CALLVALUE DUP1 ISZERO PUSH2 0x2E5 JUMPI PUSH0 DUP1 REVERT JUMPDEST POP PUSH2 0x300 PUSH1 0x4 DUP1 CALLDATASIZE SUB DUP2 ADD SWAP1 PUSH2 0x2FB SWAP2 SWAP1 PUSH2 0x1474 JUMP JUMPDEST PUSH2 0xBBF JUMP JUMPDEST STOP JUMPDEST CALLVALUE DUP1 ISZERO PUSH2 0x30D JUMPI PUSH0 DUP1 REVERT JUMPDEST POP PUSH2 0x316 PUSH2 0xCAB JUMP JUMPDEST PUSH1 0x40 MLOAD PUSH2 0x323 SWAP2 SWAP1 PUSH2 0x12A0 JUMP JUMPDEST PUSH1 0x40 MLOAD DUP1 SWAP2 SUB SWAP1 RETURN JUMPDEST PUSH1 0xA PUSH1 0x8 SLOAD PUSH2 0x33B SWAP2 SWAP1 PUSH2 0x14CC JUMP JUMPDEST TIMESTAMP GT PUSH2 0x37C JUMPI PUSH1 0x40 MLOAD PUSH32 0x8C379A000000000000000000000000000000000000000000000000000000000 DUP2 MSTORE PUSH1 0x4 ADD PUSH2 0x373 SWAP1 PUSH2 0x1559 JUMP JUMPDEST PUSH1 0x40 MLOAD DUP1 SWAP2 SUB SWAP1 REVERT JUMPDEST PUSH1 0x2 PUSH0 DUP1 DUP2 MSTORE PUSH1 0x20 ADD SWAP1 DUP2 MSTORE PUSH1 0x20 ADD PUSH0 KECCAK256 PUSH1 0x1 ADD PUSH0 SWAP1 SLOAD SWAP1 PUSH2 0x100 EXP SWAP1 DIV PUSH20 0xFFFFFFFFFFFFFFFFFFFFFFFFFFFFFFFFFFFFFFFF AND PUSH20 0xFFFFFFFFFFFFFFFFFFFFFFFFFFFFFFFFFFFFFFFF AND CALLER PUSH20 0xFFFFFFFFFFFFFFFFFFFFFFFFFFFFFFFFFFFFFFFF AND EQ DUP1 PUSH2 0x448 JUMPI POP PUSH1 0x2 PUSH0 PUSH1 0x1 DUP2 MSTORE PUSH1 0x20 ADD SWAP1 DUP2 MSTORE PUSH1 0x20 ADD PUSH0 KECCAK256 PUSH1 0x1 ADD PUSH0 SWAP1 SLOAD SWAP1 PUSH2 0x100 EXP SWAP1 DIV PUSH20 0xFFFFFFFFFFFFFFFFFFFFFFFFFFFFFFFFFFFFFFFF AND PUSH20 0xFFFFFFFFFFFFFFFFFFFFFFFFFFFFFFFFFFFFFFFF AND CALLER PUSH20 0xFFFFFFFFFFFFFFFFFFFFFFFFFFFFFFFFFFFFFFFF AND EQ JUMPDEST PUSH2 0x450 JUMPI PUSH0 DUP1 REVERT JUMPDEST PUSH0 PUSH1 0x4 SLOAD GT PUSH2 0x45D JUMPI PUSH0 DUP1 REVERT JUMPDEST PUSH0 PUSH1 0x5 SLOAD GT PUSH2 0x46A JUMPI PUSH0 DUP1 REVERT JUMPDEST PUSH0 PUSH1 0x2 PUSH0 DUP1 DUP2 MSTORE PUSH1 0x20 ADD SWAP1 DUP2 MSTORE PUSH1 0x20 ADD PUSH0 KECCAK256 PUSH1 0x1 ADD PUSH0 SWAP1 SLOAD SWAP1 PUSH2 0x100 EXP SWAP1 DIV PUSH20 0xFFFFFFFFFFFFFFFFFFFFFFFFFFFFFFFFFFFFFFFF AND SWAP1 POP PUSH0 PUSH1 0x2 PUSH0 PUSH1 0x1 DUP2 MSTORE PUSH1 0x20 ADD SWAP1 DUP2 MSTORE PUSH1 0x20 ADD PUSH0 KECCAK256 PUSH1 0x1 ADD PUSH0 SWAP1 SLOAD SWAP1 PUSH2 0x100 EXP SWAP1 DIV PUSH20 0xFFFFFFFFFFFFFFFFFFFFFFFFFFFFFFFFFFFFFFFF AND SWAP1 POP PUSH1 0x2 PUSH1 0x4 SLOAD LT ISZERO PUSH2 0x539 JUMPI DUP2 PUSH20 0xFFFFFFFFFFFFFFFFFFFFFFFFFFFFFFFFFFFFFFFF AND PUSH2 0x8FC PUSH1 0x5 SLOAD SWAP1 DUP2 ISZERO MUL SWAP1 PUSH1 0x40 MLOAD PUSH0 PUSH1 0x40 MLOAD DUP1 DUP4 SUB DUP2 DUP6 DUP9 DUP9 CALL SWAP4 POP POP POP POP ISZERO DUP1 ISZERO PUSH2 0x529 JUMPI RETURNDATASIZE PUSH0 DUP1 RETURNDATACOPY RETURNDATASIZE PUSH0 REVERT JUMPDEST POP PUSH2 0x532 PUSH2 0xCB0 JUMP JUMPDEST POP POP PUSH2 0x8A6 JUMP JUMPDEST PUSH1 0x2 PUSH1 0x4 SLOAD EQ PUSH2 0x547 JUMPI PUSH0 DUP1 REVERT JUMPDEST PUSH1 0x2 PUSH1 0x6 SLOAD LT DUP1 ISZERO PUSH2 0x5E4 JUMPI POP PUSH0 DUP1 SHL PUSH1 0x1 PUSH0 DUP5 PUSH20 0xFFFFFFFFFFFFFFFFFFFFFFFFFFFFFFFFFFFFFFFF AND PUSH20 0xFFFFFFFFFFFFFFFFFFFFFFFFFFFFFFFFFFFFFFFF AND DUP2 MSTORE PUSH1 0x20 ADD SWAP1 DUP2 MSTORE PUSH1 0x20 ADD PUSH0 KECCAK256 PUSH0 ADD SLOAD EQ DUP1 PUSH2 0x5E3 JUMPI POP PUSH0 DUP1 SHL PUSH1 0x1 PUSH0 DUP4 PUSH20 0xFFFFFFFFFFFFFFFFFFFFFFFFFFFFFFFFFFFFFFFF AND PUSH20 0xFFFFFFFFFFFFFFFFFFFFFFFFFFFFFFFFFFFFFFFF AND DUP2 MSTORE PUSH1 0x20 ADD SWAP1 DUP2 MSTORE PUSH1 0x20 ADD PUSH0 KECCAK256 PUSH0 ADD SLOAD EQ JUMPDEST JUMPDEST ISZERO PUSH2 0x6A9 JUMPI DUP2 PUSH20 0xFFFFFFFFFFFFFFFFFFFFFFFFFFFFFFFFFFFFFFFF AND PUSH2 0x8FC PUSH1 0x2 PUSH0 DUP1 DUP2 MSTORE PUSH1 0x20 ADD SWAP1 DUP2 MSTORE PUSH1 0x20 ADD PUSH0 KECCAK256 PUSH1 0x2 ADD SLOAD SWAP1 DUP2 ISZERO MUL SWAP1 PUSH1 0x40 MLOAD PUSH0 PUSH1 0x40 MLOAD DUP1 DUP4 SUB DUP2 DUP6 DUP9 DUP9 CALL SWAP4 POP POP POP POP ISZERO DUP1 ISZERO PUSH2 0x640 JUMPI RETURNDATASIZE PUSH0 DUP1 RETURNDATACOPY RETURNDATASIZE PUSH0 REVERT JUMPDEST POP DUP1 PUSH20 0xFFFFFFFFFFFFFFFFFFFFFFFFFFFFFFFFFFFFFFFF AND PUSH2 0x8FC PUSH1 0x2 PUSH0 PUSH1 0x1 DUP2 MSTORE PUSH1 0x20 ADD SWAP1 DUP2 MSTORE PUSH1 0x20 ADD PUSH0 KECCAK256 PUSH1 0x2 ADD SLOAD SWAP1 DUP2 ISZERO MUL SWAP1 PUSH1 0x40 MLOAD PUSH0 PUSH1 0x40 MLOAD DUP1 DUP4 SUB DUP2 DUP6 DUP9 DUP9 CALL SWAP4 POP POP POP POP ISZERO DUP1 ISZERO PUSH2 0x699 JUMPI RETURNDATASIZE PUSH0 DUP1 RETURNDATACOPY RETURNDATASIZE PUSH0 REVERT JUMPDEST POP PUSH2 0x6A2 PUSH2 0xCB0 JUMP JUMPDEST POP POP PUSH2 0x8A6 JUMP JUMPDEST PUSH1 0x1 PUSH0 DUP4 PUSH20 0xFFFFFFFFFFFFFFFFFFFFFFFFFFFFFFFFFFFFFFFF AND PUSH20 0xFFFFFFFFFFFFFFFFFFFFFFFFFFFFFFFFFFFFFFFF AND DUP2 MSTORE PUSH1 0x20 ADD SWAP1 DUP2 MSTORE PUSH1 0x20 ADD PUSH0 KECCAK256 PUSH1 0x1 ADD PUSH0 SWAP1 SLOAD SWAP1 PUSH2 0x100 EXP SWAP1 DIV PUSH1 0xFF AND DUP1 ISZERO PUSH2 0x74C JUMPI POP PUSH1 0x1 PUSH0 DUP3 PUSH20 0xFFFFFFFFFFFFFFFFFFFFFFFFFFFFFFFFFFFFFFFF AND PUSH20 0xFFFFFFFFFFFFFFFFFFFFFFFFFFFFFFFFFFFFFFFF AND DUP2 MSTORE PUSH1 0x20 ADD SWAP1 DUP2 MSTORE PUSH1 0x20 ADD PUSH0 KECCAK256 PUSH1 0x1 ADD PUSH0 SWAP1 SLOAD SWAP1 PUSH2 0x100 EXP SWAP1 DIV PUSH1 0xFF AND ISZERO JUMPDEST ISZERO PUSH2 0x7A6 JUMPI DUP2 PUSH20 0xFFFFFFFFFFFFFFFFFFFFFFFFFFFFFFFFFFFFFFFF AND PUSH2 0x8FC PUSH1 0x5 SLOAD SWAP1 DUP2 ISZERO MUL SWAP1 PUSH1 0x40 MLOAD PUSH0 PUSH1 0x40 MLOAD DUP1 DUP4 SUB DUP2 DUP6 DUP9 DUP9 CALL SWAP4 POP POP POP POP ISZERO DUP1 ISZERO PUSH2 0x796 JUMPI RETURNDATASIZE PUSH0 DUP1 RETURNDATACOPY RETURNDATASIZE PUSH0 REVERT JUMPDEST POP PUSH2 0x79F PUSH2 0xCB0 JUMP JUMPDEST POP POP PUSH2 0x8A6 JUMP JUMPDEST PUSH1 0x1 PUSH0 DUP3 PUSH20 0xFFFFFFFFFFFFFFFFFFFFFFFFFFFFFFFFFFFFFFFF AND PUSH20 0xFFFFFFFFFFFFFFFFFFFFFFFFFFFFFFFFFFFFFFFF AND DUP2 MSTORE PUSH1 0x20 ADD SWAP1 DUP2 MSTORE PUSH1 0x20 ADD PUSH0 KECCAK256 PUSH1 0x1 ADD PUSH0 SWAP1 SLOAD SWAP1 PUSH2 0x100 EXP SWAP1 DIV PUSH1 0xFF AND DUP1 ISZERO PUSH2 0x849 JUMPI POP PUSH1 0x1 PUSH0 DUP4 PUSH20 0xFFFFFFFFFFFFFFFFFFFFFFFFFFFFFFFFFFFFFFFF AND PUSH20 0xFFFFFFFFFFFFFFFFFFFFFFFFFFFFFFFFFFFFFFFF AND DUP2 MSTORE PUSH1 0x20 ADD SWAP1 DUP2 MSTORE PUSH1 0x20 ADD PUSH0 KECCAK256 PUSH1 0x1 ADD PUSH0 SWAP1 SLOAD SWAP1 PUSH2 0x100 EXP SWAP1 DIV PUSH1 0xFF AND ISZERO JUMPDEST ISZERO PUSH2 0x8A3 JUMPI DUP1 PUSH20 0xFFFFFFFFFFFFFFFFFFFFFFFFFFFFFFFFFFFFFFFF AND PUSH2 0x8FC PUSH1 0x5 SLOAD SWAP1 DUP2 ISZERO MUL SWAP1 PUSH1 0x40 MLOAD PUSH0 PUSH1 0x40 MLOAD DUP1 DUP4 SUB DUP2 DUP6 DUP9 DUP9 CALL SWAP4 POP POP POP POP ISZERO DUP1 ISZERO PUSH2 0x893 JUMPI RETURNDATASIZE PUSH0 DUP1 RETURNDATACOPY RETURNDATASIZE PUSH0 REVERT JUMPDEST POP PUSH2 0x89C PUSH2 0xCB0 JUMP JUMPDEST POP POP PUSH2 0x8A6 JUMP JUMPDEST POP POP JUMPDEST JUMP JUMPDEST PUSH1 0x5 SLOAD DUP2 JUMP JUMPDEST PUSH1 0x2 PUSH1 0x4 SLOAD LT PUSH2 0x8BC JUMPI PUSH0 DUP1 REVERT JUMPDEST PUSH8 0xDE0B6B3A7640000 CALLVALUE EQ PUSH2 0x8CF JUMPI PUSH0 DUP1 REVERT JUMPDEST CALLVALUE PUSH1 0x5 PUSH0 DUP3 DUP3 SLOAD PUSH2 0x8E0 SWAP2 SWAP1 PUSH2 0x14CC JUMP JUMPDEST SWAP3 POP POP DUP2 SWAP1 SSTORE POP CALLVALUE PUSH1 0x2 PUSH0 PUSH1 0x4 SLOAD DUP2 MSTORE PUSH1 0x20 ADD SWAP1 DUP2 MSTORE PUSH1 0x20 ADD PUSH0 KECCAK256 PUSH1 0x2 ADD DUP2 SWAP1 SSTORE POP CALLER PUSH1 0x2 PUSH0 PUSH1 0x4 SLOAD DUP2 MSTORE PUSH1 0x20 ADD SWAP1 DUP2 MSTORE PUSH1 0x20 ADD PUSH0 KECCAK256 PUSH1 0x1 ADD PUSH0 PUSH2 0x100 EXP DUP2 SLOAD DUP2 PUSH20 0xFFFFFFFFFFFFFFFFFFFFFFFFFFFFFFFFFFFFFFFF MUL NOT AND SWAP1 DUP4 PUSH20 0xFFFFFFFFFFFFFFFFFFFFFFFFFFFFFFFFFFFFFFFF AND MUL OR SWAP1 SSTORE POP PUSH1 0x4 SLOAD PUSH1 0x3 PUSH0 CALLER PUSH20 0xFFFFFFFFFFFFFFFFFFFFFFFFFFFFFFFFFFFFFFFF AND PUSH20 0xFFFFFFFFFFFFFFFFFFFFFFFFFFFFFFFFFFFFFFFF AND DUP2 MSTORE PUSH1 0x20 ADD SWAP1 DUP2 MSTORE PUSH1 0x20 ADD PUSH0 KECCAK256 DUP2 SWAP1 SSTORE POP PUSH1 0x4 PUSH0 DUP2 SLOAD DUP1 SWAP3 SWAP2 SWAP1 PUSH2 0x9AC SWAP1 PUSH2 0x1577 JUMP JUMPDEST SWAP2 SWAP1 POP SSTORE POP TIMESTAMP PUSH1 0x8 DUP2 SWAP1 SSTORE POP JUMP JUMPDEST PUSH1 0x6 DUP3 GT ISZERO PUSH2 0x9C7 JUMPI PUSH0 DUP1 REVERT JUMPDEST PUSH1 0x2 PUSH1 0x4 SLOAD EQ PUSH2 0x9D5 JUMPI PUSH0 DUP1 REVERT JUMPDEST PUSH1 0x2 PUSH1 0x6 SLOAD EQ PUSH2 0x9E3 JUMPI PUSH0 DUP1 REVERT JUMPDEST PUSH1 0x2 PUSH0 PUSH1 0x3 PUSH0 CALLER PUSH20 0xFFFFFFFFFFFFFFFFFFFFFFFFFFFFFFFFFFFFFFFF AND PUSH20 0xFFFFFFFFFFFFFFFFFFFFFFFFFFFFFFFFFFFFFFFF AND DUP2 MSTORE PUSH1 0x20 ADD SWAP1 DUP2 MSTORE PUSH1 0x20 ADD PUSH0 KECCAK256 SLOAD DUP2 MSTORE PUSH1 0x20 ADD SWAP1 DUP2 MSTORE PUSH1 0x20 ADD PUSH0 KECCAK256 PUSH1 0x1 ADD PUSH0 SWAP1 SLOAD SWAP1 PUSH2 0x100 EXP SWAP1 DIV PUSH20 0xFFFFFFFFFFFFFFFFFFFFFFFFFFFFFFFFFFFFFFFF AND PUSH20 0xFFFFFFFFFFFFFFFFFFFFFFFFFFFFFFFFFFFFFFFF AND CALLER PUSH20 0xFFFFFFFFFFFFFFFFFFFFFFFFFFFFFFFFFFFFFFFF AND EQ PUSH2 0xA8A JUMPI PUSH0 DUP1 REVERT JUMPDEST PUSH2 0xA98 DUP3 PUSH0 SHL DUP3 PUSH0 SHL PUSH2 0xCD5 JUMP JUMPDEST DUP2 PUSH1 0x2 PUSH0 PUSH1 0x3 PUSH0 CALLER PUSH20 0xFFFFFFFFFFFFFFFFFFFFFFFFFFFFFFFFFFFFFFFF AND PUSH20 0xFFFFFFFFFFFFFFFFFFFFFFFFFFFFFFFFFFFFFFFF AND DUP2 MSTORE PUSH1 0x20 ADD SWAP1 DUP2 MSTORE PUSH1 0x20 ADD PUSH0 KECCAK256 SLOAD DUP2 MSTORE PUSH1 0x20 ADD SWAP1 DUP2 MSTORE PUSH1 0x20 ADD PUSH0 KECCAK256 PUSH0 ADD DUP2 SWAP1 SSTORE POP PUSH1 0x7 PUSH0 DUP2 SLOAD DUP1 SWAP3 SWAP2 SWAP1 PUSH2 0xAFF SWAP1 PUSH2 0x1577 JUMP JUMPDEST SWAP2 SWAP1 POP SSTORE POP PUSH1 0x2 PUSH1 0x7 SLOAD SUB PUSH2 0xB17 JUMPI PUSH2 0xB16 PUSH2 0xE87 JUMP JUMPDEST JUMPDEST TIMESTAMP PUSH1 0x8 DUP2 SWAP1 SSTORE POP POP POP JUMP JUMPDEST PUSH1 0x8 SLOAD DUP2 JUMP JUMPDEST PUSH0 PUSH1 0x6 DUP4 GT ISZERO PUSH2 0xB36 JUMPI PUSH0 DUP1 REVERT JUMPDEST PUSH2 0xB44 DUP4 PUSH0 SHL DUP4 PUSH0 SHL PUSH2 0x113E JUMP JUMPDEST SWAP1 POP SWAP3 SWAP2 POP POP JUMP JUMPDEST PUSH1 0x7 SLOAD DUP2 JUMP JUMPDEST PUSH1 0x4 SLOAD DUP2 JUMP JUMPDEST PUSH1 0x6 SLOAD DUP2 JUMP JUMPDEST PUSH1 0x2 PUSH1 0x20 MSTORE DUP1 PUSH0 MSTORE PUSH1 0x40 PUSH0 KECCAK256 PUSH0 SWAP2 POP SWAP1 POP DUP1 PUSH0 ADD SLOAD SWAP1 DUP1 PUSH1 0x1 ADD PUSH0 SWAP1 SLOAD SWAP1 PUSH2 0x100 EXP SWAP1 DIV PUSH20 0xFFFFFFFFFFFFFFFFFFFFFFFFFFFFFFFFFFFFFFFF AND SWAP1 DUP1 PUSH1 0x2 ADD SLOAD SWAP1 POP DUP4 JUMP JUMPDEST PUSH1 0x3 PUSH1 0x20 MSTORE DUP1 PUSH0 MSTORE PUSH1 0x40 PUSH0 KECCAK256 PUSH0 SWAP2 POP SWAP1 POP SLOAD DUP2 JUMP JUMPDEST PUSH0 TIMESTAMP SWAP1 POP SWAP1 JUMP JUMPDEST PUSH1 0x2 PUSH1 0x4 SLOAD EQ PUSH2 0xBCD JUMPI PUSH0 DUP1 REVERT JUMPDEST PUSH1 0x2 PUSH0 PUSH1 0x3 PUSH0 CALLER PUSH20 0xFFFFFFFFFFFFFFFFFFFFFFFFFFFFFFFFFFFFFFFF AND PUSH20 0xFFFFFFFFFFFFFFFFFFFFFFFFFFFFFFFFFFFFFFFF AND DUP2 MSTORE PUSH1 0x20 ADD SWAP1 DUP2 MSTORE PUSH1 0x20 ADD PUSH0 KECCAK256 SLOAD DUP2 MSTORE PUSH1 0x20 ADD SWAP1 DUP2 MSTORE PUSH1 0x20 ADD PUSH0 KECCAK256 PUSH1 0x1 ADD PUSH0 SWAP1 SLOAD SWAP1 PUSH2 0x100 EXP SWAP1 DIV PUSH20 0xFFFFFFFFFFFFFFFFFFFFFFFFFFFFFFFFFFFFFFFF AND PUSH20 0xFFFFFFFFFFFFFFFFFFFFFFFFFFFFFFFFFFFFFFFF AND CALLER PUSH20 0xFFFFFFFFFFFFFFFFFFFFFFFFFFFFFFFFFFFFFFFF AND EQ PUSH2 0xC74 JUMPI PUSH0 DUP1 REVERT JUMPDEST PUSH0 DUP1 SHL DUP2 SUB PUSH2 0xC81 JUMPI PUSH0 DUP1 REVERT JUMPDEST PUSH2 0xC8A DUP2 PUSH2 0x1172 JUMP JUMPDEST PUSH1 0x6 PUSH0 DUP2 SLOAD DUP1 SWAP3 SWAP2 SWAP1 PUSH2 0xC9C SWAP1 PUSH2 0x1577 JUMP JUMPDEST SWAP2 SWAP1 POP SSTORE POP TIMESTAMP PUSH1 0x8 DUP2 SWAP1 SSTORE POP POP JUMP JUMPDEST PUSH1 0xA DUP2 JUMP JUMPDEST PUSH0 PUSH1 0x4 DUP2 SWAP1 SSTORE POP PUSH0 PUSH1 0x5 DUP2 SWAP1 SSTORE POP PUSH0 PUSH1 0x6 DUP2 SWAP1 SSTORE POP PUSH0 PUSH1 0x7 DUP2 SWAP1 SSTORE POP PUSH0 PUSH1 0x8 DUP2 SWAP1 SSTORE POP JUMP JUMPDEST PUSH0 ISZERO ISZERO PUSH1 0x1 PUSH0 CALLER PUSH20 0xFFFFFFFFFFFFFFFFFFFFFFFFFFFFFFFFFFFFFFFF AND PUSH20 0xFFFFFFFFFFFFFFFFFFFFFFFFFFFFFFFFFFFFFFFF AND DUP2 MSTORE PUSH1 0x20 ADD SWAP1 DUP2 MSTORE PUSH1 0x20 ADD PUSH0 KECCAK256 PUSH1 0x1 ADD PUSH0 SWAP1 SLOAD SWAP1 PUSH2 0x100 EXP SWAP1 DIV PUSH1 0xFF AND ISZERO ISZERO EQ PUSH2 0xD67 JUMPI PUSH1 0x40 MLOAD PUSH32 0x8C379A000000000000000000000000000000000000000000000000000000000 DUP2 MSTORE PUSH1 0x4 ADD PUSH2 0xD5E SWAP1 PUSH2 0x162E JUMP JUMPDEST PUSH1 0x40 MLOAD DUP1 SWAP2 SUB SWAP1 REVERT JUMPDEST PUSH1 0x1 DUP1 PUSH0 CALLER PUSH20 0xFFFFFFFFFFFFFFFFFFFFFFFFFFFFFFFFFFFFFFFF AND PUSH20 0xFFFFFFFFFFFFFFFFFFFFFFFFFFFFFFFFFFFFFFFF AND DUP2 MSTORE PUSH1 0x20 ADD SWAP1 DUP2 MSTORE PUSH1 0x20 ADD PUSH0 KECCAK256 PUSH1 0x1 ADD PUSH0 PUSH2 0x100 EXP DUP2 SLOAD DUP2 PUSH1 0xFF MUL NOT AND SWAP1 DUP4 ISZERO ISZERO MUL OR SWAP1 SSTORE POP PUSH1 0x1 PUSH0 CALLER PUSH20 0xFFFFFFFFFFFFFFFFFFFFFFFFFFFFFFFFFFFFFFFF AND PUSH20 0xFFFFFFFFFFFFFFFFFFFFFFFFFFFFFFFFFFFFFFFF AND DUP2 MSTORE PUSH1 0x20 ADD SWAP1 DUP2 MSTORE PUSH1 0x20 ADD PUSH0 KECCAK256 PUSH0 ADD SLOAD PUSH2 0xE08 DUP4 DUP4 PUSH2 0x113E JUMP JUMPDEST EQ PUSH2 0xE48 JUMPI PUSH1 0x40 MLOAD PUSH32 0x8C379A000000000000000000000000000000000000000000000000000000000 DUP2 MSTORE PUSH1 0x4 ADD PUSH2 0xE3F SWAP1 PUSH2 0x16BC JUMP JUMPDEST PUSH1 0x40 MLOAD DUP1 SWAP2 SUB SWAP1 REVERT JUMPDEST PUSH32 0x8BED02C4D61E56ED1D90657E7A0BA48F15CCA20FCC2899D7235221B2CB0423A6 CALLER DUP4 DUP4 PUSH1 0x40 MLOAD PUSH2 0xE7B SWAP4 SWAP3 SWAP2 SWAP1 PUSH2 0x16DA JUMP JUMPDEST PUSH1 0x40 MLOAD DUP1 SWAP2 SUB SWAP1 LOG1 POP POP JUMP JUMPDEST PUSH0 PUSH1 0x2 PUSH0 DUP1 DUP2 MSTORE PUSH1 0x20 ADD SWAP1 DUP2 MSTORE PUSH1 0x20 ADD PUSH0 KECCAK256 PUSH0 ADD SLOAD SWAP1 POP PUSH0 PUSH1 0x2 PUSH0 PUSH1 0x1 DUP2 MSTORE PUSH1 0x20 ADD SWAP1 DUP2 MSTORE PUSH1 0x20 ADD PUSH0 KECCAK256 PUSH0 ADD SLOAD SWAP1 POP PUSH0 PUSH1 0x2 PUSH0 DUP1 DUP2 MSTORE PUSH1 0x20 ADD SWAP1 DUP2 MSTORE PUSH1 0x20 ADD PUSH0 KECCAK256 PUSH1 0x1 ADD PUSH0 SWAP1 SLOAD SWAP1 PUSH2 0x100 EXP SWAP1 DIV PUSH20 0xFFFFFFFFFFFFFFFFFFFFFFFFFFFFFFFFFFFFFFFF AND SWAP1 POP PUSH0 PUSH1 0x2 PUSH0 PUSH1 0x1 DUP2 MSTORE PUSH1 0x20 ADD SWAP1 DUP2 MSTORE PUSH1 0x20 ADD PUSH0 KECCAK256 PUSH1 0x1 ADD PUSH0 SWAP1 SLOAD SWAP1 PUSH2 0x100 EXP SWAP1 DIV PUSH20 0xFFFFFFFFFFFFFFFFFFFFFFFFFFFFFFFFFFFFFFFF AND SWAP1 POP DUP3 PUSH1 0x7 PUSH1 0x1 DUP7 PUSH2 0xF35 SWAP2 SWAP1 PUSH2 0x14CC JUMP JUMPDEST PUSH2 0xF3F SWAP2 SWAP1 PUSH2 0x173C JUMP JUMPDEST EQ DUP1 PUSH2 0xF62 JUMPI POP DUP3 PUSH1 0x7 PUSH1 0x2 DUP7 PUSH2 0xF56 SWAP2 SWAP1 PUSH2 0x14CC JUMP JUMPDEST PUSH2 0xF60 SWAP2 SWAP1 PUSH2 0x173C JUMP JUMPDEST EQ JUMPDEST DUP1 PUSH2 0xF84 JUMPI POP DUP3 PUSH1 0x7 PUSH1 0x3 DUP7 PUSH2 0xF78 SWAP2 SWAP1 PUSH2 0x14CC JUMP JUMPDEST PUSH2 0xF82 SWAP2 SWAP1 PUSH2 0x173C JUMP JUMPDEST EQ JUMPDEST ISZERO PUSH2 0xFD4 JUMPI DUP1 PUSH20 0xFFFFFFFFFFFFFFFFFFFFFFFFFFFFFFFFFFFFFFFF AND PUSH2 0x8FC PUSH1 0x5 SLOAD SWAP1 DUP2 ISZERO MUL SWAP1 PUSH1 0x40 MLOAD PUSH0 PUSH1 0x40 MLOAD DUP1 DUP4 SUB DUP2 DUP6 DUP9 DUP9 CALL SWAP4 POP POP POP POP ISZERO DUP1 ISZERO PUSH2 0xFCE JUMPI RETURNDATASIZE PUSH0 DUP1 RETURNDATACOPY RETURNDATASIZE PUSH0 REVERT JUMPDEST POP PUSH2 0x1129 JUMP JUMPDEST DUP4 PUSH1 0x7 PUSH1 0x1 DUP6 PUSH2 0xFE4 SWAP2 SWAP1 PUSH2 0x14CC JUMP JUMPDEST PUSH2 0xFEE SWAP2 SWAP1 PUSH2 0x173C JUMP JUMPDEST EQ DUP1 PUSH2 0x1011 JUMPI POP DUP4 PUSH1 0x7 PUSH1 0x2 DUP6 PUSH2 0x1005 SWAP2 SWAP1 PUSH2 0x14CC JUMP JUMPDEST PUSH2 0x100F SWAP2 SWAP1 PUSH2 0x173C JUMP JUMPDEST EQ JUMPDEST DUP1 PUSH2 0x1033 JUMPI POP DUP4 PUSH1 0x7 PUSH1 0x3 DUP6 PUSH2 0x1027 SWAP2 SWAP1 PUSH2 0x14CC JUMP JUMPDEST PUSH2 0x1031 SWAP2 SWAP1 PUSH2 0x173C JUMP JUMPDEST EQ JUMPDEST ISZERO PUSH2 0x1083 JUMPI DUP2 PUSH20 0xFFFFFFFFFFFFFFFFFFFFFFFFFFFFFFFFFFFFFFFF AND PUSH2 0x8FC PUSH1 0x5 SLOAD SWAP1 DUP2 ISZERO MUL SWAP1 PUSH1 0x40 MLOAD PUSH0 PUSH1 0x40 MLOAD DUP1 DUP4 SUB DUP2 DUP6 DUP9 DUP9 CALL SWAP4 POP POP POP POP ISZERO DUP1 ISZERO PUSH2 0x107D JUMPI RETURNDATASIZE PUSH0 DUP1 RETURNDATACOPY RETURNDATASIZE PUSH0 REVERT JUMPDEST POP PUSH2 0x1128 JUMP JUMPDEST DUP2 PUSH20 0xFFFFFFFFFFFFFFFFFFFFFFFFFFFFFFFFFFFFFFFF AND PUSH2 0x8FC PUSH1 0x2 PUSH1 0x5 SLOAD PUSH2 0x10AC SWAP2 SWAP1 PUSH2 0x176C JUMP JUMPDEST SWAP1 DUP2 ISZERO MUL SWAP1 PUSH1 0x40 MLOAD PUSH0 PUSH1 0x40 MLOAD DUP1 DUP4 SUB DUP2 DUP6 DUP9 DUP9 CALL SWAP4 POP POP POP POP ISZERO DUP1 ISZERO PUSH2 0x10D4 JUMPI RETURNDATASIZE PUSH0 DUP1 RETURNDATACOPY RETURNDATASIZE PUSH0 REVERT JUMPDEST POP DUP1 PUSH20 0xFFFFFFFFFFFFFFFFFFFFFFFFFFFFFFFFFFFFFFFF AND PUSH2 0x8FC PUSH1 0x2 PUSH1 0x5 SLOAD PUSH2 0x10FE SWAP2 SWAP1 PUSH2 0x176C JUMP JUMPDEST SWAP1 DUP2 ISZERO MUL SWAP1 PUSH1 0x40 MLOAD PUSH0 PUSH1 0x40 MLOAD DUP1 DUP4 SUB DUP2 DUP6 DUP9 DUP9 CALL SWAP4 POP POP POP POP ISZERO DUP1 ISZERO PUSH2 0x1126 JUMPI RETURNDATASIZE PUSH0 DUP1 RETURNDATACOPY RETURNDATASIZE PUSH0 REVERT JUMPDEST POP JUMPDEST JUMPDEST TIMESTAMP PUSH1 0x8 DUP2 SWAP1 SSTORE POP PUSH2 0x1138 PUSH2 0xCB0 JUMP JUMPDEST POP POP POP POP JUMP JUMPDEST PUSH0 ADDRESS DUP4 DUP4 PUSH1 0x40 MLOAD PUSH1 0x20 ADD PUSH2 0x1154 SWAP4 SWAP3 SWAP2 SWAP1 PUSH2 0x1801 JUMP JUMPDEST PUSH1 0x40 MLOAD PUSH1 0x20 DUP2 DUP4 SUB SUB DUP2 MSTORE SWAP1 PUSH1 0x40 MSTORE DUP1 MLOAD SWAP1 PUSH1 0x20 ADD KECCAK256 SWAP1 POP SWAP3 SWAP2 POP POP JUMP JUMPDEST DUP1 PUSH1 0x1 PUSH0 CALLER PUSH20 0xFFFFFFFFFFFFFFFFFFFFFFFFFFFFFFFFFFFFFFFF AND PUSH20 0xFFFFFFFFFFFFFFFFFFFFFFFFFFFFFFFFFFFFFFFF AND DUP2 MSTORE PUSH1 0x20 ADD SWAP1 DUP2 MSTORE PUSH1 0x20 ADD PUSH0 KECCAK256 PUSH0 ADD DUP2 SWAP1 SSTORE POP PUSH0 PUSH1 0x1 PUSH0 CALLER PUSH20 0xFFFFFFFFFFFFFFFFFFFFFFFFFFFFFFFFFFFFFFFF AND PUSH20 0xFFFFFFFFFFFFFFFFFFFFFFFFFFFFFFFFFFFFFFFF AND DUP2 MSTORE PUSH1 0x20 ADD SWAP1 DUP2 MSTORE PUSH1 0x20 ADD PUSH0 KECCAK256 PUSH1 0x1 ADD PUSH0 PUSH2 0x100 EXP DUP2 SLOAD DUP2 PUSH1 0xFF MUL NOT AND SWAP1 DUP4 ISZERO ISZERO MUL OR SWAP1 SSTORE POP PUSH32 0xC38ED506EDC9404E14F0BB335345918B4D4798A17868C1948C4D3E3F8ADD6440 CALLER PUSH1 0x1 PUSH0 CALLER PUSH20 0xFFFFFFFFFFFFFFFFFFFFFFFFFFFFFFFFFFFFFFFF AND PUSH20 0xFFFFFFFFFFFFFFFFFFFFFFFFFFFFFFFFFFFFFFFF AND DUP2 MSTORE PUSH1 0x20 ADD SWAP1 DUP2 MSTORE PUSH1 0x20 ADD PUSH0 KECCAK256 PUSH0 ADD SLOAD PUSH1 0x40 MLOAD PUSH2 0x127D SWAP3 SWAP2 SWAP1 PUSH2 0x183D JUMP JUMPDEST PUSH1 0x40 MLOAD DUP1 SWAP2 SUB SWAP1 LOG1 POP JUMP JUMPDEST PUSH0 DUP2 SWAP1 POP SWAP2 SWAP1 POP JUMP JUMPDEST PUSH2 0x129A DUP2 PUSH2 0x1288 JUMP JUMPDEST DUP3 MSTORE POP POP JUMP JUMPDEST PUSH0 PUSH1 0x20 DUP3 ADD SWAP1 POP PUSH2 0x12B3 PUSH0 DUP4 ADD DUP5 PUSH2 0x1291 JUMP JUMPDEST SWAP3 SWAP2 POP POP JUMP JUMPDEST PUSH0 DUP1 REVERT JUMPDEST PUSH2 0x12C6 DUP2 PUSH2 0x1288 JUMP JUMPDEST DUP2 EQ PUSH2 0x12D0 JUMPI PUSH0 DUP1 REVERT JUMPDEST POP JUMP JUMPDEST PUSH0 DUP2 CALLDATALOAD SWAP1 POP PUSH2 0x12E1 DUP2 PUSH2 0x12BD JUMP JUMPDEST SWAP3 SWAP2 POP POP JUMP JUMPDEST PUSH0 DUP1 PUSH1 0x40 DUP4 DUP6 SUB SLT ISZERO PUSH2 0x12FD JUMPI PUSH2 0x12FC PUSH2 0x12B9 JUMP JUMPDEST JUMPDEST PUSH0 PUSH2 0x130A DUP6 DUP3 DUP7 ADD PUSH2 0x12D3 JUMP JUMPDEST SWAP3 POP POP PUSH1 0x20 PUSH2 0x131B DUP6 DUP3 DUP7 ADD PUSH2 0x12D3 JUMP JUMPDEST SWAP2 POP POP SWAP3 POP SWAP3 SWAP1 POP JUMP JUMPDEST PUSH0 DUP2 SWAP1 POP SWAP2 SWAP1 POP JUMP JUMPDEST PUSH2 0x1337 DUP2 PUSH2 0x1325 JUMP JUMPDEST DUP3 MSTORE POP POP JUMP JUMPDEST PUSH0 PUSH1 0x20 DUP3 ADD SWAP1 POP PUSH2 0x1350 PUSH0 DUP4 ADD DUP5 PUSH2 0x132E JUMP JUMPDEST SWAP3 SWAP2 POP POP JUMP JUMPDEST PUSH0 PUSH1 0x20 DUP3 DUP5 SUB SLT ISZERO PUSH2 0x136B JUMPI PUSH2 0x136A PUSH2 0x12B9 JUMP JUMPDEST JUMPDEST PUSH0 PUSH2 0x1378 DUP5 DUP3 DUP6 ADD PUSH2 0x12D3 JUMP JUMPDEST SWAP2 POP POP SWAP3 SWAP2 POP POP JUMP JUMPDEST PUSH0 PUSH20 0xFFFFFFFFFFFFFFFFFFFFFFFFFFFFFFFFFFFFFFFF DUP3 AND SWAP1 POP SWAP2 SWAP1 POP JUMP JUMPDEST PUSH0 PUSH2 0x13AA DUP3 PUSH2 0x1381 JUMP JUMPDEST SWAP1 POP SWAP2 SWAP1 POP JUMP JUMPDEST PUSH2 0x13BA DUP2 PUSH2 0x13A0 JUMP JUMPDEST DUP3 MSTORE POP POP JUMP JUMPDEST PUSH0 PUSH1 0x60 DUP3 ADD SWAP1 POP PUSH2 0x13D3 PUSH0 DUP4 ADD DUP7 PUSH2 0x1291 JUMP JUMPDEST PUSH2 0x13E0 PUSH1 0x20 DUP4 ADD DUP6 PUSH2 0x13B1 JUMP JUMPDEST PUSH2 0x13ED PUSH1 0x40 DUP4 ADD DUP5 PUSH2 0x1291 JUMP JUMPDEST SWAP5 SWAP4 POP POP POP POP JUMP JUMPDEST PUSH2 0x13FE DUP2 PUSH2 0x13A0 JUMP JUMPDEST DUP2 EQ PUSH2 0x1408 JUMPI PUSH0 DUP1 REVERT JUMPDEST POP JUMP JUMPDEST PUSH0 DUP2 CALLDATALOAD SWAP1 POP PUSH2 0x1419 DUP2 PUSH2 0x13F5 JUMP JUMPDEST SWAP3 SWAP2 POP POP JUMP JUMPDEST PUSH0 PUSH1 0x20 DUP3 DUP5 SUB SLT ISZERO PUSH2 0x1434 JUMPI PUSH2 0x1433 PUSH2 0x12B9 JUMP JUMPDEST JUMPDEST PUSH0 PUSH2 0x1441 DUP5 DUP3 DUP6 ADD PUSH2 0x140B JUMP JUMPDEST SWAP2 POP POP SWAP3 SWAP2 POP POP JUMP JUMPDEST PUSH2 0x1453 DUP2 PUSH2 0x1325 JUMP JUMPDEST DUP2 EQ PUSH2 0x145D JUMPI PUSH0 DUP1 REVERT JUMPDEST POP JUMP JUMPDEST PUSH0 DUP2 CALLDATALOAD SWAP1 POP PUSH2 0x146E DUP2 PUSH2 0x144A JUMP JUMPDEST SWAP3 SWAP2 POP POP JUMP JUMPDEST PUSH0 PUSH1 0x20 DUP3 DUP5 SUB SLT ISZERO PUSH2 0x1489 JUMPI PUSH2 0x1488 PUSH2 0x12B9 JUMP JUMPDEST JUMPDEST PUSH0 PUSH2 0x1496 DUP5 DUP3 DUP6 ADD PUSH2 0x1460 JUMP JUMPDEST SWAP2 POP POP SWAP3 SWAP2 POP POP JUMP JUMPDEST PUSH32 0x4E487B7100000000000000000000000000000000000000000000000000000000 PUSH0 MSTORE PUSH1 0x11 PUSH1 0x4 MSTORE PUSH1 0x24 PUSH0 REVERT JUMPDEST PUSH0 PUSH2 0x14D6 DUP3 PUSH2 0x1288 JUMP JUMPDEST SWAP2 POP PUSH2 0x14E1 DUP4 PUSH2 0x1288 JUMP JUMPDEST SWAP3 POP DUP3 DUP3 ADD SWAP1 POP DUP1 DUP3 GT ISZERO PUSH2 0x14F9 JUMPI PUSH2 0x14F8 PUSH2 0x149F JUMP JUMPDEST JUMPDEST SWAP3 SWAP2 POP POP JUMP JUMPDEST PUSH0 DUP3 DUP3 MSTORE PUSH1 0x20 DUP3 ADD SWAP1 POP SWAP3 SWAP2 POP POP JUMP JUMPDEST PUSH32 0x54696D6520686173206E6F742072616E206F7574207965740000000000000000 PUSH0 DUP3 ADD MSTORE POP JUMP JUMPDEST PUSH0 PUSH2 0x1543 PUSH1 0x18 DUP4 PUSH2 0x14FF JUMP JUMPDEST SWAP2 POP PUSH2 0x154E DUP3 PUSH2 0x150F JUMP JUMPDEST PUSH1 0x20 DUP3 ADD SWAP1 POP SWAP2 SWAP1 POP JUMP JUMPDEST PUSH0 PUSH1 0x20 DUP3 ADD SWAP1 POP DUP2 DUP2 SUB PUSH0 DUP4 ADD MSTORE PUSH2 0x1570 DUP2 PUSH2 0x1537 JUMP JUMPDEST SWAP1 POP SWAP2 SWAP1 POP JUMP JUMPDEST PUSH0 PUSH2 0x1581 DUP3 PUSH2 0x1288 JUMP JUMPDEST SWAP2 POP PUSH32 0xFFFFFFFFFFFFFFFFFFFFFFFFFFFFFFFFFFFFFFFFFFFFFFFFFFFFFFFFFFFFFFFF DUP3 SUB PUSH2 0x15B3 JUMPI PUSH2 0x15B2 PUSH2 0x149F JUMP JUMPDEST JUMPDEST PUSH1 0x1 DUP3 ADD SWAP1 POP SWAP2 SWAP1 POP JUMP JUMPDEST PUSH32 0x436F6D6D697452657665616C3A3A72657665616C416E737765723A20416C7265 PUSH0 DUP3 ADD MSTORE PUSH32 0x6164792072657665616C65640000000000000000000000000000000000000000 PUSH1 0x20 DUP3 ADD MSTORE POP JUMP JUMPDEST PUSH0 PUSH2 0x1618 PUSH1 0x2C DUP4 PUSH2 0x14FF JUMP JUMPDEST SWAP2 POP PUSH2 0x1623 DUP3 PUSH2 0x15BE JUMP JUMPDEST PUSH1 0x40 DUP3 ADD SWAP1 POP SWAP2 SWAP1 POP JUMP JUMPDEST PUSH0 PUSH1 0x20 DUP3 ADD SWAP1 POP DUP2 DUP2 SUB PUSH0 DUP4 ADD MSTORE PUSH2 0x1645 DUP2 PUSH2 0x160C JUMP JUMPDEST SWAP1 POP SWAP2 SWAP1 POP JUMP JUMPDEST PUSH32 0x436F6D6D697452657665616C3A3A72657665616C416E737765723A2052657665 PUSH0 DUP3 ADD MSTORE PUSH32 0x616C6564206861736820646F6573206E6F74206D6174636820636F6D6D697400 PUSH1 0x20 DUP3 ADD MSTORE POP JUMP JUMPDEST PUSH0 PUSH2 0x16A6 PUSH1 0x3F DUP4 PUSH2 0x14FF JUMP JUMPDEST SWAP2 POP PUSH2 0x16B1 DUP3 PUSH2 0x164C JUMP JUMPDEST PUSH1 0x40 DUP3 ADD SWAP1 POP SWAP2 SWAP1 POP JUMP JUMPDEST PUSH0 PUSH1 0x20 DUP3 ADD SWAP1 POP DUP2 DUP2 SUB PUSH0 DUP4 ADD MSTORE PUSH2 0x16D3 DUP2 PUSH2 0x169A JUMP JUMPDEST SWAP1 POP SWAP2 SWAP1 POP JUMP JUMPDEST PUSH0 PUSH1 0x60 DUP3 ADD SWAP1 POP PUSH2 0x16ED PUSH0 DUP4 ADD DUP7 PUSH2 0x13B1 JUMP JUMPDEST PUSH2 0x16FA PUSH1 0x20 DUP4 ADD DUP6 PUSH2 0x132E JUMP JUMPDEST PUSH2 0x1707 PUSH1 0x40 DUP4 ADD DUP5 PUSH2 0x132E JUMP JUMPDEST SWAP5 SWAP4 POP POP POP POP JUMP JUMPDEST PUSH32 0x4E487B7100000000000000000000000000000000000000000000000000000000 PUSH0 MSTORE PUSH1 0x12 PUSH1 0x4 MSTORE PUSH1 0x24 PUSH0 REVERT JUMPDEST PUSH0 PUSH2 0x1746 DUP3 PUSH2 0x1288 JUMP JUMPDEST SWAP2 POP PUSH2 0x1751 DUP4 PUSH2 0x1288 JUMP JUMPDEST SWAP3 POP DUP3 PUSH2 0x1761 JUMPI PUSH2 0x1760 PUSH2 0x170F JUMP JUMPDEST JUMPDEST DUP3 DUP3 MOD SWAP1 POP SWAP3 SWAP2 POP POP JUMP JUMPDEST PUSH0 PUSH2 0x1776 DUP3 PUSH2 0x1288 JUMP JUMPDEST SWAP2 POP PUSH2 0x1781 DUP4 PUSH2 0x1288 JUMP JUMPDEST SWAP3 POP DUP3 PUSH2 0x1791 JUMPI PUSH2 0x1790 PUSH2 0x170F JUMP JUMPDEST JUMPDEST DUP3 DUP3 DIV SWAP1 POP SWAP3 SWAP2 POP POP JUMP JUMPDEST PUSH0 DUP2 PUSH1 0x60 SHL SWAP1 POP SWAP2 SWAP1 POP JUMP JUMPDEST PUSH0 PUSH2 0x17B2 DUP3 PUSH2 0x179C JUMP JUMPDEST SWAP1 POP SWAP2 SWAP1 POP JUMP JUMPDEST PUSH0 PUSH2 0x17C3 DUP3 PUSH2 0x17A8 JUMP JUMPDEST SWAP1 POP SWAP2 SWAP1 POP JUMP JUMPDEST PUSH2 0x17DB PUSH2 0x17D6 DUP3 PUSH2 0x13A0 JUMP JUMPDEST PUSH2 0x17B9 JUMP JUMPDEST DUP3 MSTORE POP POP JUMP JUMPDEST PUSH0 DUP2 SWAP1 POP SWAP2 SWAP1 POP JUMP JUMPDEST PUSH2 0x17FB PUSH2 0x17F6 DUP3 PUSH2 0x1325 JUMP JUMPDEST PUSH2 0x17E1 JUMP JUMPDEST DUP3 MSTORE POP POP JUMP JUMPDEST PUSH0 PUSH2 0x180C DUP3 DUP7 PUSH2 0x17CA JUMP JUMPDEST PUSH1 0x14 DUP3 ADD SWAP2 POP PUSH2 0x181C DUP3 DUP6 PUSH2 0x17EA JUMP JUMPDEST PUSH1 0x20 DUP3 ADD SWAP2 POP PUSH2 0x182C DUP3 DUP5 PUSH2 0x17EA JUMP JUMPDEST PUSH1 0x20 DUP3 ADD SWAP2 POP DUP2 SWAP1 POP SWAP5 SWAP4 POP POP POP POP JUMP JUMPDEST PUSH0 PUSH1 0x40 DUP3 ADD SWAP1 POP PUSH2 0x1850 PUSH0 DUP4 ADD DUP6 PUSH2 0x13B1 JUMP JUMPDEST PUSH2 0x185D PUSH1 0x20 DUP4 ADD DUP5 PUSH2 0x132E JUMP JUMPDEST SWAP4 SWAP3 POP POP POP JUMP INVALID LOG2 PUSH5 0x6970667358 0x22 SLT KECCAK256 CALLVALUE MSIZE 0xB6 GAS 0xC6 PUSH21 0x64D61A8F5CDF134748A353466E0C3E400166E2E55E 0xEC CODESIZE 0xB5 0xC3 0xE6 PUSH5 0x736F6C6343 STOP ADDMOD XOR STOP CALLER "
				},
				"gasEstimates": {
					"creation": {
						"codeDepositCost": "1259600",
						"executionCost": "50597",
						"totalCost": "1310197"
					},
					"external": {
						"TIMEOUT()": "413",
						"addPlayer()": "infinite",
						"checkTimeout()": "infinite",
						"commitChoice(bytes32)": "infinite",
						"currentTime()": "375",
						"getChoiceHash(uint256,uint256)": "infinite",
						"latestActionTimestamp()": "2470",
						"numCommit()": "2470",
						"numPlayer()": "2448",
						"numRevealed()": "2514",
						"player(uint256)": "infinite",
						"playerIdx(address)": "2824",
						"revealChoice(uint256,uint256)": "infinite",
						"reward()": "2471"
					},
					"internal": {
						"_checkWinnerAndPay()": "infinite",
						"_reset()": "25074"
					}
				},
				"methodIdentifiers": {
					"TIMEOUT()": "f56f48f2",
					"addPlayer()": "27b5db8a",
					"checkTimeout()": "09bbd6a0",
					"commitChoice(bytes32)": "e05b10c0",
					"currentTime()": "d18e81b3",
					"getChoiceHash(uint256,uint256)": "7661f2b1",
					"latestActionTimestamp()": "50899a1e",
					"numCommit()": "929dfff2",
					"numPlayer()": "90d5d0c3",
					"numRevealed()": "76d4192c",
					"player(uint256)": "9e0551c6",
					"playerIdx(address)": "ae73ea65",
					"revealChoice(uint256,uint256)": "41a807e1",
					"reward()": "228cb733"
				}
			},
			"storageLayout": {
				"storage": [
					{
						"astId": 4,
						"contract": "RWAPSSF.sol:RPS",
						"label": "max",
						"offset": 0,
						"slot": "0",
						"type": "t_uint8"
					},
					{
						"astId": 14,
						"contract": "RWAPSSF.sol:RPS",
						"label": "commits",
						"offset": 0,
						"slot": "1",
						"type": "t_mapping(t_address,t_struct(Commit)9_storage)"
					},
					{
						"astId": 151,
						"contract": "RWAPSSF.sol:RPS",
						"label": "player",
						"offset": 0,
						"slot": "2",
						"type": "t_mapping(t_uint256,t_struct(Player)143_storage)"
					},
					{
						"astId": 155,
						"contract": "RWAPSSF.sol:RPS",
						"label": "playerIdx",
						"offset": 0,
						"slot": "3",
						"type": "t_mapping(t_address,t_uint256)"
					},
					{
						"astId": 158,
						"contract": "RWAPSSF.sol:RPS",
						"label": "numPlayer",
						"offset": 0,
						"slot": "4",
						"type": "t_uint256"
					},
					{
						"astId": 161,
						"contract": "RWAPSSF.sol:RPS",
						"label": "reward",
						"offset": 0,
						"slot": "5",
						"type": "t_uint256"
					},
					{
						"astId": 164,
						"contract": "RWAPSSF.sol:RPS",
						"label": "numCommit",
						"offset": 0,
						"slot": "6",
						"type": "t_uint256"
					},
					{
						"astId": 167,
						"contract": "RWAPSSF.sol:RPS",
						"label": "numRevealed",
						"offset": 0,
						"slot": "7",
						"type": "t_uint256"
					},
					{
						"astId": 170,
						"contract": "RWAPSSF.sol:RPS",
						"label": "latestActionTimestamp",
						"offset": 0,
						"slot": "8",
						"type": "t_uint256"
					}
				],
				"types": {
					"t_address": {
						"encoding": "inplace",
						"label": "address",
						"numberOfBytes": "20"
					},
					"t_bool": {
						"encoding": "inplace",
						"label": "bool",
						"numberOfBytes": "1"
					},
					"t_bytes32": {
						"encoding": "inplace",
						"label": "bytes32",
						"numberOfBytes": "32"
					},
					"t_mapping(t_address,t_struct(Commit)9_storage)": {
						"encoding": "mapping",
						"key": "t_address",
						"label": "mapping(address => struct CommitReveal.Commit)",
						"numberOfBytes": "32",
						"value": "t_struct(Commit)9_storage"
					},
					"t_mapping(t_address,t_uint256)": {
						"encoding": "mapping",
						"key": "t_address",
						"label": "mapping(address => uint256)",
						"numberOfBytes": "32",
						"value": "t_uint256"
					},
					"t_mapping(t_uint256,t_struct(Player)143_storage)": {
						"encoding": "mapping",
						"key": "t_uint256",
						"label": "mapping(uint256 => struct RPS.Player)",
						"numberOfBytes": "32",
						"value": "t_struct(Player)143_storage"
					},
					"t_struct(Commit)9_storage": {
						"encoding": "inplace",
						"label": "struct CommitReveal.Commit",
						"members": [
							{
								"astId": 6,
								"contract": "RWAPSSF.sol:RPS",
								"label": "commit",
								"offset": 0,
								"slot": "0",
								"type": "t_bytes32"
							},
							{
								"astId": 8,
								"contract": "RWAPSSF.sol:RPS",
								"label": "revealed",
								"offset": 0,
								"slot": "1",
								"type": "t_bool"
							}
						],
						"numberOfBytes": "64"
					},
					"t_struct(Player)143_storage": {
						"encoding": "inplace",
						"label": "struct RPS.Player",
						"members": [
							{
								"astId": 138,
								"contract": "RWAPSSF.sol:RPS",
								"label": "choice",
								"offset": 0,
								"slot": "0",
								"type": "t_uint256"
							},
							{
								"astId": 140,
								"contract": "RWAPSSF.sol:RPS",
								"label": "addr",
								"offset": 0,
								"slot": "1",
								"type": "t_address"
							},
							{
								"astId": 142,
								"contract": "RWAPSSF.sol:RPS",
								"label": "fund",
								"offset": 0,
								"slot": "2",
								"type": "t_uint256"
							}
						],
						"numberOfBytes": "96"
					},
					"t_uint256": {
						"encoding": "inplace",
						"label": "uint256",
						"numberOfBytes": "32"
					},
					"t_uint8": {
						"encoding": "inplace",
						"label": "uint8",
						"numberOfBytes": "1"
					}
				}
			},
			"userdoc": {
				"kind": "user",
				"methods": {},
				"version": 1
			}
		}
	}
}