{
	"RPS.sol": {
		"RPS": {
			"abi": [
				{
					"anonymous": false,
					"inputs": [
						{
							"indexed": false,
							"internalType": "address",
							"name": "sender",
							"type": "address"
						},
						{
							"indexed": false,
							"internalType": "bytes32",
							"name": "dataHash",
							"type": "bytes32"
						}
					],
					"name": "CommitHash",
					"type": "event"
				},
				{
					"anonymous": false,
					"inputs": [
						{
							"indexed": false,
							"internalType": "address",
							"name": "sender",
							"type": "address"
						},
						{
							"indexed": false,
							"internalType": "bytes32",
							"name": "answer",
							"type": "bytes32"
						},
						{
							"indexed": false,
							"internalType": "bytes32",
							"name": "salt",
							"type": "bytes32"
						}
					],
					"name": "RevealAnswer",
					"type": "event"
				},
				{
					"inputs": [],
					"name": "addPlayer",
					"outputs": [],
					"stateMutability": "payable",
					"type": "function"
				},
				{
					"inputs": [
						{
							"internalType": "bytes32",
							"name": "dataHash",
							"type": "bytes32"
						}
					],
					"name": "commit",
					"outputs": [],
					"stateMutability": "nonpayable",
					"type": "function"
				},
				{
					"inputs": [
						{
							"internalType": "bytes32",
							"name": "choiceHash",
							"type": "bytes32"
						}
					],
					"name": "commitChoice",
					"outputs": [],
					"stateMutability": "nonpayable",
					"type": "function"
				},
				{
					"inputs": [
						{
							"internalType": "address",
							"name": "",
							"type": "address"
						}
					],
					"name": "commits",
					"outputs": [
						{
							"internalType": "bytes32",
							"name": "commit",
							"type": "bytes32"
						},
						{
							"internalType": "bool",
							"name": "revealed",
							"type": "bool"
						}
					],
					"stateMutability": "view",
					"type": "function"
				},
				{
					"inputs": [
						{
							"internalType": "uint256",
							"name": "choice",
							"type": "uint256"
						},
						{
							"internalType": "uint256",
							"name": "salt",
							"type": "uint256"
						}
					],
					"name": "getChoiceHash",
					"outputs": [
						{
							"internalType": "bytes32",
							"name": "",
							"type": "bytes32"
						}
					],
					"stateMutability": "view",
					"type": "function"
				},
				{
					"inputs": [
						{
							"internalType": "bytes32",
							"name": "data",
							"type": "bytes32"
						},
						{
							"internalType": "bytes32",
							"name": "salt",
							"type": "bytes32"
						}
					],
					"name": "getSaltedHash",
					"outputs": [
						{
							"internalType": "bytes32",
							"name": "",
							"type": "bytes32"
						}
					],
					"stateMutability": "view",
					"type": "function"
				},
				{
					"inputs": [],
					"name": "max",
					"outputs": [
						{
							"internalType": "uint8",
							"name": "",
							"type": "uint8"
						}
					],
					"stateMutability": "view",
					"type": "function"
				},
				{
					"inputs": [],
					"name": "numInput",
					"outputs": [
						{
							"internalType": "uint256",
							"name": "",
							"type": "uint256"
						}
					],
					"stateMutability": "view",
					"type": "function"
				},
				{
					"inputs": [],
					"name": "numPlayer",
					"outputs": [
						{
							"internalType": "uint256",
							"name": "",
							"type": "uint256"
						}
					],
					"stateMutability": "view",
					"type": "function"
				},
				{
					"inputs": [],
					"name": "numRevealed",
					"outputs": [
						{
							"internalType": "uint256",
							"name": "",
							"type": "uint256"
						}
					],
					"stateMutability": "view",
					"type": "function"
				},
				{
					"inputs": [
						{
							"internalType": "uint256",
							"name": "",
							"type": "uint256"
						}
					],
					"name": "player",
					"outputs": [
						{
							"internalType": "uint256",
							"name": "choice",
							"type": "uint256"
						},
						{
							"internalType": "address",
							"name": "addr",
							"type": "address"
						}
					],
					"stateMutability": "view",
					"type": "function"
				},
				{
					"inputs": [
						{
							"internalType": "address",
							"name": "",
							"type": "address"
						}
					],
					"name": "playerIdx",
					"outputs": [
						{
							"internalType": "uint256",
							"name": "",
							"type": "uint256"
						}
					],
					"stateMutability": "view",
					"type": "function"
				},
				{
					"inputs": [
						{
							"internalType": "bytes32",
							"name": "answer",
							"type": "bytes32"
						},
						{
							"internalType": "bytes32",
							"name": "salt",
							"type": "bytes32"
						}
					],
					"name": "revealAnswer",
					"outputs": [],
					"stateMutability": "nonpayable",
					"type": "function"
				},
				{
					"inputs": [
						{
							"internalType": "uint256",
							"name": "choice",
							"type": "uint256"
						},
						{
							"internalType": "uint256",
							"name": "salt",
							"type": "uint256"
						}
					],
					"name": "revealChoice",
					"outputs": [],
					"stateMutability": "nonpayable",
					"type": "function"
				},
				{
					"inputs": [],
					"name": "reward",
					"outputs": [
						{
							"internalType": "uint256",
							"name": "",
							"type": "uint256"
						}
					],
					"stateMutability": "view",
					"type": "function"
				}
			],
			"devdoc": {
				"kind": "dev",
				"methods": {},
				"version": 1
			},
			"evm": {
				"assembly": "    /* \"RPS.sol\":104:2345  contract RPS is CommitReveal {... */\n  mstore(0x40, 0x80)\n    /* \"CommitReveal.sol\":116:119  100 */\n  0x64\n    /* \"CommitReveal.sol\":97:119  uint8 public max = 100 */\n  0x00\n  dup1\n  0x0100\n  exp\n  dup2\n  sload\n  dup2\n  0xff\n  mul\n  not\n  and\n  swap1\n  dup4\n  0xff\n  and\n  mul\n  or\n  swap1\n  sstore\n  pop\n    /* \"RPS.sol\":390:391  0 */\n  0x00\n    /* \"RPS.sol\":366:391  uint public numPlayer = 0 */\n  0x04\n  sstore\n    /* \"RPS.sol\":419:420  0 */\n  0x00\n    /* \"RPS.sol\":398:420  uint public reward = 0 */\n  0x05\n  sstore\n    /* \"RPS.sol\":450:451  0 */\n  0x00\n    /* \"RPS.sol\":427:451  uint public numInput = 0 */\n  0x06\n  sstore\n    /* \"RPS.sol\":484:485  0 */\n  0x00\n    /* \"RPS.sol\":458:485  uint public numRevealed = 0 */\n  0x07\n  sstore\n    /* \"RPS.sol\":104:2345  contract RPS is CommitReveal {... */\n  callvalue\n  dup1\n  iszero\n  tag_1\n  jumpi\n  0x00\n  dup1\n  revert\ntag_1:\n  pop\n  dataSize(sub_0)\n  dup1\n  dataOffset(sub_0)\n  0x00\n  codecopy\n  0x00\n  return\nstop\n\nsub_0: assembly {\n        /* \"RPS.sol\":104:2345  contract RPS is CommitReveal {... */\n      mstore(0x40, 0x80)\n      jumpi(tag_1, lt(calldatasize, 0x04))\n      shr(0xe0, calldataload(0x00))\n      dup1\n      0x7b43a8e6\n      gt\n      tag_17\n      jumpi\n      dup1\n      0xae73ea65\n      gt\n      tag_18\n      jumpi\n      dup1\n      0xae73ea65\n      eq\n      tag_13\n      jumpi\n      dup1\n      0xde8e9033\n      eq\n      tag_14\n      jumpi\n      dup1\n      0xe05b10c0\n      eq\n      tag_15\n      jumpi\n      dup1\n      0xf14fcbc8\n      eq\n      tag_16\n      jumpi\n      jump(tag_1)\n    tag_18:\n      dup1\n      0x7b43a8e6\n      eq\n      tag_9\n      jumpi\n      dup1\n      0x8dddbf36\n      eq\n      tag_10\n      jumpi\n      dup1\n      0x90d5d0c3\n      eq\n      tag_11\n      jumpi\n      dup1\n      0x9e0551c6\n      eq\n      tag_12\n      jumpi\n      jump(tag_1)\n    tag_17:\n      dup1\n      0x41a807e1\n      gt\n      tag_19\n      jumpi\n      dup1\n      0x41a807e1\n      eq\n      tag_5\n      jumpi\n      dup1\n      0x6ac5db19\n      eq\n      tag_6\n      jumpi\n      dup1\n      0x7661f2b1\n      eq\n      tag_7\n      jumpi\n      dup1\n      0x76d4192c\n      eq\n      tag_8\n      jumpi\n      jump(tag_1)\n    tag_19:\n      dup1\n      0x086f7815\n      eq\n      tag_2\n      jumpi\n      dup1\n      0x228cb733\n      eq\n      tag_3\n      jumpi\n      dup1\n      0x27b5db8a\n      eq\n      tag_4\n      jumpi\n    tag_1:\n      0x00\n      dup1\n      revert\n        /* \"RPS.sol\":427:451  uint public numInput = 0 */\n    tag_2:\n      callvalue\n      dup1\n      iszero\n      tag_20\n      jumpi\n      0x00\n      dup1\n      revert\n    tag_20:\n      pop\n      tag_21\n      tag_22\n      jump\t// in\n    tag_21:\n      mload(0x40)\n      tag_23\n      swap2\n      swap1\n      tag_24\n      jump\t// in\n    tag_23:\n      mload(0x40)\n      dup1\n      swap2\n      sub\n      swap1\n      return\n        /* \"RPS.sol\":398:420  uint public reward = 0 */\n    tag_3:\n      callvalue\n      dup1\n      iszero\n      tag_25\n      jumpi\n      0x00\n      dup1\n      revert\n    tag_25:\n      pop\n      tag_26\n      tag_27\n      jump\t// in\n    tag_26:\n      mload(0x40)\n      tag_28\n      swap2\n      swap1\n      tag_24\n      jump\t// in\n    tag_28:\n      mload(0x40)\n      dup1\n      swap2\n      sub\n      swap1\n      return\n        /* \"RPS.sol\":494:794  function addPlayer() public payable {... */\n    tag_4:\n      tag_29\n      tag_30\n      jump\t// in\n    tag_29:\n      stop\n        /* \"RPS.sol\":1215:1662  function revealChoice(uint choice, uint salt) public {... */\n    tag_5:\n      callvalue\n      dup1\n      iszero\n      tag_31\n      jumpi\n      0x00\n      dup1\n      revert\n    tag_31:\n      pop\n      tag_32\n      0x04\n      dup1\n      calldatasize\n      sub\n      dup2\n      add\n      swap1\n      tag_33\n      swap2\n      swap1\n      tag_34\n      jump\t// in\n    tag_33:\n      tag_35\n      jump\t// in\n    tag_32:\n      stop\n        /* \"CommitReveal.sol\":97:119  uint8 public max = 100 */\n    tag_6:\n      callvalue\n      dup1\n      iszero\n      tag_36\n      jumpi\n      0x00\n      dup1\n      revert\n    tag_36:\n      pop\n      tag_37\n      tag_38\n      jump\t// in\n    tag_37:\n      mload(0x40)\n      tag_39\n      swap2\n      swap1\n      tag_40\n      jump\t// in\n    tag_39:\n      mload(0x40)\n      dup1\n      swap2\n      sub\n      swap1\n      return\n        /* \"RPS.sol\":802:949  function getChoiceHash(uint choice, uint salt) public view returns(bytes32) {... */\n    tag_7:\n      callvalue\n      dup1\n      iszero\n      tag_41\n      jumpi\n      0x00\n      dup1\n      revert\n    tag_41:\n      pop\n      tag_42\n      0x04\n      dup1\n      calldatasize\n      sub\n      dup2\n      add\n      swap1\n      tag_43\n      swap2\n      swap1\n      tag_34\n      jump\t// in\n    tag_43:\n      tag_44\n      jump\t// in\n    tag_42:\n      mload(0x40)\n      tag_45\n      swap2\n      swap1\n      tag_46\n      jump\t// in\n    tag_45:\n      mload(0x40)\n      dup1\n      swap2\n      sub\n      swap1\n      return\n        /* \"RPS.sol\":458:485  uint public numRevealed = 0 */\n    tag_8:\n      callvalue\n      dup1\n      iszero\n      tag_47\n      jumpi\n      0x00\n      dup1\n      revert\n    tag_47:\n      pop\n      tag_48\n      tag_49\n      jump\t// in\n    tag_48:\n      mload(0x40)\n      tag_50\n      swap2\n      swap1\n      tag_24\n      jump\t// in\n    tag_50:\n      mload(0x40)\n      dup1\n      swap2\n      sub\n      swap1\n      return\n        /* \"CommitReveal.sol\":186:228  mapping (address => Commit) public commits */\n    tag_9:\n      callvalue\n      dup1\n      iszero\n      tag_51\n      jumpi\n      0x00\n      dup1\n      revert\n    tag_51:\n      pop\n      tag_52\n      0x04\n      dup1\n      calldatasize\n      sub\n      dup2\n      add\n      swap1\n      tag_53\n      swap2\n      swap1\n      tag_54\n      jump\t// in\n    tag_53:\n      tag_55\n      jump\t// in\n    tag_52:\n      mload(0x40)\n      tag_56\n      swap3\n      swap2\n      swap1\n      tag_57\n      jump\t// in\n    tag_56:\n      mload(0x40)\n      dup1\n      swap2\n      sub\n      swap1\n      return\n        /* \"CommitReveal.sol\":1058:1208  function getSaltedHash(bytes32 data,bytes32 salt) public view returns(bytes32){... */\n    tag_10:\n      callvalue\n      dup1\n      iszero\n      tag_58\n      jumpi\n      0x00\n      dup1\n      revert\n    tag_58:\n      pop\n      tag_59\n      0x04\n      dup1\n      calldatasize\n      sub\n      dup2\n      add\n      swap1\n      tag_60\n      swap2\n      swap1\n      tag_61\n      jump\t// in\n    tag_60:\n      tag_62\n      jump\t// in\n    tag_59:\n      mload(0x40)\n      tag_63\n      swap2\n      swap1\n      tag_46\n      jump\t// in\n    tag_63:\n      mload(0x40)\n      dup1\n      swap2\n      sub\n      swap1\n      return\n        /* \"RPS.sol\":366:391  uint public numPlayer = 0 */\n    tag_11:\n      callvalue\n      dup1\n      iszero\n      tag_64\n      jumpi\n      0x00\n      dup1\n      revert\n    tag_64:\n      pop\n      tag_65\n      tag_66\n      jump\t// in\n    tag_65:\n      mload(0x40)\n      tag_67\n      swap2\n      swap1\n      tag_24\n      jump\t// in\n    tag_67:\n      mload(0x40)\n      dup1\n      swap2\n      sub\n      swap1\n      return\n        /* \"RPS.sol\":272:310  mapping (uint => Player) public player */\n    tag_12:\n      callvalue\n      dup1\n      iszero\n      tag_68\n      jumpi\n      0x00\n      dup1\n      revert\n    tag_68:\n      pop\n      tag_69\n      0x04\n      dup1\n      calldatasize\n      sub\n      dup2\n      add\n      swap1\n      tag_70\n      swap2\n      swap1\n      tag_71\n      jump\t// in\n    tag_70:\n      tag_72\n      jump\t// in\n    tag_69:\n      mload(0x40)\n      tag_73\n      swap3\n      swap2\n      swap1\n      tag_74\n      jump\t// in\n    tag_73:\n      mload(0x40)\n      dup1\n      swap2\n      sub\n      swap1\n      return\n        /* \"RPS.sol\":317:359  mapping (address => uint) public playerIdx */\n    tag_13:\n      callvalue\n      dup1\n      iszero\n      tag_75\n      jumpi\n      0x00\n      dup1\n      revert\n    tag_75:\n      pop\n      tag_76\n      0x04\n      dup1\n      calldatasize\n      sub\n      dup2\n      add\n      swap1\n      tag_77\n      swap2\n      swap1\n      tag_54\n      jump\t// in\n    tag_77:\n      tag_78\n      jump\t// in\n    tag_76:\n      mload(0x40)\n      tag_79\n      swap2\n      swap1\n      tag_24\n      jump\t// in\n    tag_79:\n      mload(0x40)\n      dup1\n      swap2\n      sub\n      swap1\n      return\n        /* \"CommitReveal.sol\":482:986  function revealAnswer(bytes32 answer, bytes32 salt) public {... */\n    tag_14:\n      callvalue\n      dup1\n      iszero\n      tag_80\n      jumpi\n      0x00\n      dup1\n      revert\n    tag_80:\n      pop\n      tag_81\n      0x04\n      dup1\n      calldatasize\n      sub\n      dup2\n      add\n      swap1\n      tag_82\n      swap2\n      swap1\n      tag_61\n      jump\t// in\n    tag_82:\n      tag_83\n      jump\t// in\n    tag_81:\n      stop\n        /* \"RPS.sol\":957:1207  function commitChoice(bytes32 choiceHash) public  {... */\n    tag_15:\n      callvalue\n      dup1\n      iszero\n      tag_84\n      jumpi\n      0x00\n      dup1\n      revert\n    tag_84:\n      pop\n      tag_85\n      0x04\n      dup1\n      calldatasize\n      sub\n      dup2\n      add\n      swap1\n      tag_86\n      swap2\n      swap1\n      tag_87\n      jump\t// in\n    tag_86:\n      tag_88\n      jump\t// in\n    tag_85:\n      stop\n        /* \"CommitReveal.sol\":233:424  function commit(bytes32 dataHash) public {... */\n    tag_16:\n      callvalue\n      dup1\n      iszero\n      tag_89\n      jumpi\n      0x00\n      dup1\n      revert\n    tag_89:\n      pop\n      tag_90\n      0x04\n      dup1\n      calldatasize\n      sub\n      dup2\n      add\n      swap1\n      tag_91\n      swap2\n      swap1\n      tag_87\n      jump\t// in\n    tag_91:\n      tag_92\n      jump\t// in\n    tag_90:\n      stop\n        /* \"RPS.sol\":427:451  uint public numInput = 0 */\n    tag_22:\n      sload(0x06)\n      dup2\n      jump\t// out\n        /* \"RPS.sol\":398:420  uint public reward = 0 */\n    tag_27:\n      sload(0x05)\n      dup2\n      jump\t// out\n        /* \"RPS.sol\":494:794  function addPlayer() public payable {... */\n    tag_30:\n        /* \"RPS.sol\":561:562  2 */\n      0x02\n        /* \"RPS.sol\":549:558  numPlayer */\n      sload(0x04)\n        /* \"RPS.sol\":549:562  numPlayer < 2 */\n      lt\n        /* \"RPS.sol\":541:563  require(numPlayer < 2) */\n      tag_94\n      jumpi\n      0x00\n      dup1\n      revert\n    tag_94:\n        /* \"RPS.sol\":595:602  1 ether */\n      0x0de0b6b3a7640000\n        /* \"RPS.sol\":582:591  msg.value */\n      callvalue\n        /* \"RPS.sol\":582:602  msg.value == 1 ether */\n      eq\n        /* \"RPS.sol\":574:603  require(msg.value == 1 ether) */\n      tag_95\n      jumpi\n      0x00\n      dup1\n      revert\n    tag_95:\n        /* \"RPS.sol\":626:635  msg.value */\n      callvalue\n        /* \"RPS.sol\":616:622  reward */\n      0x05\n      0x00\n        /* \"RPS.sol\":616:635  reward += msg.value */\n      dup3\n      dup3\n      sload\n      tag_96\n      swap2\n      swap1\n      tag_97\n      jump\t// in\n    tag_96:\n      swap3\n      pop\n      pop\n      dup2\n      swap1\n      sstore\n      pop\n        /* \"RPS.sol\":671:681  msg.sender */\n      caller\n        /* \"RPS.sol\":646:652  player */\n      0x02\n        /* \"RPS.sol\":646:663  player[numPlayer] */\n      0x00\n        /* \"RPS.sol\":653:662  numPlayer */\n      sload(0x04)\n        /* \"RPS.sol\":646:663  player[numPlayer] */\n      dup2\n      mstore\n      0x20\n      add\n      swap1\n      dup2\n      mstore\n      0x20\n      add\n      0x00\n      keccak256\n        /* \"RPS.sol\":646:668  player[numPlayer].addr */\n      0x01\n      add\n      0x00\n        /* \"RPS.sol\":646:681  player[numPlayer].addr = msg.sender */\n      0x0100\n      exp\n      dup2\n      sload\n      dup2\n      0xffffffffffffffffffffffffffffffffffffffff\n      mul\n      not\n      and\n      swap1\n      dup4\n      0xffffffffffffffffffffffffffffffffffffffff\n      and\n      mul\n      or\n      swap1\n      sstore\n      pop\n        /* \"RPS.sol\":719:720  3 */\n      0x03\n        /* \"RPS.sol\":692:698  player */\n      0x02\n        /* \"RPS.sol\":692:709  player[numPlayer] */\n      0x00\n        /* \"RPS.sol\":699:708  numPlayer */\n      sload(0x04)\n        /* \"RPS.sol\":692:709  player[numPlayer] */\n      dup2\n      mstore\n      0x20\n      add\n      swap1\n      dup2\n      mstore\n      0x20\n      add\n      0x00\n      keccak256\n        /* \"RPS.sol\":692:716  player[numPlayer].choice */\n      0x00\n      add\n        /* \"RPS.sol\":692:720  player[numPlayer].choice = 3 */\n      dup2\n      swap1\n      sstore\n      pop\n        /* \"RPS.sol\":755:764  numPlayer */\n      sload(0x04)\n        /* \"RPS.sol\":731:740  playerIdx */\n      0x03\n        /* \"RPS.sol\":731:752  playerIdx[msg.sender] */\n      0x00\n        /* \"RPS.sol\":741:751  msg.sender */\n      caller\n        /* \"RPS.sol\":731:752  playerIdx[msg.sender] */\n      0xffffffffffffffffffffffffffffffffffffffff\n      and\n      0xffffffffffffffffffffffffffffffffffffffff\n      and\n      dup2\n      mstore\n      0x20\n      add\n      swap1\n      dup2\n      mstore\n      0x20\n      add\n      0x00\n      keccak256\n        /* \"RPS.sol\":731:764  playerIdx[msg.sender] = numPlayer */\n      dup2\n      swap1\n      sstore\n      pop\n        /* \"RPS.sol\":775:784  numPlayer */\n      0x04\n      0x00\n        /* \"RPS.sol\":775:786  numPlayer++ */\n      dup2\n      sload\n      dup1\n      swap3\n      swap2\n      swap1\n      tag_98\n      swap1\n      tag_99\n      jump\t// in\n    tag_98:\n      swap2\n      swap1\n      pop\n      sstore\n      pop\n        /* \"RPS.sol\":494:794  function addPlayer() public payable {... */\n      jump\t// out\n        /* \"RPS.sol\":1215:1662  function revealChoice(uint choice, uint salt) public {... */\n    tag_35:\n        /* \"RPS.sol\":1297:1298  3 */\n      0x03\n        /* \"RPS.sol\":1287:1293  choice */\n      dup3\n        /* \"RPS.sol\":1287:1298  choice <= 3 */\n      gt\n      iszero\n        /* \"RPS.sol\":1279:1299  require(choice <= 3) */\n      tag_101\n      jumpi\n      0x00\n      dup1\n      revert\n    tag_101:\n        /* \"RPS.sol\":1331:1332  2 */\n      0x02\n        /* \"RPS.sol\":1318:1327  numPlayer */\n      sload(0x04)\n        /* \"RPS.sol\":1318:1332  numPlayer == 2 */\n      eq\n        /* \"RPS.sol\":1310:1333  require(numPlayer == 2) */\n      tag_102\n      jumpi\n      0x00\n      dup1\n      revert\n    tag_102:\n        /* \"RPS.sol\":1364:1365  2 */\n      0x02\n        /* \"RPS.sol\":1352:1360  numInput */\n      sload(0x06)\n        /* \"RPS.sol\":1352:1365  numInput == 2 */\n      eq\n        /* \"RPS.sol\":1344:1366  require(numInput == 2) */\n      tag_103\n      jumpi\n      0x00\n      dup1\n      revert\n    tag_103:\n        /* \"RPS.sol\":1399:1405  player */\n      0x02\n        /* \"RPS.sol\":1399:1428  player[playerIdx[msg.sender]] */\n      0x00\n        /* \"RPS.sol\":1406:1415  playerIdx */\n      0x03\n        /* \"RPS.sol\":1406:1427  playerIdx[msg.sender] */\n      0x00\n        /* \"RPS.sol\":1416:1426  msg.sender */\n      caller\n        /* \"RPS.sol\":1406:1427  playerIdx[msg.sender] */\n      0xffffffffffffffffffffffffffffffffffffffff\n      and\n      0xffffffffffffffffffffffffffffffffffffffff\n      and\n      dup2\n      mstore\n      0x20\n      add\n      swap1\n      dup2\n      mstore\n      0x20\n      add\n      0x00\n      keccak256\n      sload\n        /* \"RPS.sol\":1399:1428  player[playerIdx[msg.sender]] */\n      dup2\n      mstore\n      0x20\n      add\n      swap1\n      dup2\n      mstore\n      0x20\n      add\n      0x00\n      keccak256\n        /* \"RPS.sol\":1399:1433  player[playerIdx[msg.sender]].addr */\n      0x01\n      add\n      0x00\n      swap1\n      sload\n      swap1\n      0x0100\n      exp\n      swap1\n      div\n      0xffffffffffffffffffffffffffffffffffffffff\n      and\n        /* \"RPS.sol\":1385:1433  msg.sender == player[playerIdx[msg.sender]].addr */\n      0xffffffffffffffffffffffffffffffffffffffff\n      and\n        /* \"RPS.sol\":1385:1395  msg.sender */\n      caller\n        /* \"RPS.sol\":1385:1433  msg.sender == player[playerIdx[msg.sender]].addr */\n      0xffffffffffffffffffffffffffffffffffffffff\n      and\n      eq\n        /* \"RPS.sol\":1377:1434  require(msg.sender == player[playerIdx[msg.sender]].addr) */\n      tag_104\n      jumpi\n      0x00\n      dup1\n      revert\n    tag_104:\n        /* \"RPS.sol\":1447:1491  revealAnswer(bytes32(choice), bytes32(salt)) */\n      tag_105\n        /* \"RPS.sol\":1468:1474  choice */\n      dup3\n        /* \"RPS.sol\":1460:1475  bytes32(choice) */\n      0x00\n      shl\n        /* \"RPS.sol\":1485:1489  salt */\n      dup3\n        /* \"RPS.sol\":1477:1490  bytes32(salt) */\n      0x00\n      shl\n        /* \"RPS.sol\":1447:1459  revealAnswer */\n      tag_83\n        /* \"RPS.sol\":1447:1491  revealAnswer(bytes32(choice), bytes32(salt)) */\n      jump\t// in\n    tag_105:\n        /* \"RPS.sol\":1541:1547  choice */\n      dup2\n        /* \"RPS.sol\":1502:1508  player */\n      0x02\n        /* \"RPS.sol\":1502:1531  player[playerIdx[msg.sender]] */\n      0x00\n        /* \"RPS.sol\":1509:1518  playerIdx */\n      0x03\n        /* \"RPS.sol\":1509:1530  playerIdx[msg.sender] */\n      0x00\n        /* \"RPS.sol\":1519:1529  msg.sender */\n      caller\n        /* \"RPS.sol\":1509:1530  playerIdx[msg.sender] */\n      0xffffffffffffffffffffffffffffffffffffffff\n      and\n      0xffffffffffffffffffffffffffffffffffffffff\n      and\n      dup2\n      mstore\n      0x20\n      add\n      swap1\n      dup2\n      mstore\n      0x20\n      add\n      0x00\n      keccak256\n      sload\n        /* \"RPS.sol\":1502:1531  player[playerIdx[msg.sender]] */\n      dup2\n      mstore\n      0x20\n      add\n      swap1\n      dup2\n      mstore\n      0x20\n      add\n      0x00\n      keccak256\n        /* \"RPS.sol\":1502:1538  player[playerIdx[msg.sender]].choice */\n      0x00\n      add\n        /* \"RPS.sol\":1502:1547  player[playerIdx[msg.sender]].choice = choice */\n      dup2\n      swap1\n      sstore\n      pop\n        /* \"RPS.sol\":1560:1571  numRevealed */\n      0x07\n      0x00\n        /* \"RPS.sol\":1560:1573  numRevealed++ */\n      dup2\n      sload\n      dup1\n      swap3\n      swap2\n      swap1\n      tag_106\n      swap1\n      tag_99\n      jump\t// in\n    tag_106:\n      swap2\n      swap1\n      pop\n      sstore\n      pop\n        /* \"RPS.sol\":1605:1606  2 */\n      0x02\n        /* \"RPS.sol\":1590:1601  numRevealed */\n      sload(0x07)\n        /* \"RPS.sol\":1590:1606  numRevealed == 2 */\n      sub\n        /* \"RPS.sol\":1586:1655  if (numRevealed == 2) {... */\n      tag_107\n      jumpi\n        /* \"RPS.sol\":1623:1643  _checkWinnerAndPay() */\n      tag_108\n        /* \"RPS.sol\":1623:1641  _checkWinnerAndPay */\n      tag_109\n        /* \"RPS.sol\":1623:1643  _checkWinnerAndPay() */\n      jump\t// in\n    tag_108:\n        /* \"RPS.sol\":1586:1655  if (numRevealed == 2) {... */\n    tag_107:\n        /* \"RPS.sol\":1215:1662  function revealChoice(uint choice, uint salt) public {... */\n      pop\n      pop\n      jump\t// out\n        /* \"CommitReveal.sol\":97:119  uint8 public max = 100 */\n    tag_38:\n      0x00\n      dup1\n      sload\n      swap1\n      0x0100\n      exp\n      swap1\n      div\n      0xff\n      and\n      dup2\n      jump\t// out\n        /* \"RPS.sol\":802:949  function getChoiceHash(uint choice, uint salt) public view returns(bytes32) {... */\n    tag_44:\n        /* \"RPS.sol\":869:876  bytes32 */\n      0x00\n        /* \"RPS.sol\":896:941  getSaltedHash(bytes32(choice), bytes32(salt)) */\n      tag_111\n        /* \"RPS.sol\":918:924  choice */\n      dup4\n        /* \"RPS.sol\":910:925  bytes32(choice) */\n      0x00\n      shl\n        /* \"RPS.sol\":935:939  salt */\n      dup4\n        /* \"RPS.sol\":927:940  bytes32(salt) */\n      0x00\n      shl\n        /* \"RPS.sol\":896:909  getSaltedHash */\n      tag_62\n        /* \"RPS.sol\":896:941  getSaltedHash(bytes32(choice), bytes32(salt)) */\n      jump\t// in\n    tag_111:\n        /* \"RPS.sol\":889:941  return getSaltedHash(bytes32(choice), bytes32(salt)) */\n      swap1\n      pop\n        /* \"RPS.sol\":802:949  function getChoiceHash(uint choice, uint salt) public view returns(bytes32) {... */\n      swap3\n      swap2\n      pop\n      pop\n      jump\t// out\n        /* \"RPS.sol\":458:485  uint public numRevealed = 0 */\n    tag_49:\n      sload(0x07)\n      dup2\n      jump\t// out\n        /* \"CommitReveal.sol\":186:228  mapping (address => Commit) public commits */\n    tag_55:\n      mstore(0x20, 0x01)\n      dup1\n      0x00\n      mstore\n      keccak256(0x00, 0x40)\n      0x00\n      swap2\n      pop\n      swap1\n      pop\n      dup1\n      0x00\n      add\n      sload\n      swap1\n      dup1\n      0x01\n      add\n      0x00\n      swap1\n      sload\n      swap1\n      0x0100\n      exp\n      swap1\n      div\n      0xff\n      and\n      swap1\n      pop\n      dup3\n      jump\t// out\n        /* \"CommitReveal.sol\":1058:1208  function getSaltedHash(bytes32 data,bytes32 salt) public view returns(bytes32){... */\n    tag_62:\n        /* \"CommitReveal.sol\":1128:1135  bytes32 */\n      0x00\n        /* \"CommitReveal.sol\":1184:1188  this */\n      address\n        /* \"CommitReveal.sol\":1191:1195  data */\n      dup4\n        /* \"CommitReveal.sol\":1197:1201  salt */\n      dup4\n        /* \"CommitReveal.sol\":1159:1202  abi.encodePacked(address(this), data, salt) */\n      add(0x20, mload(0x40))\n      tag_113\n      swap4\n      swap3\n      swap2\n      swap1\n      tag_114\n      jump\t// in\n    tag_113:\n      mload(0x40)\n      0x20\n      dup2\n      dup4\n      sub\n      sub\n      dup2\n      mstore\n      swap1\n      0x40\n      mstore\n        /* \"CommitReveal.sol\":1149:1203  keccak256(abi.encodePacked(address(this), data, salt)) */\n      dup1\n      mload\n      swap1\n      0x20\n      add\n      keccak256\n        /* \"CommitReveal.sol\":1142:1203  return keccak256(abi.encodePacked(address(this), data, salt)) */\n      swap1\n      pop\n        /* \"CommitReveal.sol\":1058:1208  function getSaltedHash(bytes32 data,bytes32 salt) public view returns(bytes32){... */\n      swap3\n      swap2\n      pop\n      pop\n      jump\t// out\n        /* \"RPS.sol\":366:391  uint public numPlayer = 0 */\n    tag_66:\n      sload(0x04)\n      dup2\n      jump\t// out\n        /* \"RPS.sol\":272:310  mapping (uint => Player) public player */\n    tag_72:\n      mstore(0x20, 0x02)\n      dup1\n      0x00\n      mstore\n      keccak256(0x00, 0x40)\n      0x00\n      swap2\n      pop\n      swap1\n      pop\n      dup1\n      0x00\n      add\n      sload\n      swap1\n      dup1\n      0x01\n      add\n      0x00\n      swap1\n      sload\n      swap1\n      0x0100\n      exp\n      swap1\n      div\n      0xffffffffffffffffffffffffffffffffffffffff\n      and\n      swap1\n      pop\n      dup3\n      jump\t// out\n        /* \"RPS.sol\":317:359  mapping (address => uint) public playerIdx */\n    tag_78:\n      mstore(0x20, 0x03)\n      dup1\n      0x00\n      mstore\n      keccak256(0x00, 0x40)\n      0x00\n      swap2\n      pop\n      swap1\n      pop\n      sload\n      dup2\n      jump\t// out\n        /* \"CommitReveal.sol\":482:986  function revealAnswer(bytes32 answer, bytes32 salt) public {... */\n    tag_83:\n        /* \"CommitReveal.sol\":652:657  false */\n      0x00\n        /* \"CommitReveal.sol\":622:657  commits[msg.sender].revealed==false */\n      iszero\n      iszero\n        /* \"CommitReveal.sol\":622:629  commits */\n      0x01\n        /* \"CommitReveal.sol\":622:641  commits[msg.sender] */\n      0x00\n        /* \"CommitReveal.sol\":630:640  msg.sender */\n      caller\n        /* \"CommitReveal.sol\":622:641  commits[msg.sender] */\n      0xffffffffffffffffffffffffffffffffffffffff\n      and\n      0xffffffffffffffffffffffffffffffffffffffff\n      and\n      dup2\n      mstore\n      0x20\n      add\n      swap1\n      dup2\n      mstore\n      0x20\n      add\n      0x00\n      keccak256\n        /* \"CommitReveal.sol\":622:650  commits[msg.sender].revealed */\n      0x01\n      add\n      0x00\n      swap1\n      sload\n      swap1\n      0x0100\n      exp\n      swap1\n      div\n      0xff\n      and\n        /* \"CommitReveal.sol\":622:657  commits[msg.sender].revealed==false */\n      iszero\n      iszero\n      eq\n        /* \"CommitReveal.sol\":614:705  require(commits[msg.sender].revealed==false,\"CommitReveal::revealAnswer: Already revealed\") */\n      tag_116\n      jumpi\n      mload(0x40)\n      0x08c379a000000000000000000000000000000000000000000000000000000000\n      dup2\n      mstore\n      0x04\n      add\n      tag_117\n      swap1\n      tag_118\n      jump\t// in\n    tag_117:\n      mload(0x40)\n      dup1\n      swap2\n      sub\n      swap1\n      revert\n    tag_116:\n        /* \"CommitReveal.sol\":740:744  true */\n      0x01\n        /* \"CommitReveal.sol\":711:718  commits */\n      dup1\n        /* \"CommitReveal.sol\":711:730  commits[msg.sender] */\n      0x00\n        /* \"CommitReveal.sol\":719:729  msg.sender */\n      caller\n        /* \"CommitReveal.sol\":711:730  commits[msg.sender] */\n      0xffffffffffffffffffffffffffffffffffffffff\n      and\n      0xffffffffffffffffffffffffffffffffffffffff\n      and\n      dup2\n      mstore\n      0x20\n      add\n      swap1\n      dup2\n      mstore\n      0x20\n      add\n      0x00\n      keccak256\n        /* \"CommitReveal.sol\":711:739  commits[msg.sender].revealed */\n      0x01\n      add\n      0x00\n        /* \"CommitReveal.sol\":711:744  commits[msg.sender].revealed=true */\n      0x0100\n      exp\n      dup2\n      sload\n      dup2\n      0xff\n      mul\n      not\n      and\n      swap1\n      dup4\n      iszero\n      iszero\n      mul\n      or\n      swap1\n      sstore\n      pop\n        /* \"CommitReveal.sol\":841:848  commits */\n      0x01\n        /* \"CommitReveal.sol\":841:860  commits[msg.sender] */\n      0x00\n        /* \"CommitReveal.sol\":849:859  msg.sender */\n      caller\n        /* \"CommitReveal.sol\":841:860  commits[msg.sender] */\n      0xffffffffffffffffffffffffffffffffffffffff\n      and\n      0xffffffffffffffffffffffffffffffffffffffff\n      and\n      dup2\n      mstore\n      0x20\n      add\n      swap1\n      dup2\n      mstore\n      0x20\n      add\n      0x00\n      keccak256\n        /* \"CommitReveal.sol\":841:867  commits[msg.sender].commit */\n      0x00\n      add\n      sload\n        /* \"CommitReveal.sol\":813:839  getSaltedHash(answer,salt) */\n      tag_119\n        /* \"CommitReveal.sol\":827:833  answer */\n      dup4\n        /* \"CommitReveal.sol\":834:838  salt */\n      dup4\n        /* \"CommitReveal.sol\":813:826  getSaltedHash */\n      tag_62\n        /* \"CommitReveal.sol\":813:839  getSaltedHash(answer,salt) */\n      jump\t// in\n    tag_119:\n        /* \"CommitReveal.sol\":813:867  getSaltedHash(answer,salt)==commits[msg.sender].commit */\n      eq\n        /* \"CommitReveal.sol\":805:934  require(getSaltedHash(answer,salt)==commits[msg.sender].commit,\"CommitReveal::revealAnswer: Revealed hash does not match commit\") */\n      tag_120\n      jumpi\n      mload(0x40)\n      0x08c379a000000000000000000000000000000000000000000000000000000000\n      dup2\n      mstore\n      0x04\n      add\n      tag_121\n      swap1\n      tag_122\n      jump\t// in\n    tag_121:\n      mload(0x40)\n      dup1\n      swap2\n      sub\n      swap1\n      revert\n    tag_120:\n        /* \"CommitReveal.sol\":945:981  RevealAnswer(msg.sender,answer,salt) */\n      0x8bed02c4d61e56ed1d90657e7a0ba48f15cca20fcc2899d7235221b2cb0423a6\n        /* \"CommitReveal.sol\":958:968  msg.sender */\n      caller\n        /* \"CommitReveal.sol\":969:975  answer */\n      dup4\n        /* \"CommitReveal.sol\":976:980  salt */\n      dup4\n        /* \"CommitReveal.sol\":945:981  RevealAnswer(msg.sender,answer,salt) */\n      mload(0x40)\n      tag_123\n      swap4\n      swap3\n      swap2\n      swap1\n      tag_124\n      jump\t// in\n    tag_123:\n      mload(0x40)\n      dup1\n      swap2\n      sub\n      swap1\n      log1\n        /* \"CommitReveal.sol\":482:986  function revealAnswer(bytes32 answer, bytes32 salt) public {... */\n      pop\n      pop\n      jump\t// out\n        /* \"RPS.sol\":957:1207  function commitChoice(bytes32 choiceHash) public  {... */\n    tag_88:\n        /* \"RPS.sol\":1039:1040  2 */\n      0x02\n        /* \"RPS.sol\":1026:1035  numPlayer */\n      sload(0x04)\n        /* \"RPS.sol\":1026:1040  numPlayer == 2 */\n      eq\n        /* \"RPS.sol\":1018:1041  require(numPlayer == 2) */\n      tag_126\n      jumpi\n      0x00\n      dup1\n      revert\n    tag_126:\n        /* \"RPS.sol\":1074:1080  player */\n      0x02\n        /* \"RPS.sol\":1074:1103  player[playerIdx[msg.sender]] */\n      0x00\n        /* \"RPS.sol\":1081:1090  playerIdx */\n      0x03\n        /* \"RPS.sol\":1081:1102  playerIdx[msg.sender] */\n      0x00\n        /* \"RPS.sol\":1091:1101  msg.sender */\n      caller\n        /* \"RPS.sol\":1081:1102  playerIdx[msg.sender] */\n      0xffffffffffffffffffffffffffffffffffffffff\n      and\n      0xffffffffffffffffffffffffffffffffffffffff\n      and\n      dup2\n      mstore\n      0x20\n      add\n      swap1\n      dup2\n      mstore\n      0x20\n      add\n      0x00\n      keccak256\n      sload\n        /* \"RPS.sol\":1074:1103  player[playerIdx[msg.sender]] */\n      dup2\n      mstore\n      0x20\n      add\n      swap1\n      dup2\n      mstore\n      0x20\n      add\n      0x00\n      keccak256\n        /* \"RPS.sol\":1074:1108  player[playerIdx[msg.sender]].addr */\n      0x01\n      add\n      0x00\n      swap1\n      sload\n      swap1\n      0x0100\n      exp\n      swap1\n      div\n      0xffffffffffffffffffffffffffffffffffffffff\n      and\n        /* \"RPS.sol\":1060:1108  msg.sender == player[playerIdx[msg.sender]].addr */\n      0xffffffffffffffffffffffffffffffffffffffff\n      and\n        /* \"RPS.sol\":1060:1070  msg.sender */\n      caller\n        /* \"RPS.sol\":1060:1108  msg.sender == player[playerIdx[msg.sender]].addr */\n      0xffffffffffffffffffffffffffffffffffffffff\n      and\n      eq\n        /* \"RPS.sol\":1052:1109  require(msg.sender == player[playerIdx[msg.sender]].addr) */\n      tag_127\n      jumpi\n      0x00\n      dup1\n      revert\n    tag_127:\n        /* \"RPS.sol\":1142:1143  0 */\n      0x00\n        /* \"RPS.sol\":1128:1143  choiceHash != 0 */\n      dup1\n      shl\n        /* \"RPS.sol\":1128:1138  choiceHash */\n      dup2\n        /* \"RPS.sol\":1128:1143  choiceHash != 0 */\n      sub\n        /* \"RPS.sol\":1120:1144  require(choiceHash != 0) */\n      tag_128\n      jumpi\n      0x00\n      dup1\n      revert\n    tag_128:\n        /* \"RPS.sol\":1157:1175  commit(choiceHash) */\n      tag_129\n        /* \"RPS.sol\":1164:1174  choiceHash */\n      dup2\n        /* \"RPS.sol\":1157:1163  commit */\n      tag_92\n        /* \"RPS.sol\":1157:1175  commit(choiceHash) */\n      jump\t// in\n    tag_129:\n        /* \"RPS.sol\":1189:1197  numInput */\n      0x06\n      0x00\n        /* \"RPS.sol\":1189:1199  numInput++ */\n      dup2\n      sload\n      dup1\n      swap3\n      swap2\n      swap1\n      tag_130\n      swap1\n      tag_99\n      jump\t// in\n    tag_130:\n      swap2\n      swap1\n      pop\n      sstore\n      pop\n        /* \"RPS.sol\":957:1207  function commitChoice(bytes32 choiceHash) public  {... */\n      pop\n      jump\t// out\n        /* \"CommitReveal.sol\":233:424  function commit(bytes32 dataHash) public {... */\n    tag_92:\n        /* \"CommitReveal.sol\":309:317  dataHash */\n      dup1\n        /* \"CommitReveal.sol\":280:287  commits */\n      0x01\n        /* \"CommitReveal.sol\":280:299  commits[msg.sender] */\n      0x00\n        /* \"CommitReveal.sol\":288:298  msg.sender */\n      caller\n        /* \"CommitReveal.sol\":280:299  commits[msg.sender] */\n      0xffffffffffffffffffffffffffffffffffffffff\n      and\n      0xffffffffffffffffffffffffffffffffffffffff\n      and\n      dup2\n      mstore\n      0x20\n      add\n      swap1\n      dup2\n      mstore\n      0x20\n      add\n      0x00\n      keccak256\n        /* \"CommitReveal.sol\":280:306  commits[msg.sender].commit */\n      0x00\n      add\n        /* \"CommitReveal.sol\":280:317  commits[msg.sender].commit = dataHash */\n      dup2\n      swap1\n      sstore\n      pop\n        /* \"CommitReveal.sol\":354:359  false */\n      0x00\n        /* \"CommitReveal.sol\":323:330  commits */\n      0x01\n        /* \"CommitReveal.sol\":323:342  commits[msg.sender] */\n      0x00\n        /* \"CommitReveal.sol\":331:341  msg.sender */\n      caller\n        /* \"CommitReveal.sol\":323:342  commits[msg.sender] */\n      0xffffffffffffffffffffffffffffffffffffffff\n      and\n      0xffffffffffffffffffffffffffffffffffffffff\n      and\n      dup2\n      mstore\n      0x20\n      add\n      swap1\n      dup2\n      mstore\n      0x20\n      add\n      0x00\n      keccak256\n        /* \"CommitReveal.sol\":323:351  commits[msg.sender].revealed */\n      0x01\n      add\n      0x00\n        /* \"CommitReveal.sol\":323:359  commits[msg.sender].revealed = false */\n      0x0100\n      exp\n      dup2\n      sload\n      dup2\n      0xff\n      mul\n      not\n      and\n      swap1\n      dup4\n      iszero\n      iszero\n      mul\n      or\n      swap1\n      sstore\n      pop\n        /* \"CommitReveal.sol\":370:419  CommitHash(msg.sender,commits[msg.sender].commit) */\n      0xc38ed506edc9404e14f0bb335345918b4d4798a17868c1948c4d3e3f8add6440\n        /* \"CommitReveal.sol\":381:391  msg.sender */\n      caller\n        /* \"CommitReveal.sol\":392:399  commits */\n      0x01\n        /* \"CommitReveal.sol\":392:411  commits[msg.sender] */\n      0x00\n        /* \"CommitReveal.sol\":400:410  msg.sender */\n      caller\n        /* \"CommitReveal.sol\":392:411  commits[msg.sender] */\n      0xffffffffffffffffffffffffffffffffffffffff\n      and\n      0xffffffffffffffffffffffffffffffffffffffff\n      and\n      dup2\n      mstore\n      0x20\n      add\n      swap1\n      dup2\n      mstore\n      0x20\n      add\n      0x00\n      keccak256\n        /* \"CommitReveal.sol\":392:418  commits[msg.sender].commit */\n      0x00\n      add\n      sload\n        /* \"CommitReveal.sol\":370:419  CommitHash(msg.sender,commits[msg.sender].commit) */\n      mload(0x40)\n      tag_132\n      swap3\n      swap2\n      swap1\n      tag_133\n      jump\t// in\n    tag_132:\n      mload(0x40)\n      dup1\n      swap2\n      sub\n      swap1\n      log1\n        /* \"CommitReveal.sol\":233:424  function commit(bytes32 dataHash) public {... */\n      pop\n      jump\t// out\n        /* \"RPS.sol\":1670:2342  function _checkWinnerAndPay() private {... */\n    tag_109:\n        /* \"RPS.sol\":1719:1732  uint p0Choice */\n      0x00\n        /* \"RPS.sol\":1735:1741  player */\n      0x02\n        /* \"RPS.sol\":1735:1744  player[0] */\n      0x00\n        /* \"RPS.sol\":1742:1743  0 */\n      dup1\n        /* \"RPS.sol\":1735:1744  player[0] */\n      dup2\n      mstore\n      0x20\n      add\n      swap1\n      dup2\n      mstore\n      0x20\n      add\n      0x00\n      keccak256\n        /* \"RPS.sol\":1735:1751  player[0].choice */\n      0x00\n      add\n      sload\n        /* \"RPS.sol\":1719:1751  uint p0Choice = player[0].choice */\n      swap1\n      pop\n        /* \"RPS.sol\":1762:1775  uint p1Choice */\n      0x00\n        /* \"RPS.sol\":1778:1784  player */\n      0x02\n        /* \"RPS.sol\":1778:1787  player[1] */\n      0x00\n        /* \"RPS.sol\":1785:1786  1 */\n      0x01\n        /* \"RPS.sol\":1778:1787  player[1] */\n      dup2\n      mstore\n      0x20\n      add\n      swap1\n      dup2\n      mstore\n      0x20\n      add\n      0x00\n      keccak256\n        /* \"RPS.sol\":1778:1794  player[1].choice */\n      0x00\n      add\n      sload\n        /* \"RPS.sol\":1762:1794  uint p1Choice = player[1].choice */\n      swap1\n      pop\n        /* \"RPS.sol\":1805:1829  address payable account0 */\n      0x00\n        /* \"RPS.sol\":1840:1846  player */\n      0x02\n        /* \"RPS.sol\":1840:1849  player[0] */\n      0x00\n        /* \"RPS.sol\":1847:1848  0 */\n      dup1\n        /* \"RPS.sol\":1840:1849  player[0] */\n      dup2\n      mstore\n      0x20\n      add\n      swap1\n      dup2\n      mstore\n      0x20\n      add\n      0x00\n      keccak256\n        /* \"RPS.sol\":1840:1854  player[0].addr */\n      0x01\n      add\n      0x00\n      swap1\n      sload\n      swap1\n      0x0100\n      exp\n      swap1\n      div\n      0xffffffffffffffffffffffffffffffffffffffff\n      and\n        /* \"RPS.sol\":1805:1855  address payable account0 = payable(player[0].addr) */\n      swap1\n      pop\n        /* \"RPS.sol\":1866:1890  address payable account1 */\n      0x00\n        /* \"RPS.sol\":1901:1907  player */\n      0x02\n        /* \"RPS.sol\":1901:1910  player[1] */\n      0x00\n        /* \"RPS.sol\":1908:1909  1 */\n      0x01\n        /* \"RPS.sol\":1901:1910  player[1] */\n      dup2\n      mstore\n      0x20\n      add\n      swap1\n      dup2\n      mstore\n      0x20\n      add\n      0x00\n      keccak256\n        /* \"RPS.sol\":1901:1915  player[1].addr */\n      0x01\n      add\n      0x00\n      swap1\n      sload\n      swap1\n      0x0100\n      exp\n      swap1\n      div\n      0xffffffffffffffffffffffffffffffffffffffff\n      and\n        /* \"RPS.sol\":1866:1916  address payable account1 = payable(player[1].addr) */\n      swap1\n      pop\n        /* \"RPS.sol\":1953:1961  p1Choice */\n      dup3\n        /* \"RPS.sol\":1948:1949  3 */\n      0x03\n        /* \"RPS.sol\":1943:1944  1 */\n      0x01\n        /* \"RPS.sol\":1932:1940  p0Choice */\n      dup7\n        /* \"RPS.sol\":1932:1944  p0Choice + 1 */\n      tag_135\n      swap2\n      swap1\n      tag_97\n      jump\t// in\n    tag_135:\n        /* \"RPS.sol\":1931:1949  (p0Choice + 1) % 3 */\n      tag_136\n      swap2\n      swap1\n      tag_137\n      jump\t// in\n    tag_136:\n        /* \"RPS.sol\":1931:1961  (p0Choice + 1) % 3 == p1Choice */\n      sub\n        /* \"RPS.sol\":1927:2335  if ((p0Choice + 1) % 3 == p1Choice) {... */\n      tag_138\n      jumpi\n        /* \"RPS.sol\":2011:2019  account1 */\n      dup1\n        /* \"RPS.sol\":2011:2028  account1.transfer */\n      0xffffffffffffffffffffffffffffffffffffffff\n      and\n        /* \"RPS.sol\":2011:2036  account1.transfer(reward) */\n      0x08fc\n        /* \"RPS.sol\":2029:2035  reward */\n      sload(0x05)\n        /* \"RPS.sol\":2011:2036  account1.transfer(reward) */\n      swap1\n      dup2\n      iszero\n      mul\n      swap1\n      mload(0x40)\n      0x00\n      mload(0x40)\n      dup1\n      dup4\n      sub\n      dup2\n      dup6\n      dup9\n      dup9\n      call\n      swap4\n      pop\n      pop\n      pop\n      pop\n      iszero\n      dup1\n      iszero\n      tag_140\n      jumpi\n      returndatasize\n      0x00\n      dup1\n      returndatacopy\n      revert(0x00, returndatasize)\n    tag_140:\n      pop\n        /* \"RPS.sol\":1927:2335  if ((p0Choice + 1) % 3 == p1Choice) {... */\n      jump(tag_141)\n    tag_138:\n        /* \"RPS.sol\":2089:2097  p0Choice */\n      dup4\n        /* \"RPS.sol\":2084:2085  3 */\n      0x03\n        /* \"RPS.sol\":2079:2080  1 */\n      0x01\n        /* \"RPS.sol\":2068:2076  p1Choice */\n      dup6\n        /* \"RPS.sol\":2068:2080  p1Choice + 1 */\n      tag_142\n      swap2\n      swap1\n      tag_97\n      jump\t// in\n    tag_142:\n        /* \"RPS.sol\":2067:2085  (p1Choice + 1) % 3 */\n      tag_143\n      swap2\n      swap1\n      tag_137\n      jump\t// in\n    tag_143:\n        /* \"RPS.sol\":2067:2097  (p1Choice + 1) % 3 == p0Choice */\n      sub\n        /* \"RPS.sol\":2063:2335  if ((p1Choice + 1) % 3 == p0Choice) {... */\n      tag_144\n      jumpi\n        /* \"RPS.sol\":2147:2155  account0 */\n      dup2\n        /* \"RPS.sol\":2147:2164  account0.transfer */\n      0xffffffffffffffffffffffffffffffffffffffff\n      and\n        /* \"RPS.sol\":2147:2172  account0.transfer(reward) */\n      0x08fc\n        /* \"RPS.sol\":2165:2171  reward */\n      sload(0x05)\n        /* \"RPS.sol\":2147:2172  account0.transfer(reward) */\n      swap1\n      dup2\n      iszero\n      mul\n      swap1\n      mload(0x40)\n      0x00\n      mload(0x40)\n      dup1\n      dup4\n      sub\n      dup2\n      dup6\n      dup9\n      dup9\n      call\n      swap4\n      pop\n      pop\n      pop\n      pop\n      iszero\n      dup1\n      iszero\n      tag_146\n      jumpi\n      returndatasize\n      0x00\n      dup1\n      returndatacopy\n      revert(0x00, returndatasize)\n    tag_146:\n      pop\n        /* \"RPS.sol\":2063:2335  if ((p1Choice + 1) % 3 == p0Choice) {... */\n      jump(tag_147)\n    tag_144:\n        /* \"RPS.sol\":2250:2258  account0 */\n      dup2\n        /* \"RPS.sol\":2250:2267  account0.transfer */\n      0xffffffffffffffffffffffffffffffffffffffff\n      and\n        /* \"RPS.sol\":2250:2279  account0.transfer(reward / 2) */\n      0x08fc\n        /* \"RPS.sol\":2277:2278  2 */\n      0x02\n        /* \"RPS.sol\":2268:2274  reward */\n      sload(0x05)\n        /* \"RPS.sol\":2268:2278  reward / 2 */\n      tag_148\n      swap2\n      swap1\n      tag_149\n      jump\t// in\n    tag_148:\n        /* \"RPS.sol\":2250:2279  account0.transfer(reward / 2) */\n      swap1\n      dup2\n      iszero\n      mul\n      swap1\n      mload(0x40)\n      0x00\n      mload(0x40)\n      dup1\n      dup4\n      sub\n      dup2\n      dup6\n      dup9\n      dup9\n      call\n      swap4\n      pop\n      pop\n      pop\n      pop\n      iszero\n      dup1\n      iszero\n      tag_151\n      jumpi\n      returndatasize\n      0x00\n      dup1\n      returndatacopy\n      revert(0x00, returndatasize)\n    tag_151:\n      pop\n        /* \"RPS.sol\":2294:2302  account1 */\n      dup1\n        /* \"RPS.sol\":2294:2311  account1.transfer */\n      0xffffffffffffffffffffffffffffffffffffffff\n      and\n        /* \"RPS.sol\":2294:2323  account1.transfer(reward / 2) */\n      0x08fc\n        /* \"RPS.sol\":2321:2322  2 */\n      0x02\n        /* \"RPS.sol\":2312:2318  reward */\n      sload(0x05)\n        /* \"RPS.sol\":2312:2322  reward / 2 */\n      tag_152\n      swap2\n      swap1\n      tag_149\n      jump\t// in\n    tag_152:\n        /* \"RPS.sol\":2294:2323  account1.transfer(reward / 2) */\n      swap1\n      dup2\n      iszero\n      mul\n      swap1\n      mload(0x40)\n      0x00\n      mload(0x40)\n      dup1\n      dup4\n      sub\n      dup2\n      dup6\n      dup9\n      dup9\n      call\n      swap4\n      pop\n      pop\n      pop\n      pop\n      iszero\n      dup1\n      iszero\n      tag_154\n      jumpi\n      returndatasize\n      0x00\n      dup1\n      returndatacopy\n      revert(0x00, returndatasize)\n    tag_154:\n      pop\n        /* \"RPS.sol\":2063:2335  if ((p1Choice + 1) % 3 == p0Choice) {... */\n    tag_147:\n        /* \"RPS.sol\":1927:2335  if ((p0Choice + 1) % 3 == p1Choice) {... */\n    tag_141:\n        /* \"RPS.sol\":1708:2342  {... */\n      pop\n      pop\n      pop\n      pop\n        /* \"RPS.sol\":1670:2342  function _checkWinnerAndPay() private {... */\n      jump\t// out\n        /* \"#utility.yul\":7:84   */\n    tag_155:\n        /* \"#utility.yul\":44:51   */\n      0x00\n        /* \"#utility.yul\":73:78   */\n      dup2\n        /* \"#utility.yul\":62:78   */\n      swap1\n      pop\n        /* \"#utility.yul\":7:84   */\n      swap2\n      swap1\n      pop\n      jump\t// out\n        /* \"#utility.yul\":90:208   */\n    tag_156:\n        /* \"#utility.yul\":177:201   */\n      tag_191\n        /* \"#utility.yul\":195:200   */\n      dup2\n        /* \"#utility.yul\":177:201   */\n      tag_155\n      jump\t// in\n    tag_191:\n        /* \"#utility.yul\":172:175   */\n      dup3\n        /* \"#utility.yul\":165:202   */\n      mstore\n        /* \"#utility.yul\":90:208   */\n      pop\n      pop\n      jump\t// out\n        /* \"#utility.yul\":214:436   */\n    tag_24:\n        /* \"#utility.yul\":307:311   */\n      0x00\n        /* \"#utility.yul\":345:347   */\n      0x20\n        /* \"#utility.yul\":334:343   */\n      dup3\n        /* \"#utility.yul\":330:348   */\n      add\n        /* \"#utility.yul\":322:348   */\n      swap1\n      pop\n        /* \"#utility.yul\":358:429   */\n      tag_193\n        /* \"#utility.yul\":426:427   */\n      0x00\n        /* \"#utility.yul\":415:424   */\n      dup4\n        /* \"#utility.yul\":411:428   */\n      add\n        /* \"#utility.yul\":402:408   */\n      dup5\n        /* \"#utility.yul\":358:429   */\n      tag_156\n      jump\t// in\n    tag_193:\n        /* \"#utility.yul\":214:436   */\n      swap3\n      swap2\n      pop\n      pop\n      jump\t// out\n        /* \"#utility.yul\":523:640   */\n    tag_158:\n        /* \"#utility.yul\":632:633   */\n      0x00\n        /* \"#utility.yul\":629:630   */\n      dup1\n        /* \"#utility.yul\":622:634   */\n      revert\n        /* \"#utility.yul\":769:891   */\n    tag_160:\n        /* \"#utility.yul\":842:866   */\n      tag_198\n        /* \"#utility.yul\":860:865   */\n      dup2\n        /* \"#utility.yul\":842:866   */\n      tag_155\n      jump\t// in\n    tag_198:\n        /* \"#utility.yul\":835:840   */\n      dup2\n        /* \"#utility.yul\":832:867   */\n      eq\n        /* \"#utility.yul\":822:885   */\n      tag_199\n      jumpi\n        /* \"#utility.yul\":881:882   */\n      0x00\n        /* \"#utility.yul\":878:879   */\n      dup1\n        /* \"#utility.yul\":871:883   */\n      revert\n        /* \"#utility.yul\":822:885   */\n    tag_199:\n        /* \"#utility.yul\":769:891   */\n      pop\n      jump\t// out\n        /* \"#utility.yul\":897:1036   */\n    tag_161:\n        /* \"#utility.yul\":943:948   */\n      0x00\n        /* \"#utility.yul\":981:987   */\n      dup2\n        /* \"#utility.yul\":968:988   */\n      calldataload\n        /* \"#utility.yul\":959:988   */\n      swap1\n      pop\n        /* \"#utility.yul\":997:1030   */\n      tag_201\n        /* \"#utility.yul\":1024:1029   */\n      dup2\n        /* \"#utility.yul\":997:1030   */\n      tag_160\n      jump\t// in\n    tag_201:\n        /* \"#utility.yul\":897:1036   */\n      swap3\n      swap2\n      pop\n      pop\n      jump\t// out\n        /* \"#utility.yul\":1042:1516   */\n    tag_34:\n        /* \"#utility.yul\":1110:1116   */\n      0x00\n        /* \"#utility.yul\":1118:1124   */\n      dup1\n        /* \"#utility.yul\":1167:1169   */\n      0x40\n        /* \"#utility.yul\":1155:1164   */\n      dup4\n        /* \"#utility.yul\":1146:1153   */\n      dup6\n        /* \"#utility.yul\":1142:1165   */\n      sub\n        /* \"#utility.yul\":1138:1170   */\n      slt\n        /* \"#utility.yul\":1135:1254   */\n      iszero\n      tag_203\n      jumpi\n        /* \"#utility.yul\":1173:1252   */\n      tag_204\n      tag_158\n      jump\t// in\n    tag_204:\n        /* \"#utility.yul\":1135:1254   */\n    tag_203:\n        /* \"#utility.yul\":1293:1294   */\n      0x00\n        /* \"#utility.yul\":1318:1371   */\n      tag_205\n        /* \"#utility.yul\":1363:1370   */\n      dup6\n        /* \"#utility.yul\":1354:1360   */\n      dup3\n        /* \"#utility.yul\":1343:1352   */\n      dup7\n        /* \"#utility.yul\":1339:1361   */\n      add\n        /* \"#utility.yul\":1318:1371   */\n      tag_161\n      jump\t// in\n    tag_205:\n        /* \"#utility.yul\":1308:1371   */\n      swap3\n      pop\n        /* \"#utility.yul\":1264:1381   */\n      pop\n        /* \"#utility.yul\":1420:1422   */\n      0x20\n        /* \"#utility.yul\":1446:1499   */\n      tag_206\n        /* \"#utility.yul\":1491:1498   */\n      dup6\n        /* \"#utility.yul\":1482:1488   */\n      dup3\n        /* \"#utility.yul\":1471:1480   */\n      dup7\n        /* \"#utility.yul\":1467:1489   */\n      add\n        /* \"#utility.yul\":1446:1499   */\n      tag_161\n      jump\t// in\n    tag_206:\n        /* \"#utility.yul\":1436:1499   */\n      swap2\n      pop\n        /* \"#utility.yul\":1391:1509   */\n      pop\n        /* \"#utility.yul\":1042:1516   */\n      swap3\n      pop\n      swap3\n      swap1\n      pop\n      jump\t// out\n        /* \"#utility.yul\":1522:1608   */\n    tag_162:\n        /* \"#utility.yul\":1557:1564   */\n      0x00\n        /* \"#utility.yul\":1597:1601   */\n      0xff\n        /* \"#utility.yul\":1590:1595   */\n      dup3\n        /* \"#utility.yul\":1586:1602   */\n      and\n        /* \"#utility.yul\":1575:1602   */\n      swap1\n      pop\n        /* \"#utility.yul\":1522:1608   */\n      swap2\n      swap1\n      pop\n      jump\t// out\n        /* \"#utility.yul\":1614:1726   */\n    tag_163:\n        /* \"#utility.yul\":1697:1719   */\n      tag_209\n        /* \"#utility.yul\":1713:1718   */\n      dup2\n        /* \"#utility.yul\":1697:1719   */\n      tag_162\n      jump\t// in\n    tag_209:\n        /* \"#utility.yul\":1692:1695   */\n      dup3\n        /* \"#utility.yul\":1685:1720   */\n      mstore\n        /* \"#utility.yul\":1614:1726   */\n      pop\n      pop\n      jump\t// out\n        /* \"#utility.yul\":1732:1946   */\n    tag_40:\n        /* \"#utility.yul\":1821:1825   */\n      0x00\n        /* \"#utility.yul\":1859:1861   */\n      0x20\n        /* \"#utility.yul\":1848:1857   */\n      dup3\n        /* \"#utility.yul\":1844:1862   */\n      add\n        /* \"#utility.yul\":1836:1862   */\n      swap1\n      pop\n        /* \"#utility.yul\":1872:1939   */\n      tag_211\n        /* \"#utility.yul\":1936:1937   */\n      0x00\n        /* \"#utility.yul\":1925:1934   */\n      dup4\n        /* \"#utility.yul\":1921:1938   */\n      add\n        /* \"#utility.yul\":1912:1918   */\n      dup5\n        /* \"#utility.yul\":1872:1939   */\n      tag_163\n      jump\t// in\n    tag_211:\n        /* \"#utility.yul\":1732:1946   */\n      swap3\n      swap2\n      pop\n      pop\n      jump\t// out\n        /* \"#utility.yul\":1952:2029   */\n    tag_164:\n        /* \"#utility.yul\":1989:1996   */\n      0x00\n        /* \"#utility.yul\":2018:2023   */\n      dup2\n        /* \"#utility.yul\":2007:2023   */\n      swap1\n      pop\n        /* \"#utility.yul\":1952:2029   */\n      swap2\n      swap1\n      pop\n      jump\t// out\n        /* \"#utility.yul\":2035:2153   */\n    tag_165:\n        /* \"#utility.yul\":2122:2146   */\n      tag_214\n        /* \"#utility.yul\":2140:2145   */\n      dup2\n        /* \"#utility.yul\":2122:2146   */\n      tag_164\n      jump\t// in\n    tag_214:\n        /* \"#utility.yul\":2117:2120   */\n      dup3\n        /* \"#utility.yul\":2110:2147   */\n      mstore\n        /* \"#utility.yul\":2035:2153   */\n      pop\n      pop\n      jump\t// out\n        /* \"#utility.yul\":2159:2381   */\n    tag_46:\n        /* \"#utility.yul\":2252:2256   */\n      0x00\n        /* \"#utility.yul\":2290:2292   */\n      0x20\n        /* \"#utility.yul\":2279:2288   */\n      dup3\n        /* \"#utility.yul\":2275:2293   */\n      add\n        /* \"#utility.yul\":2267:2293   */\n      swap1\n      pop\n        /* \"#utility.yul\":2303:2374   */\n      tag_216\n        /* \"#utility.yul\":2371:2372   */\n      0x00\n        /* \"#utility.yul\":2360:2369   */\n      dup4\n        /* \"#utility.yul\":2356:2373   */\n      add\n        /* \"#utility.yul\":2347:2353   */\n      dup5\n        /* \"#utility.yul\":2303:2374   */\n      tag_165\n      jump\t// in\n    tag_216:\n        /* \"#utility.yul\":2159:2381   */\n      swap3\n      swap2\n      pop\n      pop\n      jump\t// out\n        /* \"#utility.yul\":2387:2513   */\n    tag_166:\n        /* \"#utility.yul\":2424:2431   */\n      0x00\n        /* \"#utility.yul\":2464:2506   */\n      0xffffffffffffffffffffffffffffffffffffffff\n        /* \"#utility.yul\":2457:2462   */\n      dup3\n        /* \"#utility.yul\":2453:2507   */\n      and\n        /* \"#utility.yul\":2442:2507   */\n      swap1\n      pop\n        /* \"#utility.yul\":2387:2513   */\n      swap2\n      swap1\n      pop\n      jump\t// out\n        /* \"#utility.yul\":2519:2615   */\n    tag_167:\n        /* \"#utility.yul\":2556:2563   */\n      0x00\n        /* \"#utility.yul\":2585:2609   */\n      tag_219\n        /* \"#utility.yul\":2603:2608   */\n      dup3\n        /* \"#utility.yul\":2585:2609   */\n      tag_166\n      jump\t// in\n    tag_219:\n        /* \"#utility.yul\":2574:2609   */\n      swap1\n      pop\n        /* \"#utility.yul\":2519:2615   */\n      swap2\n      swap1\n      pop\n      jump\t// out\n        /* \"#utility.yul\":2621:2743   */\n    tag_168:\n        /* \"#utility.yul\":2694:2718   */\n      tag_221\n        /* \"#utility.yul\":2712:2717   */\n      dup2\n        /* \"#utility.yul\":2694:2718   */\n      tag_167\n      jump\t// in\n    tag_221:\n        /* \"#utility.yul\":2687:2692   */\n      dup2\n        /* \"#utility.yul\":2684:2719   */\n      eq\n        /* \"#utility.yul\":2674:2737   */\n      tag_222\n      jumpi\n        /* \"#utility.yul\":2733:2734   */\n      0x00\n        /* \"#utility.yul\":2730:2731   */\n      dup1\n        /* \"#utility.yul\":2723:2735   */\n      revert\n        /* \"#utility.yul\":2674:2737   */\n    tag_222:\n        /* \"#utility.yul\":2621:2743   */\n      pop\n      jump\t// out\n        /* \"#utility.yul\":2749:2888   */\n    tag_169:\n        /* \"#utility.yul\":2795:2800   */\n      0x00\n        /* \"#utility.yul\":2833:2839   */\n      dup2\n        /* \"#utility.yul\":2820:2840   */\n      calldataload\n        /* \"#utility.yul\":2811:2840   */\n      swap1\n      pop\n        /* \"#utility.yul\":2849:2882   */\n      tag_224\n        /* \"#utility.yul\":2876:2881   */\n      dup2\n        /* \"#utility.yul\":2849:2882   */\n      tag_168\n      jump\t// in\n    tag_224:\n        /* \"#utility.yul\":2749:2888   */\n      swap3\n      swap2\n      pop\n      pop\n      jump\t// out\n        /* \"#utility.yul\":2894:3223   */\n    tag_54:\n        /* \"#utility.yul\":2953:2959   */\n      0x00\n        /* \"#utility.yul\":3002:3004   */\n      0x20\n        /* \"#utility.yul\":2990:2999   */\n      dup3\n        /* \"#utility.yul\":2981:2988   */\n      dup5\n        /* \"#utility.yul\":2977:3000   */\n      sub\n        /* \"#utility.yul\":2973:3005   */\n      slt\n        /* \"#utility.yul\":2970:3089   */\n      iszero\n      tag_226\n      jumpi\n        /* \"#utility.yul\":3008:3087   */\n      tag_227\n      tag_158\n      jump\t// in\n    tag_227:\n        /* \"#utility.yul\":2970:3089   */\n    tag_226:\n        /* \"#utility.yul\":3128:3129   */\n      0x00\n        /* \"#utility.yul\":3153:3206   */\n      tag_228\n        /* \"#utility.yul\":3198:3205   */\n      dup5\n        /* \"#utility.yul\":3189:3195   */\n      dup3\n        /* \"#utility.yul\":3178:3187   */\n      dup6\n        /* \"#utility.yul\":3174:3196   */\n      add\n        /* \"#utility.yul\":3153:3206   */\n      tag_169\n      jump\t// in\n    tag_228:\n        /* \"#utility.yul\":3143:3206   */\n      swap2\n      pop\n        /* \"#utility.yul\":3099:3216   */\n      pop\n        /* \"#utility.yul\":2894:3223   */\n      swap3\n      swap2\n      pop\n      pop\n      jump\t// out\n        /* \"#utility.yul\":3229:3319   */\n    tag_170:\n        /* \"#utility.yul\":3263:3270   */\n      0x00\n        /* \"#utility.yul\":3306:3311   */\n      dup2\n        /* \"#utility.yul\":3299:3312   */\n      iszero\n        /* \"#utility.yul\":3292:3313   */\n      iszero\n        /* \"#utility.yul\":3281:3313   */\n      swap1\n      pop\n        /* \"#utility.yul\":3229:3319   */\n      swap2\n      swap1\n      pop\n      jump\t// out\n        /* \"#utility.yul\":3325:3434   */\n    tag_171:\n        /* \"#utility.yul\":3406:3427   */\n      tag_231\n        /* \"#utility.yul\":3421:3426   */\n      dup2\n        /* \"#utility.yul\":3406:3427   */\n      tag_170\n      jump\t// in\n    tag_231:\n        /* \"#utility.yul\":3401:3404   */\n      dup3\n        /* \"#utility.yul\":3394:3428   */\n      mstore\n        /* \"#utility.yul\":3325:3434   */\n      pop\n      pop\n      jump\t// out\n        /* \"#utility.yul\":3440:3760   */\n    tag_57:\n        /* \"#utility.yul\":3555:3559   */\n      0x00\n        /* \"#utility.yul\":3593:3595   */\n      0x40\n        /* \"#utility.yul\":3582:3591   */\n      dup3\n        /* \"#utility.yul\":3578:3596   */\n      add\n        /* \"#utility.yul\":3570:3596   */\n      swap1\n      pop\n        /* \"#utility.yul\":3606:3677   */\n      tag_233\n        /* \"#utility.yul\":3674:3675   */\n      0x00\n        /* \"#utility.yul\":3663:3672   */\n      dup4\n        /* \"#utility.yul\":3659:3676   */\n      add\n        /* \"#utility.yul\":3650:3656   */\n      dup6\n        /* \"#utility.yul\":3606:3677   */\n      tag_165\n      jump\t// in\n    tag_233:\n        /* \"#utility.yul\":3687:3753   */\n      tag_234\n        /* \"#utility.yul\":3749:3751   */\n      0x20\n        /* \"#utility.yul\":3738:3747   */\n      dup4\n        /* \"#utility.yul\":3734:3752   */\n      add\n        /* \"#utility.yul\":3725:3731   */\n      dup5\n        /* \"#utility.yul\":3687:3753   */\n      tag_171\n      jump\t// in\n    tag_234:\n        /* \"#utility.yul\":3440:3760   */\n      swap4\n      swap3\n      pop\n      pop\n      pop\n      jump\t// out\n        /* \"#utility.yul\":3766:3888   */\n    tag_172:\n        /* \"#utility.yul\":3839:3863   */\n      tag_236\n        /* \"#utility.yul\":3857:3862   */\n      dup2\n        /* \"#utility.yul\":3839:3863   */\n      tag_164\n      jump\t// in\n    tag_236:\n        /* \"#utility.yul\":3832:3837   */\n      dup2\n        /* \"#utility.yul\":3829:3864   */\n      eq\n        /* \"#utility.yul\":3819:3882   */\n      tag_237\n      jumpi\n        /* \"#utility.yul\":3878:3879   */\n      0x00\n        /* \"#utility.yul\":3875:3876   */\n      dup1\n        /* \"#utility.yul\":3868:3880   */\n      revert\n        /* \"#utility.yul\":3819:3882   */\n    tag_237:\n        /* \"#utility.yul\":3766:3888   */\n      pop\n      jump\t// out\n        /* \"#utility.yul\":3894:4033   */\n    tag_173:\n        /* \"#utility.yul\":3940:3945   */\n      0x00\n        /* \"#utility.yul\":3978:3984   */\n      dup2\n        /* \"#utility.yul\":3965:3985   */\n      calldataload\n        /* \"#utility.yul\":3956:3985   */\n      swap1\n      pop\n        /* \"#utility.yul\":3994:4027   */\n      tag_239\n        /* \"#utility.yul\":4021:4026   */\n      dup2\n        /* \"#utility.yul\":3994:4027   */\n      tag_172\n      jump\t// in\n    tag_239:\n        /* \"#utility.yul\":3894:4033   */\n      swap3\n      swap2\n      pop\n      pop\n      jump\t// out\n        /* \"#utility.yul\":4039:4513   */\n    tag_61:\n        /* \"#utility.yul\":4107:4113   */\n      0x00\n        /* \"#utility.yul\":4115:4121   */\n      dup1\n        /* \"#utility.yul\":4164:4166   */\n      0x40\n        /* \"#utility.yul\":4152:4161   */\n      dup4\n        /* \"#utility.yul\":4143:4150   */\n      dup6\n        /* \"#utility.yul\":4139:4162   */\n      sub\n        /* \"#utility.yul\":4135:4167   */\n      slt\n        /* \"#utility.yul\":4132:4251   */\n      iszero\n      tag_241\n      jumpi\n        /* \"#utility.yul\":4170:4249   */\n      tag_242\n      tag_158\n      jump\t// in\n    tag_242:\n        /* \"#utility.yul\":4132:4251   */\n    tag_241:\n        /* \"#utility.yul\":4290:4291   */\n      0x00\n        /* \"#utility.yul\":4315:4368   */\n      tag_243\n        /* \"#utility.yul\":4360:4367   */\n      dup6\n        /* \"#utility.yul\":4351:4357   */\n      dup3\n        /* \"#utility.yul\":4340:4349   */\n      dup7\n        /* \"#utility.yul\":4336:4358   */\n      add\n        /* \"#utility.yul\":4315:4368   */\n      tag_173\n      jump\t// in\n    tag_243:\n        /* \"#utility.yul\":4305:4368   */\n      swap3\n      pop\n        /* \"#utility.yul\":4261:4378   */\n      pop\n        /* \"#utility.yul\":4417:4419   */\n      0x20\n        /* \"#utility.yul\":4443:4496   */\n      tag_244\n        /* \"#utility.yul\":4488:4495   */\n      dup6\n        /* \"#utility.yul\":4479:4485   */\n      dup3\n        /* \"#utility.yul\":4468:4477   */\n      dup7\n        /* \"#utility.yul\":4464:4486   */\n      add\n        /* \"#utility.yul\":4443:4496   */\n      tag_173\n      jump\t// in\n    tag_244:\n        /* \"#utility.yul\":4433:4496   */\n      swap2\n      pop\n        /* \"#utility.yul\":4388:4506   */\n      pop\n        /* \"#utility.yul\":4039:4513   */\n      swap3\n      pop\n      swap3\n      swap1\n      pop\n      jump\t// out\n        /* \"#utility.yul\":4519:4848   */\n    tag_71:\n        /* \"#utility.yul\":4578:4584   */\n      0x00\n        /* \"#utility.yul\":4627:4629   */\n      0x20\n        /* \"#utility.yul\":4615:4624   */\n      dup3\n        /* \"#utility.yul\":4606:4613   */\n      dup5\n        /* \"#utility.yul\":4602:4625   */\n      sub\n        /* \"#utility.yul\":4598:4630   */\n      slt\n        /* \"#utility.yul\":4595:4714   */\n      iszero\n      tag_246\n      jumpi\n        /* \"#utility.yul\":4633:4712   */\n      tag_247\n      tag_158\n      jump\t// in\n    tag_247:\n        /* \"#utility.yul\":4595:4714   */\n    tag_246:\n        /* \"#utility.yul\":4753:4754   */\n      0x00\n        /* \"#utility.yul\":4778:4831   */\n      tag_248\n        /* \"#utility.yul\":4823:4830   */\n      dup5\n        /* \"#utility.yul\":4814:4820   */\n      dup3\n        /* \"#utility.yul\":4803:4812   */\n      dup6\n        /* \"#utility.yul\":4799:4821   */\n      add\n        /* \"#utility.yul\":4778:4831   */\n      tag_161\n      jump\t// in\n    tag_248:\n        /* \"#utility.yul\":4768:4831   */\n      swap2\n      pop\n        /* \"#utility.yul\":4724:4841   */\n      pop\n        /* \"#utility.yul\":4519:4848   */\n      swap3\n      swap2\n      pop\n      pop\n      jump\t// out\n        /* \"#utility.yul\":4854:4972   */\n    tag_174:\n        /* \"#utility.yul\":4941:4965   */\n      tag_250\n        /* \"#utility.yul\":4959:4964   */\n      dup2\n        /* \"#utility.yul\":4941:4965   */\n      tag_167\n      jump\t// in\n    tag_250:\n        /* \"#utility.yul\":4936:4939   */\n      dup3\n        /* \"#utility.yul\":4929:4966   */\n      mstore\n        /* \"#utility.yul\":4854:4972   */\n      pop\n      pop\n      jump\t// out\n        /* \"#utility.yul\":4978:5310   */\n    tag_74:\n        /* \"#utility.yul\":5099:5103   */\n      0x00\n        /* \"#utility.yul\":5137:5139   */\n      0x40\n        /* \"#utility.yul\":5126:5135   */\n      dup3\n        /* \"#utility.yul\":5122:5140   */\n      add\n        /* \"#utility.yul\":5114:5140   */\n      swap1\n      pop\n        /* \"#utility.yul\":5150:5221   */\n      tag_252\n        /* \"#utility.yul\":5218:5219   */\n      0x00\n        /* \"#utility.yul\":5207:5216   */\n      dup4\n        /* \"#utility.yul\":5203:5220   */\n      add\n        /* \"#utility.yul\":5194:5200   */\n      dup6\n        /* \"#utility.yul\":5150:5221   */\n      tag_156\n      jump\t// in\n    tag_252:\n        /* \"#utility.yul\":5231:5303   */\n      tag_253\n        /* \"#utility.yul\":5299:5301   */\n      0x20\n        /* \"#utility.yul\":5288:5297   */\n      dup4\n        /* \"#utility.yul\":5284:5302   */\n      add\n        /* \"#utility.yul\":5275:5281   */\n      dup5\n        /* \"#utility.yul\":5231:5303   */\n      tag_174\n      jump\t// in\n    tag_253:\n        /* \"#utility.yul\":4978:5310   */\n      swap4\n      swap3\n      pop\n      pop\n      pop\n      jump\t// out\n        /* \"#utility.yul\":5316:5645   */\n    tag_87:\n        /* \"#utility.yul\":5375:5381   */\n      0x00\n        /* \"#utility.yul\":5424:5426   */\n      0x20\n        /* \"#utility.yul\":5412:5421   */\n      dup3\n        /* \"#utility.yul\":5403:5410   */\n      dup5\n        /* \"#utility.yul\":5399:5422   */\n      sub\n        /* \"#utility.yul\":5395:5427   */\n      slt\n        /* \"#utility.yul\":5392:5511   */\n      iszero\n      tag_255\n      jumpi\n        /* \"#utility.yul\":5430:5509   */\n      tag_256\n      tag_158\n      jump\t// in\n    tag_256:\n        /* \"#utility.yul\":5392:5511   */\n    tag_255:\n        /* \"#utility.yul\":5550:5551   */\n      0x00\n        /* \"#utility.yul\":5575:5628   */\n      tag_257\n        /* \"#utility.yul\":5620:5627   */\n      dup5\n        /* \"#utility.yul\":5611:5617   */\n      dup3\n        /* \"#utility.yul\":5600:5609   */\n      dup6\n        /* \"#utility.yul\":5596:5618   */\n      add\n        /* \"#utility.yul\":5575:5628   */\n      tag_173\n      jump\t// in\n    tag_257:\n        /* \"#utility.yul\":5565:5628   */\n      swap2\n      pop\n        /* \"#utility.yul\":5521:5638   */\n      pop\n        /* \"#utility.yul\":5316:5645   */\n      swap3\n      swap2\n      pop\n      pop\n      jump\t// out\n        /* \"#utility.yul\":5651:5831   */\n    tag_175:\n        /* \"#utility.yul\":5699:5776   */\n      0x4e487b7100000000000000000000000000000000000000000000000000000000\n        /* \"#utility.yul\":5696:5697   */\n      0x00\n        /* \"#utility.yul\":5689:5777   */\n      mstore\n        /* \"#utility.yul\":5796:5800   */\n      0x11\n        /* \"#utility.yul\":5793:5794   */\n      0x04\n        /* \"#utility.yul\":5786:5801   */\n      mstore\n        /* \"#utility.yul\":5820:5824   */\n      0x24\n        /* \"#utility.yul\":5817:5818   */\n      0x00\n        /* \"#utility.yul\":5810:5825   */\n      revert\n        /* \"#utility.yul\":5837:6028   */\n    tag_97:\n        /* \"#utility.yul\":5877:5880   */\n      0x00\n        /* \"#utility.yul\":5896:5916   */\n      tag_260\n        /* \"#utility.yul\":5914:5915   */\n      dup3\n        /* \"#utility.yul\":5896:5916   */\n      tag_155\n      jump\t// in\n    tag_260:\n        /* \"#utility.yul\":5891:5916   */\n      swap2\n      pop\n        /* \"#utility.yul\":5930:5950   */\n      tag_261\n        /* \"#utility.yul\":5948:5949   */\n      dup4\n        /* \"#utility.yul\":5930:5950   */\n      tag_155\n      jump\t// in\n    tag_261:\n        /* \"#utility.yul\":5925:5950   */\n      swap3\n      pop\n        /* \"#utility.yul\":5973:5974   */\n      dup3\n        /* \"#utility.yul\":5970:5971   */\n      dup3\n        /* \"#utility.yul\":5966:5975   */\n      add\n        /* \"#utility.yul\":5959:5975   */\n      swap1\n      pop\n        /* \"#utility.yul\":5994:5997   */\n      dup1\n        /* \"#utility.yul\":5991:5992   */\n      dup3\n        /* \"#utility.yul\":5988:5998   */\n      gt\n        /* \"#utility.yul\":5985:6021   */\n      iszero\n      tag_262\n      jumpi\n        /* \"#utility.yul\":6001:6019   */\n      tag_263\n      tag_175\n      jump\t// in\n    tag_263:\n        /* \"#utility.yul\":5985:6021   */\n    tag_262:\n        /* \"#utility.yul\":5837:6028   */\n      swap3\n      swap2\n      pop\n      pop\n      jump\t// out\n        /* \"#utility.yul\":6034:6267   */\n    tag_99:\n        /* \"#utility.yul\":6073:6076   */\n      0x00\n        /* \"#utility.yul\":6096:6120   */\n      tag_265\n        /* \"#utility.yul\":6114:6119   */\n      dup3\n        /* \"#utility.yul\":6096:6120   */\n      tag_155\n      jump\t// in\n    tag_265:\n        /* \"#utility.yul\":6087:6120   */\n      swap2\n      pop\n        /* \"#utility.yul\":6142:6208   */\n      0xffffffffffffffffffffffffffffffffffffffffffffffffffffffffffffffff\n        /* \"#utility.yul\":6135:6140   */\n      dup3\n        /* \"#utility.yul\":6132:6209   */\n      sub\n        /* \"#utility.yul\":6129:6232   */\n      tag_266\n      jumpi\n        /* \"#utility.yul\":6212:6230   */\n      tag_267\n      tag_175\n      jump\t// in\n    tag_267:\n        /* \"#utility.yul\":6129:6232   */\n    tag_266:\n        /* \"#utility.yul\":6259:6260   */\n      0x01\n        /* \"#utility.yul\":6252:6257   */\n      dup3\n        /* \"#utility.yul\":6248:6261   */\n      add\n        /* \"#utility.yul\":6241:6261   */\n      swap1\n      pop\n        /* \"#utility.yul\":6034:6267   */\n      swap2\n      swap1\n      pop\n      jump\t// out\n        /* \"#utility.yul\":6273:6367   */\n    tag_176:\n        /* \"#utility.yul\":6306:6314   */\n      0x00\n        /* \"#utility.yul\":6354:6359   */\n      dup2\n        /* \"#utility.yul\":6350:6352   */\n      0x60\n        /* \"#utility.yul\":6346:6360   */\n      shl\n        /* \"#utility.yul\":6325:6360   */\n      swap1\n      pop\n        /* \"#utility.yul\":6273:6367   */\n      swap2\n      swap1\n      pop\n      jump\t// out\n        /* \"#utility.yul\":6373:6467   */\n    tag_177:\n        /* \"#utility.yul\":6412:6419   */\n      0x00\n        /* \"#utility.yul\":6441:6461   */\n      tag_270\n        /* \"#utility.yul\":6455:6460   */\n      dup3\n        /* \"#utility.yul\":6441:6461   */\n      tag_176\n      jump\t// in\n    tag_270:\n        /* \"#utility.yul\":6430:6461   */\n      swap1\n      pop\n        /* \"#utility.yul\":6373:6467   */\n      swap2\n      swap1\n      pop\n      jump\t// out\n        /* \"#utility.yul\":6473:6573   */\n    tag_178:\n        /* \"#utility.yul\":6512:6519   */\n      0x00\n        /* \"#utility.yul\":6541:6567   */\n      tag_272\n        /* \"#utility.yul\":6561:6566   */\n      dup3\n        /* \"#utility.yul\":6541:6567   */\n      tag_177\n      jump\t// in\n    tag_272:\n        /* \"#utility.yul\":6530:6567   */\n      swap1\n      pop\n        /* \"#utility.yul\":6473:6573   */\n      swap2\n      swap1\n      pop\n      jump\t// out\n        /* \"#utility.yul\":6579:6736   */\n    tag_179:\n        /* \"#utility.yul\":6684:6729   */\n      tag_274\n        /* \"#utility.yul\":6704:6728   */\n      tag_275\n        /* \"#utility.yul\":6722:6727   */\n      dup3\n        /* \"#utility.yul\":6704:6728   */\n      tag_167\n      jump\t// in\n    tag_275:\n        /* \"#utility.yul\":6684:6729   */\n      tag_178\n      jump\t// in\n    tag_274:\n        /* \"#utility.yul\":6679:6682   */\n      dup3\n        /* \"#utility.yul\":6672:6730   */\n      mstore\n        /* \"#utility.yul\":6579:6736   */\n      pop\n      pop\n      jump\t// out\n        /* \"#utility.yul\":6742:6821   */\n    tag_180:\n        /* \"#utility.yul\":6781:6788   */\n      0x00\n        /* \"#utility.yul\":6810:6815   */\n      dup2\n        /* \"#utility.yul\":6799:6815   */\n      swap1\n      pop\n        /* \"#utility.yul\":6742:6821   */\n      swap2\n      swap1\n      pop\n      jump\t// out\n        /* \"#utility.yul\":6827:6984   */\n    tag_181:\n        /* \"#utility.yul\":6932:6977   */\n      tag_278\n        /* \"#utility.yul\":6952:6976   */\n      tag_279\n        /* \"#utility.yul\":6970:6975   */\n      dup3\n        /* \"#utility.yul\":6952:6976   */\n      tag_164\n      jump\t// in\n    tag_279:\n        /* \"#utility.yul\":6932:6977   */\n      tag_180\n      jump\t// in\n    tag_278:\n        /* \"#utility.yul\":6927:6930   */\n      dup3\n        /* \"#utility.yul\":6920:6978   */\n      mstore\n        /* \"#utility.yul\":6827:6984   */\n      pop\n      pop\n      jump\t// out\n        /* \"#utility.yul\":6990:7528   */\n    tag_114:\n        /* \"#utility.yul\":7158:7161   */\n      0x00\n        /* \"#utility.yul\":7173:7248   */\n      tag_281\n        /* \"#utility.yul\":7244:7247   */\n      dup3\n        /* \"#utility.yul\":7235:7241   */\n      dup7\n        /* \"#utility.yul\":7173:7248   */\n      tag_179\n      jump\t// in\n    tag_281:\n        /* \"#utility.yul\":7273:7275   */\n      0x14\n        /* \"#utility.yul\":7268:7271   */\n      dup3\n        /* \"#utility.yul\":7264:7276   */\n      add\n        /* \"#utility.yul\":7257:7276   */\n      swap2\n      pop\n        /* \"#utility.yul\":7286:7361   */\n      tag_282\n        /* \"#utility.yul\":7357:7360   */\n      dup3\n        /* \"#utility.yul\":7348:7354   */\n      dup6\n        /* \"#utility.yul\":7286:7361   */\n      tag_181\n      jump\t// in\n    tag_282:\n        /* \"#utility.yul\":7386:7388   */\n      0x20\n        /* \"#utility.yul\":7381:7384   */\n      dup3\n        /* \"#utility.yul\":7377:7389   */\n      add\n        /* \"#utility.yul\":7370:7389   */\n      swap2\n      pop\n        /* \"#utility.yul\":7399:7474   */\n      tag_283\n        /* \"#utility.yul\":7470:7473   */\n      dup3\n        /* \"#utility.yul\":7461:7467   */\n      dup5\n        /* \"#utility.yul\":7399:7474   */\n      tag_181\n      jump\t// in\n    tag_283:\n        /* \"#utility.yul\":7499:7501   */\n      0x20\n        /* \"#utility.yul\":7494:7497   */\n      dup3\n        /* \"#utility.yul\":7490:7502   */\n      add\n        /* \"#utility.yul\":7483:7502   */\n      swap2\n      pop\n        /* \"#utility.yul\":7519:7522   */\n      dup2\n        /* \"#utility.yul\":7512:7522   */\n      swap1\n      pop\n        /* \"#utility.yul\":6990:7528   */\n      swap5\n      swap4\n      pop\n      pop\n      pop\n      pop\n      jump\t// out\n        /* \"#utility.yul\":7534:7703   */\n    tag_182:\n        /* \"#utility.yul\":7618:7629   */\n      0x00\n        /* \"#utility.yul\":7652:7658   */\n      dup3\n        /* \"#utility.yul\":7647:7650   */\n      dup3\n        /* \"#utility.yul\":7640:7659   */\n      mstore\n        /* \"#utility.yul\":7692:7696   */\n      0x20\n        /* \"#utility.yul\":7687:7690   */\n      dup3\n        /* \"#utility.yul\":7683:7697   */\n      add\n        /* \"#utility.yul\":7668:7697   */\n      swap1\n      pop\n        /* \"#utility.yul\":7534:7703   */\n      swap3\n      swap2\n      pop\n      pop\n      jump\t// out\n        /* \"#utility.yul\":7709:7940   */\n    tag_183:\n        /* \"#utility.yul\":7849:7883   */\n      0x436f6d6d697452657665616c3a3a72657665616c416e737765723a20416c7265\n        /* \"#utility.yul\":7845:7846   */\n      0x00\n        /* \"#utility.yul\":7837:7843   */\n      dup3\n        /* \"#utility.yul\":7833:7847   */\n      add\n        /* \"#utility.yul\":7826:7884   */\n      mstore\n        /* \"#utility.yul\":7918:7932   */\n      0x6164792072657665616c65640000000000000000000000000000000000000000\n        /* \"#utility.yul\":7913:7915   */\n      0x20\n        /* \"#utility.yul\":7905:7911   */\n      dup3\n        /* \"#utility.yul\":7901:7916   */\n      add\n        /* \"#utility.yul\":7894:7933   */\n      mstore\n        /* \"#utility.yul\":7709:7940   */\n      pop\n      jump\t// out\n        /* \"#utility.yul\":7946:8312   */\n    tag_184:\n        /* \"#utility.yul\":8088:8091   */\n      0x00\n        /* \"#utility.yul\":8109:8176   */\n      tag_287\n        /* \"#utility.yul\":8173:8175   */\n      0x2c\n        /* \"#utility.yul\":8168:8171   */\n      dup4\n        /* \"#utility.yul\":8109:8176   */\n      tag_182\n      jump\t// in\n    tag_287:\n        /* \"#utility.yul\":8102:8176   */\n      swap2\n      pop\n        /* \"#utility.yul\":8185:8278   */\n      tag_288\n        /* \"#utility.yul\":8274:8277   */\n      dup3\n        /* \"#utility.yul\":8185:8278   */\n      tag_183\n      jump\t// in\n    tag_288:\n        /* \"#utility.yul\":8303:8305   */\n      0x40\n        /* \"#utility.yul\":8298:8301   */\n      dup3\n        /* \"#utility.yul\":8294:8306   */\n      add\n        /* \"#utility.yul\":8287:8306   */\n      swap1\n      pop\n        /* \"#utility.yul\":7946:8312   */\n      swap2\n      swap1\n      pop\n      jump\t// out\n        /* \"#utility.yul\":8318:8737   */\n    tag_118:\n        /* \"#utility.yul\":8484:8488   */\n      0x00\n        /* \"#utility.yul\":8522:8524   */\n      0x20\n        /* \"#utility.yul\":8511:8520   */\n      dup3\n        /* \"#utility.yul\":8507:8525   */\n      add\n        /* \"#utility.yul\":8499:8525   */\n      swap1\n      pop\n        /* \"#utility.yul\":8571:8580   */\n      dup2\n        /* \"#utility.yul\":8565:8569   */\n      dup2\n        /* \"#utility.yul\":8561:8581   */\n      sub\n        /* \"#utility.yul\":8557:8558   */\n      0x00\n        /* \"#utility.yul\":8546:8555   */\n      dup4\n        /* \"#utility.yul\":8542:8559   */\n      add\n        /* \"#utility.yul\":8535:8582   */\n      mstore\n        /* \"#utility.yul\":8599:8730   */\n      tag_290\n        /* \"#utility.yul\":8725:8729   */\n      dup2\n        /* \"#utility.yul\":8599:8730   */\n      tag_184\n      jump\t// in\n    tag_290:\n        /* \"#utility.yul\":8591:8730   */\n      swap1\n      pop\n        /* \"#utility.yul\":8318:8737   */\n      swap2\n      swap1\n      pop\n      jump\t// out\n        /* \"#utility.yul\":8743:8993   */\n    tag_185:\n        /* \"#utility.yul\":8883:8917   */\n      0x436f6d6d697452657665616c3a3a72657665616c416e737765723a2052657665\n        /* \"#utility.yul\":8879:8880   */\n      0x00\n        /* \"#utility.yul\":8871:8877   */\n      dup3\n        /* \"#utility.yul\":8867:8881   */\n      add\n        /* \"#utility.yul\":8860:8918   */\n      mstore\n        /* \"#utility.yul\":8952:8985   */\n      0x616c6564206861736820646f6573206e6f74206d6174636820636f6d6d697400\n        /* \"#utility.yul\":8947:8949   */\n      0x20\n        /* \"#utility.yul\":8939:8945   */\n      dup3\n        /* \"#utility.yul\":8935:8950   */\n      add\n        /* \"#utility.yul\":8928:8986   */\n      mstore\n        /* \"#utility.yul\":8743:8993   */\n      pop\n      jump\t// out\n        /* \"#utility.yul\":8999:9365   */\n    tag_186:\n        /* \"#utility.yul\":9141:9144   */\n      0x00\n        /* \"#utility.yul\":9162:9229   */\n      tag_293\n        /* \"#utility.yul\":9226:9228   */\n      0x3f\n        /* \"#utility.yul\":9221:9224   */\n      dup4\n        /* \"#utility.yul\":9162:9229   */\n      tag_182\n      jump\t// in\n    tag_293:\n        /* \"#utility.yul\":9155:9229   */\n      swap2\n      pop\n        /* \"#utility.yul\":9238:9331   */\n      tag_294\n        /* \"#utility.yul\":9327:9330   */\n      dup3\n        /* \"#utility.yul\":9238:9331   */\n      tag_185\n      jump\t// in\n    tag_294:\n        /* \"#utility.yul\":9356:9358   */\n      0x40\n        /* \"#utility.yul\":9351:9354   */\n      dup3\n        /* \"#utility.yul\":9347:9359   */\n      add\n        /* \"#utility.yul\":9340:9359   */\n      swap1\n      pop\n        /* \"#utility.yul\":8999:9365   */\n      swap2\n      swap1\n      pop\n      jump\t// out\n        /* \"#utility.yul\":9371:9790   */\n    tag_122:\n        /* \"#utility.yul\":9537:9541   */\n      0x00\n        /* \"#utility.yul\":9575:9577   */\n      0x20\n        /* \"#utility.yul\":9564:9573   */\n      dup3\n        /* \"#utility.yul\":9560:9578   */\n      add\n        /* \"#utility.yul\":9552:9578   */\n      swap1\n      pop\n        /* \"#utility.yul\":9624:9633   */\n      dup2\n        /* \"#utility.yul\":9618:9622   */\n      dup2\n        /* \"#utility.yul\":9614:9634   */\n      sub\n        /* \"#utility.yul\":9610:9611   */\n      0x00\n        /* \"#utility.yul\":9599:9608   */\n      dup4\n        /* \"#utility.yul\":9595:9612   */\n      add\n        /* \"#utility.yul\":9588:9635   */\n      mstore\n        /* \"#utility.yul\":9652:9783   */\n      tag_296\n        /* \"#utility.yul\":9778:9782   */\n      dup2\n        /* \"#utility.yul\":9652:9783   */\n      tag_186\n      jump\t// in\n    tag_296:\n        /* \"#utility.yul\":9644:9783   */\n      swap1\n      pop\n        /* \"#utility.yul\":9371:9790   */\n      swap2\n      swap1\n      pop\n      jump\t// out\n        /* \"#utility.yul\":9796:10238   */\n    tag_124:\n        /* \"#utility.yul\":9945:9949   */\n      0x00\n        /* \"#utility.yul\":9983:9985   */\n      0x60\n        /* \"#utility.yul\":9972:9981   */\n      dup3\n        /* \"#utility.yul\":9968:9986   */\n      add\n        /* \"#utility.yul\":9960:9986   */\n      swap1\n      pop\n        /* \"#utility.yul\":9996:10067   */\n      tag_298\n        /* \"#utility.yul\":10064:10065   */\n      0x00\n        /* \"#utility.yul\":10053:10062   */\n      dup4\n        /* \"#utility.yul\":10049:10066   */\n      add\n        /* \"#utility.yul\":10040:10046   */\n      dup7\n        /* \"#utility.yul\":9996:10067   */\n      tag_174\n      jump\t// in\n    tag_298:\n        /* \"#utility.yul\":10077:10149   */\n      tag_299\n        /* \"#utility.yul\":10145:10147   */\n      0x20\n        /* \"#utility.yul\":10134:10143   */\n      dup4\n        /* \"#utility.yul\":10130:10148   */\n      add\n        /* \"#utility.yul\":10121:10127   */\n      dup6\n        /* \"#utility.yul\":10077:10149   */\n      tag_165\n      jump\t// in\n    tag_299:\n        /* \"#utility.yul\":10159:10231   */\n      tag_300\n        /* \"#utility.yul\":10227:10229   */\n      0x40\n        /* \"#utility.yul\":10216:10225   */\n      dup4\n        /* \"#utility.yul\":10212:10230   */\n      add\n        /* \"#utility.yul\":10203:10209   */\n      dup5\n        /* \"#utility.yul\":10159:10231   */\n      tag_165\n      jump\t// in\n    tag_300:\n        /* \"#utility.yul\":9796:10238   */\n      swap5\n      swap4\n      pop\n      pop\n      pop\n      pop\n      jump\t// out\n        /* \"#utility.yul\":10244:10576   */\n    tag_133:\n        /* \"#utility.yul\":10365:10369   */\n      0x00\n        /* \"#utility.yul\":10403:10405   */\n      0x40\n        /* \"#utility.yul\":10392:10401   */\n      dup3\n        /* \"#utility.yul\":10388:10406   */\n      add\n        /* \"#utility.yul\":10380:10406   */\n      swap1\n      pop\n        /* \"#utility.yul\":10416:10487   */\n      tag_302\n        /* \"#utility.yul\":10484:10485   */\n      0x00\n        /* \"#utility.yul\":10473:10482   */\n      dup4\n        /* \"#utility.yul\":10469:10486   */\n      add\n        /* \"#utility.yul\":10460:10466   */\n      dup6\n        /* \"#utility.yul\":10416:10487   */\n      tag_174\n      jump\t// in\n    tag_302:\n        /* \"#utility.yul\":10497:10569   */\n      tag_303\n        /* \"#utility.yul\":10565:10567   */\n      0x20\n        /* \"#utility.yul\":10554:10563   */\n      dup4\n        /* \"#utility.yul\":10550:10568   */\n      add\n        /* \"#utility.yul\":10541:10547   */\n      dup5\n        /* \"#utility.yul\":10497:10569   */\n      tag_165\n      jump\t// in\n    tag_303:\n        /* \"#utility.yul\":10244:10576   */\n      swap4\n      swap3\n      pop\n      pop\n      pop\n      jump\t// out\n        /* \"#utility.yul\":10582:10762   */\n    tag_187:\n        /* \"#utility.yul\":10630:10707   */\n      0x4e487b7100000000000000000000000000000000000000000000000000000000\n        /* \"#utility.yul\":10627:10628   */\n      0x00\n        /* \"#utility.yul\":10620:10708   */\n      mstore\n        /* \"#utility.yul\":10727:10731   */\n      0x12\n        /* \"#utility.yul\":10724:10725   */\n      0x04\n        /* \"#utility.yul\":10717:10732   */\n      mstore\n        /* \"#utility.yul\":10751:10755   */\n      0x24\n        /* \"#utility.yul\":10748:10749   */\n      0x00\n        /* \"#utility.yul\":10741:10756   */\n      revert\n        /* \"#utility.yul\":10768:10944   */\n    tag_137:\n        /* \"#utility.yul\":10800:10801   */\n      0x00\n        /* \"#utility.yul\":10817:10837   */\n      tag_306\n        /* \"#utility.yul\":10835:10836   */\n      dup3\n        /* \"#utility.yul\":10817:10837   */\n      tag_155\n      jump\t// in\n    tag_306:\n        /* \"#utility.yul\":10812:10837   */\n      swap2\n      pop\n        /* \"#utility.yul\":10851:10871   */\n      tag_307\n        /* \"#utility.yul\":10869:10870   */\n      dup4\n        /* \"#utility.yul\":10851:10871   */\n      tag_155\n      jump\t// in\n    tag_307:\n        /* \"#utility.yul\":10846:10871   */\n      swap3\n      pop\n        /* \"#utility.yul\":10890:10891   */\n      dup3\n        /* \"#utility.yul\":10880:10915   */\n      tag_308\n      jumpi\n        /* \"#utility.yul\":10895:10913   */\n      tag_309\n      tag_187\n      jump\t// in\n    tag_309:\n        /* \"#utility.yul\":10880:10915   */\n    tag_308:\n        /* \"#utility.yul\":10936:10937   */\n      dup3\n        /* \"#utility.yul\":10933:10934   */\n      dup3\n        /* \"#utility.yul\":10929:10938   */\n      mod\n        /* \"#utility.yul\":10924:10938   */\n      swap1\n      pop\n        /* \"#utility.yul\":10768:10944   */\n      swap3\n      swap2\n      pop\n      pop\n      jump\t// out\n        /* \"#utility.yul\":10950:11135   */\n    tag_149:\n        /* \"#utility.yul\":10990:10991   */\n      0x00\n        /* \"#utility.yul\":11007:11027   */\n      tag_311\n        /* \"#utility.yul\":11025:11026   */\n      dup3\n        /* \"#utility.yul\":11007:11027   */\n      tag_155\n      jump\t// in\n    tag_311:\n        /* \"#utility.yul\":11002:11027   */\n      swap2\n      pop\n        /* \"#utility.yul\":11041:11061   */\n      tag_312\n        /* \"#utility.yul\":11059:11060   */\n      dup4\n        /* \"#utility.yul\":11041:11061   */\n      tag_155\n      jump\t// in\n    tag_312:\n        /* \"#utility.yul\":11036:11061   */\n      swap3\n      pop\n        /* \"#utility.yul\":11080:11081   */\n      dup3\n        /* \"#utility.yul\":11070:11105   */\n      tag_313\n      jumpi\n        /* \"#utility.yul\":11085:11103   */\n      tag_314\n      tag_187\n      jump\t// in\n    tag_314:\n        /* \"#utility.yul\":11070:11105   */\n    tag_313:\n        /* \"#utility.yul\":11127:11128   */\n      dup3\n        /* \"#utility.yul\":11124:11125   */\n      dup3\n        /* \"#utility.yul\":11120:11129   */\n      div\n        /* \"#utility.yul\":11115:11129   */\n      swap1\n      pop\n        /* \"#utility.yul\":10950:11135   */\n      swap3\n      swap2\n      pop\n      pop\n      jump\t// out\n\n    auxdata: 0xa26469706673582212206b4e851e3cf76687f3a4faa05d5b4735f60305436623ca17b971ba7cab5a698b64736f6c63430008180033\n}\n",
				"bytecode": {
					"linkReferences": {},
					"object": "608060405260645f806101000a81548160ff021916908360ff1602179055505f6004555f6005555f6006555f600755348015610039575f80fd5b50611308806100475f395ff3fe6080604052600436106100e7575f3560e01c80637b43a8e611610089578063ae73ea6511610058578063ae73ea65146102e1578063de8e90331461031d578063e05b10c014610345578063f14fcbc81461036d576100e7565b80637b43a8e6146102015780638dddbf361461023e57806390d5d0c31461027a5780639e0551c6146102a4576100e7565b806341a807e1116100c557806341a807e1146101495780636ac5db19146101715780637661f2b11461019b57806376d4192c146101d7576100e7565b8063086f7815146100eb578063228cb7331461011557806327b5db8a1461013f575b5f80fd5b3480156100f6575f80fd5b506100ff610395565b60405161010c9190610cd1565b60405180910390f35b348015610120575f80fd5b5061012961039b565b6040516101369190610cd1565b60405180910390f35b6101476103a1565b005b348015610154575f80fd5b5061016f600480360381019061016a9190610d18565b6104a6565b005b34801561017c575f80fd5b50610185610607565b6040516101929190610d71565b60405180910390f35b3480156101a6575f80fd5b506101c160048036038101906101bc9190610d18565b610617565b6040516101ce9190610da2565b60405180910390f35b3480156101e2575f80fd5b506101eb61062e565b6040516101f89190610cd1565b60405180910390f35b34801561020c575f80fd5b5061022760048036038101906102229190610e15565b610634565b604051610235929190610e5a565b60405180910390f35b348015610249575f80fd5b50610264600480360381019061025f9190610eab565b610660565b6040516102719190610da2565b60405180910390f35b348015610285575f80fd5b5061028e610694565b60405161029b9190610cd1565b60405180910390f35b3480156102af575f80fd5b506102ca60048036038101906102c59190610ee9565b61069a565b6040516102d8929190610f23565b60405180910390f35b3480156102ec575f80fd5b5061030760048036038101906103029190610e15565b6106d9565b6040516103149190610cd1565b60405180910390f35b348015610328575f80fd5b50610343600480360381019061033e9190610eab565b6106ee565b005b348015610350575f80fd5b5061036b60048036038101906103669190610f4a565b6108a0565b005b348015610378575f80fd5b50610393600480360381019061038e9190610f4a565b610985565b005b60065481565b60055481565b6002600454106103af575f80fd5b670de0b6b3a764000034146103c2575f80fd5b3460055f8282546103d39190610fa2565b925050819055503360025f60045481526020019081526020015f206001015f6101000a81548173ffffffffffffffffffffffffffffffffffffffff021916908373ffffffffffffffffffffffffffffffffffffffff160217905550600360025f60045481526020019081526020015f205f018190555060045460035f3373ffffffffffffffffffffffffffffffffffffffff1673ffffffffffffffffffffffffffffffffffffffff1681526020019081526020015f208190555060045f81548092919061049f90610fd5565b9190505550565b60038211156104b3575f80fd5b6002600454146104c1575f80fd5b6002600654146104cf575f80fd5b60025f60035f3373ffffffffffffffffffffffffffffffffffffffff1673ffffffffffffffffffffffffffffffffffffffff1681526020019081526020015f205481526020019081526020015f206001015f9054906101000a900473ffffffffffffffffffffffffffffffffffffffff1673ffffffffffffffffffffffffffffffffffffffff163373ffffffffffffffffffffffffffffffffffffffff1614610576575f80fd5b610584825f1b825f1b6106ee565b8160025f60035f3373ffffffffffffffffffffffffffffffffffffffff1673ffffffffffffffffffffffffffffffffffffffff1681526020019081526020015f205481526020019081526020015f205f018190555060075f8154809291906105eb90610fd5565b919050555060026007540361060357610602610a9b565b5b5050565b5f8054906101000a900460ff1681565b5f610626835f1b835f1b610660565b905092915050565b60075481565b6001602052805f5260405f205f91509050805f015490806001015f9054906101000a900460ff16905082565b5f30838360405160200161067693929190611081565b60405160208183030381529060405280519060200120905092915050565b60045481565b6002602052805f5260405f205f91509050805f015490806001015f9054906101000a900473ffffffffffffffffffffffffffffffffffffffff16905082565b6003602052805f5260405f205f915090505481565b5f151560015f3373ffffffffffffffffffffffffffffffffffffffff1673ffffffffffffffffffffffffffffffffffffffff1681526020019081526020015f206001015f9054906101000a900460ff16151514610780576040517f08c379a00000000000000000000000000000000000000000000000000000000081526004016107779061113d565b60405180910390fd5b6001805f3373ffffffffffffffffffffffffffffffffffffffff1673ffffffffffffffffffffffffffffffffffffffff1681526020019081526020015f206001015f6101000a81548160ff02191690831515021790555060015f3373ffffffffffffffffffffffffffffffffffffffff1673ffffffffffffffffffffffffffffffffffffffff1681526020019081526020015f205f01546108218383610660565b14610861576040517f08c379a0000000000000000000000000000000000000000000000000000000008152600401610858906111cb565b60405180910390fd5b7f8bed02c4d61e56ed1d90657e7a0ba48f15cca20fcc2899d7235221b2cb0423a6338383604051610894939291906111e9565b60405180910390a15050565b6002600454146108ae575f80fd5b60025f60035f3373ffffffffffffffffffffffffffffffffffffffff1673ffffffffffffffffffffffffffffffffffffffff1681526020019081526020015f205481526020019081526020015f206001015f9054906101000a900473ffffffffffffffffffffffffffffffffffffffff1673ffffffffffffffffffffffffffffffffffffffff163373ffffffffffffffffffffffffffffffffffffffff1614610955575f80fd5b5f801b8103610962575f80fd5b61096b81610985565b60065f81548092919061097d90610fd5565b919050555050565b8060015f3373ffffffffffffffffffffffffffffffffffffffff1673ffffffffffffffffffffffffffffffffffffffff1681526020019081526020015f205f01819055505f60015f3373ffffffffffffffffffffffffffffffffffffffff1673ffffffffffffffffffffffffffffffffffffffff1681526020019081526020015f206001015f6101000a81548160ff0219169083151502179055507fc38ed506edc9404e14f0bb335345918b4d4798a17868c1948c4d3e3f8add64403360015f3373ffffffffffffffffffffffffffffffffffffffff1673ffffffffffffffffffffffffffffffffffffffff1681526020019081526020015f205f0154604051610a9092919061121e565b60405180910390a150565b5f60025f8081526020019081526020015f205f015490505f60025f600181526020019081526020015f205f015490505f60025f8081526020019081526020015f206001015f9054906101000a900473ffffffffffffffffffffffffffffffffffffffff1690505f60025f600181526020019081526020015f206001015f9054906101000a900473ffffffffffffffffffffffffffffffffffffffff169050826003600186610b499190610fa2565b610b539190611272565b03610ba3578073ffffffffffffffffffffffffffffffffffffffff166108fc60055490811502906040515f60405180830381858888f19350505050158015610b9d573d5f803e3d5ffd5b50610cb3565b836003600185610bb39190610fa2565b610bbd9190611272565b03610c0d578173ffffffffffffffffffffffffffffffffffffffff166108fc60055490811502906040515f60405180830381858888f19350505050158015610c07573d5f803e3d5ffd5b50610cb2565b8173ffffffffffffffffffffffffffffffffffffffff166108fc6002600554610c3691906112a2565b90811502906040515f60405180830381858888f19350505050158015610c5e573d5f803e3d5ffd5b508073ffffffffffffffffffffffffffffffffffffffff166108fc6002600554610c8891906112a2565b90811502906040515f60405180830381858888f19350505050158015610cb0573d5f803e3d5ffd5b505b5b50505050565b5f819050919050565b610ccb81610cb9565b82525050565b5f602082019050610ce45f830184610cc2565b92915050565b5f80fd5b610cf781610cb9565b8114610d01575f80fd5b50565b5f81359050610d1281610cee565b92915050565b5f8060408385031215610d2e57610d2d610cea565b5b5f610d3b85828601610d04565b9250506020610d4c85828601610d04565b9150509250929050565b5f60ff82169050919050565b610d6b81610d56565b82525050565b5f602082019050610d845f830184610d62565b92915050565b5f819050919050565b610d9c81610d8a565b82525050565b5f602082019050610db55f830184610d93565b92915050565b5f73ffffffffffffffffffffffffffffffffffffffff82169050919050565b5f610de482610dbb565b9050919050565b610df481610dda565b8114610dfe575f80fd5b50565b5f81359050610e0f81610deb565b92915050565b5f60208284031215610e2a57610e29610cea565b5b5f610e3784828501610e01565b91505092915050565b5f8115159050919050565b610e5481610e40565b82525050565b5f604082019050610e6d5f830185610d93565b610e7a6020830184610e4b565b9392505050565b610e8a81610d8a565b8114610e94575f80fd5b50565b5f81359050610ea581610e81565b92915050565b5f8060408385031215610ec157610ec0610cea565b5b5f610ece85828601610e97565b9250506020610edf85828601610e97565b9150509250929050565b5f60208284031215610efe57610efd610cea565b5b5f610f0b84828501610d04565b91505092915050565b610f1d81610dda565b82525050565b5f604082019050610f365f830185610cc2565b610f436020830184610f14565b9392505050565b5f60208284031215610f5f57610f5e610cea565b5b5f610f6c84828501610e97565b91505092915050565b7f4e487b71000000000000000000000000000000000000000000000000000000005f52601160045260245ffd5b5f610fac82610cb9565b9150610fb783610cb9565b9250828201905080821115610fcf57610fce610f75565b5b92915050565b5f610fdf82610cb9565b91507fffffffffffffffffffffffffffffffffffffffffffffffffffffffffffffffff820361101157611010610f75565b5b600182019050919050565b5f8160601b9050919050565b5f6110328261101c565b9050919050565b5f61104382611028565b9050919050565b61105b61105682610dda565b611039565b82525050565b5f819050919050565b61107b61107682610d8a565b611061565b82525050565b5f61108c828661104a565b60148201915061109c828561106a565b6020820191506110ac828461106a565b602082019150819050949350505050565b5f82825260208201905092915050565b7f436f6d6d697452657665616c3a3a72657665616c416e737765723a20416c72655f8201527f6164792072657665616c65640000000000000000000000000000000000000000602082015250565b5f611127602c836110bd565b9150611132826110cd565b604082019050919050565b5f6020820190508181035f8301526111548161111b565b9050919050565b7f436f6d6d697452657665616c3a3a72657665616c416e737765723a20526576655f8201527f616c6564206861736820646f6573206e6f74206d6174636820636f6d6d697400602082015250565b5f6111b5603f836110bd565b91506111c08261115b565b604082019050919050565b5f6020820190508181035f8301526111e2816111a9565b9050919050565b5f6060820190506111fc5f830186610f14565b6112096020830185610d93565b6112166040830184610d93565b949350505050565b5f6040820190506112315f830185610f14565b61123e6020830184610d93565b9392505050565b7f4e487b71000000000000000000000000000000000000000000000000000000005f52601260045260245ffd5b5f61127c82610cb9565b915061128783610cb9565b92508261129757611296611245565b5b828206905092915050565b5f6112ac82610cb9565b91506112b783610cb9565b9250826112c7576112c6611245565b5b82820490509291505056fea26469706673582212206b4e851e3cf76687f3a4faa05d5b4735f60305436623ca17b971ba7cab5a698b64736f6c63430008180033",
					"opcodes": "PUSH1 0x80 PUSH1 0x40 MSTORE PUSH1 0x64 PUSH0 DUP1 PUSH2 0x100 EXP DUP2 SLOAD DUP2 PUSH1 0xFF MUL NOT AND SWAP1 DUP4 PUSH1 0xFF AND MUL OR SWAP1 SSTORE POP PUSH0 PUSH1 0x4 SSTORE PUSH0 PUSH1 0x5 SSTORE PUSH0 PUSH1 0x6 SSTORE PUSH0 PUSH1 0x7 SSTORE CALLVALUE DUP1 ISZERO PUSH2 0x39 JUMPI PUSH0 DUP1 REVERT JUMPDEST POP PUSH2 0x1308 DUP1 PUSH2 0x47 PUSH0 CODECOPY PUSH0 RETURN INVALID PUSH1 0x80 PUSH1 0x40 MSTORE PUSH1 0x4 CALLDATASIZE LT PUSH2 0xE7 JUMPI PUSH0 CALLDATALOAD PUSH1 0xE0 SHR DUP1 PUSH4 0x7B43A8E6 GT PUSH2 0x89 JUMPI DUP1 PUSH4 0xAE73EA65 GT PUSH2 0x58 JUMPI DUP1 PUSH4 0xAE73EA65 EQ PUSH2 0x2E1 JUMPI DUP1 PUSH4 0xDE8E9033 EQ PUSH2 0x31D JUMPI DUP1 PUSH4 0xE05B10C0 EQ PUSH2 0x345 JUMPI DUP1 PUSH4 0xF14FCBC8 EQ PUSH2 0x36D JUMPI PUSH2 0xE7 JUMP JUMPDEST DUP1 PUSH4 0x7B43A8E6 EQ PUSH2 0x201 JUMPI DUP1 PUSH4 0x8DDDBF36 EQ PUSH2 0x23E JUMPI DUP1 PUSH4 0x90D5D0C3 EQ PUSH2 0x27A JUMPI DUP1 PUSH4 0x9E0551C6 EQ PUSH2 0x2A4 JUMPI PUSH2 0xE7 JUMP JUMPDEST DUP1 PUSH4 0x41A807E1 GT PUSH2 0xC5 JUMPI DUP1 PUSH4 0x41A807E1 EQ PUSH2 0x149 JUMPI DUP1 PUSH4 0x6AC5DB19 EQ PUSH2 0x171 JUMPI DUP1 PUSH4 0x7661F2B1 EQ PUSH2 0x19B JUMPI DUP1 PUSH4 0x76D4192C EQ PUSH2 0x1D7 JUMPI PUSH2 0xE7 JUMP JUMPDEST DUP1 PUSH4 0x86F7815 EQ PUSH2 0xEB JUMPI DUP1 PUSH4 0x228CB733 EQ PUSH2 0x115 JUMPI DUP1 PUSH4 0x27B5DB8A EQ PUSH2 0x13F JUMPI JUMPDEST PUSH0 DUP1 REVERT JUMPDEST CALLVALUE DUP1 ISZERO PUSH2 0xF6 JUMPI PUSH0 DUP1 REVERT JUMPDEST POP PUSH2 0xFF PUSH2 0x395 JUMP JUMPDEST PUSH1 0x40 MLOAD PUSH2 0x10C SWAP2 SWAP1 PUSH2 0xCD1 JUMP JUMPDEST PUSH1 0x40 MLOAD DUP1 SWAP2 SUB SWAP1 RETURN JUMPDEST CALLVALUE DUP1 ISZERO PUSH2 0x120 JUMPI PUSH0 DUP1 REVERT JUMPDEST POP PUSH2 0x129 PUSH2 0x39B JUMP JUMPDEST PUSH1 0x40 MLOAD PUSH2 0x136 SWAP2 SWAP1 PUSH2 0xCD1 JUMP JUMPDEST PUSH1 0x40 MLOAD DUP1 SWAP2 SUB SWAP1 RETURN JUMPDEST PUSH2 0x147 PUSH2 0x3A1 JUMP JUMPDEST STOP JUMPDEST CALLVALUE DUP1 ISZERO PUSH2 0x154 JUMPI PUSH0 DUP1 REVERT JUMPDEST POP PUSH2 0x16F PUSH1 0x4 DUP1 CALLDATASIZE SUB DUP2 ADD SWAP1 PUSH2 0x16A SWAP2 SWAP1 PUSH2 0xD18 JUMP JUMPDEST PUSH2 0x4A6 JUMP JUMPDEST STOP JUMPDEST CALLVALUE DUP1 ISZERO PUSH2 0x17C JUMPI PUSH0 DUP1 REVERT JUMPDEST POP PUSH2 0x185 PUSH2 0x607 JUMP JUMPDEST PUSH1 0x40 MLOAD PUSH2 0x192 SWAP2 SWAP1 PUSH2 0xD71 JUMP JUMPDEST PUSH1 0x40 MLOAD DUP1 SWAP2 SUB SWAP1 RETURN JUMPDEST CALLVALUE DUP1 ISZERO PUSH2 0x1A6 JUMPI PUSH0 DUP1 REVERT JUMPDEST POP PUSH2 0x1C1 PUSH1 0x4 DUP1 CALLDATASIZE SUB DUP2 ADD SWAP1 PUSH2 0x1BC SWAP2 SWAP1 PUSH2 0xD18 JUMP JUMPDEST PUSH2 0x617 JUMP JUMPDEST PUSH1 0x40 MLOAD PUSH2 0x1CE SWAP2 SWAP1 PUSH2 0xDA2 JUMP JUMPDEST PUSH1 0x40 MLOAD DUP1 SWAP2 SUB SWAP1 RETURN JUMPDEST CALLVALUE DUP1 ISZERO PUSH2 0x1E2 JUMPI PUSH0 DUP1 REVERT JUMPDEST POP PUSH2 0x1EB PUSH2 0x62E JUMP JUMPDEST PUSH1 0x40 MLOAD PUSH2 0x1F8 SWAP2 SWAP1 PUSH2 0xCD1 JUMP JUMPDEST PUSH1 0x40 MLOAD DUP1 SWAP2 SUB SWAP1 RETURN JUMPDEST CALLVALUE DUP1 ISZERO PUSH2 0x20C JUMPI PUSH0 DUP1 REVERT JUMPDEST POP PUSH2 0x227 PUSH1 0x4 DUP1 CALLDATASIZE SUB DUP2 ADD SWAP1 PUSH2 0x222 SWAP2 SWAP1 PUSH2 0xE15 JUMP JUMPDEST PUSH2 0x634 JUMP JUMPDEST PUSH1 0x40 MLOAD PUSH2 0x235 SWAP3 SWAP2 SWAP1 PUSH2 0xE5A JUMP JUMPDEST PUSH1 0x40 MLOAD DUP1 SWAP2 SUB SWAP1 RETURN JUMPDEST CALLVALUE DUP1 ISZERO PUSH2 0x249 JUMPI PUSH0 DUP1 REVERT JUMPDEST POP PUSH2 0x264 PUSH1 0x4 DUP1 CALLDATASIZE SUB DUP2 ADD SWAP1 PUSH2 0x25F SWAP2 SWAP1 PUSH2 0xEAB JUMP JUMPDEST PUSH2 0x660 JUMP JUMPDEST PUSH1 0x40 MLOAD PUSH2 0x271 SWAP2 SWAP1 PUSH2 0xDA2 JUMP JUMPDEST PUSH1 0x40 MLOAD DUP1 SWAP2 SUB SWAP1 RETURN JUMPDEST CALLVALUE DUP1 ISZERO PUSH2 0x285 JUMPI PUSH0 DUP1 REVERT JUMPDEST POP PUSH2 0x28E PUSH2 0x694 JUMP JUMPDEST PUSH1 0x40 MLOAD PUSH2 0x29B SWAP2 SWAP1 PUSH2 0xCD1 JUMP JUMPDEST PUSH1 0x40 MLOAD DUP1 SWAP2 SUB SWAP1 RETURN JUMPDEST CALLVALUE DUP1 ISZERO PUSH2 0x2AF JUMPI PUSH0 DUP1 REVERT JUMPDEST POP PUSH2 0x2CA PUSH1 0x4 DUP1 CALLDATASIZE SUB DUP2 ADD SWAP1 PUSH2 0x2C5 SWAP2 SWAP1 PUSH2 0xEE9 JUMP JUMPDEST PUSH2 0x69A JUMP JUMPDEST PUSH1 0x40 MLOAD PUSH2 0x2D8 SWAP3 SWAP2 SWAP1 PUSH2 0xF23 JUMP JUMPDEST PUSH1 0x40 MLOAD DUP1 SWAP2 SUB SWAP1 RETURN JUMPDEST CALLVALUE DUP1 ISZERO PUSH2 0x2EC JUMPI PUSH0 DUP1 REVERT JUMPDEST POP PUSH2 0x307 PUSH1 0x4 DUP1 CALLDATASIZE SUB DUP2 ADD SWAP1 PUSH2 0x302 SWAP2 SWAP1 PUSH2 0xE15 JUMP JUMPDEST PUSH2 0x6D9 JUMP JUMPDEST PUSH1 0x40 MLOAD PUSH2 0x314 SWAP2 SWAP1 PUSH2 0xCD1 JUMP JUMPDEST PUSH1 0x40 MLOAD DUP1 SWAP2 SUB SWAP1 RETURN JUMPDEST CALLVALUE DUP1 ISZERO PUSH2 0x328 JUMPI PUSH0 DUP1 REVERT JUMPDEST POP PUSH2 0x343 PUSH1 0x4 DUP1 CALLDATASIZE SUB DUP2 ADD SWAP1 PUSH2 0x33E SWAP2 SWAP1 PUSH2 0xEAB JUMP JUMPDEST PUSH2 0x6EE JUMP JUMPDEST STOP JUMPDEST CALLVALUE DUP1 ISZERO PUSH2 0x350 JUMPI PUSH0 DUP1 REVERT JUMPDEST POP PUSH2 0x36B PUSH1 0x4 DUP1 CALLDATASIZE SUB DUP2 ADD SWAP1 PUSH2 0x366 SWAP2 SWAP1 PUSH2 0xF4A JUMP JUMPDEST PUSH2 0x8A0 JUMP JUMPDEST STOP JUMPDEST CALLVALUE DUP1 ISZERO PUSH2 0x378 JUMPI PUSH0 DUP1 REVERT JUMPDEST POP PUSH2 0x393 PUSH1 0x4 DUP1 CALLDATASIZE SUB DUP2 ADD SWAP1 PUSH2 0x38E SWAP2 SWAP1 PUSH2 0xF4A JUMP JUMPDEST PUSH2 0x985 JUMP JUMPDEST STOP JUMPDEST PUSH1 0x6 SLOAD DUP2 JUMP JUMPDEST PUSH1 0x5 SLOAD DUP2 JUMP JUMPDEST PUSH1 0x2 PUSH1 0x4 SLOAD LT PUSH2 0x3AF JUMPI PUSH0 DUP1 REVERT JUMPDEST PUSH8 0xDE0B6B3A7640000 CALLVALUE EQ PUSH2 0x3C2 JUMPI PUSH0 DUP1 REVERT JUMPDEST CALLVALUE PUSH1 0x5 PUSH0 DUP3 DUP3 SLOAD PUSH2 0x3D3 SWAP2 SWAP1 PUSH2 0xFA2 JUMP JUMPDEST SWAP3 POP POP DUP2 SWAP1 SSTORE POP CALLER PUSH1 0x2 PUSH0 PUSH1 0x4 SLOAD DUP2 MSTORE PUSH1 0x20 ADD SWAP1 DUP2 MSTORE PUSH1 0x20 ADD PUSH0 KECCAK256 PUSH1 0x1 ADD PUSH0 PUSH2 0x100 EXP DUP2 SLOAD DUP2 PUSH20 0xFFFFFFFFFFFFFFFFFFFFFFFFFFFFFFFFFFFFFFFF MUL NOT AND SWAP1 DUP4 PUSH20 0xFFFFFFFFFFFFFFFFFFFFFFFFFFFFFFFFFFFFFFFF AND MUL OR SWAP1 SSTORE POP PUSH1 0x3 PUSH1 0x2 PUSH0 PUSH1 0x4 SLOAD DUP2 MSTORE PUSH1 0x20 ADD SWAP1 DUP2 MSTORE PUSH1 0x20 ADD PUSH0 KECCAK256 PUSH0 ADD DUP2 SWAP1 SSTORE POP PUSH1 0x4 SLOAD PUSH1 0x3 PUSH0 CALLER PUSH20 0xFFFFFFFFFFFFFFFFFFFFFFFFFFFFFFFFFFFFFFFF AND PUSH20 0xFFFFFFFFFFFFFFFFFFFFFFFFFFFFFFFFFFFFFFFF AND DUP2 MSTORE PUSH1 0x20 ADD SWAP1 DUP2 MSTORE PUSH1 0x20 ADD PUSH0 KECCAK256 DUP2 SWAP1 SSTORE POP PUSH1 0x4 PUSH0 DUP2 SLOAD DUP1 SWAP3 SWAP2 SWAP1 PUSH2 0x49F SWAP1 PUSH2 0xFD5 JUMP JUMPDEST SWAP2 SWAP1 POP SSTORE POP JUMP JUMPDEST PUSH1 0x3 DUP3 GT ISZERO PUSH2 0x4B3 JUMPI PUSH0 DUP1 REVERT JUMPDEST PUSH1 0x2 PUSH1 0x4 SLOAD EQ PUSH2 0x4C1 JUMPI PUSH0 DUP1 REVERT JUMPDEST PUSH1 0x2 PUSH1 0x6 SLOAD EQ PUSH2 0x4CF JUMPI PUSH0 DUP1 REVERT JUMPDEST PUSH1 0x2 PUSH0 PUSH1 0x3 PUSH0 CALLER PUSH20 0xFFFFFFFFFFFFFFFFFFFFFFFFFFFFFFFFFFFFFFFF AND PUSH20 0xFFFFFFFFFFFFFFFFFFFFFFFFFFFFFFFFFFFFFFFF AND DUP2 MSTORE PUSH1 0x20 ADD SWAP1 DUP2 MSTORE PUSH1 0x20 ADD PUSH0 KECCAK256 SLOAD DUP2 MSTORE PUSH1 0x20 ADD SWAP1 DUP2 MSTORE PUSH1 0x20 ADD PUSH0 KECCAK256 PUSH1 0x1 ADD PUSH0 SWAP1 SLOAD SWAP1 PUSH2 0x100 EXP SWAP1 DIV PUSH20 0xFFFFFFFFFFFFFFFFFFFFFFFFFFFFFFFFFFFFFFFF AND PUSH20 0xFFFFFFFFFFFFFFFFFFFFFFFFFFFFFFFFFFFFFFFF AND CALLER PUSH20 0xFFFFFFFFFFFFFFFFFFFFFFFFFFFFFFFFFFFFFFFF AND EQ PUSH2 0x576 JUMPI PUSH0 DUP1 REVERT JUMPDEST PUSH2 0x584 DUP3 PUSH0 SHL DUP3 PUSH0 SHL PUSH2 0x6EE JUMP JUMPDEST DUP2 PUSH1 0x2 PUSH0 PUSH1 0x3 PUSH0 CALLER PUSH20 0xFFFFFFFFFFFFFFFFFFFFFFFFFFFFFFFFFFFFFFFF AND PUSH20 0xFFFFFFFFFFFFFFFFFFFFFFFFFFFFFFFFFFFFFFFF AND DUP2 MSTORE PUSH1 0x20 ADD SWAP1 DUP2 MSTORE PUSH1 0x20 ADD PUSH0 KECCAK256 SLOAD DUP2 MSTORE PUSH1 0x20 ADD SWAP1 DUP2 MSTORE PUSH1 0x20 ADD PUSH0 KECCAK256 PUSH0 ADD DUP2 SWAP1 SSTORE POP PUSH1 0x7 PUSH0 DUP2 SLOAD DUP1 SWAP3 SWAP2 SWAP1 PUSH2 0x5EB SWAP1 PUSH2 0xFD5 JUMP JUMPDEST SWAP2 SWAP1 POP SSTORE POP PUSH1 0x2 PUSH1 0x7 SLOAD SUB PUSH2 0x603 JUMPI PUSH2 0x602 PUSH2 0xA9B JUMP JUMPDEST JUMPDEST POP POP JUMP JUMPDEST PUSH0 DUP1 SLOAD SWAP1 PUSH2 0x100 EXP SWAP1 DIV PUSH1 0xFF AND DUP2 JUMP JUMPDEST PUSH0 PUSH2 0x626 DUP4 PUSH0 SHL DUP4 PUSH0 SHL PUSH2 0x660 JUMP JUMPDEST SWAP1 POP SWAP3 SWAP2 POP POP JUMP JUMPDEST PUSH1 0x7 SLOAD DUP2 JUMP JUMPDEST PUSH1 0x1 PUSH1 0x20 MSTORE DUP1 PUSH0 MSTORE PUSH1 0x40 PUSH0 KECCAK256 PUSH0 SWAP2 POP SWAP1 POP DUP1 PUSH0 ADD SLOAD SWAP1 DUP1 PUSH1 0x1 ADD PUSH0 SWAP1 SLOAD SWAP1 PUSH2 0x100 EXP SWAP1 DIV PUSH1 0xFF AND SWAP1 POP DUP3 JUMP JUMPDEST PUSH0 ADDRESS DUP4 DUP4 PUSH1 0x40 MLOAD PUSH1 0x20 ADD PUSH2 0x676 SWAP4 SWAP3 SWAP2 SWAP1 PUSH2 0x1081 JUMP JUMPDEST PUSH1 0x40 MLOAD PUSH1 0x20 DUP2 DUP4 SUB SUB DUP2 MSTORE SWAP1 PUSH1 0x40 MSTORE DUP1 MLOAD SWAP1 PUSH1 0x20 ADD KECCAK256 SWAP1 POP SWAP3 SWAP2 POP POP JUMP JUMPDEST PUSH1 0x4 SLOAD DUP2 JUMP JUMPDEST PUSH1 0x2 PUSH1 0x20 MSTORE DUP1 PUSH0 MSTORE PUSH1 0x40 PUSH0 KECCAK256 PUSH0 SWAP2 POP SWAP1 POP DUP1 PUSH0 ADD SLOAD SWAP1 DUP1 PUSH1 0x1 ADD PUSH0 SWAP1 SLOAD SWAP1 PUSH2 0x100 EXP SWAP1 DIV PUSH20 0xFFFFFFFFFFFFFFFFFFFFFFFFFFFFFFFFFFFFFFFF AND SWAP1 POP DUP3 JUMP JUMPDEST PUSH1 0x3 PUSH1 0x20 MSTORE DUP1 PUSH0 MSTORE PUSH1 0x40 PUSH0 KECCAK256 PUSH0 SWAP2 POP SWAP1 POP SLOAD DUP2 JUMP JUMPDEST PUSH0 ISZERO ISZERO PUSH1 0x1 PUSH0 CALLER PUSH20 0xFFFFFFFFFFFFFFFFFFFFFFFFFFFFFFFFFFFFFFFF AND PUSH20 0xFFFFFFFFFFFFFFFFFFFFFFFFFFFFFFFFFFFFFFFF AND DUP2 MSTORE PUSH1 0x20 ADD SWAP1 DUP2 MSTORE PUSH1 0x20 ADD PUSH0 KECCAK256 PUSH1 0x1 ADD PUSH0 SWAP1 SLOAD SWAP1 PUSH2 0x100 EXP SWAP1 DIV PUSH1 0xFF AND ISZERO ISZERO EQ PUSH2 0x780 JUMPI PUSH1 0x40 MLOAD PUSH32 0x8C379A000000000000000000000000000000000000000000000000000000000 DUP2 MSTORE PUSH1 0x4 ADD PUSH2 0x777 SWAP1 PUSH2 0x113D JUMP JUMPDEST PUSH1 0x40 MLOAD DUP1 SWAP2 SUB SWAP1 REVERT JUMPDEST PUSH1 0x1 DUP1 PUSH0 CALLER PUSH20 0xFFFFFFFFFFFFFFFFFFFFFFFFFFFFFFFFFFFFFFFF AND PUSH20 0xFFFFFFFFFFFFFFFFFFFFFFFFFFFFFFFFFFFFFFFF AND DUP2 MSTORE PUSH1 0x20 ADD SWAP1 DUP2 MSTORE PUSH1 0x20 ADD PUSH0 KECCAK256 PUSH1 0x1 ADD PUSH0 PUSH2 0x100 EXP DUP2 SLOAD DUP2 PUSH1 0xFF MUL NOT AND SWAP1 DUP4 ISZERO ISZERO MUL OR SWAP1 SSTORE POP PUSH1 0x1 PUSH0 CALLER PUSH20 0xFFFFFFFFFFFFFFFFFFFFFFFFFFFFFFFFFFFFFFFF AND PUSH20 0xFFFFFFFFFFFFFFFFFFFFFFFFFFFFFFFFFFFFFFFF AND DUP2 MSTORE PUSH1 0x20 ADD SWAP1 DUP2 MSTORE PUSH1 0x20 ADD PUSH0 KECCAK256 PUSH0 ADD SLOAD PUSH2 0x821 DUP4 DUP4 PUSH2 0x660 JUMP JUMPDEST EQ PUSH2 0x861 JUMPI PUSH1 0x40 MLOAD PUSH32 0x8C379A000000000000000000000000000000000000000000000000000000000 DUP2 MSTORE PUSH1 0x4 ADD PUSH2 0x858 SWAP1 PUSH2 0x11CB JUMP JUMPDEST PUSH1 0x40 MLOAD DUP1 SWAP2 SUB SWAP1 REVERT JUMPDEST PUSH32 0x8BED02C4D61E56ED1D90657E7A0BA48F15CCA20FCC2899D7235221B2CB0423A6 CALLER DUP4 DUP4 PUSH1 0x40 MLOAD PUSH2 0x894 SWAP4 SWAP3 SWAP2 SWAP1 PUSH2 0x11E9 JUMP JUMPDEST PUSH1 0x40 MLOAD DUP1 SWAP2 SUB SWAP1 LOG1 POP POP JUMP JUMPDEST PUSH1 0x2 PUSH1 0x4 SLOAD EQ PUSH2 0x8AE JUMPI PUSH0 DUP1 REVERT JUMPDEST PUSH1 0x2 PUSH0 PUSH1 0x3 PUSH0 CALLER PUSH20 0xFFFFFFFFFFFFFFFFFFFFFFFFFFFFFFFFFFFFFFFF AND PUSH20 0xFFFFFFFFFFFFFFFFFFFFFFFFFFFFFFFFFFFFFFFF AND DUP2 MSTORE PUSH1 0x20 ADD SWAP1 DUP2 MSTORE PUSH1 0x20 ADD PUSH0 KECCAK256 SLOAD DUP2 MSTORE PUSH1 0x20 ADD SWAP1 DUP2 MSTORE PUSH1 0x20 ADD PUSH0 KECCAK256 PUSH1 0x1 ADD PUSH0 SWAP1 SLOAD SWAP1 PUSH2 0x100 EXP SWAP1 DIV PUSH20 0xFFFFFFFFFFFFFFFFFFFFFFFFFFFFFFFFFFFFFFFF AND PUSH20 0xFFFFFFFFFFFFFFFFFFFFFFFFFFFFFFFFFFFFFFFF AND CALLER PUSH20 0xFFFFFFFFFFFFFFFFFFFFFFFFFFFFFFFFFFFFFFFF AND EQ PUSH2 0x955 JUMPI PUSH0 DUP1 REVERT JUMPDEST PUSH0 DUP1 SHL DUP2 SUB PUSH2 0x962 JUMPI PUSH0 DUP1 REVERT JUMPDEST PUSH2 0x96B DUP2 PUSH2 0x985 JUMP JUMPDEST PUSH1 0x6 PUSH0 DUP2 SLOAD DUP1 SWAP3 SWAP2 SWAP1 PUSH2 0x97D SWAP1 PUSH2 0xFD5 JUMP JUMPDEST SWAP2 SWAP1 POP SSTORE POP POP JUMP JUMPDEST DUP1 PUSH1 0x1 PUSH0 CALLER PUSH20 0xFFFFFFFFFFFFFFFFFFFFFFFFFFFFFFFFFFFFFFFF AND PUSH20 0xFFFFFFFFFFFFFFFFFFFFFFFFFFFFFFFFFFFFFFFF AND DUP2 MSTORE PUSH1 0x20 ADD SWAP1 DUP2 MSTORE PUSH1 0x20 ADD PUSH0 KECCAK256 PUSH0 ADD DUP2 SWAP1 SSTORE POP PUSH0 PUSH1 0x1 PUSH0 CALLER PUSH20 0xFFFFFFFFFFFFFFFFFFFFFFFFFFFFFFFFFFFFFFFF AND PUSH20 0xFFFFFFFFFFFFFFFFFFFFFFFFFFFFFFFFFFFFFFFF AND DUP2 MSTORE PUSH1 0x20 ADD SWAP1 DUP2 MSTORE PUSH1 0x20 ADD PUSH0 KECCAK256 PUSH1 0x1 ADD PUSH0 PUSH2 0x100 EXP DUP2 SLOAD DUP2 PUSH1 0xFF MUL NOT AND SWAP1 DUP4 ISZERO ISZERO MUL OR SWAP1 SSTORE POP PUSH32 0xC38ED506EDC9404E14F0BB335345918B4D4798A17868C1948C4D3E3F8ADD6440 CALLER PUSH1 0x1 PUSH0 CALLER PUSH20 0xFFFFFFFFFFFFFFFFFFFFFFFFFFFFFFFFFFFFFFFF AND PUSH20 0xFFFFFFFFFFFFFFFFFFFFFFFFFFFFFFFFFFFFFFFF AND DUP2 MSTORE PUSH1 0x20 ADD SWAP1 DUP2 MSTORE PUSH1 0x20 ADD PUSH0 KECCAK256 PUSH0 ADD SLOAD PUSH1 0x40 MLOAD PUSH2 0xA90 SWAP3 SWAP2 SWAP1 PUSH2 0x121E JUMP JUMPDEST PUSH1 0x40 MLOAD DUP1 SWAP2 SUB SWAP1 LOG1 POP JUMP JUMPDEST PUSH0 PUSH1 0x2 PUSH0 DUP1 DUP2 MSTORE PUSH1 0x20 ADD SWAP1 DUP2 MSTORE PUSH1 0x20 ADD PUSH0 KECCAK256 PUSH0 ADD SLOAD SWAP1 POP PUSH0 PUSH1 0x2 PUSH0 PUSH1 0x1 DUP2 MSTORE PUSH1 0x20 ADD SWAP1 DUP2 MSTORE PUSH1 0x20 ADD PUSH0 KECCAK256 PUSH0 ADD SLOAD SWAP1 POP PUSH0 PUSH1 0x2 PUSH0 DUP1 DUP2 MSTORE PUSH1 0x20 ADD SWAP1 DUP2 MSTORE PUSH1 0x20 ADD PUSH0 KECCAK256 PUSH1 0x1 ADD PUSH0 SWAP1 SLOAD SWAP1 PUSH2 0x100 EXP SWAP1 DIV PUSH20 0xFFFFFFFFFFFFFFFFFFFFFFFFFFFFFFFFFFFFFFFF AND SWAP1 POP PUSH0 PUSH1 0x2 PUSH0 PUSH1 0x1 DUP2 MSTORE PUSH1 0x20 ADD SWAP1 DUP2 MSTORE PUSH1 0x20 ADD PUSH0 KECCAK256 PUSH1 0x1 ADD PUSH0 SWAP1 SLOAD SWAP1 PUSH2 0x100 EXP SWAP1 DIV PUSH20 0xFFFFFFFFFFFFFFFFFFFFFFFFFFFFFFFFFFFFFFFF AND SWAP1 POP DUP3 PUSH1 0x3 PUSH1 0x1 DUP7 PUSH2 0xB49 SWAP2 SWAP1 PUSH2 0xFA2 JUMP JUMPDEST PUSH2 0xB53 SWAP2 SWAP1 PUSH2 0x1272 JUMP JUMPDEST SUB PUSH2 0xBA3 JUMPI DUP1 PUSH20 0xFFFFFFFFFFFFFFFFFFFFFFFFFFFFFFFFFFFFFFFF AND PUSH2 0x8FC PUSH1 0x5 SLOAD SWAP1 DUP2 ISZERO MUL SWAP1 PUSH1 0x40 MLOAD PUSH0 PUSH1 0x40 MLOAD DUP1 DUP4 SUB DUP2 DUP6 DUP9 DUP9 CALL SWAP4 POP POP POP POP ISZERO DUP1 ISZERO PUSH2 0xB9D JUMPI RETURNDATASIZE PUSH0 DUP1 RETURNDATACOPY RETURNDATASIZE PUSH0 REVERT JUMPDEST POP PUSH2 0xCB3 JUMP JUMPDEST DUP4 PUSH1 0x3 PUSH1 0x1 DUP6 PUSH2 0xBB3 SWAP2 SWAP1 PUSH2 0xFA2 JUMP JUMPDEST PUSH2 0xBBD SWAP2 SWAP1 PUSH2 0x1272 JUMP JUMPDEST SUB PUSH2 0xC0D JUMPI DUP2 PUSH20 0xFFFFFFFFFFFFFFFFFFFFFFFFFFFFFFFFFFFFFFFF AND PUSH2 0x8FC PUSH1 0x5 SLOAD SWAP1 DUP2 ISZERO MUL SWAP1 PUSH1 0x40 MLOAD PUSH0 PUSH1 0x40 MLOAD DUP1 DUP4 SUB DUP2 DUP6 DUP9 DUP9 CALL SWAP4 POP POP POP POP ISZERO DUP1 ISZERO PUSH2 0xC07 JUMPI RETURNDATASIZE PUSH0 DUP1 RETURNDATACOPY RETURNDATASIZE PUSH0 REVERT JUMPDEST POP PUSH2 0xCB2 JUMP JUMPDEST DUP2 PUSH20 0xFFFFFFFFFFFFFFFFFFFFFFFFFFFFFFFFFFFFFFFF AND PUSH2 0x8FC PUSH1 0x2 PUSH1 0x5 SLOAD PUSH2 0xC36 SWAP2 SWAP1 PUSH2 0x12A2 JUMP JUMPDEST SWAP1 DUP2 ISZERO MUL SWAP1 PUSH1 0x40 MLOAD PUSH0 PUSH1 0x40 MLOAD DUP1 DUP4 SUB DUP2 DUP6 DUP9 DUP9 CALL SWAP4 POP POP POP POP ISZERO DUP1 ISZERO PUSH2 0xC5E JUMPI RETURNDATASIZE PUSH0 DUP1 RETURNDATACOPY RETURNDATASIZE PUSH0 REVERT JUMPDEST POP DUP1 PUSH20 0xFFFFFFFFFFFFFFFFFFFFFFFFFFFFFFFFFFFFFFFF AND PUSH2 0x8FC PUSH1 0x2 PUSH1 0x5 SLOAD PUSH2 0xC88 SWAP2 SWAP1 PUSH2 0x12A2 JUMP JUMPDEST SWAP1 DUP2 ISZERO MUL SWAP1 PUSH1 0x40 MLOAD PUSH0 PUSH1 0x40 MLOAD DUP1 DUP4 SUB DUP2 DUP6 DUP9 DUP9 CALL SWAP4 POP POP POP POP ISZERO DUP1 ISZERO PUSH2 0xCB0 JUMPI RETURNDATASIZE PUSH0 DUP1 RETURNDATACOPY RETURNDATASIZE PUSH0 REVERT JUMPDEST POP JUMPDEST JUMPDEST POP POP POP POP JUMP JUMPDEST PUSH0 DUP2 SWAP1 POP SWAP2 SWAP1 POP JUMP JUMPDEST PUSH2 0xCCB DUP2 PUSH2 0xCB9 JUMP JUMPDEST DUP3 MSTORE POP POP JUMP JUMPDEST PUSH0 PUSH1 0x20 DUP3 ADD SWAP1 POP PUSH2 0xCE4 PUSH0 DUP4 ADD DUP5 PUSH2 0xCC2 JUMP JUMPDEST SWAP3 SWAP2 POP POP JUMP JUMPDEST PUSH0 DUP1 REVERT JUMPDEST PUSH2 0xCF7 DUP2 PUSH2 0xCB9 JUMP JUMPDEST DUP2 EQ PUSH2 0xD01 JUMPI PUSH0 DUP1 REVERT JUMPDEST POP JUMP JUMPDEST PUSH0 DUP2 CALLDATALOAD SWAP1 POP PUSH2 0xD12 DUP2 PUSH2 0xCEE JUMP JUMPDEST SWAP3 SWAP2 POP POP JUMP JUMPDEST PUSH0 DUP1 PUSH1 0x40 DUP4 DUP6 SUB SLT ISZERO PUSH2 0xD2E JUMPI PUSH2 0xD2D PUSH2 0xCEA JUMP JUMPDEST JUMPDEST PUSH0 PUSH2 0xD3B DUP6 DUP3 DUP7 ADD PUSH2 0xD04 JUMP JUMPDEST SWAP3 POP POP PUSH1 0x20 PUSH2 0xD4C DUP6 DUP3 DUP7 ADD PUSH2 0xD04 JUMP JUMPDEST SWAP2 POP POP SWAP3 POP SWAP3 SWAP1 POP JUMP JUMPDEST PUSH0 PUSH1 0xFF DUP3 AND SWAP1 POP SWAP2 SWAP1 POP JUMP JUMPDEST PUSH2 0xD6B DUP2 PUSH2 0xD56 JUMP JUMPDEST DUP3 MSTORE POP POP JUMP JUMPDEST PUSH0 PUSH1 0x20 DUP3 ADD SWAP1 POP PUSH2 0xD84 PUSH0 DUP4 ADD DUP5 PUSH2 0xD62 JUMP JUMPDEST SWAP3 SWAP2 POP POP JUMP JUMPDEST PUSH0 DUP2 SWAP1 POP SWAP2 SWAP1 POP JUMP JUMPDEST PUSH2 0xD9C DUP2 PUSH2 0xD8A JUMP JUMPDEST DUP3 MSTORE POP POP JUMP JUMPDEST PUSH0 PUSH1 0x20 DUP3 ADD SWAP1 POP PUSH2 0xDB5 PUSH0 DUP4 ADD DUP5 PUSH2 0xD93 JUMP JUMPDEST SWAP3 SWAP2 POP POP JUMP JUMPDEST PUSH0 PUSH20 0xFFFFFFFFFFFFFFFFFFFFFFFFFFFFFFFFFFFFFFFF DUP3 AND SWAP1 POP SWAP2 SWAP1 POP JUMP JUMPDEST PUSH0 PUSH2 0xDE4 DUP3 PUSH2 0xDBB JUMP JUMPDEST SWAP1 POP SWAP2 SWAP1 POP JUMP JUMPDEST PUSH2 0xDF4 DUP2 PUSH2 0xDDA JUMP JUMPDEST DUP2 EQ PUSH2 0xDFE JUMPI PUSH0 DUP1 REVERT JUMPDEST POP JUMP JUMPDEST PUSH0 DUP2 CALLDATALOAD SWAP1 POP PUSH2 0xE0F DUP2 PUSH2 0xDEB JUMP JUMPDEST SWAP3 SWAP2 POP POP JUMP JUMPDEST PUSH0 PUSH1 0x20 DUP3 DUP5 SUB SLT ISZERO PUSH2 0xE2A JUMPI PUSH2 0xE29 PUSH2 0xCEA JUMP JUMPDEST JUMPDEST PUSH0 PUSH2 0xE37 DUP5 DUP3 DUP6 ADD PUSH2 0xE01 JUMP JUMPDEST SWAP2 POP POP SWAP3 SWAP2 POP POP JUMP JUMPDEST PUSH0 DUP2 ISZERO ISZERO SWAP1 POP SWAP2 SWAP1 POP JUMP JUMPDEST PUSH2 0xE54 DUP2 PUSH2 0xE40 JUMP JUMPDEST DUP3 MSTORE POP POP JUMP JUMPDEST PUSH0 PUSH1 0x40 DUP3 ADD SWAP1 POP PUSH2 0xE6D PUSH0 DUP4 ADD DUP6 PUSH2 0xD93 JUMP JUMPDEST PUSH2 0xE7A PUSH1 0x20 DUP4 ADD DUP5 PUSH2 0xE4B JUMP JUMPDEST SWAP4 SWAP3 POP POP POP JUMP JUMPDEST PUSH2 0xE8A DUP2 PUSH2 0xD8A JUMP JUMPDEST DUP2 EQ PUSH2 0xE94 JUMPI PUSH0 DUP1 REVERT JUMPDEST POP JUMP JUMPDEST PUSH0 DUP2 CALLDATALOAD SWAP1 POP PUSH2 0xEA5 DUP2 PUSH2 0xE81 JUMP JUMPDEST SWAP3 SWAP2 POP POP JUMP JUMPDEST PUSH0 DUP1 PUSH1 0x40 DUP4 DUP6 SUB SLT ISZERO PUSH2 0xEC1 JUMPI PUSH2 0xEC0 PUSH2 0xCEA JUMP JUMPDEST JUMPDEST PUSH0 PUSH2 0xECE DUP6 DUP3 DUP7 ADD PUSH2 0xE97 JUMP JUMPDEST SWAP3 POP POP PUSH1 0x20 PUSH2 0xEDF DUP6 DUP3 DUP7 ADD PUSH2 0xE97 JUMP JUMPDEST SWAP2 POP POP SWAP3 POP SWAP3 SWAP1 POP JUMP JUMPDEST PUSH0 PUSH1 0x20 DUP3 DUP5 SUB SLT ISZERO PUSH2 0xEFE JUMPI PUSH2 0xEFD PUSH2 0xCEA JUMP JUMPDEST JUMPDEST PUSH0 PUSH2 0xF0B DUP5 DUP3 DUP6 ADD PUSH2 0xD04 JUMP JUMPDEST SWAP2 POP POP SWAP3 SWAP2 POP POP JUMP JUMPDEST PUSH2 0xF1D DUP2 PUSH2 0xDDA JUMP JUMPDEST DUP3 MSTORE POP POP JUMP JUMPDEST PUSH0 PUSH1 0x40 DUP3 ADD SWAP1 POP PUSH2 0xF36 PUSH0 DUP4 ADD DUP6 PUSH2 0xCC2 JUMP JUMPDEST PUSH2 0xF43 PUSH1 0x20 DUP4 ADD DUP5 PUSH2 0xF14 JUMP JUMPDEST SWAP4 SWAP3 POP POP POP JUMP JUMPDEST PUSH0 PUSH1 0x20 DUP3 DUP5 SUB SLT ISZERO PUSH2 0xF5F JUMPI PUSH2 0xF5E PUSH2 0xCEA JUMP JUMPDEST JUMPDEST PUSH0 PUSH2 0xF6C DUP5 DUP3 DUP6 ADD PUSH2 0xE97 JUMP JUMPDEST SWAP2 POP POP SWAP3 SWAP2 POP POP JUMP JUMPDEST PUSH32 0x4E487B7100000000000000000000000000000000000000000000000000000000 PUSH0 MSTORE PUSH1 0x11 PUSH1 0x4 MSTORE PUSH1 0x24 PUSH0 REVERT JUMPDEST PUSH0 PUSH2 0xFAC DUP3 PUSH2 0xCB9 JUMP JUMPDEST SWAP2 POP PUSH2 0xFB7 DUP4 PUSH2 0xCB9 JUMP JUMPDEST SWAP3 POP DUP3 DUP3 ADD SWAP1 POP DUP1 DUP3 GT ISZERO PUSH2 0xFCF JUMPI PUSH2 0xFCE PUSH2 0xF75 JUMP JUMPDEST JUMPDEST SWAP3 SWAP2 POP POP JUMP JUMPDEST PUSH0 PUSH2 0xFDF DUP3 PUSH2 0xCB9 JUMP JUMPDEST SWAP2 POP PUSH32 0xFFFFFFFFFFFFFFFFFFFFFFFFFFFFFFFFFFFFFFFFFFFFFFFFFFFFFFFFFFFFFFFF DUP3 SUB PUSH2 0x1011 JUMPI PUSH2 0x1010 PUSH2 0xF75 JUMP JUMPDEST JUMPDEST PUSH1 0x1 DUP3 ADD SWAP1 POP SWAP2 SWAP1 POP JUMP JUMPDEST PUSH0 DUP2 PUSH1 0x60 SHL SWAP1 POP SWAP2 SWAP1 POP JUMP JUMPDEST PUSH0 PUSH2 0x1032 DUP3 PUSH2 0x101C JUMP JUMPDEST SWAP1 POP SWAP2 SWAP1 POP JUMP JUMPDEST PUSH0 PUSH2 0x1043 DUP3 PUSH2 0x1028 JUMP JUMPDEST SWAP1 POP SWAP2 SWAP1 POP JUMP JUMPDEST PUSH2 0x105B PUSH2 0x1056 DUP3 PUSH2 0xDDA JUMP JUMPDEST PUSH2 0x1039 JUMP JUMPDEST DUP3 MSTORE POP POP JUMP JUMPDEST PUSH0 DUP2 SWAP1 POP SWAP2 SWAP1 POP JUMP JUMPDEST PUSH2 0x107B PUSH2 0x1076 DUP3 PUSH2 0xD8A JUMP JUMPDEST PUSH2 0x1061 JUMP JUMPDEST DUP3 MSTORE POP POP JUMP JUMPDEST PUSH0 PUSH2 0x108C DUP3 DUP7 PUSH2 0x104A JUMP JUMPDEST PUSH1 0x14 DUP3 ADD SWAP2 POP PUSH2 0x109C DUP3 DUP6 PUSH2 0x106A JUMP JUMPDEST PUSH1 0x20 DUP3 ADD SWAP2 POP PUSH2 0x10AC DUP3 DUP5 PUSH2 0x106A JUMP JUMPDEST PUSH1 0x20 DUP3 ADD SWAP2 POP DUP2 SWAP1 POP SWAP5 SWAP4 POP POP POP POP JUMP JUMPDEST PUSH0 DUP3 DUP3 MSTORE PUSH1 0x20 DUP3 ADD SWAP1 POP SWAP3 SWAP2 POP POP JUMP JUMPDEST PUSH32 0x436F6D6D697452657665616C3A3A72657665616C416E737765723A20416C7265 PUSH0 DUP3 ADD MSTORE PUSH32 0x6164792072657665616C65640000000000000000000000000000000000000000 PUSH1 0x20 DUP3 ADD MSTORE POP JUMP JUMPDEST PUSH0 PUSH2 0x1127 PUSH1 0x2C DUP4 PUSH2 0x10BD JUMP JUMPDEST SWAP2 POP PUSH2 0x1132 DUP3 PUSH2 0x10CD JUMP JUMPDEST PUSH1 0x40 DUP3 ADD SWAP1 POP SWAP2 SWAP1 POP JUMP JUMPDEST PUSH0 PUSH1 0x20 DUP3 ADD SWAP1 POP DUP2 DUP2 SUB PUSH0 DUP4 ADD MSTORE PUSH2 0x1154 DUP2 PUSH2 0x111B JUMP JUMPDEST SWAP1 POP SWAP2 SWAP1 POP JUMP JUMPDEST PUSH32 0x436F6D6D697452657665616C3A3A72657665616C416E737765723A2052657665 PUSH0 DUP3 ADD MSTORE PUSH32 0x616C6564206861736820646F6573206E6F74206D6174636820636F6D6D697400 PUSH1 0x20 DUP3 ADD MSTORE POP JUMP JUMPDEST PUSH0 PUSH2 0x11B5 PUSH1 0x3F DUP4 PUSH2 0x10BD JUMP JUMPDEST SWAP2 POP PUSH2 0x11C0 DUP3 PUSH2 0x115B JUMP JUMPDEST PUSH1 0x40 DUP3 ADD SWAP1 POP SWAP2 SWAP1 POP JUMP JUMPDEST PUSH0 PUSH1 0x20 DUP3 ADD SWAP1 POP DUP2 DUP2 SUB PUSH0 DUP4 ADD MSTORE PUSH2 0x11E2 DUP2 PUSH2 0x11A9 JUMP JUMPDEST SWAP1 POP SWAP2 SWAP1 POP JUMP JUMPDEST PUSH0 PUSH1 0x60 DUP3 ADD SWAP1 POP PUSH2 0x11FC PUSH0 DUP4 ADD DUP7 PUSH2 0xF14 JUMP JUMPDEST PUSH2 0x1209 PUSH1 0x20 DUP4 ADD DUP6 PUSH2 0xD93 JUMP JUMPDEST PUSH2 0x1216 PUSH1 0x40 DUP4 ADD DUP5 PUSH2 0xD93 JUMP JUMPDEST SWAP5 SWAP4 POP POP POP POP JUMP JUMPDEST PUSH0 PUSH1 0x40 DUP3 ADD SWAP1 POP PUSH2 0x1231 PUSH0 DUP4 ADD DUP6 PUSH2 0xF14 JUMP JUMPDEST PUSH2 0x123E PUSH1 0x20 DUP4 ADD DUP5 PUSH2 0xD93 JUMP JUMPDEST SWAP4 SWAP3 POP POP POP JUMP JUMPDEST PUSH32 0x4E487B7100000000000000000000000000000000000000000000000000000000 PUSH0 MSTORE PUSH1 0x12 PUSH1 0x4 MSTORE PUSH1 0x24 PUSH0 REVERT JUMPDEST PUSH0 PUSH2 0x127C DUP3 PUSH2 0xCB9 JUMP JUMPDEST SWAP2 POP PUSH2 0x1287 DUP4 PUSH2 0xCB9 JUMP JUMPDEST SWAP3 POP DUP3 PUSH2 0x1297 JUMPI PUSH2 0x1296 PUSH2 0x1245 JUMP JUMPDEST JUMPDEST DUP3 DUP3 MOD SWAP1 POP SWAP3 SWAP2 POP POP JUMP JUMPDEST PUSH0 PUSH2 0x12AC DUP3 PUSH2 0xCB9 JUMP JUMPDEST SWAP2 POP PUSH2 0x12B7 DUP4 PUSH2 0xCB9 JUMP JUMPDEST SWAP3 POP DUP3 PUSH2 0x12C7 JUMPI PUSH2 0x12C6 PUSH2 0x1245 JUMP JUMPDEST JUMPDEST DUP3 DUP3 DIV SWAP1 POP SWAP3 SWAP2 POP POP JUMP INVALID LOG2 PUSH5 0x6970667358 0x22 SLT KECCAK256 PUSH12 0x4E851E3CF76687F3A4FAA05D JUMPDEST SELFBALANCE CALLDATALOAD 0xF6 SUB SDIV NUMBER PUSH7 0x23CA17B971BA7C 0xAB GAS PUSH10 0x8B64736F6C6343000818 STOP CALLER "
				},
				"gasEstimates": {
					"creation": {
						"codeDepositCost": "974400",
						"executionCost": "45298",
						"totalCost": "1019698"
					},
					"external": {
						"addPlayer()": "infinite",
						"commit(bytes32)": "infinite",
						"commitChoice(bytes32)": "infinite",
						"commits(address)": "5090",
						"getChoiceHash(uint256,uint256)": "infinite",
						"getSaltedHash(bytes32,bytes32)": "infinite",
						"max()": "2508",
						"numInput()": "2449",
						"numPlayer()": "2492",
						"numRevealed()": "2514",
						"player(uint256)": "infinite",
						"playerIdx(address)": "2824",
						"revealAnswer(bytes32,bytes32)": "infinite",
						"revealChoice(uint256,uint256)": "infinite",
						"reward()": "2471"
					},
					"internal": {
						"_checkWinnerAndPay()": "infinite"
					}
				},
				"methodIdentifiers": {
					"addPlayer()": "27b5db8a",
					"commit(bytes32)": "f14fcbc8",
					"commitChoice(bytes32)": "e05b10c0",
					"commits(address)": "7b43a8e6",
					"getChoiceHash(uint256,uint256)": "7661f2b1",
					"getSaltedHash(bytes32,bytes32)": "8dddbf36",
					"max()": "6ac5db19",
					"numInput()": "086f7815",
					"numPlayer()": "90d5d0c3",
					"numRevealed()": "76d4192c",
					"player(uint256)": "9e0551c6",
					"playerIdx(address)": "ae73ea65",
					"revealAnswer(bytes32,bytes32)": "de8e9033",
					"revealChoice(uint256,uint256)": "41a807e1",
					"reward()": "228cb733"
				}
			},
			"storageLayout": {
				"storage": [
					{
						"astId": 4,
						"contract": "RPS.sol:RPS",
						"label": "max",
						"offset": 0,
						"slot": "0",
						"type": "t_uint8"
					},
					{
						"astId": 14,
						"contract": "RPS.sol:RPS",
						"label": "commits",
						"offset": 0,
						"slot": "1",
						"type": "t_mapping(t_address,t_struct(Commit)9_storage)"
					},
					{
						"astId": 146,
						"contract": "RPS.sol:RPS",
						"label": "player",
						"offset": 0,
						"slot": "2",
						"type": "t_mapping(t_uint256,t_struct(Player)141_storage)"
					},
					{
						"astId": 150,
						"contract": "RPS.sol:RPS",
						"label": "playerIdx",
						"offset": 0,
						"slot": "3",
						"type": "t_mapping(t_address,t_uint256)"
					},
					{
						"astId": 153,
						"contract": "RPS.sol:RPS",
						"label": "numPlayer",
						"offset": 0,
						"slot": "4",
						"type": "t_uint256"
					},
					{
						"astId": 156,
						"contract": "RPS.sol:RPS",
						"label": "reward",
						"offset": 0,
						"slot": "5",
						"type": "t_uint256"
					},
					{
						"astId": 159,
						"contract": "RPS.sol:RPS",
						"label": "numInput",
						"offset": 0,
						"slot": "6",
						"type": "t_uint256"
					},
					{
						"astId": 162,
						"contract": "RPS.sol:RPS",
						"label": "numRevealed",
						"offset": 0,
						"slot": "7",
						"type": "t_uint256"
					}
				],
				"types": {
					"t_address": {
						"encoding": "inplace",
						"label": "address",
						"numberOfBytes": "20"
					},
					"t_bool": {
						"encoding": "inplace",
						"label": "bool",
						"numberOfBytes": "1"
					},
					"t_bytes32": {
						"encoding": "inplace",
						"label": "bytes32",
						"numberOfBytes": "32"
					},
					"t_mapping(t_address,t_struct(Commit)9_storage)": {
						"encoding": "mapping",
						"key": "t_address",
						"label": "mapping(address => struct CommitReveal.Commit)",
						"numberOfBytes": "32",
						"value": "t_struct(Commit)9_storage"
					},
					"t_mapping(t_address,t_uint256)": {
						"encoding": "mapping",
						"key": "t_address",
						"label": "mapping(address => uint256)",
						"numberOfBytes": "32",
						"value": "t_uint256"
					},
					"t_mapping(t_uint256,t_struct(Player)141_storage)": {
						"encoding": "mapping",
						"key": "t_uint256",
						"label": "mapping(uint256 => struct RPS.Player)",
						"numberOfBytes": "32",
						"value": "t_struct(Player)141_storage"
					},
					"t_struct(Commit)9_storage": {
						"encoding": "inplace",
						"label": "struct CommitReveal.Commit",
						"members": [
							{
								"astId": 6,
								"contract": "RPS.sol:RPS",
								"label": "commit",
								"offset": 0,
								"slot": "0",
								"type": "t_bytes32"
							},
							{
								"astId": 8,
								"contract": "RPS.sol:RPS",
								"label": "revealed",
								"offset": 0,
								"slot": "1",
								"type": "t_bool"
							}
						],
						"numberOfBytes": "64"
					},
					"t_struct(Player)141_storage": {
						"encoding": "inplace",
						"label": "struct RPS.Player",
						"members": [
							{
								"astId": 138,
								"contract": "RPS.sol:RPS",
								"label": "choice",
								"offset": 0,
								"slot": "0",
								"type": "t_uint256"
							},
							{
								"astId": 140,
								"contract": "RPS.sol:RPS",
								"label": "addr",
								"offset": 0,
								"slot": "1",
								"type": "t_address"
							}
						],
						"numberOfBytes": "64"
					},
					"t_uint256": {
						"encoding": "inplace",
						"label": "uint256",
						"numberOfBytes": "32"
					},
					"t_uint8": {
						"encoding": "inplace",
						"label": "uint8",
						"numberOfBytes": "1"
					}
				}
			},
			"userdoc": {
				"kind": "user",
				"methods": {},
				"version": 1
			}
		}
	}
}